:020000040800F2
:1000000050770120C101000891B20008B98D0008A5
:1000100035B10008D11700080DEC00080000000001
:10002000000000000000000000000000E5010008E2
:10003000FD330008000000007D0200088D0200086A
:10004000DB010008DB010008DB010008DB01000820
:10005000DB010008DB010008DB010008DB01000810
:10006000DB010008DB010008DB010008DB01000800
:10007000DB010008DB010008DB010008DB010008F0
:10008000DB010008DB010008DB010008DB010008E0
:10009000D5170008E5170008DB010008CD3500087A
:1000A000DB010008DB010008DB010008DB010008C0
:1000B000DB010008DB010008B1D80008DB01000803
:1000C000DB010008DB010008DB010008DB010008A0
:1000D000DB010008EDEB0008FDEB0008DB01000888
:1000E000B1350008DB010008DB010008DB01000876
:1000F000DB010008BDDF0008DB010008DB010008B0
:10010000DB010008DB010008A1D90008DB010008C1
:10011000DB010008DB010008DB010008DB0100084F
:10012000DB010008DB010008DB010008DB0100083F
:10013000DB010008DB010008DB010008DB0100082F
:10014000F517000805180008DB010008DB010008AE
:10015000DB010008DB010008DB010008DB0100080F
:10016000DB010008DB010008DB010008DB010008FF
:10017000DB010008DB010008DB01000800000000D3
:10018000DB010008DB010008DB010008DB010008DF
:10019000DB010008DB010008DB010008DB010008CF
:1001A0000000000000000000DB010008DFF80CD0B8
:1001B00000F0C8FB00480047E945010850770120DE
:1001C0000648804706480047FEE7FEE7FEE7FEE7F1
:1001D000FEE7FEE7FEE7FEE7FEE7FEE781D2000866
:1001E000AD0100081EF0040F0CBFEFF30880EFF321
:1001F0000980816911F8021C91BB01B590E80F10CC
:10020000E047BDE800508CE80300244B93E806006B
:10021000914208BF704741B91EF0100F10D120491C
:10022000086820F0010008600AE02CE9F00F1EF0D9
:10023000100F08BF2CED108AC1F838C081F822E0F9
:100240001A6092F82210906B61F0FF0E1EF0100FF2
:1002500008BFB0EC108AB0E8F00F80F3098870474F
:10026000104A13689942FAD801B552F821C00FC854
:10027000E047BDE80050CCF80000704701B514F02D
:1002800007FFBDE80140EFF3098CBEE701B515F0AB
:100290004BFCBDE80140EFF3098CB6E728020020D3
:1002A00034EF00E0C07201082DE9F05F0546002040
:1002B00092469B4688460646814640241BE02846D7
:1002C00041464746224600F087FA53465A46C01A2E
:1002D000914110D311461846224600F06EFA2D1AAD
:1002E00067EB01084F4622460120002100F065FA25
:1002F00017EB00094E41201EA4F10104DFDC484643
:1003000031462A464346BDE8F09F2DE9F0410024DE
:10031000061B254671F1000605DA01240027D0EB03
:10032000070067EB0101161E73F1000605DA0027CE
:10033000D2EB0702012567EB0303FFF7B5FF864603
:100340000E4617469C46AC4204D00025D0EB050E65
:1003500065EB010624B10020D2EB000760EB030C33
:10036000704631463A466346BDE8F08140EA0103F3
:100370009B0703D009E008C9121F08C0042AFAD25B
:1003800003E011F8013B00F8013B521EF9D270471F
:10039000D2B201E000F8012B491EFBD270470022C7
:1003A000F6E710B513460A4604461946FFF7F0FF74
:1003B000204610BD2DE9FE4F804681EA0300C00FA4
:1003C0000C46009021F0004123F00045B8EB0200FC
:1003D000A94105D24046214690461C460B4602469E
:1003E00023F00040104347D0270DC7F30A00C3F3A2
:1003F0000A510290401A019040286BDAC3F31300AF
:1004000040F4801B0098924620B10023D2EB030AEF
:1004100063EB0B0B01985946C0F14002504600F0C7
:10042000CCF906460D4650465946019A00F0E4F9CB
:1004300010EB08006141002487EA115284EAE77357
:100440001A4340D0009A62B3019A012A4FEA075238
:1004500015DC001B61EB02014FF0004202EA07527B
:10046000CDE90042001C41F5801132462B4600F0D8
:100470001BFA03B0BDE8F08F40462146F9E7001BA8
:1004800061EB0201001C41F5801300185B4120184C
:10049000A2F5001747EB030140EAD570B6196D418C
:1004A00011E06D084FEA360645EAC0754FEA07527B
:1004B000001B61EB0201001C41F5801149084FEA65
:1004C00030000019514132462B4603B0BDE8F04FD1
:1004D00000F0DBB90098012240000023D0EB0202BB
:1004E00063EBE073009821464FEAE074B8EB00003C
:1004F00061EB0401E9E783F000435BE781F0004131
:1005000058E72DE9FE4F81EA030404F0004421F08E
:10051000004100944FF0000B23F0004350EA010427
:100520005ED052EA03045BD0C3F30A54C1F30A5508
:100530002C44A4F2F3340194A0FB0254C1F3130140
:1005400041F48011C3F3130343F4801301FB02440D
:1005500000FB034E840A970A44EA815447EA835712
:10056000A4FB076802958D0A05FB07854FEA932CCB
:1005700004FB0C542705029D4FEA065847EA16373C
:10058000B5EB08056EEB070C870E920E47EA811754
:1005900042EA8312A7FB0201B6EB0B0164EB0004F5
:1005A0002B0D43EA0C335E1844EB1C50DA465146DF
:1005B000E7FB0201C5F313044FEA0B3343EA14537C
:1005C0004FEA0432019C43EA0603A4F10C040294AE
:1005D000009CCDE900B400F067F903B0BDE8F08FEE
:1005E00000200146F9E72DE9F04D81EA030404F00B
:1005F000004B21F0004514464FF0000A23F0004163
:1006000050EA050220D054EA01021DD0C5F30A5772
:100610000246C5F31303C1F31300C1F30A5640F4B5
:10062000801543F48013A7EB0608101BD64608F28A
:10063000FD3873EB050002D308F1010801E09218C0
:100640005B41B8F1000F03DA00200146BDE8F08DF0
:1006500000204FF48011064684460EE0171B73EB12
:10066000050705D3121B63EB050306434CEA010C97
:1006700049084FEA300092185B4150EA0107EDD17A
:1006800052EA030012D082EA040083EA050108431B
:1006900005D0101BAB4106D20122002306E0002248
:1006A0004FF0004302E06FF0010253101AEB060016
:1006B0004CEB085110EB0A0041EB0B01BDE8F04D8B
:1006C00000F0E3B830B5041E71F1000404DB4FF014
:1006D0000044404264EB0101141E73F1000405DB89
:1006E0001C464FF00043524263EB0403801A9941C9
:1006F00001D3012030BD002030BD30B5041E71F1A2
:10070000000404DB4FF00044404264EB0101141E7E
:1007100073F1000405DB1C464FF00043524263EBCB
:100720000403101A8B4101D3012030BD002030BDDD
:1007300020F00040C20DC0F3160040F400007F2AF4
:1007400002DA0020014670470021962A03DCC2F13C
:100750009602D0407047963A00F02FB800F0004261
:1007600030F000400AD0C10D01F56071C0F31600F1
:1007700042EA0151C2084007114370470020014678
:10078000704701F0004330B421F0004150EA01020B
:1007900006D00A0DA2F56072C1F31301002A02DC33
:1007A00030BC00207047440F44EAC104C100E01887
:1007B00030BC00EBC25000F031B8202A04DB203AF4
:1007C00000FA02F1002070479140C2F1200320FAA4
:1007D00003F3194390407047202A04DB203A21FAA2
:1007E00002F00021704721FA02F3D040C2F120024A
:1007F0009140084319467047202A06DBCB17203A60
:1008000041FA02F043EAE07306E041FA02F3D04015
:10081000C2F1200291400843194670470029A8BF41
:100820007047401C490008BF20F00100704710B419
:10083000B0FA80FC00FA0CF050EA010404BF10BCCE
:10084000704749B1CCF1200421FA04F411FA0CF1FB
:1008500018BF012121430843A3EB0C01CB1D4FEA34
:1008600000614FEA102042BF002010BC704700EB2F
:10087000C35010440029A4BF10BC7047401C49005D
:1008800008BF20F0010010BC704710B5141E73F1B2
:10089000000408DA401C41F1000192185B411A4340
:1008A00001D120F0010010BD2DE9F04D92469B468C
:1008B00011B1B1FA81F202E0B0FA80F22032904632
:1008C000FFF77BFF04460F4640EA0A0041EA0B01AE
:1008D00053465A46084313D0114653EA010019D033
:1008E000C8F140025046FFF777FF05460E465046D6
:1008F00059464246FFF761FF084305D0012004E056
:1009000020463946BDE8F08D0020054346EAE076F2
:100910002C4337430A986305E40AA0EB0800002241
:10092000FD0A44EA47540A3002D500200146E9E7AF
:10093000010510196941DDE9084500196941BDE863
:10094000F04DA2E7064C074D06E0E06840F00103D9
:1009500094E8070098471034AC42F6D3FFF72AFC1E
:10096000B0730108D073010870B58C1810F8015BE2
:1009700015F0070301D110F8013B2A1106D110F838
:10098000012B03E010F8016B01F8016B5B1EF9D13C
:100990002B0705D40023521E0DD401F8013BFAE7C2
:1009A00010F8013BCB1A921C03E013F8015B01F82D
:1009B000015B521EF9D5A142D8D3002070BD0000C2
:1009C00080B584B00A4603908DF80B109DF80B009B
:1009D0008DF80A0000208DF8090003986946FF236E
:1009E0000B600DF10A010DF109034FF0010C0192AA
:1009F0001A46634607F072F804B080BD80B584B033
:100A000013468C4603908DF80B108DF80A209DF844
:100A10000B009DF80A1001EB00108DF809000398F7
:100A20009DF8092001210193CDF800C000F002F8E3
:100A300004B080BD70B58EB013468C460D908DF815
:100A400033108DF8322000208DF83000ADF82E00E4
:100A50000DF12E018A1C8DF82D004FF0500E8DF8EF
:100A60002CE09DF82CE09DF833404EEA040E8DF802
:100A70002CE09DF82CE08DF82EE001F1010E8DF8B0
:100A80002F009DF832008DF830000D986C46FF2540
:100A900025600DF12D0401260A9222460993334662
:100AA000CDF820C0CDF81CE006950594049607F01B
:100AB00015F80D996A46069B13600390084607993E
:100AC000059A049B07F00AF80D996A46069B136085
:100AD000029008460A99059A049B06F0FFFF0EB0A3
:100AE00070BD000089B08C460890ADF81E100692CB
:100AF000059300208DF813008DF812008DF8110079
:100B00008DF8100003908B218DF810100699059A2E
:100B100012889DF810308B5405990A8801320A809A
:100B20000290FFE70298072800F38080FFE7029811
:100B3000012101FA00F08DF8070045F22070C2F2A1
:100B4000010080799DF8071008426AD0FFE745F25E
:100B50001060C2F2000000880090FFE70098BDF826
:100B60001E10043988425BDAFFE708980099405C60
:100B70008DF812009DF81200012805DBFFE79DF8B3
:100B80001200052820DBFFE74FF0FF3003900698A6
:100B9000059909889DF81220425405980188013171
:100BA0000180069805990988039A425005980188A2
:100BB000043101809DF81200FF2804D0FFE70820CF
:100BC0008DF81300FFE727E09DF8120001388DF83B
:100BD0001100029841F2E411C2F2000101EB001091
:100BE0009DF8111000EB81004FF4D851405803904C
:100BF0000698059909889DF81220425405980188A5
:100C000001310180069805990988039A4250059898
:100C1000018804310180FFE70098013000909DE7D2
:100C2000FFE7FFE70298013002907BE79DF8130091
:100C300009B0704781B000208DF80300FFE79DF8F0
:100C4000030007282BDCFFE79DF8030040F2D0618A
:100C5000C2F2000101EBC002002341F830305360C2
:100C60009DF8030040F21071C2F2000141F82030FB
:100C70009DF8030040F28C61C2F2000141F820307F
:100C80009DF8030040F2AC61C2F2000141F820304F
:100C9000FFE79DF8030001308DF80300CFE701B0B6
:100CA0007047000080B5ADF5866D00208DF82F04EB
:100CB000ADF82C04ADF82A04ADF828040AA94FF4C5
:100CC0008062089008461146FFF769FB5B208DF8AB
:100CD00028008DF8290009208DF82A0008988DF841
:100CE0002B008DF82C008DF82D008DF82E0008F0CB
:100CF0009BF8079003F018FE08998DF82F14FFE772
:100D00009DF82F04072800F35181FFE79DF82F0479
:100D100040F2D061C2F2000101EBC00251F8300094
:100D200051680843002800F09680FFE745F2303014
:100D3000C2F2000001784A1C02708DF82C109DF858
:100D40002F04012101FA00F08DF82E00A0208DF86B
:100D50002F0000208DF82700FFE79DF827001A28B4
:100D600032D8FFE79DF8270000EB400040F2C401B5
:100D7000C2F2000101EB800040689DF82F1440F2A0
:100D8000D062C2F2000252F83110084215D0FFE7DB
:100D9000BDF82C040130ADF82C049DF8270000EBC1
:100DA000400040F2C401C2F2000111F82000BDF879
:100DB0002C140AAA1144C871FFE7FFE79DF8270029
:100DC00001308DF82700C8E7BDF82C040830ADF8D5
:100DD0002A04BDF82A040AA98A1C8DF82A009DF865
:100DE0002B048DF82B00BDF82C04063080B2069041
:100DF0001046069A0591114600F09EFDADF82804B4
:100E0000BDF82804BDF82C14059A114408729DF809
:100E10002904BDF82C1411444872BDF82C04104468
:100E2000A5218172BDF82C041044C172BDF82A04BA
:100E3000043081B2104601F02BFD40F28A61C2F20B
:100E4000000101220A700021ADF82C140490104614
:100E500012F098F8FFE70020ADF82C049DF82F045D
:100E600040F28C61C2F2000151F82000002800F02D
:100E70009680FFE745F23030C2F2000001784A1C4C
:100E800002708DF82C109DF82F04012101FA00F05A
:100E90008DF82E0083208DF82F0000208DF826007D
:100EA000FFE79DF826000B2832D8FFE79DF82600C3
:100EB00000EB400040F23401C2F2000101EB80007F
:100EC00040689DF82F1440F28C62C2F2000252F882
:100ED0002110084215D0FFE7BDF82C040130ADF811
:100EE0002C049DF8260000EB400040F23401C2F2D1
:100EF000000111F82000BDF82C140AAA1144C87191
:100F0000FFE7FFE79DF8260001308DF82600C8E7CF
:100F1000BDF82C040830ADF82A04BDF82A040AA94B
:100F20008A1C8DF82A009DF82B048DF82B00BDF843
:100F30002C04063080B203901046039A02911146A9
:100F400000F0FAFCADF82804BDF82804BDF82C1414
:100F5000029A114408729DF82904BDF82C1411441A
:100F60004872BDF82C041044A5218172BDF82C04F0
:100F70001044C172BDF82A04043081B2104601F059
:100F800087FC40F28A61C2F2000101220A7000214E
:100F9000ADF82C140190104611F0F4FFFFE7FFE7C5
:100FA0009DF82F0401308DF82F04A9E60DF5866D0C
:100FB00080BD000080B582B00190FFE740F25C7018
:100FC000C2F2000000684FF0FF3114F0BDFE009047
:100FD0000098002803D1FFE702F0ACF800E0FFE73B
:100FE000012013F03BFBE9E780B584B003900020BB
:100FF000ADF80A00FFE744F26020C2F2000000787A
:1010000001284ED1FFE744F26020C2F20000002127
:1010100001700191FFE70198072825DCFFE701989F
:1010200040F24171C2F2000100220A54019840F2DC
:101030004971C2F200010A54019840F25171C2F2A2
:1010400000010A54019845F23871C2F2010121F8F9
:101050001020019842F20441C2F201010A54FFE754
:10106000019801300190D6E7FFF7E4FD44F26920D2
:10107000C2F20000002101700420032102F0AEF84A
:1010800040F2C840C2F20000036845F25C30C2F290
:10109000000040F27C61C2F20001082200F04EFF25
:1010A000FFE7BDF80A000B2806DBFFE70BF012F89C
:1010B0000020ADF80A0005E0BDF80A000130ADF8E7
:1010C0000A00FFE7642013F0C9FA94E780B5ADF594
:1010D000876DCDF834040020ADF82C040AA94FF434
:1010E0008062089008461146FFF759F95B208DF899
:1010F00028008DF8290009208DF82A0008988DF81D
:101100002B008DF82C008DF82D008DF82E00FFE7B8
:1011100040F26070C2F2000000684FF0FF3114F03E
:1011200013FECDF83004DDF83004002840F03D8295
:10113000FFE740F25970C2F200000078012809D19F
:10114000FFE7FFF7AFFD40F25970C2F20000002147
:101150000170FFE740F28A60C2F2000000780028C8
:1011600040F09E81FFE700208DF82F04FFE79DF8F7
:101170002F04072800F39381FFE79DF82F0440F226
:10118000D061C2F2000101EBC00251F83000516899
:101190000843002800F0BA80FFE79DF82F0440F2D2
:1011A000D061C2F2000101EBC002526851F8301068
:1011B00040F21073C2F2000353F82000484010437D
:1011C000002800F0A280FFE79DF82F0401210022F3
:1011D000079106920AF09EFC9DF82F0440F2D06120
:1011E000C2F2000151F8301040F21072C2F2000257
:1011F00042F8201045F23030C2F2000001784A1C5B
:1012000002708DF82C109DF82F04079901FA00F058
:101210008DF82E00A0208DF82F0006988DF827005D
:10122000FFE79DF827001A2832D8FFE79DF827002E
:1012300000EB400040F2C401C2F2000101EB80006B
:1012400040689DF82F1440F2D062C2F2000252F8BA
:101250003110084215D0FFE7BDF82C040130ADF87D
:101260002C049DF8270000EB400040F2C401C2F2BC
:10127000000111F82000BDF82C140AAA1144C8710D
:10128000FFE7FFE79DF8270001308DF82700C8E74A
:10129000BDF82C040830ADF82A04BDF82A040AA9C8
:1012A0008A1C8DF82A009DF82B048DF82B00BDF8C0
:1012B0002C04063080B205901046059A0491114620
:1012C00000F03AFBADF82804BDF82804BDF82C1452
:1012D000049A114408729DF82904BDF82C14114495
:1012E0004872BDF82C041044A5218172BDF82C046D
:1012F0001044C172BDF82A04043081B2104601F0D6
:10130000C7FA0021ADF82C14FFE7FFE70020ADF885
:101310002C049DF82F0440F28C61C2F2000151F8B8
:101320002000002800F0B480FFE79DF82F0440F271
:101330008C61C2F2000151F8201040F2AC62C2F29E
:10134000000252F82000814200F0A180FFE79DF8E2
:101350002F0400210391039A0AF0DCFB9DF82F046F
:1013600040F28C61C2F2000151F8201040F2AC62F0
:10137000C2F2000242F8201045F23030C2F2000002
:1013800001784A1C02708DF82C109DF82F04012161
:1013900001FA00F08DF82E0083208DF82F000398BD
:1013A0008DF82600FFE79DF826000B2832D8FFE7CE
:1013B0009DF8260000EB400040F23401C2F200012B
:1013C00001EB800040689DF82F1440F28C62C2F25D
:1013D000000252F82110084215D0FFE7BDF82C0496
:1013E0000130ADF82C049DF8260000EB400040F2DF
:1013F0003401C2F2000111F82000BDF82C140AAA31
:101400001144C871FFE7FFE79DF8260001308DF811
:101410002600C8E7BDF82C040830ADF82A04BDF852
:101420002A040AA98A1C8DF82A009DF82B048DF83D
:101430002B00BDF82C04063080B202901046029AB0
:101440000191114600F078FAADF82804BDF828049F
:10145000BDF82C14019A114408729DF82904BDF8B6
:101460002C1411444872BDF82C041044A52181723B
:10147000BDF82C041044C172BDF82A04043081B2B6
:10148000104601F005FA0021ADF82C14FFE7FFE744
:10149000FFE79DF82F0401308DF82F0467E683E005
:1014A00040F28A60C2F20000002101708DF82F1412
:1014B000FFE79DF82F04072875DCFFE79DF82F0450
:1014C00040F2D061C2F2000101EBC00251F83000DD
:1014D0005168084300282CD0FFE79DF82F0440F204
:1014E000D061C2F2000101EBC002526851F8301025
:1014F00040F21073C2F2000353F82000484010433A
:10150000002815D0FFE79DF82F04012100220AF0E2
:1015100001FB9DF82F0440F2D061C2F2000151F8A6
:10152000301040F21072C2F2000242F82010FFE7C1
:10153000FFE79DF82F0440F28C61C2F2000151F8E0
:101540002000002828D0FFE79DF82F0440F28C618E
:10155000C2F2000151F8201040F2AC62C2F2000267
:1015600052F82000814216D0FFE79DF82F04002199
:101570000091009A0AF0CEFA9DF82F0440F28C6197
:10158000C2F2000151F8201040F2AC62C2F2000237
:1015900042F82010FFE7FFE7FFE79DF82F04013036
:1015A0008DF82F0485E7FFE700E0FFE7012013F047
:1015B00055F8ADE580B582B001900020ADF802008D
:1015C00002F012F801F0DCF9FFE7BDF80200B0F517
:1015D0007A7F0CDBFFE70020ADF8020041F200004B
:1015E000C4F202004FF4007105F0A4F905E0BDF863
:1015F00002000130ADF80200FFE7012013F02EF8E1
:10160000E3E7000080B582B00190FFE70FF0FCFB3C
:101610000EF032FC00200090FFE70098072809DC5C
:10162000FFE79DF8000010F03BF8FFE7009801305D
:101630000090F2E711F0DAFF012013F00FF8E5E770
:1016400080B584B001468DF80F000420022202917B
:10165000114601F0C3FD40F2C840C2F20000036829
:1016600045F25C30C2F2000040F27C61C2F200013F
:10167000082200F063FC642012F0F0FF44F26A21BB
:10168000C2F2000100220A700190104604B080BD31
:1016900082B0019000208DF803008DF80200FFE772
:1016A0009DF80200032817DCFFE7019800789DF8F9
:1016B0000210C840C007002806D0FFE79DF80200CE
:1016C00001308DF8030007E0FFE7FFE79DF8020017
:1016D00001308DF80200E3E79DF8030002B0704787
:1016E00080B58CB00020ADF82E004FF6FF71ADF83C
:1016F0002C100A9011F07CFC0AF0ECFC40F6004043
:10170000C4F200004FF47A71012209920A9B11F091
:1017100001FE40F60000C4F200007D21099A099BF9
:1017200011F0F8FD45F2A040C2F200000BF0E0F924
:1017300045F2F030C2F200000BF0DAF945F29830D1
:10174000C2F200000BF0D4F9282005F0FFF9402088
:101750000BA9099A08901046089B07911946079A09
:101760000AF0DEF84221099A069010460591079A80
:101770000AF0D6F84421099A04901046079A0AF014
:10178000CFF80A99039008460899079A0AF0C8F812
:101790000DF12E020A990290084605990AF0C0F848
:1017A00040F20041C4F2020101900846099A0091FA
:1017B00011460A9A05F0D4F8022100980A9A05F019
:1017C000CFF8042100980A9A05F0CAF80CB080BD41
:1017D000FFE7FEE780B545F23430C2F2000003F0C7
:1017E000B3FE80BD80B545F23430C2F2000003F094
:1017F000ABFE80BD80B545F25C30C2F2000003F064
:10180000A3FE80BD80B545F25C30C2F2000003F05B
:101810009BFE80BD80B58AB0DDF830C0099008918C
:1018200007920693ADF816C0089820F47F30049014
:1018300006980390BDF81600ADF80A00FFE7BDF862
:101840000A0000282DD0FFE7049800F5806004907E
:10185000BDF80A00092814DBFFE709980499079AE4
:10186000039BEC464FF0080ECCF800E000F01CF8AB
:10187000BDF80A000838ADF80A0003980830039054
:101880000EE009980499079A039BBDF80AC0EE463A
:10189000CEF800C000F008F80020ADF80A00FFE71D
:1018A000CDE70AB080BD000080B586B0DDF820C06D
:1018B0000590049103920293ADF806C003980028A6
:1018C00007D1FFE7049843F20001C2F2000108606B
:1018D0000BE00398042807D1FFE7049843F20001C6
:1018E000C2F200014860FFE7FFE7039843F20001FE
:1018F000C2F2000188600020C860BDF806000861DF
:10190000FFE7059803F0E8FD022801D8FFE7F8E7B4
:10191000059845F23431C2F2000188420AD1FFE74E
:101920000598029A43F20001C2F20001012303F07C
:101930003BFBFFE706B080BD80B584B00A4603904C
:10194000ADF80A100020ADF808004FF6FF71ADF8B1
:101950000610ADF80800FFE7BDF80800BDF80A1052
:10196000884211DAFFE70398411C03910078BDF823
:10197000061000F00DF8ADF80600FFE7BDF808000E
:101980000130ADF80800E7E7BDF8060004B080BDFF
:1019900082B00A4603468DF80700ADF80410002017
:1019A000ADF80200BDF804109DF807C081EA0C01F3
:1019B000ADF80010ADF80200FFE7BDF802000728FF
:1019C0001CDCFFE7BDF80000C007002809D0FFE7D6
:1019D000BDF800004AF2010181EA5000ADF80000B4
:1019E00005E0BDF800004008ADF80000FFE7FFE7A4
:1019F000BDF802000130ADF80200DEE7BDF80000DE
:101A000002B0704780B584B001468DF80F009DF894
:101A10000F008DF80E0041F2E410C2F2000000F554
:101A2000CC5000224FF4C07302901046029A0191EC
:101A300011461A4608F00CFF9DF80E0002210CF02A
:101A400091FD04B080BD0000B0B589B08C4608900F
:101A5000ADF81E100692059300208DF813008DF846
:101A600012008DF811008DF8100003908A218DF876
:101A700010100699059A12889DF810308B5405991C
:101A80000A8801320A800290FFE70298072800F3D3
:101A9000BC80FFE70298012101FA00F08DF80700F1
:101AA00045F22070C2F2010080799DF807100842CB
:101AB00000F0A680FFE7029800EB400040F27C7146
:101AC000C2F2000101EB001141F2E412C2F2000285
:101AD00002EB001000F5CC524FF4CC53C0585368C1
:101AE000D2F808C0D2F80CE014695569C1F8FC5866
:101AF000C1F8F848C1F8F4E8C1F8F0C8C1F8EC380A
:101B0000C1F8E8089069D369D2F820C0D2F824E07F
:101B1000946AD26AC1F81429C1F81049C1F80CE9D5
:101B2000C1F808C9C1F80439C1F8000945F21060CC
:101B3000C2F2000000880090FFE70098BDF81E1078
:101B4000043988425BDAFFE708980099405C8DF819
:101B500012009DF81200012805DBFFE79DF8120036
:101B600025281FDBFFE700200390069805990988C8
:101B70009DF8122042540598018801310180069891
:101B800005990988039A425005980188043101801B
:101B90009DF81200FF2804D0FFE708208DF81300FD
:101BA000FFE728E09DF8120001388DF81100029837
:101BB00000EB400040F27C71C2F2000101EB00102A
:101BC0009DF8111000EB8100D0F8E808039006980A
:101BD000059909889DF81220425405980188013121
:101BE0000180069805990988039A42500598018852
:101BF00004310180FFE70098013000909DE7FFE786
:101C0000FFE70298013002903FE79DF8130009B00A
:101C1000B0BD00002DE9F04192B08C461190ADF8B6
:101C200042100F920E9300208DF837008DF8360089
:101C30008DF835000C908DF82F008DF82E0089213D
:101C40008DF82F100F990E9A12889DF82F308B5413
:101C50000E990A8801320A800A90FFE70A9807283D
:101C60005EDCFFE70A98012101FA00F08DF82700F9
:101C700045F22070C2F2010080799DF827100842D9
:101C800049D0FFE70A9800EB400040F27C71C2F2B5
:101C9000000101F6E80101EB00103022029111462B
:101CA000FEF77DFB0A9800EB4000029901EB001261
:101CB000030141F2E41CC2F2000C0CEB001000F531
:101CC000CC5CDCF804E0DCF80840DCF80C50DCF814
:101CD0001060DCF814704FF4CC5850F80800C8506D
:101CE00057611661D5609460C2F804E0DCF8180012
:101CF000DCF81C30DCF820E0DCF82440DCF828506C
:101D0000DCF82CC0C2F82CC095625462C2F820E006
:101D1000D3619061FFE7FFE70A9801300A909DE7E1
:101D200045F21060C2F2000000880890FFE70898B2
:101D3000BDF842100439884280F28880FFE711988C
:101D40000899405C8DF83600119808990844D0F83D
:101D500001000C909DF83600012805DBFFE79DF897
:101D60003600252821DBFFE7FF208DF82E000F9895
:101D70000E9909889DF8362042540E980188013149
:101D800001800F980E9909889DF82E2042540E98D4
:101D90000188013101809DF83600FF2804D0FFE75B
:101DA00008208DF83700FFE74CE09DF83600013839
:101DB0008DF8350000200790FFE70798072829DCF9
:101DC000FFE70798012101FA00F08DF81B0045F2AA
:101DD0002070C2F2010080799DF81B10084214D0D7
:101DE000FFE7079800EB400040F27C71C2F200016F
:101DF00001EB00109DF8351000EB810000F6E800C3
:101E0000059005980C990160FFE7FFE707980130FE
:101E10000790D2E700208DF82E000F980E990988C0
:101E20009DF8362042540E980188013101800F98A8
:101E30000E9909889DF82E2042540E980188013190
:101E40000180FFE708980530089070E79DF837009B
:101E500000286ED1FFE700200490FFE704980728D0
:101E60005BDCFFE70498012101FA00F08DF80F0018
:101E700045F22070C2F2010080799DF80F100842EF
:101E800046D0FFE7049800EB400041F2E411C2F2B3
:101E9000000101F5CC5101EB0010302201911146F7
:101EA000FEF77DFA049800EB4000019901EB001267
:101EB000030140F27C7CC2F2000C0CEB0010D0F865
:101EC000F8C8D0F8FCE8D0F8E848D0F8EC58D0F8DA
:101ED000F068D0F8F478CC50C2F814E0C2F810C022
:101EE000D76096605560D0F80039D0F804C9D0F8B2
:101EF00008E9D0F80C49D0F81059D0F81409D0628C
:101F000095625462C2F820E0C2F81CC09361FFE7FA
:101F1000FFE7049801300490A0E741F2E410C2F218
:101F2000000000F5CC5100204FF4C07208F0DEFC38
:101F3000FFE79DF8370012B0BDE8F08180B584B0AE
:101F40009446039002918DF8072000939DF80700B6
:101F500040F2A041C2F20001086100200860009A2E
:101F60004A6004228A60C86040F28461C2F20001C3
:101F70000880FFE7039803F0AFFA022810D8FFE7C4
:101F800040F28460C2F2000000880D2807DBFFE702
:101F900040F28460C2F200000021018000E0E9E725
:101FA0000398029A40F2A041C2F20001012302F01C
:101FB000FBFF04B080BD000080B586B08C46059064
:101FC000ADF812100392029300208DF807000598D7
:101FD000BDF81210039A029BCDF800C009F090FEE4
:101FE0008DF807009DF80700404240B206B080BD62
:101FF00080B586B09C46059004910392ADF80A30F6
:10200000049841F2111188420ED1FFE70599039B14
:10201000BDF80A006A46106045F23430C2F2000092
:102020000022FFF7F7FB15E004980021C1F211111F
:1020300088420ED1FFE70599039BBDF80A006A4666
:10204000106045F23430C2F200000422FFF7E2FBD8
:10205000FFE7FFE706B080BD80B5ADF50A7D0DF264
:1020600027104FF4807104900391FEF798F9002037
:102070004890ADF81E01FF218DF81D118DF81C014F
:1020800007AA02901046039A01911146FEF787F9BC
:1020900002980690ADF8160001998DF8151042F2DD
:1020A0005C43C2F2010348A90DF58F72049809F050
:1020B00029F98DF81D019DF91D0100283AD1FFE78E
:1020C000BDF81E110DF2271007AA0DF11603FFF738
:1020D00073FF8DF81C019DF91C0100281CD1FFE73E
:1020E000489840F0030006900699BDF8162007A80E
:1020F000012309F0C5FA8DF815009DF91500002897
:1021000004D1FFE700208DF8270218E09DF81500A4
:1021100002388DF8270212E04899BDF81E210720E9
:102120000DF2271301F0AEFB9DF81C0104388DF869
:10213000270204E09DF81D018DF82702FFE79DF9B5
:1021400027020DF50A7D80BD70B584B0DDF820C092
:102150009E4614460D460646ADF80C00ADF80A1032
:10216000ADF80820ADF80630ADF804C0BDF80C009D
:10217000002814D0FFE7BDF80A0000280FD0FFE7C1
:10218000BDF8080000280AD0FFE7BDF806000028C7
:1021900005D0FFE7BDF80400002804D1FFE7FF20C9
:1021A0008DF80F0069E0BDF80C00BDF8041000F0D8
:1021B000C7FA42F25841C2F201010988BDF80A206B
:1021C000013ABDF8043092FBF3F2914209DBFFE7DC
:1021D00042F25840C2F2010000210180FFF73CFFAB
:1021E00007E042F25840C2F201000188013101804B
:1021F000FFE745F21660C2F201000088BDF8081042
:102200000139BDF8042091FBF2F1884209DBFFE7B8
:1022100045F21660C2F201000021018000F00AFBC5
:1022200007E045F21660C2F2010001880131018029
:10223000FFE745F21460C2F201000088BDF8061005
:102240000139BDF8042091FBF2F1884209DBFFE778
:1022500045F21460C2F201000021018001F06EFB22
:1022600007E045F21460C2F20100018801310180EB
:10227000FFE700208DF80F00FFE79DF90F0004B085
:1022800070BD000080B58CB00A9009910A98800A50
:102290008DF823000A9820F47F30079000208DF8F5
:1022A0001B008DF81A008DF819008DF818008DF8B4
:1022B0001700FFE79DF817000F281DDCFFE79DF8CA
:1022C000170000EBC000400143F26001C2F20001C0
:1022D00008580799884208D1FFE701208DF81B00B4
:1022E0009DF817008DF81A0006E0FFE79DF817002B
:1022F00001308DF81700DDE79DF81B00002831D173
:10230000FFE700208DF81600FFE79DF816000F2864
:1023100027DCFFE79DF8160000EBC000400143F208
:102320006001C2F200010858002813D1FFE70798A6
:102330009DF8161001EBC101490143F26002C2F29F
:102340000002505001208DF81B009DF816008DF8FA
:102350001A0006E0FFE79DF8160001308DF8160020
:10236000D3E7FFE79DF81B0000280AD1FFE70A9991
:10237000099B0920082201F085FAFE208DF82F0024
:10238000D9E19DF82300012805DBFFE79DF8230034
:1023900021280EDBFFE70A99099B0A20082201F099
:1023A00071FA9DF81A0000F0A7FAFD208DF82F00B1
:1023B000C1E19DF81A0000EBC00043F26001C2F2D7
:1023C000000101EB4010807900281FD0FFE79DF845
:1023D00023009DF81A1001EBC10143F26002C2F222
:1023E000000202EB4111897988420EDDFFE70A996C
:1023F000099B0B20082201F045FA9DF81A0000F015
:102400007BFAFC208DF82F0095E1FFE79DF8230073
:10241000013800EB5070C0088DF819009DF82300BA
:10242000013800EB507101F0F801401A8DF81800E6
:102430009DF81A0000EBC00043F26001C2F20001F7
:1024400001EB40109DF819100844007A9DF818100F
:10245000C840C00700280ED0FFE70A99099B0C204E
:10246000082201F00FFA9DF81A0000F045FAFB204F
:102470008DF82F005FE19DF82300012846D1FFE78A
:1024800009988178C078043141EA0020ADF8140041
:10249000BDF81400C0088DF81900BDF8140000F054
:1024A00007008DF818009DF81800002804D1FFE7F8
:1024B0009DF81900029004E09DF819000130029087
:1024C000FFE702989DF81A1001EBC10143F2600288
:1024D000C2F2000202EB411188719DF81800002839
:1024E00003D1FFE70820019003E09DF81800019058
:1024F000FFE701989DF81A1001EBC10143F2600259
:10250000C2F2000202EB4111C871FFE79DF81A0008
:1025100000EBC00043F26001C2F2000101EB401089
:1025200000799DF8231088420EDAFFE79DF823001A
:102530009DF81A1001EBC10143F26002C2F20002E1
:1025400002EB41110871FFE79DF81A0000EBC00093
:1025500043F26001C2F2000101EB40104279013206
:1025600042719DF82300013800EB5070C0088DF8CF
:1025700019009DF82300013800EB507202F0F802B8
:10258000801A8DF818009DF81800012202FA00F058
:102590009DF81A2002EBC20201EB42119DF81920AE
:1025A00011440A7A1043087200208DF81300FFE7E7
:1025B0009DF8130007281BDCFFE709989DF813100E
:1025C000405C9DF81A2002EBC20243F26003C2F2A3
:1025D000000303EB42129DF8233002EBC3021144C7
:1025E0008875FFE79DF8130001308DF81300DFE7D1
:1025F0009DF81A0000EBC00043F26001C2F2000136
:1026000001EB401001794079814243D1FFE79DF809
:102610001A0000EBC00043F26001C2F2000101EBBE
:10262000401001798079814234D1FFE79DF81A008A
:1026300000EBC00043F26001C2F2000101EB401068
:102640008279C07900EBC2000838ADF810009DF81F
:102650001A0000EBC00001EB40101E300799BDF8D6
:102660001020012308F0EEFE8DF80F009DF81A00EF
:1026700000F042F99DF90F00002805D1FFE79DF811
:102680001A008DF82F0056E09DF80F0006388DF8DF
:102690002F0050E09DF81A0000EBC00043F26001EB
:1026A000C2F2000101EB401001794079884210DC50
:1026B000FFE79DF81A0000EBC00043F26001C2F290
:1026C000000101EB401001798079814201DCFFE7D4
:1026D0002CE09DF81A0000EBC00043F26001C2F24A
:1026E000000101EB40100179407988420FDCFFE7DF
:1026F0009DF81A0000EBC00043F26001C2F2000135
:1027000001EB40108079002801D1FFE70DE00A9924
:10271000099B0D20082201F0B5F89DF81A0000F081
:10272000EBF8FA208DF82F0005E0FFE7FFE7FF2028
:102730008DF82F00FFE79DF92F000CB080BD000041
:1027400080B586B00A460346ADF81600ADF8141001
:10275000002004908DF80F00FFE79DF80F000F2870
:1027600065DCFFE79DF80F0000EBC000400143F27D
:102770006001C2F200010858002844D0FFE79DF82C
:102780000F0000EBC00043F26001C2F2000101EB58
:102790004010808BBDF81610BDF81420B1FBF2F18B
:1027A0000139884220DBFFE70020029001909DF86C
:1027B0000F0000EBC000400143F26001C2F20001D3
:1027C0000958082001AB0090009A01F05BF89DF8D1
:1027D0000F0000F091F89DF80F00012101FA00F0C0
:1027E0000499084304900DE09DF80F0000EBC00031
:1027F00043F26001C2F2000101EB4010818B013114
:102800008183FFE70CE09DF80F0000EBC00043F26E
:102810006001C2F2000101EB401000218183FFE75B
:10282000FFE79DF80F0001308DF80F0095E7049841
:1028300006B080BD80B5C4B004A84FF4807101908B
:10284000FDF7ADFD00200390ADF80A008DF80900FA
:1028500043F65053C2F2010303A90DF10A02019895
:1028600008F050FD8DF809009DF9090000280AD1F3
:10287000FFE70398BDF80A300021C1F2111104AA44
:10288000FFF7B6FBFFE79DF9090044B080BD0000EB
:1028900080B584B00A460390ADF80A1000208DF888
:1028A000090040F2C220C2F2000001780323C1F205
:1028B000000343EA814101910078EE2808DCFFE73C
:1028C00040F2C220C2F2000001780131017006E03E
:1028D00040F2C220C2F2000080210170FFE703989D
:1028E0000199BDF80A20012308F0CAFE8DF80900FD
:1028F0009DF9090004B080BD80B582B001468DF815
:1029000007009DF807000F280FDCFFE79DF8070080
:1029100000EBC00043F26001C2F2000101EB401085
:102920004FF49071FDF73BFDFFE702B080BD000062
:1029300084B00A4603908DF80B1000208DF80A0031
:1029400001908DF80300FFE79DF803009DF80B1040
:1029500088420EDAFFE703989DF80310405C019966
:1029600008440190FFE79DF8030001308DF8030053
:10297000EAE701988DF80A009DF80A0004B0704754
:1029800080B582B047F2EC12C0F6010201200021AE
:102990000190009113F00AFA40F25C71C2F200015A
:1029A000086047F2FC12C0F601020198009913F08A
:1029B000FDF940F26071C2F20001086041F2056069
:1029C000C0F6000047F29C22C0F60102009913F005
:1029D00065FA40F27871C2F20001086040F6E970D1
:1029E000C0F6000047F23022C0F60102009913F051
:1029F00055FA40F27071C2F20001086040F6B570FD
:102A0000C0F6000047F20C22C0F60102009913F054
:102A100045FA40F26C71C2F20001086041F2CD004B
:102A2000C0F6000047F25422C0F60102009913F0EC
:102A300035FA40F27471C2F20001086002B080BD44
:102A400083B0019000208DF80300019800780028E1
:102A500004D1FFE7FF208DF80B001AE00198017800
:102A600001390170019880788DF803000198807811
:102A7000162805DCFFE7019881780131817003E0B9
:102A8000019800218170FFE79DF803008DF80B008D
:102A9000FFE79DF90B0003B07047000083B00A46C2
:102AA00001908DF8031000208DF802000198007845
:102AB000182804DBFFE7FF208DF80B0033E00198B6
:102AC0000178013101709DF80300002813D1FFE760
:102AD00001988078002804D1FFE7019817218170C0
:102AE00004E00198817801398170FFE701988078CE
:102AF0008DF8020012E0019840788DF802000198EC
:102B00004078162805DCFFE70198417801314170D3
:102B100003E0019800214170FFE7FFE79DF8020004
:102B20008DF80B00FFE79DF90B0003B07047000024
:102B300080B584B0039040F2CC40C2F2000000F5B2
:102B4000BE7002900398FEF7A3FD8DF807000020E9
:102B50008DF806009DF80700002801D1FFE718E076
:102B6000039880780138042812D8FFE7039880780A
:102B70009DF8071001EB800005388DF806000298DB
:102B80009DF80610039AB2F8032020F8112000E007
:102B9000FFE704B080BD000080B584B0039040F230
:102BA000CC40C2F20000DC3002900398FEF770FDCA
:102BB0008DF8070000208DF806009DF8070000281A
:102BC00001D1FFE718E0039880780138092812D86E
:102BD000FFE7039880789DF8071001EB8000053827
:102BE0008DF8060002989DF80610039AD2F803208B
:102BF00040F8212000E0FFE704B080BD80B584B03C
:102C00000A4603468DF80F008DF80E108DED020A6E
:102C10009DF80E00FF2801D1FFE732E09DF80F007C
:102C200040F27C61C2F200010870052048709DF8F6
:102C30000E0088709DF80E0001280FD1FFE740F2CA
:102C40007C60C2F200000021C0F803109DED020A72
:102C5000BDEEC00A10EE101AC17007E040F27C60B1
:102C6000C2F200000299C0F80310FFE740F27C6056
:102C7000C2F2000007210190FFF75AFE0199C871C6
:102C8000FFE704B080BD000080B584B003900398D6
:102C9000FEF7FEFC8DF80B009DF80B00002801D11B
:102CA000FFE738E00398807801460128019108D0B9
:102CB000FFE70198022811D0FFE7019803281BD0F5
:102CC00028E09DF80B0040F2CC41C2F2000108441C
:102CD0000399D1F80310C0F82B101CE09DF80B00ED
:102CE00040F2CC41C2F2000101EB80000399D1F81F
:102CF0000310C0F8B8100EE09DF80B0040F2CC4174
:102D0000C2F2000101EB80000399D1F80310C0F872
:102D1000C81000E0FFE704B080BD000080B584B0BB
:102D200013468C4686468DF80F008DF80E108DF8F0
:102D30000D209DF80E00FF2805D0FFE79DF80D003F
:102D4000FF2801D1FFE71AE09DF80F0040F27C61F7
:102D5000C2F2000108709DF80E0048709DF80D0049
:102D600088700020C1F80300072002900846029AEC
:102D700001911146FFF7DCFD0199C871FFE704B02E
:102D800080BD000080B584B003900398FEF780FCFE
:102D90008DF80B009DF80B00002801D1FFE726E01D
:102DA0000398807801460128019104D0FFE701983B
:102DB00002280ED01AE09DF80B0040F2CC41C2F27E
:102DC000000101EB80000399D1F8031040F8041CC6
:102DD0000DE09DF80B0040F2CC41C2F2000101EB86
:102DE00080000399D1F80310C16000E0FFE704B050
:102DF00080BD000080B584B00A4603468DF80F0000
:102E00008DF80E108DED020A9DF80E00FF2801D1FD
:102E1000FFE719E09DF80F0040F27C61C2F200016B
:102E20000870012048709DF80E0088700298C1F863
:102E30000300072001900846019A00911146FFF710
:102E400077FD0099C871FFE704B080BD80B582B0FE
:102E500001900198FEF71CFC8DF803009DF803001B
:102E6000002801D1FFE737E0019880780138082871
:102E700031D8FFE744F26920C2F20000012101705D
:102E80000198C078012812D1FFE7019880780138B5
:102E9000012101FA00F09DF8031040F2CC42C2F289
:102EA000000202EB4101CA8B1043C88312E0019873
:102EB00080780138012101FA00F09DF8031040F2FA
:102EC000CC42C2F2000202EB4101CA8B22EA0000AE
:102ED000C883FFE700E0FFE702B080BD80B586B0A1
:102EE00005900598FEF7D4FB8DF813009DF81300AC
:102EF000002801D1FFE71BE10598807801380146E1
:102F00000928009100F213810099DFE811F00A000E
:102F1000250032006F009B00CF00DC00EA00F400C7
:102F200002010598C0789DF8131040F2CC42C2F21D
:102F30000002114481F82700059800799DF81310CC
:102F4000114481F82B009DF8130002EB4000059915
:102F5000B1F80510C185EBE09DF8130040F2CC41BB
:102F6000C2F2000101EB80000599D1F80310416322
:102F7000DEE09DF8130040F2CC41C2F2000101EB0B
:102F800080000599D1F80310416400200390FFE709
:102F90000398072829DCFFE79DF8130040F2CC4195
:102FA000C2F20001483101EB800050F8040C039A92
:102FB00041F2E413C2F200034FF02C0C02FB0C327E
:102FC000C2F8E80E9DF8130001EB800050F8040CE5
:102FD000039901EB810103EB810141F690328850A6
:102FE000FFE7039801300390D2E7A1E09DF81300BA
:102FF00040F2CC41C2F2000101EB80000599D1F80A
:103000000310416500200290FFE70298072818DCB2
:10301000FFE79DF8130040F2CC41C2F2000101EB42
:103020008000406D029941F2E412C2F200022C23AA
:1030300001FB0321C1F8EC0EFFE70298013002907A
:10304000E3E775E09DF8130040F2CC41C2F20001C5
:1030500001EB80000599D1F8031041660020019032
:10306000FFE70198072820DCFFE79DF8130040F2F6
:10307000CC41C2F20001683101EB800050F8040C31
:1030800041F2E412C2F2000241F62C43D0509DF806
:10309000130001EB800050F8040C41F63041505011
:1030A000FFE7019801300190DBE741E09DF8130054
:1030B00040F2CC41C2F2000101EB80000599D1F849
:1030C0000310416734E09DF8130040F2CC41C2F296
:1030D000000101EB80000599D1F80310C0F88410BD
:1030E00026E00598D0F8030040F2CC41C2F200017E
:1030F000C1F898001CE09DF8130040F2CC41C2F2E8
:10310000000101EB80000599D1F80310C0F8981078
:103110000EE09DF8130040F2CC41C2F2000101EB39
:1031200080000599D1F80310C0F8A81000E0FFE76F
:1031300006B080BD80B582B000208DF8070007F092
:1031400099FA002809D0FFE740F27460C2F200004B
:103150004078812801DCFFE711E040F27460C2F2A0
:103160000000417881398DF807109DF8071040F272
:103170000402C2F2000252F821108847FFE702B0B1
:1031800080BD000080B584B00A4603468DF80F006C
:103190008DF80E109DF80E00FF2801D1FFE71BE00F
:1031A0009DF80F0040F27C61C2F20001087005201A
:1031B0004870012088700020C1F803009DF80E00BF
:1031C000C870072002900846029A01911146FFF745
:1031D000AFFB0199C871FFE704B080BD80B584B032
:1031E0000A4603468DF80F008DF80E109DF80E006C
:1031F000FF2801D1FFE719E09DF80F0040F27C6144
:10320000C2F200010870062048709DF80E00887018
:103210000020C1F80300072002900846029A01919D
:103220001146FFF785FB0199C871FFE704B080BD27
:1032300081B000900098C078012802D1FFE700BF5C
:1032400001E000BFFFE701B07047000082B00190CD
:103250000198807801460128009104D0FFE700988A
:1032600002280AD00AE00198D0F8030040F2CC41CD
:10327000C2F20001C1F89C0101E000E0FFE702B0EA
:103280007047000080B588B08C460790ADF81A10E2
:103290000592049300208DF80F008DF80E00222077
:1032A0008DF80E000598049909889DF80E20425467
:1032B000049801880131018045F22070C2F20100BA
:1032C0008079002842D1FFE700200290FFE70298B2
:1032D00007281CDCFFE7059804990988084402992F
:1032E00001EB810141F2E412C2F2000202EB810122
:1032F00041F68C3211441422FDF738F804990A88FB
:1033000014320A80FFE7029801300290DFE7059847
:1033100004990988421841F2E413C2F2000341F60D
:103320002C4C53F80CC040F801C041F638401858F6
:10333000D06041F634401858906041F6304018583B
:103340005060049801881031018052E00020019003
:10335000FFE7019807282DDCFFE70198012101FA1A
:1033600000F08DF8030045F22070C2F20100807970
:103370009DF80310084218D0FFE7059804990988C2
:103380000844019901EB810141F2E412C2F200020A
:1033900002EB810141F68C3211441422FCF7E6FF66
:1033A00004990A8814320A80FFE7FFE70198013088
:1033B0000190CEE7059804990988421841F2E41378
:1033C000C2F2000341F62C4C53F80CC040F801C087
:1033D00041F638401858D06041F634401858906093
:1033E00041F630401858506004980188103101802F
:1033F000FFE79DF80F0008B080BD00007047000097
:1034000085B08C460490ADF80E1002920193002016
:103410008DF803008DF802008DF8010021208DF851
:1034200002000298019909889DF8022042540198EF
:10343000018801310180049845F21061C2F2000157
:1034400009884218405841F2E411C2F200014FF4D9
:10345000DC53C850108901F5DC5108815068486080
:10346000D1F8020000EE100AB1EE0C1AB4EE410AD7
:10347000F1EE10FA15DCFFE741F2E410C2F20000B1
:1034800041F68631405800EE100A9FED101AB4EE56
:10349000410AF1EE10FA04DCFFE700208DF801008C
:1034A00006E00A208DF8030001208DF80100FFE7F7
:1034B0000298019909889DF80120425401980188D9
:1034C000013101809DF8030005B0704700002043E2
:1034D00086B08C460590ADF812100392029300203E
:1034E0008DF807008DF806008DF805008DF80400B2
:1034F0008DF8030023208DF80400039802990988B1
:103500009DF80420425402980188013101800598F9
:1035100045F21061C2F200010A88805C8DF8060055
:1035200005980988084440788DF805009DF8060044
:10353000012809DBFFE79DF80600032804DCFFE70C
:1035400000208DF8030006E008208DF80700012018
:103550008DF80300FFE70398029909889DF806207B
:103560004254029801880131018003980299098828
:103570009DF80320425402980188013101809DF892
:10358000070006B07047000083B013460290019117
:103590008DF803200298019909889DF80320425470
:1035A0000198018801310180072003B070470000B5
:1035B00080B54FF4806002F089FF4FF4006002F0A4
:1035C00085FF4FF4004002F081FF80BD80B5802070
:1035D00002F07CFF4FF4807002F078FF4FF400702F
:1035E00002F074FF80BD000080B582B00020019021
:1035F000FFE70198072811DCFFE79DF80400FEF7BC
:1036000001FA9DF8040000F085FD9DF8040006F025
:1036100075FBFFE7019801300190EAE741F2E41001
:10362000C2F2000041F63C4144F2AE72C4F2EC1228
:103630004250084449F25361CBF601614160826017
:10364000C1604AF6A921C4F2A611016100214161BD
:1036500045F25551C4F2273181610021CCF2482155
:10366000C16145F25552C4F237320262416202B082
:1036700080BD000080B582B001468DF807009DF83E
:1036800007000F280FDCFFE79DF8070044F26C21CC
:10369000C2F200014FF4867210FB02100430114692
:1036A000FCF77DFEFFE702B080BD000080B58CB066
:1036B00084468DF82F000A910992089345F65B30F5
:1036C000ADF81E009DF82F0044F26C21C2F20001FB
:1036D00004314FF4867210FB021000890A30ADF8F5
:1036E0001C009DF82F00F0308DF81B009DF82F0076
:1036F0005043085C8DF81A000020ADF818004AF21B
:10370000A550ADF816000A98BDF81E3003800A983F
:10371000BDF81C3043800A989DF81B3003710A984D
:103720009DF81A3043710A989DF82F3013FB02134D
:103730005B68C0F806300A980A309DF82F3013FBFA
:10374000021303F10A0E1B890491714603921A4673
:10375000CDF808C0FCF70AFE0A9902319DF82F2027
:10376000039BDDF810C012FB03C21289083292B22B
:10377000019008461146FEF7DFF8ADF818000A98E8
:103780009DF82F10039A049B11FB0231098908440C
:10379000BDF8181041810A989DF82F1011FB0231D5
:1037A00009890844BDF8161081819DF82F0010FB8F
:1037B000023000890E30099908809DF81B00032112
:1037C000C1F2000141EA8040089908600CB080BD58
:1037D00080B5ADF5087D00208DF81E0204A940F2E9
:1037E0000E22019008461146FCF7D9FD0198ADF86C
:1037F0000E00029044F26C21C2F200010978002907
:1038000004D1FFE7FF208DF81F0236E044F26C2060
:10381000C2F2000001780139017081788DF81E1222
:1038200080780E2808DCFFE744F26C20C2F200002A
:1038300081780131817006E044F26C20C2F2000010
:1038400000218170FFE79DF81E0204A90DF10E0210
:1038500002AB0091FFF72AFF9DF81E02FFF70AFF57
:103860000298BDF80E300021C1F21111009AFEF746
:10387000BFFB00208DF81F02FFE79DF91F020DF529
:10388000087D80BD80B586B0944686468DF81700C9
:103890000491ADF80E20029300208DF80700FFE799
:1038A00044F26C20C2F200000078102803DBFFE72E
:1038B000FFF78EFFF4E744F26C20C2F200000178BB
:1038C0000131017041788DF8071040780E2808DC2E
:1038D000FFE744F26C20C2F20000417801314170F0
:1038E00006E044F26C20C2F2000000214170FFE7C4
:1038F0009DF817009DF807104FF48672514344F26B
:103900006C23C2F200030433585404989DF8071046
:1039100011FB02314860BDF80E009DF8071011FB45
:10392000023108819DF8070010FB02300A3002992D
:10393000BDF80E20FCF71AFD06B080BD80B5FFF77C
:1039400047FF80BD81B0EFF3108072B60090FFE7B3
:10395000FEE7000081B0009001B0704781B0009098
:1039600001B0704781B0009001B0704781B0009005
:1039700001B0704781B0009001B0704781B00090F5
:1039800001B07047704700007047000070470000AA
:103990007047000084B0039002910192009304B03C
:1039A0007047000082B00190009102B070470000A3
:1039B00083B002900191009203B0704784B00390ED
:1039C00002910192009304B07047000083B002900E
:1039D0000191009203B0704783B002900191009270
:1039E00003B0704781B0009001B0704782B0019081
:1039F000009102B07047000082B00190009102B0C7
:103A00007047000084B0039002910192009304B0CB
:103A10007047000083B002900191009203B070479C
:103A200081B0009001B0704782B00190009102B067
:103A30007047000082B00190009102B07047000012
:103A400083B002900191009203B0704782B0019060
:103A5000009102B07047000082B00190009102B066
:103A60007047000084B09446039002918DF80720BF
:103A7000009304B07047000083B00290019100925F
:103A800003B0704781B0009001B0704782B00190E0
:103A9000009102B07047000081B0009001B0704703
:103AA00082B00190009102B07047000082B0019096
:103AB000009102B07047000082B00190009102B006
:103AC0007047000082B00190009102B07047000082
:103AD00081B0009001B0704782B00190009102B0B7
:103AE0007047000082B00190009102B07047000062
:103AF00082B00190009102B07047000083B0029044
:103B00000191009203B0704781B0009001B07047FE
:103B100081B0009001B0704782B00190009102B076
:103B20007047000082B00190009102B07047000021
:103B300083B002900191009203B0704781B0009071
:103B400001B0704782B00190009102B07047000050
:103B50007047000084B0039002910192009304B07A
:103B60007047000081B0009001B0704781B00090B4
:103B700001B0704783B002900191009203B070478A
:103B800081B0009001B0704781B0009001B07047E3
:103B900082B00190009102B07047000082B00190A5
:103BA000009102B070470000B0B593B000201290B1
:103BB000119010900F900E900D900C900B900A9019
:103BC0000990089007900690059004900390029049
:103BD000FFE7029807285FDCFFE7029840F2D42154
:103BE000C2F2000151F82000B0F5000F09D3FFE741
:103BF000029840F2D421C2F20001002241F82020B4
:103C0000FFE7029840F25C31C2F2000151F8200057
:103C1000B0F5000F09D3FFE7029840F25C31C2F221
:103C20000001002241F82020FFE7029840F2D42151
:103C3000C2F2000151F8202041F2E413C2F2000365
:103C400041F6644C634403EB8000D0F840C062440A
:103C50000264029840F25C32C2F2000252F820C0C4
:103C600053F820E0F44443F820C0029851F82010A3
:103C700003EB8000D0F8C0C06144C0F8C0100298C7
:103C800052F8201003EB8000026E11440166FFE73A
:103C90000298013002909CE740F28660C2F2000078
:103CA00001880131018040F28861C2F200010A8876
:103CB00001320A800088B0F5FA7FC0F22A81FFE75E
:103CC00000200190FFE70198072800F31B81FFE720
:103CD000019841F2E411C2F2000141F664420A4443
:103CE00052F8203040F2866CC2F2000CBCF800E0C2
:103CF000B3FBFEF300EE103AB8EE400A00EB4003CF
:103D000001F5CC5E0EEB031393ED001A93ED012A3F
:103D100020EE010A9FEDE31A80EE010A30EE020A5E
:103D200041F644530B4403EB800080ED000A0198F8
:103D300002EB8002126CBCF800C0B2FBFCF200EE99
:103D4000102AB8EE400A00EB40020EEB021292ED90
:103D5000022A92ED033A20EE020A80EE010A30EECA
:103D6000030A41F6A4520A4402EB800080ED000AE7
:103D7000019853F8203041F68C3C614400EB800000
:103D800041F82030019852F8202000EB800001EB30
:103D90008000026140F21020C2F200000078012889
:103DA0002DD1FFE70198002804D1FFE700200B90F8
:103DB000039023E001980BA901EB800111ED010AAA
:103DC00041F2E412C2F2000241F664431A4402EBEB
:103DD000800090ED381A30EE010A81ED000A01985A
:103DE00003A901EB800111ED010A02EB800090EDC7
:103DF000501A30EE010A81ED000AFFE717E040F2A9
:103E00001020C2F20000007802280FD1FFE743F62D
:103E10002050C2F201004169019A0BAB43F8221015
:103E20008069019903AA42F82100FFE7FFE70198A2
:103E300041F2E411C2F2000141F664420A4441F643
:103E400044530B4403EB800C9CED000A0DF12C0E47
:103E50000EEB800494ED001A00EB400001F5CC5409
:103E600004EB001090ED042A90ED053A21EE021AC1
:103E700030EE010A30EE030A8CED000A019802EBE5
:103E8000800C9CED500A0EEB800595ED001A00EBBE
:103E9000400004EB001090ED062A90ED073A21EE69
:103EA000021A30EE010A30EE030A8CED500A019836
:103EB0005EF820C041F68C3E714400EB800001EBBF
:103EC0008000C0F80CC0019853F8203000EB80004F
:103ED00001EB80008360019802EB8003D3F800318E
:103EE00000EB800001EB800043600198002142F864
:103EF0002010019802EB80000164FFE70198013077
:103F00000190E0E640F28660C2F2000000210180EC
:103F1000FFE740F28860C2F200000088B0F5FA7F47
:103F2000C0F2F580FFE700200090FFE70098072827
:103F300000F3E680FFE7009841F2E411C2F20001CD
:103F400001EB800041F6C44140584FF60D61CFF6B9
:103F5000FF1188421DD3FFE7009841F2E411C2F23D
:103F6000000101EB800241F6C443D25840F2E8332D
:103F7000C0F6004303EB420244F6D353C1F262039E
:103F8000A2FB03235B0901EB00104FF4D85143500F
:103F90000BE0009841F2E411C2F2000101EB0010C5
:103FA0004FF4D85100224250FFE7009841F2E4114B
:103FB000C2F2000141F664420A4402EB8003D3F8E6
:103FC000803044F6D35CC1F2620CA3FB0C3C4FEA98
:103FD0005C1C01EB001041F6043140F801C0009870
:103FE00002EB8000D0F8A0004FF60D61CFF6FF1174
:103FF00088421DD3FFE7009841F2E411C2F20001AC
:1040000001EB800241F60453D25840F2E833C0F687
:10401000004303EB420244F6D353C1F26203A2FB16
:1040200003235B0901EB001041F6083143500BE01C
:10403000009841F2E411C2F2000101EB001041F6D8
:10404000083100224250FFE7009841F2E411C2F229
:10405000000101EB800041F6245140584FF60D61FC
:10406000CFF6FF1188421FD3FFE7009841F2E41119
:10407000C2F2000101EB800241F62453D25840F213
:10408000E833C0F6004303EB420244F6D353C1F2D7
:104090006203A2FB03235B0901EB001041F60C3124
:1040A00043500DE0FEFFFF4A009841F2E411C2F2D6
:1040B000000101EB001041F60C3100224250FFE7F5
:1040C000009841F2E411C2F2000141F66442114449
:1040D00001EB800000220266009801EB8000C0F82E
:1040E0008020009801EB8000C0F8A020009801EB30
:1040F0008000C0F8C020FFE700980130009015E76D
:1041000040F28860C2F2000000210180FFE713B096
:10411000B0BD000080B582B001468DF807009DF863
:1041200007008DF806009DF8060000EB80004001B6
:1041300041F2E412C2F20002812313549DF80600FA
:1041400000EB800002EB4010822303749DF8060010
:1041500000EB800002EB4010832380F820309DF8B4
:10416000060000EB800002EB4010842380F8303022
:104170009DF8060000EB800002EB4010852380F8DC
:1041800040309DF8060000EB800002EB40108623D3
:1041900080F850309DF8060000EB800002EB4010E4
:1041A000872380F860309DF8060000EB800002EB6A
:1041B0004010882380F870309DF8060000EB8000E6
:1041C00002EB4010892380F880309DF8060000EB58
:1041D000800002EB40108A2380F890309DF80600A2
:1041E00000EB800002EB40100023C4F29003436018
:1041F0009DF8060000EB800002EB40100023C4F2A3
:10420000400343619DF8060000EB800002EB401084
:104210000023C4F2223343629DF8060000EB8000C5
:1042200002EB401043639DF8060000EB800002EBB8
:1042300040100023C4F27A4343649DF8060000EB6B
:10424000800002EB401046F26663C4F286034365C9
:104250009DF8060000EB800002EB40104CF6CD43C9
:10426000C4F24C0343669DF8060000EB800002EBAD
:1042700040100023C4F2201343679DF8060000EBB2
:10428000800002EB40100023C4F27023C0F8843099
:104290009DF8060000EB800002EB40104DF20A7220
:1042A000C3F62342C0F894209DF806000022009136
:1042B00011460AF057F902B080BD00008DB08C465F
:1042C0000C90ADF82E100A92099300208DF823006F
:1042D0008DF822008DF821008DF8200007908221B2
:1042E0008DF820100A99099A12889DF820308B5475
:1042F00009990A8801320A800690FFE70698072884
:1043000000F30881FFE70698012101FA00F08DF81B
:10431000170045F22070C2F2010080799DF8171055
:10432000084200F0F280FFE7069800EB800040F2C0
:104330007C71C2F2000101EB00100490069800EBC2
:10434000800041F2E411C2F2000101EB4010039041
:1043500000200290FFE70298092813DCFFE703988A
:104360000078049908700398406804994860FFE752
:10437000029801300290049808300490039810309D
:104380000390E8E7069800EB800040F27C71C2F2EF
:10439000000101EB00100490069800EB800041F250
:1043A000E411C2F2000101EB4010039045F21060ED
:1043B000C2F2000000880190FFE70198BDF82E10BE
:1043C0000439884280F2A080FFE70C980199405C94
:1043D0008DF822009DF82200FF2846D1FFE70198C2
:1043E00045F21061C2F200010988884227D1FFE737
:1043F00000200090FFE7009809281FDCFFE70A98DB
:1044000009990988049A127842540998018801315F
:1044100001800A9809990988049A526842500998BB
:10442000018804310180FFE7009801300090049872
:1044300008300490039810300390DCE764E000201B
:1044400007900A98099909889DF8222042540998F2
:104450000188013101800A9809990988079A425018
:1044600009980188043101804AE09DF82200012862
:1044700005DBFFE79DF822000B2819DBFFE7002092
:1044800007900A98099909889DF8222042540998B2
:104490000188013101800A9809990988079A4250D8
:1044A000099801880431018008208DF8230027E055
:1044B000FFE79DF8220001388DF8210004989DF84F
:1044C000211010F831008DF8220004989DF8211079
:1044D00000EBC100406807900A98099909889DF887
:1044E0002220425409980188013101800A980999D3
:1044F0000988079A42500998018804310180FFE732
:1045000001980130019058E7FFE7FFE70698013076
:104510000690F3E69DF823000DB0704796B08C46E8
:104520001590ADF852101392129300208DF84700A9
:104530008DF846008DF8450010908DF83F008DF8FD
:104540003E0081218DF83F101399129A12889DF830
:104550003F308B5412990A8801320A800C90FFE791
:104560000C98072844DCFFE70C98012101FA00F0C1
:104570008DF82F0045F22070C2F2010080799DF87D
:104580002F1008422FD0FFE70C9800EB800040F27C
:104590007C71C2F2000101EB00100E900C9800EB50
:1045A000800041F2E411C2F2000101EB40100D90D5
:1045B00000200A90FFE70A98092813DCFFE70D980E
:1045C00000780E9908700D9840680E994860FFE7D2
:1045D0000A9801300A900E9808300E900D9810300D
:1045E0000D90E8E7FFE7FFE70C9801300C90B7E784
:1045F00045F21060C2F2000000880990FFE70998B8
:10460000BDF852100439884280F23481FFE71598D2
:104610000999405C8DF84600159809990844D0F82E
:10462000010010909DF84600012805DBFFE79DF88A
:1046300046000B282BDBFFE79DF84600812805DBB1
:10464000FFE79DF846008B2821DBFFE7FF208DF870
:104650003E001398129909889DF8462042541298FA
:104660000188013101801398129909889DF83E2034
:10467000425412980188013101809DF84600FF28BC
:1046800004D0FFE708208DF84700FFE7EEE09DF833
:10469000460001280BDBFFE79DF846000A2806DCF0
:1046A000FFE79DF8460001388DF8450010E09DF8C1
:1046B000460081280BDBFFE79DF846008A2806DCD0
:1046C000FFE79DF8460081388DF84500FFE7FFE7DA
:1046D00000200890FFE70898072800F3B280FFE762
:1046E0000898012101FA00F08DF81F0045F22070B2
:1046F000C2F2010080799DF81F10084200F09C80F2
:10470000FFE7089800EB800040F27C71C2F20001E4
:1047100001EB00100E90089800EB800041F2E411CC
:10472000C2F2000101EB40100D900E989DF845106B
:1047300000EBC10006900E989DF8451000EBC100FB
:10474000043005900D989DF8451000EB01100C30D9
:1047500004900D989DF8451000EB0110083003906F
:1047600006989DF84610017005981099016006980A
:104770000078012854DBFFE7069800780A284FDC10
:10478000FFE7049890ED000AB5EE400AF1EE10FA4A
:1047900014D1FFE7039890ED000AB5EE400AF1EE60
:1047A00010FA0BD1FFE70898012101FA00F09DF8FB
:1047B0003E1021EA00008DF83E0030E0059890EDB3
:1047C000000A049890ED001AB4EE410AF1EE10FAD6
:1047D00017DBFFE7059890ED000A039890ED001AAB
:1047E000B4EE410AF1EE10FA0BDCFFE70898012164
:1047F00001FA00F09DF83E1021EA00008DF83E001D
:104800000CE00898012101FA00F09DF83E100843E1
:104810008DF83E0008208DF84700FFE7FFE70AE02B
:104820000898012101FA00F09DF83E1021EA0000ED
:104830008DF83E00FFE7FFE7FFE70898013008909A
:1048400049E71398129909889DF846204254129816
:104850000188013101801398129909889DF83E2042
:1048600042541298018801310180FFE70998053010
:104870000990C4E69DF84700002851D1FFE70020C9
:104880000290FFE70298072849DCFFE70298012120
:1048900001FA00F08DF8070045F22070C2F2010025
:1048A00080799DF80710084234D0FFE7029800EBAA
:1048B000800040F27C71C2F2000101EB00100E900A
:1048C000029800EB800041F2E411C2F2000101EB1A
:1048D00040100D9000200090FFE70098092818DC98
:1048E000FFE70E9800780D9908700E9840680D99B2
:1048F00048600E98017841F080010170FFE7009850
:10490000013000900E9808300E900D9810300D90E8
:10491000E3E7FFE7FFE7029801300290B2E7FFE725
:104920009DF8470016B0704781B040F26470C2F243
:1049300000000078002840F00983FFE700208DF890
:104940000300FFE79DF80300072800F3FE82FFE75E
:104950009DF8030045F21861C2F20101095C45F2BD
:104960003862C2F2010211549DF8030000EB80008E
:10497000400141F2E411C2F20001085C0006002887
:104980004AD4FFE79DF8030040F23171C2F2000102
:10499000085C01283FD0FFE79DF8030041F2E411D5
:1049A000C2F200012C2210FB021202F6E46292ED28
:1049B000000A00EB800001EB401090ED011AB4EE0C
:1049C000410AF1EE10FA25DDFFE79DF8030045F2FC
:1049D0001861C2F201010A5C01320A549DF8030019
:1049E000085C012815DBFFE79DF8030040F28C61AD
:1049F000C2F2000151F8202042F0010241F82020CB
:104A00009DF8030045F21861C2F2010100220A5428
:104A1000FFE7FFE7FFE7FFE79DF8030045F2386196
:104A2000C2F20101095C45F21862C2F20102105C97
:104A3000814210D1FFE79DF8030045F23861C2F2D0
:104A4000010100220A549DF8030045F21861C2F2E8
:104A500001010A54FFE79DF8030045F21861C2F214
:104A600001010144097A45F23862C2F201021044A0
:104A700001729DF8030000EB800041F2E411C2F2E4
:104A8000000101EB4010007C000600286CD4FFE719
:104A90009DF8030000EB400041F2E411C2F2000176
:104AA00001EB80004FF4C651405C022810D0FFE7B4
:104AB0009DF8030000EB400041F2E411C2F2000156
:104AC00001EB80004FF4C651405C05284BD1FFE755
:104AD0009DF8030040F23171C2F20001085C012828
:104AE00041D0FFE79DF8030041F2E411C2F200015A
:104AF0002C2210FB021202F6E46292ED000A00EB97
:104B0000800001EB401090ED051AB4EE410AF1EE81
:104B100010FA27DAFFE79DF8030045F21861C2F2A8
:104B2000010108310A5C01320A549DF80300085C57
:104B3000012816DBFFE79DF8030040F28C61C2F20A
:104B4000000151F8202042F0020241F820209DF897
:104B5000030045F21861C2F201010844002101720C
:104B6000FFE7FFE7FFE7FFE79DF8030045F2386145
:104B7000C2F201010144097A45F21862C2F201024F
:104B80001044007A814212D1FFE79DF8030045F2FC
:104B90003861C2F201010844002101729DF803004E
:104BA00045F21862C2F2010210440172FFE79DF85B
:104BB000030045F21861C2F201010144097C45F28B
:104BC0003862C2F20102104401749DF8030000EB48
:104BD000800041F2E411C2F2000101EB401090F8B4
:104BE00020000006002800F1B880FFE700208DF8C3
:104BF00002009DF8030000EB400041F2E411C2F214
:104C0000000101EB80004FF4C651405C06280ED134
:104C1000FFE79DF8030040F23171C2F20001085C29
:104C2000012804D0FFE701208DF802004EE09DF836
:104C3000030000EB400041F2E411C2F2000101EB7D
:104C400080004FF4C651405C02283ED1FFE79DF83A
:104C5000030000EB400041F2E411C2F2000101EB5D
:104C6000800041F6C101405C022820D0FFE79DF89A
:104C7000030000EB400041F2E411C2F2000101EB3D
:104C8000800041F6C101405C032810D0FFE79DF889
:104C9000030000EB400041F2E411C2F2000101EB1D
:104CA000800041F6C101405C04280ED1FFE79DF869
:104CB000030040F23171C2F20001085C012804D007
:104CC000FFE701208DF80200FFE7FFE79DF80200F3
:104CD000012841D1FFE79DF8030041F2E411C2F23F
:104CE00000012C2210FB021202F6E86292ED000A8B
:104CF00000EB800001EB401090ED091AB4EE410A80
:104D0000F1EE10FA27DDFFE79DF8030045F2186188
:104D1000C2F2010110310A5C01320A549DF803000D
:104D2000085C012816DBFFE79DF8030040F28C6168
:104D3000C2F2000151F8202042F0040241F8202084
:104D40009DF8030045F21861C2F2010108440021F8
:104D50000174FFE7FFE7FFE7FFE79DF8030045F277
:104D60003861C2F201010144097C45F21862C2F2C5
:104D700001021044007C814212D1FFE79DF803003C
:104D800045F23861C2F201010844002101749DF826
:104D9000030045F21862C2F2010210440174FFE7F9
:104DA0009DF8030045F21861C2F201010144097E39
:104DB00045F23862C2F20102104401769DF8030008
:104DC00000EB800041F2E411C2F2000101EB40105F
:104DD00090F830000006002800F18D80FFE79DF874
:104DE000030000EB400041F2E411C2F2000101EBCC
:104DF00080004FF4C651405C02287BD1FFE79DF84C
:104E0000030000EB400041F2E411C2F2000101EBAB
:104E1000800041F6C101405C052820D0FFE79DF8E5
:104E2000030000EB400041F2E411C2F2000101EB8B
:104E3000800041F6C101405C062810D0FFE79DF8D4
:104E4000030000EB400041F2E411C2F2000101EB6B
:104E5000800041F6C101405C07284BD1FFE79DF877
:104E6000030040F23171C2F20001085C012841D018
:104E7000FFE79DF8030041F2E411C2F200012C2289
:104E800010FB021202F6E86292ED000A00EB8000CD
:104E900001EB401090ED0D1AB4EE410AF1EE10FA5C
:104EA00027DDFFE79DF8030045F21861C2F201011A
:104EB00018310A5C01320A549DF80300085C01288D
:104EC00016DBFFE79DF8030040F28C61C2F200019F
:104ED00051F8202042F0080241F820209DF80300FC
:104EE00045F21861C2F20101084400210176FFE792
:104EF000FFE7FFE7FFE79DF8030045F23861C2F2E4
:104F000001010144097E45F21862C2F20102104417
:104F1000007E814212D1FFE79DF8030045F238611F
:104F2000C2F201010844002101769DF8030045F218
:104F30001862C2F2010210440176FFE7FFE79DF814
:104F4000030001308DF80300FCE4FFE7012001B00D
:104F50007047000084B002900191029890F8200000
:104F60008DF803009DF80300012805D0FFE79DF8A8
:104F7000030002280AD1FFE70198029909684A69EB
:104F80001043486100208DF80F0008E00298416A44
:104F900041F48021416201208DF80F00FFE79DF868
:104FA0000F0004B07047000088B00690059104928D
:104FB0000393069890F820008DF807000698006883
:104FC0008068009005988068002801D1FFE700E024
:104FD000FFE79DF80700012806D0FFE79DF80700CE
:104FE000022840F08F80FFE79DF80300400700286B
:104FF0000CD4FFE79DF803000007002806D4FFE764
:105000009DF80300C006002873D5FFE70098C0F3A1
:10501000016002900298032809D3FFE70698416ACD
:1050200041F40001416201208DF81F0073E00298F5
:10503000012101FA00F003990860059880680028B2
:105040000DD1FFE705980168C06840EA4150069914
:105050000968029A01EB0211C1F880010EE005987F
:1050600041688268C06842EAC1010843069909683C
:10507000029A01EB0211C1F88001FFE7059800696F
:1050800006990968029A01EB0211C1F8840105989A
:10509000007D01280CD1FFE706980068029900EB1B
:1050A0000110D0F8841141F48071C0F88411FFE739
:1050B0000498406806990968029A01EB0211C1F848
:1050C0008C010498006806990968029A01EB0211A4
:1050D000C1F8880106980068029900EB0110D0F829
:1050E000801141F00101C0F8801100208DF81F00EF
:1050F00011E00698416A41F40011416201208DF8E7
:105100001F0008E00698416A41F4802141620120B5
:105110008DF81F00FFE79DF81F0008B070470000E2
:1051200086B004900391049800680190049890F868
:1051300020008DF803009DF80300012806D0FFE74A
:105140009DF80300022840F0B880FFE746F20040D7
:10515000C4F2000001900198D0F8001241F0010162
:10516000C0F800120198D0F8001221F47C51C0F868
:1051700000120398406A0199D1F8002242EA002007
:10518000C1F800020398406900F01F00012101FAF4
:1051900000F0029002980199D1F81C2222EA000046
:1051A000C1F81C020398C06900281FD1FFE70298CC
:1051B0000199D1F80C2222EA0000C1F80C020398F0
:1051C0008188C268406941EA0241019A02EBC0004D
:1051D000C0F84012039801888268406941EA0241A0
:1051E000019A02EBC000C0F84412FFE70398C069BF
:1051F00001281ED1FFE702980199D1F80C22104333
:10520000C1F80C02039881880268406941EA0241B2
:10521000019A02EBC000C0F84012039881898268AD
:10522000406941EA0241019A02EBC000C0F8441211
:10523000FFE703988069002809D1FFE702980199E8
:10524000D1F8042222EA0000C1F8040207E0029823
:105250000199D1F804221043C1F80402FFE7039832
:105260000069002809D1FFE702980199D1F81422BA
:1052700022EA0000C1F8140207E002980199D1F86F
:1052800014221043C1F81402FFE70398006A0128B2
:1052900008D1FFE702980199D1F81C221043C1F808
:1052A0001C02FFE70198D0F8001221F00101C0F8BC
:1052B000001200208DF8170008E00498416A41F4BC
:1052C0008021416201208DF81700FFE79DF817004B
:1052D00006B0704781B0009001B0704786B004906E
:1052E000039102920193049890F820008DF8030036
:1052F0009DF80300012806D0FFE79DF8030002286F
:1053000040F0DC80FFE70398002811D1FFE7049804
:105310000068C0688007002809D1FFE70498416A47
:1053200041F40011416201208DF81700CFE010E038
:105330000498006800698007002809D1FFE70498F5
:10534000416A41F40011416201208DF81700BEE06E
:10535000FFE704980068039900EB0110D0F8B00152
:1053600000F00400029988600298806800280BD140
:10537000FFE704980068039900EB0110D0F8B00132
:10538000400D029908600AE004980068039900EB58
:105390000110D0F8B001C00802994860FFE70498F6
:1053A0000068039900EB0110D0F8B00100F0020092
:1053B0000299C86004980068039900EB0110D0F8C6
:1053C000B40100F00F000299086104980068039985
:1053D00000EB0110D0F8B40180B2000A0299886194
:1053E00004980068039900EB0110D0F8B401000C98
:1053F0000299486104980068039900EB0110D0F805
:10540000B8010199087004980068039900EB011035
:10541000D0F8B801000A019948700498006803990F
:1054200000EB0110D0F8B801000C019988700498C5
:105430000068039900EB0110D0F8B801000E019943
:10544000C87004980068039900EB0110D0F8BC0103
:105450000199087104980068039900EB0110D0F8D5
:10546000BC01000A0199487104980068039900EB97
:105470000110D0F8BC01000C0199887104980068F3
:10548000039900EB0110D0F8BC01000E0199C8711E
:105490000398002807D1FFE704980068C16841F02D
:1054A0002001C16006E004980068016941F0200114
:1054B0000161FFE700208DF8170008E00498416AB9
:1054C00041F48021416201208DF81700FFE79DF82B
:1054D000170006B07047000083B0029000200190D2
:1054E000029890F820008DF803009DF80300012831
:1054F00005D0FFE79DF80300022822D1FFE70298BC
:10550000006880684001002804D5FFE70198013059
:105510000190FFE70298006880680001002804D528
:10552000FFE7019801300190FFE70298006880686A
:10553000C000002804D5FFE7019801300190FFE783
:10554000FFE7019803B0704780B58AB0099000204A
:1055500008900998006840690790099800684068B9
:105560000690099800688068059009980068C068EE
:1055700004900998006800690390099800688069A0
:1055800002909DF81C00C007002800F09780FFE7FC
:105590009DF81400C00700282BD0FFE70998006889
:1055A000012181609DF814008007002804D5FFE7E1
:1055B000099800F071FC1BE09DF8140040070028DA
:1055C00005D5FFE7089840F4006008900FE09DF8CB
:1055D00014000007002805D5FFE7089840F4805024
:1055E000089003E0099800F053FCFFE7FFE7FFE7AE
:1055F000FFE79DF81500C00700282CD0FFE70998A9
:1056000000684FF4807181609DF8150080070028C4
:1056100004D5FFE7099800F047FC1BE09DF8150052
:105620004007002805D5FFE7089840F4005008908F
:105630000FE09DF815000007002805D5FFE7089842
:1056400040F48040089003E0099800F029FCFFE74F
:10565000FFE7FFE7FFE79DF81600C00700282CD002
:10566000FFE7099800684FF4803181609DF81600CB
:105670008007002804D5FFE7099800F01DFC1BE017
:105680009DF816004007002805D5FFE7089840F46C
:10569000004008900FE09DF816000007002805D58F
:1056A000FFE7089840F48030089003E0099800F084
:1056B000FFFBFFE7FFE7FFE7FFE7FFE79DF81C00C1
:1056C0000007002810D5FFE79DF81000C00600284D
:1056D00009D5FFE7089840F4007008900998006821
:1056E0001021C160FFE7FFE79DF81C00400700287C
:1056F0000FD5FFE79DF810000007002808D5FFE749
:10570000099800680821C160099800F0E9FAFFE7EC
:10571000FFE79DF81C00800700280CD5FFE70998DB
:105720000068C0688007002804D0FFE7099800F0EF
:10573000DBFAFFE7FFE79DF81C004006002810D5C4
:10574000FFE79DF80C00C006002809D5FFE7089880
:1057500040F4806008900998006810210161FFE71B
:10576000FFE79DF81C00800600280FD5FFE79DF895
:105770000C000007002808D5FFE7099800680821F9
:105780000161099800F032FBFFE7FFE79DF81C007C
:10579000C00600280CD5FFE709980068006980075B
:1057A000002804D0FFE7099800F024FBFFE7FFE79B
:1057B0009DF81E00800700280FD5FFE79DF8180010
:1057C000C006002808D5FFE709980068102141604D
:1057D000099800F013FBFFE7FFE79DF81E00C007E4
:1057E00000280FD0FFE79DF818000007002808D513
:1057F000FFE70998006808214160099800F060FB04
:10580000FFE7FFE79DF81D000006002840F18F80AC
:10581000FFE79DF818004007002840F18380FFE76C
:105820009DF81D00C00700280BD0FFE79DF8080079
:10583000C007002805D0FFE7089840F00100089055
:10584000FFE79DF81D00800700280BD5FFE79DF8B6
:1058500008008007002805D5FFE7089840F00200FF
:105860000890FFE79DF81D00400700280BD5FFE7D3
:105870009DF808004007002805D5FFE7089840F08C
:1058800004000890FFE79DF81D000007002848D598
:10589000FFE79DF8080010F0700F42D0FFE7029874
:1058A00000F0700001461028019114D0FFE7019824
:1058B000202815D0FFE70198302816D0FFE701987F
:1058C000402817D0FFE70198502818D0FFE701982B
:1058D000602819D01DE0089840F00800089019E0F1
:1058E000089840F01000089014E0089840F020005C
:1058F00008900FE0089840F0400008900AE00898EF
:1059000040F08000089005E0089840F4807008900E
:1059100000E0FFE709980068816921F0700181616A
:10592000FFE7FFE70998006804214160FFE7089856
:10593000002809D0FFE7089809994A6A104348628D
:105940000998FFF7C7FCFFE70AB080BD80B584B0B7
:1059500002900298002804D1FFE701208DF80F0083
:10596000E8E0029890F82000002804D1FFE70298B0
:1059700000F0E4F8FFE702980068016841F00101D7
:10598000016001F007F8019002980068016821F0B9
:1059900002010160FFE7029800684068C007002824
:1059A00015D1FFE700F0F6FF0199401A0B280DD33F
:1059B000FFE70298416A41F40031416202980521F3
:1059C00080F8201001208DF80F00B3E0E3E7029883
:1059D0000068016821F00201016000F0DBFF019026
:1059E000FFE70298006840688007002815D5FFE7A8
:1059F00000F0D0FF0199401A0B280DD3FFE7029861
:105A0000416A41F4003141620298052180F820107A
:105A100001208DF80F008DE0E3E70298007E012859
:105A200007D1FFE702980068016841F0800101603A
:105A300006E002980068016821F080010160FFE73C
:105A40000298407E012807D1FFE7029800680168AC
:105A500041F04001016006E002980068016821F011
:105A600040010160FFE70298807E012807D1FFE72F
:105A700002980068016841F02001016006E0029888
:105A80000068016821F020010160FFE70298C07EF4
:105A9000012807D1FFE702980068016821F0100192
:105AA000016006E002980068016841F010010160A1
:105AB000FFE70298007F012807D1FFE702980068FE
:105AC000016841F00801016006E002980068016881
:105AD00021F008010160FFE70298407F012807D10B
