:020000040002F8
:10000000E8F1FF1F71090200B149030069E602002F
:10001000034903008D520200DBB903000000000019
:100020000000000000000000000000009509020030
:100030006DA80200000000002D0A02003D0A020027
:10004000C9E90200D9E90200E9E90200F9E9020080
:1000500009EA020019EA020029EA020039EA02006C
:1000600049EA020059EA020069EA020079EA02005C
:1000700089EA020099EA0200A9EA0200B9EA02004C
:10008000C9EA0200D9EA0200E9EA0200F9EA02003C
:1000900009EB020019EB020029EB020039EB020028
:1000A00049EB020059EB020069EB020079EB020018
:1000B00089EB020099EB0200A9EB0200B9EB020008
:1000C000C9EB0200D9EB0200E9EB0200F9EB0200F8
:1000D00009EC020019EC020029EC020039EC0200E4
:1000E00049EC020059EC020069EC020079EC0200D4
:1000F00089EC020099EC0200A9EC0200B9EC0200C4
:10010000C9EC0200D9EC0200E9EC0200F9EC0200B3
:1001100009ED020019ED020029ED020039ED02009F
:1001200049ED020059ED020069ED020079ED02008F
:1001300089ED020099ED0200A9ED0200B9ED02007F
:10014000C9ED0200D9ED0200E9ED0200F9ED02006F
:1001500009EE020019EE020029EE020039EE02005B
:1001600049EE020059EE020069EE020079EE02004B
:1001700089EE020099EE0200A9EE0200B9EE02003B
:10018000C9EE0200D9EE0200E9EE0200F9EE02002B
:1001900009EF020019EF020029EF020039EF020017
:1001A00049EF020059EF020069EF020079EF020007
:1001B00089EF020099EF0200A9EF0200B9EF0200F7
:1001C000C9EF0200D9EF0200E9EF0200F9EF0200E7
:1001D00009F0020019F0020029F0020039F00200D3
:1001E00049F0020059F0020069F0020079F00200C3
:1001F00089F0020099F00200A9F00200B9F00200B3
:10020000C9F00200D9F00200E9F00200F9F00200A2
:1002100009F1020019F1020029F1020039F102008E
:1002200049F1020059F1020069F1020079F102007E
:1002300089F1020099F10200A9F10200B9F102006E
:10024000C9F1020019F3020005F80200B9FC02002E
:1002500011000300B9030300410703007D090300F7
:100260008D0D03009D110300DD140300751A0300BA
:10027000591F0300E522030059260300F528030057
:10028000DFF80CD000F062FF00480047C711020001
:10029000E8F1FF1F0246D2E84F0FC2E8431F03B147
:1002A000F9E77047024652E8000F40EA010042E8D1
:1002B000000303B1F7E7704710B5024652E8000F9C
:1002C00020EA010442E8004303B1F7E710BD10B58E
:1002D000024652E8000F00EA01048C4203D0BFF34B
:1002E0002F8F002010BD20EA010442E8004303B133
:1002F000EFE710BD10B5024652E8000F084203D1E7
:10030000BFF32F8F002010BD20EA010442E8004314
:1003100003B1F1E710BD024652E8000F411C42E86C
:10032000001303B1F8E7704710B50246D2E85F0F3B
:10033000814202D8BFF32F8F10BD441CC2E8534F37
:1003400003B1F3E710BD10B50246D2E85F0F441CBD
:10035000A14200D80024C2E8534F03B1F5E710BD15
:10036000024652E8000F411E42E8001303B1F8E7CD
:100370007047024652E8000F10B9BFF32F8F704745
:10038000411E42E8001303B1F4E770470246D2E889
:100390005F0F10B9BFF32F8F7047411EC2E8531F84
:1003A00003B1F4E77047024652E8000F10B9BFF3FB
:1003B0002F8F7047016842E8001303B1F4E77047DC
:1003C00002680A60BFF35F8F50E8002F0B6893420A
:1003D000F6D140E8001303B1F2E770470246D2E8D5
:1003E0004F0FC2E8431F03B1F9E77047024652E8D6
:1003F000000F40EA010042E8000303B1F7E770474D
:1004000010B5024652E8000F20EA010442E800431A
:1004100003B1F7E710BD10B5024652E8000F00EA3D
:1004200001048C4203D0BFF32F8F002010BD20EABF
:10043000010442E8004303B1EFE710BD10B50246E6
:1004400052E8000F084203D1BFF32F8F002010BDE8
:1004500020EA010442E8004303B1F1E710BD02467F
:1004600052E8000F411C42E8001303B1F8E770475F
:1004700010B50246D2E85F0F814202D8BFF32F8F3A
:1004800010BD441CC2E8534F03B1F3E710BD10B5D3
:100490000246D2E85F0F441CA14200D80024C2E803
:1004A000534F03B1F5E710BD024652E8000F411E5D
:1004B00042E8001303B1F8E77047024652E8000F24
:1004C00010B9BFF32F8F7047411E42E8001303B1EC
:1004D000F4E770470246D2E85F0F10B9BFF32F8FE1
:1004E0007047411EC2E8531F03B1F4E7704702464C
:1004F00052E8000F10B9BFF32F8F7047016842E830
:10050000001303B1F4E7704702680A60BFF35F8F1E
:1005100050E8002F0B689342F6D140E8001303B176
:10052000F2E770470246D2E84F0FC2E8431F03B11B
:10053000F9E77047024652E8000F40EA010042E83E
:10054000000303B1F7E7704710B5024652E8000F09
:1005500020EA010442E8004303B1F7E710BD10B5FB
:10056000024652E8000F00EA01048C4203D0BFF3B8
:100570002F8F002010BD20EA010442E8004303B1A0
:10058000EFE710BD10B5024652E8000F084203D154
:10059000BFF32F8F002010BD20EA010442E8004382
:1005A00003B1F1E710BD024652E8000F411C42E8DA
:1005B000001303B1F8E7704710B50246D2E85F0FA9
:1005C000814202D8BFF32F8F10BD441CC2E8534FA5
:1005D00003B1F3E710BD10B50246D2E85F0F441C2B
:1005E000A14200D80024C2E8534F03B1F5E710BD83
:1005F000024652E8000F411E42E8001303B1F8E73B
:100600007047024652E8000F10B9BFF32F8F7047B2
:10061000411E42E8001303B1F4E770470246D2E8F6
:100620005F0F10B9BFF32F8F7047411EC2E8531FF1
:1006300003B1F4E77047024652E8000F10B9BFF368
:100640002F8F7047016842E8001303B1F4E7704749
:1006500002680A60BFF35F8F50E8002F0B68934277
:10066000F6D140E8001303B1F2E770470246D2E842
:100670004F0FC2E8431F03B1F9E77047024652E843
:10068000000F40EA010042E8000303B1F7E77047BA
:1006900010B5024652E8000F20EA010442E8004388
:1006A00003B1F7E710BD10B5024652E8000F00EAAB
:1006B00001048C4203D0BFF32F8F002010BD20EA2D
:1006C000010442E8004303B1EFE710BD10B5024654
:1006D00052E8000F084203D1BFF32F8F002010BD56
:1006E00020EA010442E8004303B1F1E710BD0246ED
:1006F00052E8000F411C42E8001303B1F8E77047CD
:1007000010B50246D2E85F0F814202D8BFF32F8FA7
:1007100010BD441CC2E8534F03B1F3E710BD10B540
:100720000246D2E85F0F441CA14200D80024C2E870
:10073000534F03B1F5E710BD024652E8000F411ECA
:1007400042E8001303B1F8E77047024652E8000F91
:1007500010B9BFF32F8F7047411E42E8001303B159
:10076000F4E770470246D2E85F0F10B9BFF32F8F4E
:100770007047411EC2E8531F03B1F4E770470246B9
:1007800052E8000F10B9BFF32F8F7047016842E89D
:10079000001303B1F4E7704702680A60BFF35F8F8C
:1007A00050E8002F0B689342F6D140E8001303B1E4
:1007B000F2E770470246D2E84F0FC2E8431F03B189
:1007C000F9E77047024652E8000F40EA010042E8AC
:1007D000000303B1F7E7704710B5024652E8000F77
:1007E00020EA010442E8004303B1F7E710BD10B569
:1007F000024652E8000F00EA01048C4203D0BFF326
:100800002F8F002010BD20EA010442E8004303B10D
:10081000EFE710BD10B5024652E8000F084203D1C1
:10082000BFF32F8F002010BD20EA010442E80043EF
:1008300003B1F1E710BD024652E8000F411C42E847
:10084000001303B1F8E7704710B50246D2E85F0F16
:10085000814202D8BFF32F8F10BD441CC2E8534F12
:1008600003B1F3E710BD10B50246D2E85F0F441C98
:10087000A14200D80024C2E8534F03B1F5E710BDF0
:10088000024652E8000F411E42E8001303B1F8E7A8
:100890007047024652E8000F10B9BFF32F8F704720
:1008A000411E42E8001303B1F4E770470246D2E864
:1008B0005F0F10B9BFF32F8F7047411EC2E8531F5F
:1008C00003B1F4E77047024652E8000F10B9BFF3D6
:1008D0002F8F7047016842E8001303B1F4E77047B7
:1008E00002680A60BFF35F8F50E8002F0B689342E5
:1008F000F6D140E8001303B1F2E770470246D2E8B0
:100900004F0F411CC2E8431F03B1F8E7704702468E
:1009100052E8000F411C42E8001303B1F8E77047AA
:10092000024652E8000F42E8001303B1F9E77047AE
:10093000024652E8000F830103D3BFF32F8F00203C
:10094000704700F00040084342E8000303B1F0E7BD
:100950007047024652E8000F800103D2BFF32F8F89
:100960000020704742E8001303B1F3E7012070470D
:100970000648804706480047FEE7FEE7FEE7FEE739
:10098000FEE7FEE7FEE7FEE7FEE7FEE74181030044
:10099000810202001EF0040F0CBFEFF30880EFF39A
:1009A0000980816911F8021C91BB01B590E80F1014
:1009B000E047BDE800508CE80300244B93E80600B4
:1009C000914208BF704741B91EF0100F10D1204965
:1009D000086820F0010008600AE02CE9F00F1EF022
:1009E000100F08BF2CED108AC1F838C081F822E042
:1009F0001A6092F82210906B61F0FF0E1EF0100F3B
:100A000008BFB0EC108AB0E8F00F80F30988704797
:100A1000104A13689942FAD801B552F821C00FC89C
:100A2000E047BDE80050CCF80000704701B523F066
:100A30003BFDBDE80140EFF3098CBEE701B524F0B2
:100A400049F8BDE80140EFF3098CB6E724D7FE1F53
:100A500034EF00E0646604002DE9F05F05460020F5
:100A600092469B4688460646814640241BE028461F
:100A700041464746224600F028FA53465A46C01AD5
:100A8000914110D311461846224600F00FFA2D1A54
:100A900067EB01084F4622460120002100F006FACC
:100AA00017EB00094E41201EA4F10104DFDC48468B
:100AB00031462A464346BDE8F09F40EA01039B07C2
:100AC00003D009E008C9121F08C0042AFAD203E0C3
:100AD00011F8013B00F8013B521EF9D27047D2B227
:100AE00001E000F8012B491EFBD270470022F6E717
:100AF00010B513460A4604461946FFF7F0FF204694
:100B000010BD10B5002200E0521C835C8C5CA34237
:100B100001D1002BF8D1D8B2E1B2401A10BD30B5E6
:100B200004460020034600E05B1C934203D2E05CD5
:100B3000CD5C401BF8D030BD2DE9FE4F804681EAE8
:100B40000300C00F0C46009021F0004123F0004547
:100B5000B8EB0200A94105D24046214690461C460A
:100B60000B46024623F00040104347D0270DC7F341
:100B70000A00C3F30A510290401A019040286BDA30
:100B8000C3F3130040F4801B0098924620B1002369
:100B9000D2EB030A63EB0B0B01985946C0F14002FC
:100BA000504600F083F906460D4650465946019AD4
:100BB00000F09BF910EB08006141002487EA115214
:100BC00084EAE7731A4340D0009A62B3019A012A7B
:100BD0004FEA075215DC001B61EB02014FF00042A7
:100BE00002EA0752CDE90042001C41F5801132466D
:100BF0002B4600F0D2F903B0BDE8F08F4046214605
:100C0000F9E7001B61EB0201001C41F5801300189D
:100C10005B412018A2F5001747EB030140EAD570AD
:100C2000B6196D4111E06D084FEA360645EAC07508
:100C30004FEA0752001B61EB0201001C41F58011D5
:100C400049084FEA30000019514132462B4603B0A3
:100C5000BDE8F04F00F092B9009801224000002357
:100C6000D0EB020263EBE073009821464FEAE07498
:100C7000B8EB000061EB0401E9E783F000435BE7B8
:100C800081F0004158E72DE9F04D81EA030404F0BA
:100C9000004B21F0004514464FF0000A23F00041BC
:100CA00050EA050220D054EA01021DD0C5F30A57CC
:100CB0000246C5F31303C1F31300C1F30A5640F40F
:100CC000801543F48013A7EB0608101BD64608F2E4
:100CD000FD3873EB050002D308F1010801E092181A
:100CE0005B41B8F1000F03DA00200146BDE8F08D4A
:100CF00000204FF48011064684460EE0171B73EB6C
:100D0000050705D3121B63EB050306434CEA010CF0
:100D100049084FEA300092185B4150EA0107EDD1D3
:100D200052EA030012D082EA040083EA0501084374
:100D300005D0101BAB4106D20122002306E00022A1
:100D40004FF0004302E06FF0010253101AEB06006F
:100D50004CEB085110EB0A0041EB0B01BDE8F04DE4
:100D600000F00CB90EB540F2334102910021CDE9FB
:100D700000110A460B4600F010F903B000BD0EB595
:100D800040F2334202920022CDE90022134600F0E5
:100D900004F903B000BD20F00040C20DC0F31600FE
:100DA00040F400007F2A02DA00200146704700214B
:100DB000962A03DCC2F19602D0407047963A00F0C2
:100DC00075B800F0004230F000400AD0C10D01F5C6
:100DD0006071C0F3160042EA0151C2084007114396
:100DE000704700200146704730B5041E71F10004C1
:100DF00004DB4FF00044404264EB0101141E73F128
:100E0000000405DB1C464FF00043524263EB040331
:100E10008B4208BF824230BD30B5041E71F1000420
:100E200004DB4FF00044404264EB0101141E73F1F7
:100E3000000405DB1C464FF00043524263EB040301
:100E4000994208BF904230BD01F0004330B421F018
:100E5000004150EA010206D00A0DA2F56072C1F30A
:100E60001301002A02DC30BC00207047440F44EA22
:100E7000C104C100E01830BC00EBC25000F047B81C
:100E800030B50B46014600202022012409E021FA5A
:100E900002F59D4205D303FA02F5491B04FA02F557
:100EA0002844151EA2F10102F1DC30BD202A04DB2A
:100EB000203A00FA02F1002070479140C2F120036D
:100EC00020FA03F3194390407047202A04DB203AAC
:100ED00021FA02F00021704721FA02F3D040C2F15A
:100EE00020029140084319467047202A06DBCB17A1
:100EF000203A41FA02F043EAE07306E041FA02F3D5
:100F0000D040C2F1200291400843194670470029A1
:100F1000A8BF7047401C490008BF20F0010070477F
:100F200010B4B0FA80FC00FA0CF050EA010404BFDF
:100F300010BC704749B1CCF1200421FA04F411FA35
:100F40000CF118BF012121430843A3EB0C01CB1D79
:100F50004FEA00614FEA102042BF002010BC7047EA
:100F600000EBC35010440029A4BF10BC7047401CC4
:100F7000490008BF20F0010010BC704710B5141ED6
:100F800073F1000408DA401C41F1000192185B4142
:100F90001A4301D120F0010010BD2DE9F04D924619
:100FA0009B4611B1B1FA81F202E0B0FA80F2203230
:100FB0009046FFF77BFF04460F4640EA0A0041EAED
:100FC0000B0153465A46084313D0114653EA010019
:100FD00019D0C8F140025046FFF777FF05460E468C
:100FE000504659464246FFF761FF084305D00120AD
:100FF00004E020463946BDE8F08D0020054346EA6E
:10100000E0762C4337430A986305E40AA0EB080016
:101010000022FD0A44EA47540A3002D50020014666
:10102000E9E7010510196941DDE908450019694141
:10103000BDE8F04DA2E72DE9FE4F81EA030404F07C
:10104000004421F0004100944FF0000B23F00043D6
:1010500050EA01045ED052EA03045BD0C3F30A54A1
:10106000C1F30A552C44A4F2F3340194A0FB0254BA
:10107000C1F3130141F48011C3F3130343F480134C
:1010800001FB024400FB034E840A970A44EA8154A0
:1010900047EA8357A4FB076802958D0A05FB07857D
:1010A0004FEA932C04FB0C542705029D4FEA065887
:1010B00047EA1637B5EB08056EEB070C870E920E64
:1010C00047EA811742EA8312A7FB0201B6EB0B0144
:1010D00064EB00042B0D43EA0C335E1844EB1C5008
:1010E000DA465146E7FB0201C5F313044FEA0B331E
:1010F00043EA14534FEA0432019C43EA0603A4F185
:101100000C040294009CCDE900B4FFF746FF03B045
:10111000BDE8F08F00200146F9E7C1F30A52C1F3A0
:10112000130140F2FF3341F480119A4202DA0020A9
:101130000146704740F233439A42A2F2334202DC46
:101140005242FFF7C2BEFFF7B1BE0000064C074D8A
:1011500006E0E06840F0010394E807009847103487
:10116000AC42F6D3FFF790F8B8680400D8680400E2
:1011700070B58C1810F8015B15F0070301D110F859
:10118000013B2A1106D110F8012B03E010F8016B86
:1011900001F8016B5B1EF9D12B0705D40023521E09
:1011A0000DD401F8013BFAE710F8013BCB1A921C71
:1011B00003E013F8015B01F8015B521EF9D5A1426F
:1011C000D8D3002070BD10B516F04AFF22F0D0FD34
:1011D000002010BD2DE9F04F85B0804615461C4615
:1011E0000026002003900490002781460290019081
:1011F0000090E020019020889DF80410415520883F
:10120000401C2080FE48008818F8000002909DF8DD
:101210000800012803DB9DF80800032815DD4FF0C6
:1012200008090120009020889DF808104155208869
:10123000401C208020889DF8001041552088401CCB
:101240002080484605B0BDE8F08F9DF808000128D1
:1012500004D002284ED003287ED17EE2E9480078EF
:1012600000283CD10120E749087021F081F822F0E4
:10127000E7FD8246E448006823F08CFD0020E34946
:101280000870E348006823F0DFFDE248006823F0BF
:1012900081FDE148006823F07DFDE048006823F00F
:1012A00079FD012019F008FA4A2020F0CFF9032037
:1012B00019F002FA502020F0C9F90F2020F0C6F9E9
:1012C000012020F0C3F9022020F0C0F922F00AFE2C
:1012D0008346584622F0CEFD504622F0CBFD012039
:1012E00021F046F820889DF8081041552088401CC0
:1012F000208041E2C3480078012869D1C8480078BD
:10130000022803D0C64800781628F6D1BC480088C9
:10131000404440780006BA4909884144897800EB86
:101320000140B74909884144C97800EB0120B4491C
:101330000988414409794618B1480088404450F86A
:10134000051F039140680490082203A9304604F069
:1013500025F8300E1C2800E00DE204D1F02000EA50
:101360001640B02835D0300E1C2804D1F02000EAF9
:101370001640A0282DD0300E1C2804D1F02000EA01
:101380001640D02825D00020A649087000E000BFF4
:10139000A548007B0028FAD020889DF80810415508
:1013A0002088401C2080208828449F4909680160CB
:1013B0002088001D2080208828449B494A680260BC
:1013C0008968416020880830208000209649087391
:1013D0007EE0300E1C2839D1F02000EA1640A0280B
:1013E00034D100208F49087008E0781C87B20120B2
:1013F00020F0BEFF8C48007B00B102E0B7F5FA5F39
:10140000F3DB00BFB7F5FA5F1CDA20889DF80810FF
:1014100041552088401C2080208828448249096842
:1014200001602088001D2080208828447E494A6869
:1014300002608968416020880830208000207A4955
:10144000087345E001207749087041E0300E1C2800
:101450003BD1F02000EA1640D02836D10020714957
:10146000087008E0781C87B2012020F081FF6E48E8
:10147000007B00B103E040F6B8308742F2DB00BFEA
:1014800040F6B83087421CDA20889DF80810415594
:101490002088401C20802088284463490968016016
:1014A0002088001D2080208828445F494A68026007
:1014B0008968416020880830208000205A490873DC
:1014C00006E001205749087002E0012055490870E4
:1014D0004C480078012863D151480078012803D096
:1014E0004F4800780B28F6D14548008840444078A2
:1014F0000006434909884144897800EB014040498E
:1015000009884144C97800EB01203D4909884144DC
:10151000097946183A480088404450F8051F03915D
:1015200040680490082203A9304603F037FF300ECC
:1015300010283AD1C6F30740512836D10020394946
:10154000087008E0781C87B2642020F01BFF364842
:10155000007B00B103E042F210708742F2DB00BF73
:1015600042F2107087421CDA20889DF8081041551D
:101570002088401C2080208828442B49096801606D
:101580002088001D20802088284427494A6802605E
:101590008968416020880830208000202249087333
:1015A000DAE001201F490870D6E0300E102852D131
:1015B000C6F3074052284ED100201A49087009E0AE
:1015C000781C87B24FF47A7020F0DCFE1648007B5E
:1015D00000B103E044F620608742F1DB00BF44F62F
:1015E0002060874233DA20889DF808104155208812
:1015F000401C2080208828440B490968016015E0C0
:101600003CD6FE1F08D6FE1F04CEFE1F0008044075
:101610003CCEFE1F0CCEFE1F10CEFE1F24CEFE1FA2
:1016200084CEFE1F1FD6FE1FB4D9FE1F2088001DCA
:1016300020802088284452494A68026089684160B5
:1016400020880830208000204D49087384E0012064
:101650004C49087080E0300E10283BD1C6F307409B
:10166000552837D100204749087009E0781C87B217
:101670004FF47A7020F086FE4148007B00B103E011
:1016800043F698208742F1DB00BF43F6982087425B
:101690001CDA20889DF8081041552088401C2080C5
:1016A000208828443649096801602088001D208070
:1016B0002088284432494A6802608968416020884D
:1016C0000830208000202E49087345E001202D4974
:1016D000087041E0300E10283BD1C6F30740562871
:1016E00037D100202749087009E0781C87B24FF4F1
:1016F0007A7020F047FE2248007B00B103E043F6F9
:1017000098208742F1DB00BF43F6982087421CDA1D
:1017100020889DF8081041552088401C2080208892
:1017200028441749096801602088001D208020880E
:10173000284413494A68026089684160208808305B
:10174000208000200E49087306E001200D49087032
:1017500002E001200B4908700EE002200A490870DF
:1017600000200849087020889DF8081041552088FD
:10177000401C208000E000BF00BF484662E500003A
:10178000B4D9FE1F1FD6FE1F08D6FE1F7CB5044627
:101790000D46012C0ED14FF0815040EA052614A1D0
:1017A00003C9CDE9000108236A463146124804F016
:1017B0005FFE00BF022C19D14FF6FF7000EAC52072
:1017C0000E4940EA010600200090019001208DF8AA
:1017D000000020208DF8010005208DF8030008236B
:1017E0006A463146044804F043FE00BF7CBD000059
:1017F0000062000000000000008007400B0008C6E7
:101800007CB504460D46022C19D14FF6FF7000EA54
:10181000C5200B4940EA01060020009001900120FC
:101820008DF8000020208DF80100BE208DF8030007
:1018300008236A463146034804F01AFE00BF7CBD07
:101840000B0008C6008007407FB52B4E0020029099
:10185000039037208DF8090033208DF80F00002009
:10186000264981F828000021244880F82910002406
:101870000AE0082302AA3146214804F0F9FDC820F5
:1018800022F08CFA601CC4B2032CF2DB1B4890F8E7
:101890002800332802D1012004B070BD0020174970
:1018A00081F828000021154880F82910154D0020E6
:1018B0000090019001208DF800001F208DF803009A
:1018C00033208DF8070000240AE008236A462946E1
:1018D0000B4804F0CDFDC82022F060FA601CC4B2B1
:1018E000032CF2DB054890F82800332801D10220B0
:1018F000D2E70020D0E7000000FF201084CEFE1FBA
:10190000008007400B0000C6F0B52DED028B81B0C2
:101910000546B0EE408A284608F092FB9FED1B0A70
:10192000F0EE408A002000909FED190A28EE000A90
:10193000F0EE408AB0EE040AF4EEC08AF1EE10FA3E
:1019400003DDB0EE040AF0EE408A9FED120A28EEA5
:10195000800AF0EE040A80EE201ABCEEC10A8DED7A
:10196000000A0098000100906E460127002406E05E
:1019700036F8242091B2286808F0F8F9641CBC42BB
:10198000F6D300BF01B0BDEC028BF0BD000000003B
:101990006AA4D53E00F07F4510B5044620780128A2
:1019A00017D1C10205200BF001FC012020F0EAFC58
:1019B0004FF4006105200BF015FD012020F0E2FC42
:1019C0004FF4006105200BF0F1FB012020F0DAFC60
:1019D00019E02078022816D1010305200BF0E6FB60
:1019E000012020F0CFFC4FF4005105200BF0FAFC51
:1019F000012020F0C7FC4FF4005105200BF0D6FB6E
:101A0000012020F0BFFC10BD10B54FF4004009F0DC
:101A1000E5FC01280CD1C00309F0ACFC054800F03E
:101A200079F80121034800F021F8032002490870E9
:101A300010BD000018D2FE1F14D2FE1F10B50120E9
:101A400009F0CCFC01280BD109F094FC054800F00A
:101A500061F80121034800F009F8032002490870E9
:101A600010BD00006CD2FE1F14D2FE1F10B50A4636
:101A7000511E274B1B88994217DD00210DE000F114
:101A8000140353F82140831C33F911301C4400F136
:101A9000140343F821404B1C99B20829EFD31C4989
:101AA0000988491C1A4B198030E000210DE000F133
:101AB000140353F82140831C33F911301C4400F106
:101AC000140343F821404B1C99B20829EFD300219D
:101AD0000BE000F1140353F8213093FBF2F400F112
:101AE000340343F821404B1C99B20829F1D300215B
:101AF00006E0002400F1140343F821404B1C99B286
:101B00000829F6D342820021014B198010BD000044
:101B1000C0D2FE1F70B50546002400262878012893
:101B200016D1012103200BF041FB00BF09E0A81CE6
:101B300000EB44010122144816F002F80646601C2E
:101B4000C4B2082CF3D3012103200BF04BFC18E0A6
:101B50002878022815D1022103200BF027FB00244E
:101B600009E0A81C00EB44010122074815F0E8FF3A
:101B70000646601CC4B2082CF3D3022103200BF0EC
:101B800031FC304670BD000000C8014000B591B086
:101B90000121880413F03AFB0CA80BF0BBFC2020B9
:101BA000ADF836000CAA410102200BF06FF90CAA27
:101BB0004FF4805102200BF069F90020ADF8360097
:101BC0004FF48060ADF83E000CAA410002200BF0FB
:101BD0005DF9002313224FF4806102200BF082FB99
:101BE000002313224FF4006102200BF07BFB002343
:101BF00013224FF4805102200BF074FB114815F0B2
:101C0000E9FB01A815F0AEFF012001900020029031
:101C10000820039000200490059006900320079070
:101C2000082008904FF44060099000200A9001A914
:101C3000044815F003FE0121024815F0A9FD11B07A
:101C400000BD000000C8014010B5044620781449CA
:101C50000870207801280FD1010305200BF0A6FAA7
:101C6000012020F08FFB4FF4805105200BF0BAFBD0
:101C7000012020F087FB11E0207802280ED14103DB
:101C800005200BF093FA012020F07CFB4FF48041FB
:101C900005200BF0A7FB012020F074FB10BD000015
:101CA00014D2FE1F704770477047704770477047E7
:101CB000704770477047704770477047704770476C
:101CC000704700002DE9F04104460D46164600BF5E
:101CD0001548844205D01548844202D014488442F5
:101CE00000D104E04FF4197112A008F03BFA00BFD4
:101CF00000BF0EB1012E00D104E040F265210DA01D
:101D000008F030FA00BFD4F80C80276948EA0700D1
:101D10000540012E03D160692843606102E06069DB
:101D2000A8436061BDE8F081000004400004044065
:101D3000000804402E2E5C2E2E5C4C69627261728B
:101D40006965735C6472697665725C7372635C6802
:101D5000633332663461305F6164632E6300000078
:101D600070B505460C4600BF1448854205D014489E
:101D7000854202D01348854200D104E040F24A2156
:101D800011A008F0EFF900BF00BF34B12CB124B1AD
:101D90001CB114B10CB104B104B904E040F24B2100
:101DA00009A008F0DFF900BF68884FF6FF0108407E
:101DB00004F4E0610843688070BD00000000044046
:101DC00000040440000804402E2E5C2E2E5C4C695A
:101DD000627261726965735C6472697665725C7364
:101DE00072635C68633332663461305F6164632EB2
:101DF000630000002DE9F04F85B004460E461546FD
:101E00009846DDF838A04FF00009CB463A4A07CA99
:101E100001AF07C704200090B8F1000F68D000BFE1
:101E20003648844205D03648844202D03548844240
:101E300000D104E04FF4037133A008F093F900BF20
:101E400000BF0EB1012E00D104E040F20D212EA002
:101E500008F088F900BF00BFBAF1000F02D0BAF154
:101E6000010F00D104E040F20E2127A008F07AF91A
:101E700000BF04F10C0000EB8607143004902046EC
:101E8000C0F3872001A951F820000540BAF1010FE5
:101E900029D138682843386022E005F00100B8B144
:101EA00000BF18F80B00052800D304E04FF40771B9
:101EB00015A008F057F900BF18F80B10049800F8A7
:101EC0000910B9F1100F03D20BF1010000F0FF0B64
:101ED0006D08B9F1100F03D209F1010000F0FF09FC
:101EE000002DDAD102E03868A84338600020009065
:101EF000009805B0BDE8F08F5C620400000004406B
:101F000000040440000804402E2E5C2E2E5C4C6918
:101F1000627261726965735C6472697665725C7322
:101F200072635C68633332663461305F6164632E70
:101F3000630000002DE9F04705460C4690464FF03F
:101F4000000A00BF2548854205D02548854202D0B9
:101F50002448854200D104E040F2FC4122A008F070
:101F600001F900BF00BFB8F10F0F00D804E040F244
:101F7000FD411DA008F0F6F800BF00BF3CB14FF6D0
:101F8000FF7020434FF6FF71884200D104E040F219
:101F9000FE4115A008F0E6F800BF05F1380918E089
:101FA00004F0010090B14FEA9A064FEA8A70070FD9
:101FB00039F816000F21B940884308FA07F10F22BB
:101FC000BA4092B21140084329F8160064080AF199
:101FD000010A002CE4D1BDE8F087000000000440B5
:101FE00000040440000804402E2E5C2E2E5C4C6938
:101FF000627261726965735C6472697665725C7342
:1020000072635C68633332663461305F6164632E8F
:10201000630000002DE9F04705460C46002600BF8E
:102020002148854205D02148854202D0204885427A
:1020300000D104E040F229511EA008F093F800BF3F
:1020400000BF3CB14FF6FF7020434FF6FF7188424E
:1020500000D104E040F22A5116A008F083F800BF36
:1020600000BF1CB1601E204000B904E040F22B51BB
:1020700010A008F077F800BF00E0761C0120B04007
:1020800020400028F9D0B708B0074FEA107A05F1D0
:10209000380000EB4708B8F8000040FA0AF000F0FA
:1020A0000F094846BDE8F0870000044000040440E2
:1020B000000804402E2E5C2E2E5C4C696272617208
:1020C0006965735C6472697665725C7372635C687F
:1020D000633332663461305F6164632E63000000F5
:1020E00070B505460C460426002C65D000BF334869
:1020F000854205D03248854202D03248854200D11F
:1021000004E040F24F1130A008F02CF800BF00BFEF
:10211000208840B12088012805D02088022802D0DC
:102120002088032800D104E04FF4A87126A008F00D
:1021300019F800BF00BF6088202804D060881028EC
:1021400001D0608800B904E040F251111EA008F0EF
:1021500009F800BF00BFA08810B1A088402800D1B6
:1021600004E04FF4A97118A007F0FCFF00BF00BF06
:10217000E08810B1E088802800D104E040F25311DB
:1021800011A007F0EFFF00BF00BF208910B1208928
:10219000042800D104E04FF4AA710BA007F0E2FF7D
:1021A00000BF208861880843A1880843E18808436C
:1021B00068802089A8800026304670BD0000044059
:1021C00000040440000804402E2E5C2E2E5C4C6956
:1021D000627261726965735C6472697665725C7360
:1021E00072635C68633332663461305F6164632EAE
:1021F000630000001CB50120019000200090012325
:102200006A4601A9014815F0C3FC1CBD00C4014089
:102210001CB5F02001900020009001236A4601A91E
:10222000034815F0B5FC642020F0A2F81CBD0000A6
:1022300000C4014070B504460D46002605EB0410AD
:10224000C6B23146012000F04BFB70BD2DE9F041D4
:1022500088B00024002500260027A0460020079013
:1022600006908DF814008DF815008DF816008DF885
:10227000100008208DF8110000208DF80C008DF85A
:102280000D008DF80E00D020029001208DF8000086
:102290008DF801008DF802008DF8030000208DF804
:1022A000040001208DF8050000208DF806000120B3
:1022B0008DF807009DF814009DF8151008439DF84F
:1022C000161040EA01049DF811009DF8101040EA34
:1022D0000110C5B29DF80C009DF80D1008439DF843
:1022E0000E1040EA01069DF808709DF80000C0013C
:1022F0009DF8011040EA81109DF8021040EA41105B
:102300009DF8031040EA01109DF8041040EAC10056
:102310009DF8051040EA81009DF8061040EA410052
:102320009DF80710084300F0FF0850200790012394
:1023300006AA07A9224815F02BFC042007900123C8
:1023400006AA07A91E4815F023FC0794012306AA34
:1023500007A91B4815F01CFC0795012306AA07A92D
:10236000174815F015FC0796012306AA07A914487B
:1023700015F00EFC0797012306AA07A9104815F0CF
:1023800007FCCDF81C80012306AA07A90C4815F00C
:10239000FFFBFFF73DFF00200A49087009E0C82055
:1023A0001FF0F0FF0AF064FD06480078401C054964
:1023B0000870044800781928F1DB08B0BDE8F08106
:1023C00000C40140C3D2FE1F2DE9F05F05460E4652
:1023D00017461C46DDF828904FF0000A00BF4FF06A
:1023E000040B4FF4C87004FB00F876B106F001004E
:1023F00080F0010048B147B107F0010080F0010012
:1024000018B114B1B8F1000F03D101208346BDE823
:10241000F09F287808B90120287014E099F800008E
:1024200001280ED1002089F8000006EB0A101022C6
:102430003946FEF742FB0AF1010000F0FF0A601E78
:10244000C4B2A8F1010814B1B8F1000FE6D12CB95B
:10245000B8F1000F02D04FF0000B03E04FF00A0B71
:10246000002028705846D2E7012902D101220270CB
:1024700002E009B9002202707047000010B5084858
:10248000007800F01BF806480078401C04490870EA
:1024900008460078282801D10020087010BD0000EF
:1024A000E9CFFE1F0146042031B100220A804A8094
:1024B0008A80CA800A8100207047000070B52DED27
:1024C000028B82B006465A2008EE100A0A2096FBBC
:1024D000F0F030B1012861D0022872D0032871D108
:1024E0001AE1042107200AF061FE082107200AF002
:1024F0005DFED6480A23D64AD6490090D648FFF753
:1025000063FF88B1002009E0D44951F8201041F45C
:102510008041D24A42F82010411CC8B20828F3DB9F
:102520008621CFA009F0E0FBBEB1002413E0002516
:102530000DE0D34850F8250005EBC401C54A32F838
:1025400011100844CE4941F82500681CC5B2082D79
:10255000EFDB601CC4B20A2CE9DB092E1DD1C84890
:1025600090ED040AB8EE400AF8EE480A80EE201A10
:10257000C44880ED001AC24890ED050AB8EE400A42
:10258000F8EE480A80EE201ABE4880ED011A0020BD
:10259000BB49086148618861C8611CE104210720CA
:1025A0000AF020FF082107200AF000FEA7480A23AE
:1025B000A74AB5490090A848FFF706FF98B1002048
:1025C0000BE04BE006E1A54951F8201041F48041B1
:1025D000A24A42F82010411CC8B20828F3DBAB2104
:1025E0009FA009F081FB0A2E17D0002413E00025DC
:1025F0000DE0A34850F8250005EBC401A24A32F8CB
:10260000111008449E4941F82500681CC5B2082DE8
:10261000EFDB601CC4B20A2CE9DB132E1DD19848F5
:1026200090ED040AB8EE400AF8EE480A80EE201A4F
:10263000944880ED021A924890ED050AB8EE400ADF
:10264000F8EE480A80EE201A8E4880ED031A00202A
:102650008B49086148618861C861BCE0042107209A
:102660000AF0A4FD082107200AF0BCFE77480A23DF
:10267000774A864900907848FFF7A6FE88B1002087
:1026800009E0764951F8201041F48041734A42F83C
:102690002010411CC8B20828F3DBD12170A009F03A
:1026A00023FB142E17D0002413E000250DE07448FE
:1026B00050F8250005EBC401744A32F811100844A3
:1026C0006F4941F82500681CC5B2082DEFDB601C7E
:1026D000C4B20A2CE9DB1D2E1DD1694890ED040A15
:1026E000B8EE400AF8EE480A80EE201A654880ED00
:1026F000041A634890ED050AB8EE400AF8EE480A5D
:1027000080EE201A5F4880ED051A00205C490861C0
:1027100048618861C8615EE0042107200AF062FE1A
:10272000082107200AF05EFE48480A23484A584913
:1027300000904948FFF748FE88B1002009E047496A
:1027400051F8201041F48041444A42F82010411CC5
:10275000C8B20828F3DBF52141A009F0C5FA1E2E06
:1027600017D0002413E000250DE0454850F825005F
:1027700005EBC401464A32F811100844404941F8BB
:102780002500681CC5B2082DEFDB601CC4B20A2C02
:10279000E9DB272E1DD13A4890ED040AB8EE400A35
:1027A000F8EE480A80EE201A364880ED061A3448C2
:1027B00090ED050AB8EE400AF8EE480A80EE201ABD
:1027C000304880ED071A00202D4908614861886172
:1027D000C86100E000BF00BF294890ED000AB8EED4
:1027E000400AF2EE040A80EE201A2A4880ED001A10
:1027F000234890ED010AB8EE400AF2EE040A80EE9A
:10280000201A254880ED001A1D4890ED020AB8EE06
:10281000400AF2EE040A80EE201A204880ED001AE9
:10282000174890ED030AB8EE400AF2EE040A80EE73
:10283000201A1B4880ED001A0020114908604860EA
:102840008860C86002B0BDEC028B70BDE8CFFE1F8F
:1028500064DAFE1F74DAFE1F00080440E093FF1FD5
:102860002E2E5C2E2E5C557365725C4253505C7349
:1028700072635C6273705F616463332E6300000097
:10288000F4DCFE1F44DAFE1F14DBFE1FB4DBFE1F68
:1028900054DCFE1FD8CFFE1FDCCFFE1FE0CFFE1F93
:1028A000E4CFFE1F00B585B068460AF033FE002075
:1028B000ADF800000220ADF802002020ADF80600BF
:1028C0000020ADF804006A46042107200AF0DEFA71
:1028D0006A46082107200AF0D9FA05B000BD0000B9
:1028E0007CB504460D4600200190009050262643FA
:1028F0008DF804608DF8065003236A4601A902484A
:1029000015F046F97CBD000000C401402DE9FC47EC
:1029100004460D464FF0000C002001900027009067
:1029200000268B20009018889DF80010815418888C
:10293000401C1880002067E00121814001F0FF0861
:102940003449897901EA080100295CD0DFF8C89090
:10295000B9F8001053E014F80190CDF804909DF8F8
:102960000490B9F1000F04DD9DF80490B9F1050F52
:1029700020DB4FF0FF36B3F800909DF804A009F873
:1029800002A0B3F8009009F10109A3F80090B3F890
:1029900000909144C9F80060B3F8009009F104096F
:1029A000A3F800909DF80490B9F1FF0F01D04FF00B
:1029B000080C23E09DF80490A9F1010909F0FF0734
:1029C000DFF8589009EB001959F82760B3F8009028
:1029D0009DF804A009F802A0B3F8009009F10109DC
:1029E000A3F80090B3F800909144C9F80060B3F8E0
:1029F000009009F10409A3F8009000BF491CA5F15B
:102A000004098945A7DC401C082895DB6046BDE821
:102A1000FC8700006CCBFF1F3CD6FE1F58C8FF1F71
:102A20000EB517A103C9CDE90101092204211648F9
:102A3000FFF780FA0E2208211348FFF77BFA0F22D6
:102A400010211148FFF776FA042220210E48FFF7E3
:102A500071FA3C210C4800F0D3F8012001AB3C2274
:102A6000002100900848FFF7C5F900210648FFF74C
:102A700077F901223C210448FFF724F90EBD00003C
:102A80001E1E1E1E1E1E1E1E0008044010B54FF402
:102A90008131142004F012F8002004F03FFA10BD38
:102AA00000B58DB001214FF4203012F05DFB4FF4E2
:102AB000F47200211C4807F0D1FD05A807F018FEAC
:102AC0004FF4805005900820099000200A904FF4A0
:102AD00080700890154807901548069001200B90CB
:102AE00004200C9005AA00210F4807F06BFC01A8F8
:102AF00007F0A8FD102001900820029020200390EC
:102B00000820049001AA0021074807F011FD00F0F9
:102B100011F80121044807F01FFC0122002102489E
:102B200007F08AFB0DB000BD0034054064DAFE1FDB
:102B3000500804401CB54820ADF800000A20ADF84C
:102B400002001D48019068460BF020FE4FF48031D2
:102B50001A4807F0C3FB0A20002807DB00F01F0219
:102B600001219140164A430942F8231000BF0A2070
:102B70000321002804DB0A07130E124A135406E04F
:102B80000A07140E104A00F00F031B1FD45400BF95
:102B90000A2000280DDB00BF00BF00F01F0201214A
:102BA00091404209920002F1E022C2F8001100BFF8
:102BB00000BF00BF1CBD000005A20200003405409C
:102BC00080E200E000E400E018ED00E00EB56846A9
:102BD000FFF768FC4020ADF804000020ADF80600C7
:102BE000ADF802000120ADF800000121042012F030
:102BF00095FB69460148FFF773FA0EBD00080440D3
:102C00002DE9F04106460C46002510E004F00100D5
:102C100050B1012000FA05F13046FFF7FBF90746F5
:102C20003946304600F008F86408681CC5B2002C2C
:102C3000ECD1BDE8F081000030B5A9B005460C46E6
:102C40004022164914A8FDF738FF5022134940319D
:102C50006846FDF732FF24A80AF05CFC4FF4004000
:102C6000ADF8A2000E48854202D00E4885420AD136
:102C700014AA02EB8402518814AA12F8240024AA90
:102C80000AF004F908E06A4602EB840251881DF854
:102C9000240024AA0AF0FAF829B030BD38650400EF
:102CA00000000440000404402DE9F04F2DED028B9C
:102CB00089B00027B846B946BA46002008901422C9
:102CC000FEA103A8FDF7F9FE07F065FF21F0B8F8B3
:102CD000029011224FF4F94103A820F013FB21F0D8
:102CE00001F90190019821F0C5F8029821F0C2F88D
:102CF00008F040FE1FF066FBF54A03C24420F54988
:102D000008704FF0000B0DE0F34911F80B000A2199
:102D100006F0FAF9F04911F80B00062106F0F4F973
:102D20000BF1010BED4800788345EDDB0024002515
:102D300000200AE0012181402143CCB2411C012244
:102D400002FA01F12943CDB2801CE4490978884296
:102D5000F0DBF2EE040AB7EE000A00221146284624
:102D600006F056F84FF47A7021F018F8DFEDDC0A1F
:102D7000B1EE020A00220121204606F049F84FF484
:102D80007A7021F00BF8DFEDD70AB1EE020A0022CB
:102D90000121204606F03CF84FF47A7020F0FEFF47
:102DA000DFEDD10AB7EE000A00221146284606F0F0
:102DB0002FF841F2883020F0F1FF0120CB49087054
:102DC0000020CB490860A3E0CA480078002872D1EF
:102DD000C7480068B0F5FA7F6ED900218EE0C5487B
:102DE0000078002869D108464A1CC34B03EB8003D6
:102DF00093ED000AF1EE000AB4EEE00AF1EE10FAEB
:102E00005CDDBD4B03EB800393ED000AF1EE040A99
:102E1000B4EEE00AF1EE10FA50D2B74B03EB8203A6
:102E200093ED000AF1EE000AB4EEE00AF1EE10FABA
:102E300044DDB14B03EB820393ED000AF1EE040A8B
:102E4000B4EEE00AF1EE10FA38D2AB4B203B03EBC4
:102E5000800393ED000ADFEDA90AB4EEE00AF1EE7B
:102E600010FA2BDDA44B203B03EB800393ED000A0B
:102E7000DFED9C0AB4EEE00AF1EE10FA1ED29E4B92
:102E8000203B03EB820393ED000ADFED9C0AB4EED6
:102E9000E00AF1EE10FA11DD974B203B03EB8203C1
:102EA00093ED000ADFED8F0AB4EEE00AF1EE10FABE
:102EB00004D2012303E027E027E01DE00023D3B97B
:102EC0008F4B1B5C43F00203DFF834C20CF8003078
:102ED00063469B5C43F002030CF80230854B1B7881
:102EE00043F00203DFF80CC28CF800300123DFF856
:102EF00014C28CF8003000E005E0891C77480078A7
:102F00008142FFF66CAF00E010E00A2020F046FF9F
:102F100077480068FDF726FF41EC180B9FED7A0B10
:102F200053EC102BFDF760FFFFF44EAF00BF002005
:102F30006E49087000BF48E0754951F8201001F053
:102F4000005149B1012703AA411C515C3944CAB25E
:102F500003AB411C5A5436E06D4951F8201001F082
:102F6000805151B14FF0020803AA411C515C414409
:102F7000CAB203AB411C5A5425E0654951F82010F0
:102F800001F0006151B14FF0040903AA411C515CEA
:102F90004944CAB203AB411C5A5414E05C4951F88D
:102FA000201001F0806151B14FF0080A03AA411CC2
:102FB000515C5144CAB203AB411C5A5403E0002295
:102FC00003AB411C5A54411CC8B244490978884299
:102FD000B2DB0F2005F0AEFEF02005F0ABFE1FF0D7
:102FE000F1F93B4A03C20024002500200AE0012138
:102FF00081402943CDB2411C012202FA01F1214353
:10300000CCB2801C354909788842F0DBF2EE040A24
:10301000B7EE000A00221146284605F0F9FE4FF4EB
:103020007A7020F0BBFEDFED2E0AB1EE020A00221C
:103030000121204605F0ECFE4FF47A7020F0AEFE40
:10304000DFED280AB1EE020A00220121204605F038
:10305000DFFE4FF47A7020F0A1FEDFED230AB7EE19
:10306000000A00221146284605F0D2FE41F28830BF
:1030700020F094FE01201D49087000201C490860C2
:10308000D1E01C48007800287DD119480068B0F5CF
:10309000FA7F79D90022BCE016480078002874D164
:1030A0001046511C144B03EB810393ED000AF1EE23
:1030B000000AB4EEE00AF1EE10FA2BE0FFFFFFFF8A
:1030C000FFFFFFFFFFFFFFFFFFFFFFFFFF0000000D
:1030D000D8D3FE1FB0D3FE1FFACFFE1FE4CDFE1FD4
:1030E000000070420000FA420000F042CCD3FE1F04
:1030F000D0D3FE1FB1D3FE1FDCCAFF1F0000E64283
:10310000B3D3FE1FB2D3FE1F00000000D00C344129
:10311000E093FF1F5DDDA14B03EB810393ED000AFC
:10312000F1EE040AB4EEE00AF1EE10FA51D29B4B34
:1031300003EB800393ED000AF1EE000AB4EEE00A1F
:10314000F1EE10FA45DD954B03EB800393ED000A99
:10315000F1EE040AB4EEE00AF1EE10FA39D28F4B28
:10316000203B03EB810393ED000A5FED1C0AB4EEF4
:10317000E00AF1EE10FA2CDD884B203B03EB8103D3
:1031800093ED000A02E04AE04AE040E05FED2B0ADE
:10319000B4EEE00AF1EE10FA1BD2804B203B03EBB9
:1031A000800393ED000A5FED2B0AB4EEE00AF1EE26
:1031B00010FA0EDD794B203B03EB800393ED000A00
:1031C0005FED380AB4EEE00AF1EE10FA01D2012305
:1031D00000E00023D3B9724B5B5C43F00203DFF8DD
:1031E000C0C10CF8013063461B5C43F002030CF8CD
:1031F00000306C4B1B7843F00203DFF8A8C18CF859
:1032000000300123DFF8A0C18CF8003000E005E0B9
:10321000921C664800788242FFF63EAF00E010E064
:103220000A2020F0BBFD62480068FDF79BFD41ECE1
:10323000180B1FED4B0B53EC102BFDF7D5FDFFF4D6
:1032400020AF00BF00205B49087000BF51E05A4921
:1032500051F8201001F0005159B1012703AA00F1E3
:103260000901515C3944CAB203AB00F109015A5457
:103270003DE0514951F8201001F0805161B14FF00B
:10328000020803AA00F10901515C4144CAB203AB30
:1032900000F109015A542AE0474951F8201001F081
:1032A000006161B14FF0040903AA00F10901515C0A
:1032B0004944CAB203AB00F109015A5417E03E4930
:1032C00051F8201001F0806161B14FF0080A03AAA3
:1032D00000F10901515C5144CAB203AB00F109018C
:1032E0005A5404E0002203AB00F109015A54411C76
:1032F000C8B22E4909788842A9DB204605F01AFD9C
:10330000284605F017FD002600200090012006E069
:1033100003A9095C09B9711CCEB2411CC8B223498A
:103320000978B0EB410FF3DD20480078B6EB400F91
:1033300003D100208DF80C0014E0012247F68141F2
:1033400068461FF083FE012247F682410DF101001D
:103350001FF07CFE9DF800009DF801100844C0B2EB
:103360008DF80C0007F017FC20F06AFD0290112286
:103370004FF4F94103A81FF0C5FF20F0B3FD019001
:10338000019820F077FD029820F074FD08F0F2FA21
:1033900009B0BDEC028BBDE8F08F0000DCCAFF1F56
:1033A000B3D3FE1FB1D3FE1FB2D3FE1FE4CDFE1F69
:1033B000D0D3FE1FCCD3FE1FE093FF1F7CB51F4868
:1033C0000078022803D01D480078162813D11C4D20
:1033D00000200090019001208DF8000042208DF81F
:1033E000030001208DF8070008236A462946154886
:1033F00003F03EF800BF00240EE00020124941F81F
:103400002400124941F82400114941F824001149CF
:1034100041F82400601CC4B2082CEEDB00200749F0
:10342000488000210548818000200B4908700B4826
:10343000007840F00100094908707CBD84CEFE1F71
:103440000B0000C600800740E093FF1F2094FF1F81
:103450000094FF1F4094FF1FBCCEFE1FBECEFE1F78
:103460002DE9F043ADF2044D00240025002600278D
:103470004FF4806101A8FDF739FB5B208DF8040053
:103480008DF8050009208DF8060000208DF8070052
:103490008DF808008DF809008DF80A000FF0C8FBC0
:1034A0000AF0C4FB00BFBEE0FE4850F8240000282C
:1034B00058D0FD4800788DF80800FB480078401C83
:1034C000F94908700120A040C0B28DF80A00A02080
:1034D0008DF80B00002016E000EB4001F34A02EBF0
:1034E00081014968EF4A52F82420114049B1691C12
:1034F0008DB200EB4001ED4A12F82120E91D01AB2D
:103500005A54411CC8B21E28E6D305F1080086B201
:10351000F0B28DF80600300A8DF80700A81D81B2C0
:103520000DF1060004F0BAF8074605F1080001AAFB
:103530001754390A401C1154A521401C1154401C39
:103540001154301D82B201A9002019F0FFFC301D7A
:1035500081B201A805F0A8FB0120D549087000251B
:103560001EF006FF0025D34850F82400002858D04C
:10357000CD4800788DF80800CB480078401CCA4937
:1035800008700120A040C0B28DF80A0083208DF899
:103590000B00002016E000EB4001C74A02EB81015E
:1035A0004968C44A52F82420114049B1691C8DB2BF
:1035B00000EB4001C04A12F82120E91D01AB5A542A
:1035C000411CC8B20C28E6D305F1080086B2F0B25F
:1035D0008DF80600300A8DF80700A81D81B20DF1A4
:1035E000060004F05BF8074605F1080001AA17542D
:1035F000390A401C1154A521401C1154401C11547F
:10360000301D82B201A9002019F0A0FC301D81B24A
:1036100001A805F049FB0120A549087000251EF00E
:10362000A7FE601CC4B2A54800788442FFF63CAFF8
:1036300045F65B30A24908800920488000200871C7
:1036400048710F208871A120C87100200872A1F86C
:1036500009004AF2A550A1F80B009A48B0F8028080
:10366000B0F80490B8F1000F02D008468079887154
:10367000B9F1000F03D0924880799149887191483F
:10368000007803287ED004DC012807D002287AD1F4
:103690005EE00B2803D01628F9D15AE000BF0024C1
:1036A00053E0894800EB8400408800EA080008B332
:1036B00000220321FF2012F051FB834810F8240060
:1036C0007F49087278480078087177480078401C74
:1036D0007549087007217A48801C03F0DFFF78499C
:1036E000A1F809000D22002019F030FC0D217448CA
:1036F00005F0DAFA744800EB8400408800EA09001B
:1037000008B300220321FF2012F028FB6E4810F8B6
:1037100024006B4908726448007808716248007898
:10372000401C6149087007216548801C03F0B6FF02
:103730006349A1F809000D22002019F007FC0D21B2
:103740005F4805F0B1FA601CC4B2082CA9DBCBE0DD
:1037500000BF002456E05D4800EB8400408800EA8A
:10376000080020B300220321FF2012F0F7FA574887
:1037700010F82400524908724B48007808714A48F2
:10378000007801E041E0AEE0401C474908700721A5
:103790004B48801C03F082FF4949A1F809000D2223
:1037A000002019F0D3FB0D21454805F07DFA47486C
:1037B00000EB8400408800EA090008B300220321DE
:1037C000FF2012F0CBFA414810F824003C4908725F
:1037D00035480078087134480078401C3249087038
:1037E00007213748801C03F059FF3549A1F809002B
:1037F0000D22002019F0AAFB0D21314805F054FAE2
:10380000601CC4B20B2CA6DB6EE0002427E030481D
:1038100000EB840040882F4909780840E8B1002275
:103820000321FF2012F09AFA294810F824002449B5
:1038300008721D48007808711B480078401C1A491E
:10384000087007211E48801C03F028FF1C49A1F8BE
:1038500009000D211A4805F027FA601CC4B2082C93
:10386000D5DB1D48007800F00100B8BB0022032121
:10387000FF2012F073FA164890F8200010490872E1
:1038800009480078087108480078401C064908700B
:1038900007210B48801C03F001FF0949A1F809002A
:1038A0000D211CE0E093FF1F34D3FE1F08D4FE1F40
:1038B000FCD3FE1F0094FF1F70D5FE1FE4CDFE1F3A
:1038C0008092FF1F84CEFE1F3AD3FE1F5ED3FE1FE1
:1038D0008AD3FE1FBCCEFE1FBECEFE1F02E00548EF
:1038E00005F0E2F900E000BF00BF0DF2044DBDE8B5
:1038F000F08300008092FF1F10B510F0C7FF09F0A1
:10390000B9F901F0BFFA10BD9FE14FF0FF31CF4888
:10391000006821F085F900287ED145F65B30CC495E
:103920000880092048800020087148718871A12012
:10393000C87100200872A1F809004AF2A550A1F848
:103940000B00C448408DC349498800EA0105C148BD
:10395000808DC049898800EA0106BF480078BF49C8
:10396000097800EA01071DB1B9488079B849887122
:103970001EB1B7488079B6498871B64800780328E7
:1039800070D004DC012808D002286CD17AE00B2822
:1039900002D01628F9D174E000BF002453E0B048EB
:1039A00000EB84004088284008B300220321FF2058
:1039B00012F0D4F9AA4810F82400A5490872A948C1
:1039C00000780871A7480078401CA64908700721B4
:1039D0009F48801C03F062FE9D49A1F809000D225A
:1039E000002019F0B3FA0D21994805F05DF99C48C3
:1039F00000EB84004088304018B300220321FF20F0
:103A000012F0ACF9964810F82400914908729548D4
:103A100000780871934800E011E10078401C91495A
:103A2000087007218A48801C03F038FE8849A1F8F5
:103A300009000D22002019F089FA0D21844805F0B3
:103A400033F9601CC4B2082CA9DB05F0080006F0AD
:103A500008010843A0B100220121FF2012F07EF9E5
:103A600000200BE07EE0E8E07F4951F8201041F4AF
:103A700000717D4A42F82010411CC8B20828F3DBCF
:103A8000DCE000BF002451E0784800EB840040886F
:103A9000284008B300220321FF2012F05FF9734889
:103AA00010F824006A4908726E48007808716D4861
:103AB0000078401C6B49087007216548801C03F0A2
:103AC000EDFD6349A1F809000D22002019F03EFA2E
:103AD0000D215F4805F0E8F8644800EB8400408859
:103AE000304008B300220321FF2012F037F95F486D
:103AF00010F82400564908725A480078087159484D
:103B00000078401C5749087007215148801C03F079
:103B1000C5FD4F49A1F809000D22002019F016FA41
:103B20000D214B4805F0C0F8601CC4B20B2CABDB78
:103B300005F4804006F48041084390B10022012141
:103B4000FF2012F00BF9002009E0474951F820103E
:103B500041F40071444A42F82010411CC8B20828C0
:103B6000F3DB6BE04248007800F0100080B30024E3
:103B70002BE0404800EB840040883840E8B1002248
:103B80000321FF2012F0EAF83A4810F824003049E7
:103B9000087234480078087132480078401C314976
:103BA000087007212A48801C03F078FD2849A1F8F5
:103BB00009000D21264805F077F82D48007820F0FF
:103BC00010002B490870601CC4B2082CD1DB33E014
:103BD000FFE72748007800F0010068B32648007826
:103BE00000F0010010BB2548007800F00100E8B1AA
:103BF00000220321FF2012F0B1F81E4890F82000A7
:103C00001349087217480078087116480078401C5C
:103C10001449087007210E48801C03F03FFD0C4931
:103C2000A1F809000D210A4805F03EF81048007877
:103C300020F001000E49087000E000BF00BF10A096
:103C40001DF06EFC012020F0A9F85EE630CEFE1FCC
:103C50008092FF1F84CEFE1FBCCEFE1FBDCEFE1F76
:103C60003AD3FE1F34D3FE1FE093FF1F5ED3FE1F27
:103C700078CEFE1F8AD3FE1FBECEFE1FBFCEFE1F14
:103C800061636463207461736B2069732072756E65
:103C90006E696E672100000000244FE00AF0C2FD4B
:103CA00027480078002846D126480078002842D1CD
:103CB00025488078082826D12348C0782A2822D190
:103CC000552022490870224890ED000AF2EE000AC1
:103CD000B4EE600AF1EE10FA09D0B2EE000A80EDFF
:103CE000000A90ED000A1B480068FDF70DFE1A4817
:103CF000007800BB19F0B4FB04460B2C1BD101204B
:103D00001549087017E010488078082813D10E482C
:103D1000C07829280FD11148007801280BD1002044
:103D20000E490870FF200E490870012247F6FF3146
:103D30000B481FF0E7FA642020F030F8AEE70000EF
:103D4000ECD3FE1FEDCDFE1FA8D1FE1FB0D3FE1F8A
:103D5000F0D3FE1F10D2FE1FE9D3FE1FE8D3FE1FD3
:103D6000C8CCFF1FADF5015D0026B0E1D848007852
:103D700010B10020D6490870D6480078552814D1D3
:103D8000D54890ED000AF2EE000AB4EE600AF1EEBA
:103D900010FA5DD0B2EE000A80ED000A90ED000A44
:103DA000CE480068FDF7B0FD52E0CD488078082885
:103DB00018D1CB48C0782A2814D1C74890ED000A02
:103DC000F2EE000AB4EE600AF1EE10FA40D0B2EE64
:103DD000000A80ED000A90ED000AC0480068FDF777
:103DE00093FD35E0002530E005EB0511BD4800EB03
:103DF000011090ED3D0AB848D0ED000AB4EE600A1B
:103E0000F1EE10FA20D005EB0511B64800EB0110D9
:103E100090ED3D0AB04880ED000A00200AE0AE496E
:103E200091ED000A00EB0012AE4901EB021181EDA9
:103E30003D0A401C0828F2DBA74890ED000AA7487D
:103E40000068FDF761FD02E06D1C082DCCDB00BFB2
:103E500040F219164FF4005110A8FCF747FE002459
:103E600000256DE005EB850202EB85129E4BD11813
:103E700010AA10194522FCF720FE453405EB8502F7
:103E800002EB8513994A991810AA10194522FCF7DC
:103E900014FE453405EB850202EB8512944BD118D4
:103EA00010AA10194522FCF708FE453405EB45021F
:103EB000C2EB85128F4BD11810AA10193D22FCF7C6
:103EC000FCFD3D3410A8011905EB45028A4800EBC2
:103ED000820002680A6042684A60806888600C3428
:103EE00010A88649495D0155641C05EB45018248CF
:103EF00010F8210002281BD005EB45017E4810F880
:103F00002100062814D005EB45017B4810F821005C
:103F100004280DD005EB4501774810F8210005284D
:103F200006D005EB4501744810F82100012803D1A3
:103F300001217348415502E00020714948556D1C2C
:103F4000082D8FDB01210F9101220FA9500310F0E2
:103F500061FC05201FF022FF002516E06848405D47
:103F600001280ED1002066494855B2B210AB06FBBD
:103F7000053106FB05F010F04DFCFA201FF00EFF96
:103F800002E0FA201FF00AFF6D1C082DE6DB4FF45B
:103F9000805110A8FCF7AAFD002400256DE005EB78
:103FA000850202EB8512504BD11810AA1019452238
:103FB000FCF783FD453405EB850202EB85134B4A84
:103FC000991810AA10194522FCF777FD453405EB26
:103FD000850202EB8512464BD11810AA1019452212
:103FE000FCF76BFD453405EB4502C2EB8512414BF6
:103FF000D11810AA10193D22FCF75FFD3D3410A81E
:10400000011905EB45023C4800EB820002680A609A
:1040100042684A60806888600C3410A83749495D5E
:104020000155641C05EB4501334810F821000228B6
:104030001BD005EB4501304810F82100062814D0AC
:1040400005EB45012C4810F8210004280DD005EBA4
:104050004501294810F82100052806D005EB450147
:10406000254810F82100012803D101202449485592
:1040700002E00020224948556D1C082D8FDB0221EB
:104080000F9101220FA9500310F0C4FB05201FF06F
:1040900085FE002518E01A48405D012810D1002057
:1040A00017494855B2B210AB06FB053106FB05F3C4
:1040B00003F5805010F0AEFBFA201FF06FFE02E017
:1040C000FA201FF06BFE6D1C082DE4DB00BF4DE6EF
:1040D000ECD3FE1FB0D3FE1FF0D3FE1F10D2FE1F85
:1040E000A8D1FE1F58AFFF1FE8BEFF1F98BAFF1FE1
:1040F000C0BCFF1F10C1FF1F18C3FF1F0FD6FE1F3C
:1041000022D1FE1F00BF1EF0AFFC2BE01648007846
:1041100010B917F09FFE03E01EF0A6FC18F064FA39
:10412000114840684EF66021884218D90F4800783F
:10413000A8B90F480078662811D10E488078082861
:1041400003D10C48C078292809D0002006494860CE
:10415000012008720870002018F06AFDD3E70520DE
:104160001FF01CFED2E700007482FF1F2CD3FE1F3D
:10417000B0D3FE1FA8D1FE1F002438E01C480078F1
:1041800020B31C480078012803D100201949087089
:104190000024052C08DA1848007828B920460FF0CA
:1041A000D1FF601CC4B202E0052410F01BF80FF030
:1041B000ADFE12480078002816DB1048007807286A
:1041C00012DC0E4800780AF055FA0DE064234FF433
:1041D0007A720021084610F07DFA64234FF4FA72D7
:1041E0001146012010F076FA64201FF0D7FDC5E7D4
:1041F00006D7FE1F44D6FE1FFDD3FE1F40D1FE1F73
:10420000ADF5806D00254FF480616846FCF76EFCCB
:104210005B208DF800008DF8010009208DF8020068
:1042200000208DF803008DF804008DF805008DF84E
:10423000060044E14FF0FF31A148006820F0F0FC97
:104240000028F6D19F48007800287CD10024E4E0C3
:104250009D4850F8240000286AD09B4850F824005C
:104260009A4951F82410884262D000220121204648
:1042700011F0EEFC944850F82400944941F82400D1
:10428000934800788DF8040091480078401C9049CC
:1042900008700120A040C0B28DF80600A0208DF863
:1042A0000700002016E000EB40018A4A02EB810182
:1042B0004968854A52F82420114049B1691C8DB2E1
:1042C00000EB4001834A12F82120E91D0DF801207E
:1042D000411CC8B21E28E6D305F1080086B2F0B230
:1042E0008DF80200300A8DF80300A81D81B20DF18F
:1042F000020003F0D3F90746F9B205F108000DF802
:104300000010390A401C0DF80010A521401C0DF8C2
:104310000010401C0DF80010301D82B269460020CC
:1043200018F014FE301D81B2684604F0BDFC002573
:104330000025694850F8240000286CD0664850F8E1
:104340002400664900E06EE051F82410884262D0F3
:1043500000221146204611F07BFC5F4850F82400F3
:104360005E4941F824005A4800788DF80400584806
:104370000078401C564908700120A040C0B28DF85A
:10438000060083208DF80700002016E000EB4001B6
:10439000534A02EB810149684F4A52F824201140E8
:1043A00049B1691C8DB200EB40014D4A12F8212041
:1043B000E91D0DF80120411CC8B20C28E6D305F117
:1043C000080086B2F0B28DF80200300A8DF80300C2
:1043D000A81D81B20DF1020003F060F90746F9B2A1
:1043E00005F108000DF80010390A401C0DF8001006
:1043F000A521401C0DF80010401C0DF80010301DC8
:1044000082B26946002018F0A1FD301D81B26846D5
:1044100004F04AFC0025601CC4B232480078844293
:10442000FFF616AF38E000202649087000242FE080
:10443000254850F8240090B1234850F8240023491F
:1044400051F8241088420AD000220121204611F0A0
:10445000FFFB1D4850F824001C4941F824001E4869
:1044600050F8240090B11C4850F824001B4951F822
:10447000241088420AD000221146204611F0E8FBA1
:10448000154850F82400154941F82400601CC4B2B6
:10449000144800788442CBDB4A2000280DDB00BFA3
:1044A00000BF00F01F02012191404209920002F179
:1044B000E022C2F8001100BF00BF00BF00BFB9E694
:1044C00034CEFE1FFCD3FE1FE093FF1F2094FF1F7E
:1044D00034D3FE1F08D4FE1F0094FF1F4094FF1F1B
:1044E00070D5FE1FE4CDFE1FADF5A46D9AE04FF030
:1044F000FF314D48006820F093FB00287ED1002456
:10450000002540F2145103A8FCF7F0FA4748B0F830
:10451000141503A811F0C6FD35E0002002900190AB
:10452000009003A820440088019003A9A01C08441F
:1045300000880290BDF8040045F65A21884201D057
:10454000012525E0BDF808002044001D3749B1F8D9
:104550001415884201DD01251AE0BDF80800204449
:10456000801C03A9084400880090BDF800004AF2AE
:10457000A551884201D001250AE0BDF80800001DC0
:10458000204484B200BF2948B0F81405A042C4DC1E
:1045900000BF00249DBB38E00020029003A9A01CAE
:1045A000084400880290BDF80800001D20490880DA
:1045B00003A801191E4802881E48FCF77EFABDF8C0
:1045C0000800001D204484B21B4B1C4A1848018877
:1045D000184811F0DFFB1A480078A8B900BF164848
:1045E00002881649002018F0B1FC0028F7D01548C1
:1045F0000078022808D141F2883001E00BE009E0A0
:104600001DF0B6FE1DF0D6F800BF0848B0F814053E
:10461000A042C1DC00BF00200449A1F8140501201C
:104620001FF0BCFB63E7000038CEFE1F14EDFE1F39
:104630000CD6FE1FE098FF1F0AD6FE1FE094FF1F56
:104640001FD6FE1F08D6FE1F1CB5002001900122B8
:1046500047F6F27101A81EF0F9FC9DF8040001284C
:104660000BD1042247F6F371FA481EF0EFFC022248
:1046700047F6F771F8481EF0E9FC0AF0D3F8F7485E
:104680008078082807D1F548C0782A2807D0F34851
:10469000C078292803D0F2480078662803D001208A
:1046A000F049087002E00020EE490870FE21012068
:1046B00011F0D0FCEC490870EC4A0021012020F0F8
:1046C000F1FAEB490860EB4A0021EB4820F03CFB93
:1046D000EA490860EA4A0021EA4820F035FBEA4945
:1046E0000860EA48007828B313201EF03DFA002441
:1046F0000CE032201DF03CFE13201EF0ADFA142019
:104700001EF0AAFA08F0B4FB601CC4B20A2CF0DB5D
:1047100013201EF0B9F914201EF0B6F932201DF056
:1047200027FE0EF00DFAFDF78FF8D949087000202A
:10473000D64908700320D749C87000200090012294
:104740006946500310F00DF80822D34942F21000D8
:1047500010F007F89DF8000001285BD10503002444
:1047600053E0CD48005D01284ED104EB840000EBFE
:104770008410CA4A8118452228460FF0F2FF4535B9
:1047800004EB840000EB8412C5481118452228462A
:104790000FF0E7FF453504EB840000EB8410C14ABD
:1047A0008118452228460FF0DCFF453504EB440014
:1047B000C0EB8410BC4A81183D2228460FF0D1FF7F
:1047C0003D3504EB4402B94800EB82010C22284637
:1047D0000FF0C7FF0C35B6480119012228460FF02B
:1047E000C0FF6D1C04EB4401B04810F821000628FE
:1047F00004D10120AF490855AF490855012104EB08
:104800004402AA4800F82210641CAC480078844294
:10481000A7DB5FE09DF8000002285BD100250024A3
:1048200053E09D48005D01284ED104EB840000EB6D
:1048300084109A4A8118452228460FF092FF453588
:1048400004EB840000EB8412954811184522284699
:104850000FF087FF453504EB840000EB8410914A8C
:104860008118452228460FF07CFF453504EB4400B3
:10487000C0EB84108C4A81183D2228460FF071FF4E
:104880003D3504EB4402894800EB82010C222846A6
:104890000FF067FF0C3586480119012228460FF0FA
:1048A00060FF6D1C04EB4401804810F821000628CD
:1048B00004D101207F4908557F490855012104EBA7
:1048C00044027A4800F82210641C7C480078844234
:1048D000A7DB00BF06F080FF794A0021012020F00D
:1048E000E1F978490860784A0021012020F0DAF9DE
:1048F00076490860764A0021012020F0D3F97549F5
:104900000860754A102108461FF030FB73490860A3
:1049100004F096FC5D48007810B9012015F0A6FE61
:1049200001206F49087094E04C488078082807D12E
:104930004A48C0782A2807D04848C078292803D098
:1049400047480078662803D001204649087002E0F5
:10495000002044490870634890ED000ADFED620AC8
:1049600060EE200A6148006800EE100AB8EE400AC6
:10497000F4EEC00AF1EE10FA2CD25D48007801285E
:1049800028D15C48007828BB5BA01CF0C9FD012041
:1049900056490860002403E001201FF0FFF9641C61
:1049A000464800788442F7DB00200FE05849095C54
:1049B000012903D10221564A115406E05449095CE9
:1049C000022902D10321524A1154401C3B49097863
:1049D0008842EBDB4F48007801282ED14E48006812
:1049E00041F27071884231D900204B4908600220A1
:1049F0004849087000241BE004EB44012B4810F8E0
:104A00002100A0B104EB4401284810F8210003283C
:104A10000DD00120414908551FF0C0F9E0B200F067
:104A200081FB012104EB4402204800F82210641CA1
:104A3000224800788442DFDB08E03648007828B955
:104A400001203449087000203349086001201FF01C
:104A5000A5F969E742D0FE1F46D0FE1FA8D1FE1F70
:104A6000B0D3FE1FFDD3FE1F34D3FE1FC06404006D
:104A700038CEFE1F986304000541020014CEFE1FCD
:104A800004640400E944020020CEFE1FEECDFE1FA8
:104A900084CEFE1F20D6FE1FF4D3FE1FE8BEFF1FEC
:104AA00098BAFF1FC0BCFF1F10C1FF1F18C3FF1F14
:104AB0000FD6FE1F9ED6FE1FE5CDFE1FE4CDFE1FC6
:104AC000806404002CCEFE1FA064040030CEFE1FC4
:104AD000B064040034CEFE1FF064040040CEFE1F1C
:104AE0004CCEFE1F40D6FE1F00007A44F0CDFE1FC4
:104AF00041D0FE1F08D6FE1F53746172742074618A
:104B0000736B2069732072756E6E696E6721000089
:104B100017D6FE1F24D6FE1FF4CDFE1F27D6FE1F7C
:104B2000002572E01BF0A6F91AF0BCFC01F0DCFCD9
:104B300000244CE0610035480088084100F0030083
:104B4000012815D1610003208840304909880843B5
:104B50002E4908800121A140C8B204F0EBF86100A1
:104B600003208840294909888143284801802AE098
:104B7000610026480088084100F00300022822D185
:104B80006100032088402149098808431F490880A3
:104B90001F4BD3F8063000EE903A1D4BD3F802308D
:104BA00000EE103A1B4B1A5D194B59780123A340B4
:104BB000D8B204F02DF96100032088401349098818
:104BC000814312480180E0B21BF098FC641C12483B
:104BD00000788442AEDB6D1C4FF49670B5FBF0F1AB
:104BE00000FB115070B90D480078401C0B4908704B
:104BF00008460078082801DD012008700748007881
:104C000013F084F901201FF0C9F88BE738D6FE1F96
:104C1000D8C8FF1FF2CFFE1FE4CDFE1F34D1FE1F08
:104C200070B52DED088B04460E46002594ED000A64
:104C300010EE101A0846FCF7C4F841EC1A0BB0EE5F
:104C40004A0AF0EE6A0A1CF0C9FDB0EE409AF0EE96
:104C5000609A51EC190BFCF7F7F808EE100A00BF48
:104C60003EE018EE100AFCF7ACF841EC190B04EB2F
:104C7000850090ED000A10EE101A0846FCF7A1F826
:104C800041EC1B0BB0EE4B0AF0EE6B0A1CF0A6FDDC
:104C9000B0EE40AAF0EE60AA53EC192B51EC1A0BBF
:104CA000FCF7BAF81AD204EB850090ED000A10EE7A
:104CB000101A0846FCF785F841EC1A0BB0EE4A0AC8
:104CC000F0EE6A0A1CF08AFDB0EE409AF0EE609AAF
:104CD00051EC190BFCF7B8F808EE100A681CC5B2C5
:104CE000B542BEDBB0EE480ABDEC088B70BD0000DB
:104CF0002DE9F0438FB000200E90342101A8FBF77E
:104D0000F5FE0020009081460026012247F6F97149
:104D10000EA81EF09BF99DF83800012878D10322D7
:104D200047F6FA7155481EF091F9012247F6F171E4
:104D300068461EF08BF99DF80000322869DA9DF86C
:104D4000000047F6F072101A411C9DF8002001A8DF
:104D50001EF07CF99DF804004A2815D19DF8050045
:104D60004E2811D100200CE0011D01AA515C392907
:104D700003DC011D515C302901DA012603E0411CEE
:104D8000C8B20828F0DB00E00126002E5DD19DF8B6
:104D9000090030389DF80810303901EB810100EB33
:104DA0004100C4B29DF80B0030389DF80A1030392C
:104DB00001EB810100EB4100C5B2152C05DB0C2D88
:104DC00003DC152C02D10A2D00DA0126DEBB9DF88A
:104DD0000C0030384FF47A7110FB01F19DF80D0092
:104DE000303800EBC00202EB001001EB80019DF8AF
:104DF0000E00303800EB800001EB40019DF80F0001
:104E00003038084487B2152C04D1A5F10A0008E017
:104E10002FE019E0A4F1160000EB400005EB800044
:104E2000801C1FFA80F8154800780004134949785F
:104E300000EB01201149897800EB010907EB88306C
:104E4000484502D0012600E0012696B100200B491A
:104E500008704870887000BF09E0094951F82010B7
:104E600041F00071064A42F82010411CC8B20828DF
:104E7000F3DB30460FB0BDE8F08300003ED0FE1FEC
:104E8000E093FF1F10B5002400BF32E004EB4402A2
:104E90001A4B1A44B2F8011004EB4402985C08F073
:104EA0003BF9012820D10A201DF06CFA04EB4402E2
:104EB000124B1A44B2F8011004EB4402985C08F05B
:104EC0002BF9012813D101210D4801550D4850F847
:104ED000240040F080700B4941F824000121A140DA
:104EE000C8B203F027FF02E0002105480155601C0D
:104EF000C4B2054800788442C8DB10BDADD1FE1FA6
:104F0000D2F7FE1FE093FF1FE4CDFE1F2DE9F04F07
:104F10002DED048B85B0804689469246F0EE408A9E
:104F2000B0EE608A4446082C06DB4FF0FF3005B037
:104F3000BDEC048BBDE8F08F7248005D4FEA101B9A
:104F40007048005D00F00F000490082090FBFBF01B
:104F5000C6B20498401E10FB06F0C5B20027002020
:104F600000900190029003906748005D67490855E2
:104F70000120654908556548005D095D884206D0F5
:104F80000120634908550020624941F8240000EEE1
:104F9000106AB8EE400AB4EEC08AF1EE10FA01DDF4
:104FA000374600E0012700240FE034B929195A4A96
:104FB000505C062104F0A8F805E02919564A505C17
:104FC000052104F0A1F8601CC4B2B442EDDB00245A
:104FD0001CE0B9F1000F09D128195049085C28B12B
:104FE00029194D4A505C022104F08EF8B9F1010FE5
:104FF0000AD128194949085C012805D02919464ACF
:10500000505C012104F080F8601CC4B2B442E0DBC3
:1050100000241CE0BAF1000F09D128194049085CAE
:1050200028B129193C4A505C0A2104F06DF8BAF104
:10503000010F0AD128193A49085C012805D029191D
:10504000354A505C092104F05FF8601CC4B2B442D8
:10505000E0DB002422E005EB040CEE460EEB4C03F3
:1050600005EB040CDFF8B8E01EF80C2005EB040C8F
:10507000DFF8A8E01EF80C1005EB040C0CF0FF00A4
:10508000B0EE680A16F0A4FD2A193DF812102A198C
:10509000D0B2002204F0ACFB601CC4B2B442DADB34
:1050A000002407E029191C4A505C072104F02CF861
:1050B000601CC4B2BC42F5DB0A201EF06FFE002467
:1050C00007E02919144A505C042104F01DF8601C03
:1050D000C4B2BC42F5DB0A201EF060FE444600EE7E
:1050E000107AB8EE400AC8EE000AB0EE609AB0EE50
:1050F000490A204604F046F901201EF04FFE002028
:1051000015E70000AED6FE1F65D6FE1F6DD6FE1F4A
:1051100075D6FE1FC8CBFF1FFACFFE1FEACFFE1FBA
:10512000F2CFFE1F2DE9F04705462C46082C03DB85
:105130004FF0FF30BDE8F0872848007800284BD1B9
:105140002748005D4FEA10182548005D00F00F0960
:10515000082090FBF8F0C6B2A9F1010010FB06F0A0
:10516000C7B22048005D2049085500201D49085558
:105170001D48005D095D88420AD001201B49085581
:1051800000201B4941F824001A4908551A490855BE
:105190009FED1A0A204604F0F5F805201EF0FEFDEA
:1051A000002407E03919164A505C032103F0ACFFD4
:1051B000601CC4B2B442F5DB05201EF0EFFD0024F4
:1051C00007E039190E4A505C082103F09DFF601C6E
:1051D000C4B2B442F5DB00BF0020ABE7FDD3FE1F35
:1051E000AED6FE1F65D6FE1F6DD6FE1F75D6FE1FFE
:1051F000C8CBFF1F17D6FE1F95D6FE1F000000006C
:10520000FACFFE1F7EB504460020002502950195C9
:105210000095A02501951D889DF80460AE541D8859
:105220006D1C1D80184D2D88655D02959DF80850F8
:10523000012D03DB9DF80850042D11DD0820012508
:1052400000951D889DF80860AE541D886D1C1D805A
:105250001D889DF80060AE541D886D1C1D807EBDAC
:105260009DF80850012D06D0022D05D0032D04D045
:10527000042D04D102E003E002E001E000E000BF01
:1052800000BF00BFEBE700003CD6FE1F10B500F0EA
:1052900001F810BD7047000070B5002500240748D4
:1052A00000F056FB0446054800F0C8FA054600F039
:1052B00007F82146014800F0D3F970BD0090004086
:1052C00000B585B0002000900190CDF810D009E025
:1052D0000123002202A9084800F05EFC69460298FA
:1052E00003F09CFA0448A330007800F00300002883
:1052F000EED105B000BD0000009000402DE9FF4751
:1053000005460E4617464FF0010800200190029016
:1053100003900024814603960290029867F30300ED
:1053200002900195029820F080008030029000BF2A
:105330004FF48071184800F0B1FA0128F8D00CE061
:10534000601CC4B200BF4FF48071134800F0A6FA8D
:105350000128F8D005201DF015F800200346012291
:1053600001A900900C4800F081FF08B1042CE7DB94
:1053700000BF0221084800F091FA0128F9D0052069
:105380001DF000F8042C01D14FF000080024404625
:1053900004B0BDE8F0870000009000402DE9FF4711
:1053A0000746884615464FF00109002001900290FB
:1053B000039000260024CDF80C800290082D04DC18
:1053C000029865F30300029004E0029820F00F00B9
:1053D000083002900197029820F0800080300290FF
:1053E00004E0601CC4B264201CF0CCFF4FF4807158
:1053F000374800F053FA012801D10A2CF1DB0A2CBE
:105400000CD10121324800F0E7F84FF480713048A8
:1054100000F026F964201CF0B5FF00242BE00121E8
:105420002B4800F0D9F84FF48071294800F018F9A2
:10543000701CC6B204E0601CC4B264201CF0A2FF61
:105440004FF48071224800F029FA012801D10A2C7A
:10545000F1DB0A2C0CD101211D4800F0BDF84FF4FE
:1054600080711B4800F0FCF864201CF08BFF0024C6
:1054700005201CF087FF00200346012201A90090AF
:10548000134800F0F3FE08B1042EC8DB00BF022170
:105490000F4800F003FA0128F9D005201CF072FF34
:1054A000042E0FD1002009E00A4951F8201041F4E0
:1054B0000061084A42F82010411CC8B20828F3DBFA
:1054C0004FF000090026484604B0BDE8F087000010
:1054D00000800740E093FF1F704770472DE9F047B9
:1054E00004460F4615464FF0000800264FF0040909
:1054F000002F54D0002D52D000BF2A48844202D041
:105500002948844200D104E04FF45F7127A004F0E1
:1055100029FE00BF40E007F00100002837D000BF9F
:1055200006EB460005EB8000806878B106EB46008C
:1055300005EB80008068B0F1804F07D006EB460095
:1055400005EB80008068B0F1C04F00D104E040F26C
:10555000823116A004F006FE00BF04F8B48F06EBFB
:10556000460055F820006060207840F02000207050
:1055700006EB460005EB8000406806EB460105EBB4
:105580008101896808436060B43C701CC6B27F101A
:1055900008F1010000F0FF08002FBCD1B9464846D1
:1055A000BDE8F08700900040008007402E2E5C2E62
:1055B0002E5C4C69627261726965735C64726976B3
:1055C00065725C7372635C68633332663461305F4A
:1055D00063616E2E6300000038B504460D4612A0CC
:1055E0000068009000BF1148844202D010488442F5
:1055F00000D104E04FF479710EA004F0B3FD00BFB8
:1056000000BF0DB1012D00D104E040F2E53109A049
:1056100004F0A8FD00BF94F8A1001DF80510084390
:1056200084F8A10038BD000008010000009000408F
:10563000008007402E2E5C2E2E5C4C6962726172D7
:105640006965735C6472697665725C7372635C68C9
:10565000633332663461305F63616E2E6300000035
:105660002DE9F04104460D4600BF1348844202D0A4
:105670001248844200D104E040F24D4110A004F0F1
:1056800071FD00BF19480540C5F307474FEA15688B
:1056900005F0200028B194F8A30040F0100084F831
:1056A000A30004F8A57F667806F02A0646EA0806F5
:1056B0006670A53CBDE8F081009000400080074086
:1056C0002E2E5C2E2E5C4C69627261726965735C71
:1056D0006472697665725C7372635C6863333266A8
:1056E0003461305F63616E2E630000002000FFD5DF
:1056F00070B5044600BF2148844202D0204884424D
:1057000000D104E04FF4E1711EA004F02BFD00BFB6
:1057100094F8A00000F07F0084F8A00000252AE0A3
:10572000802004F8A00F002060709020A07010204E
:10573000E070FE202071FF206071D520A0711B2039
:10574000E0711B48A060E060002020746074A074C9
:10575000E07420750120E0820020A077D820E07757
:105760000020A084E0842085207840F0800004F8A8
:10577000A009681CC5B2022DD2D370BD00900040B4
:10578000008007402E2E5C2E2E5C4C696272617286
:105790006965735C6472697665725C7372635C6878
:1057A000633332663461305F63616E2E63000000E4
:1057B0000302020110B5044600BF0A48844202D029
:1057C0000948844200D104E040F2FB1107A004F034
:1057D000C9FC00BF94F8A00000F07F0084F8A0008E
:1057E00010BD000000900040008007402E2E5C2E6F
:1057F0002E5C4C69627261726965735C6472697671
:1058000065725C7372635C68633332663461305F07
:1058100063616E2E630000000146042061B1002226
:105820000A7080220A7510224A754A6004238B6030
:10583000CB6001230B6100207047000010B50446C7
:1058400000BF0948844202D00848844200D104E0E5
:1058500040F20E3106A004F085FC00BF94F8B000C1
:1058600000F0E00010BD0000009000400080074004
:105870002E2E5C2E2E5C4C69627261726965735CBF
:105880006472697665725C7372635C6863333266F6
:105890003461305F63616E2E630000002DE9F05FBC
:1058A00004460D464FF0000B00BF1B48844202D057
:1058B0001A48844200D104E040F2144118A004F0D8
:1058C00051FC00BF21480540EEB205F02007C5F3AA
:1058D0000728C5F307494FEA156A14F8A00F0640D8
:1058E000E0780740207900EA0808607900EA0909B1
:1058F000A079A03C00EA0A0A4EB947B9B8F1000FF6
:1059000005D1B9F1000F02D1BAF1000F01D04FF06B
:10591000010B5846BDE8F09F009000400080074012
:105920002E2E5C2E2E5C4C69627261726965735C0E
:105930006472697665725C7372635C686333326645
:105940003461305F63616E2E630000002701FFD574
:105950002DE9F047044600BF1148844202D01148A7
:10596000844200D104E040F286410FA004F0FAFB2B
:1059700000BF14F8A05FE67806F0200694F80490C3
:10598000677994F80680A03C46EA092040EA07407F
:1059900040EA086005430F4805402846BDE8F08707
:1059A00000900040008007402E2E5C2E2E5C4C693B
:1059B000627261726965735C6472697665725C7348
:1059C00072635C68633332663461305F63616E2E8C
:1059D000630000002701FFD570B505460C4604267C
:1059E00000BF3248854202D03148854200D104E0F0
:1059F0004FF489712FA004F0B5FB00BF002C53D0E9
:105A0000284600F0D1F90022211D284600F038F97F
:105A10001834617D284600F01FFBA18B2846A2693F
:105A2000FFF75CFD2846FFF7C5FE14F8181C284652
:105A300000F096FB217D284600F04EFBA17F284612
:105A400000F0CAFAA17D284600F084FAE17D2846DC
:105A500000F000FAE17F284600F03CFAB5F8B60005
:105A6000A18B183C0843A5F8B60000BF94F8380095
:105A700018B194F83800802800D104E040F22F11CA
:105A80000CA004F06FFB00BF95F8A30000F07F00AE
:105A900094F8381001F08001084385F8A3001049FC
:105AA0002846FFF7DDFD0026304670BD009000401F
:105AB000008007402E2E5C2E2E5C4C696272617253
:105AC0006965735C6472697665725C7372635C6845
:105AD000633332663461305F63616E2E63000000B1
