:020000040800F2
:1000000078280020C1010008B9350008752A0008C9
:10001000B53500082D060008553E00080000000018
:10002000000000000000000000000000BF350008D4
:100030007F06000800000000BD35000811360008EA
:10004000DB010008DB010008DB010008DB01000820
:10005000DB010008DB010008810600088B060008B0
:10006000DB010008DB010008DB010008DB01000800
:10007000DB010008DB010008DB010008DB010008F0
:10008000DB010008DB010008DB010008DB010008E0
:10009000DB010008DB010008DB010008DB010008D0
:1000A000DB010008DB010008DB010008DB010008C0
:1000B000DB010008DB010008B53A0008DB0100089D
:1000C000DB010008DB010008DB010008DB010008A0
:1000D000DB010008DB010008DB010008DB01000890
:1000E000DB010008DB010008DB010008DB01000880
:1000F000DB010008DB010008DB010008DB01000870
:10010000DB010008DB010008DB010008DB0100085F
:10011000DB010008DB010008DB010008C93A000828
:10012000DB010008DB010008DB010008DB0100083F
:10013000DB010008DB010008DB010008DB0100082F
:10014000DB010008DB010008DB010008DB0100081F
:10015000DB010008DB010008DB010008DB0100080F
:10016000DB010008DB010008DB010008DB010008FF
:10017000DB010008DB010008DB01000800000000D3
:10018000DB010008DB010008DB010008DB010008DF
:10019000DB010008DB010008DB010008DB010008CF
:1001A000DB010008DB010008DB010008DFF80CD0F0
:1001B00000F09AF800480047E14C00087828002039
:1001C0000648804706480047FEE7FEE7FEE7FEE7F1
:1001D000FEE7FEE7FEE7FEE7FEE7FEE7D9360008AA
:1001E000AD0100082DE9F05F0546002092469B46D0
:1001F00088460646814640241BE02846414647463D
:10020000224600F060F853465A46C01A914110D376
:1002100011461846224600F047F82D1A67EB0108F0
:100220004F4622460120002100F03EF817EB00095E
:100230004E41201EA4F10104DFDC484631462A4627
:100240004346BDE8F09F40EA01039B0703D009E065
:1002500008C9121F08C0042AFAD203E011F8013BB2
:1002600000F8013B521EF9D27047D2B201E000F80B
:10027000012B491EFBD270470022F6E710B513464A
:100280000A4604461946FFF7F0FF204610BD30B578
:1002900004460020034600E05B1C934203D2E05C6E
:1002A000CD5C401BF8D030BD202A04DB203A00FA98
:1002B00002F1002070479140C2F1200320FA03F3BD
:1002C000194390407047202A04DB203A21FA02F0BB
:1002D0000021704721FA02F3D040C2F12002914080
:1002E0000843194670470000064C074D06E0E068D9
:1002F00040F0010394E8070098471034AC42F6D36D
:10030000FFF758FF045300082453000855494A6872
:1003100022F440324A604A6843681A434A600268DD
:10032000526822F4807203685A6002685368026956
:1003300043EA022203685A600268526822F040725F
:1003400003685A600268526883681A4303685A60F7
:100350000268926822F4006203689A6002689268F8
:10036000C3681A4303689A603F4B826A9A4218D066
:100370000268926822F0706203689A60026892686C
:10038000836A1A4303689A600268926822F04052B6
:1003900003689A6002689268C36A1A4303689A60A5
:1003A0000BE00268926822F0706203689A6002684B
:1003B000926822F0405203689A600268926822F0C4
:1003C000020203689A6002689368027E43EA42026E
:1003D00003689A602022125CA2B10268526842F45B
:1003E000006203685A600268526822F4604203683F
:1003F0005A6002685368426A521E43EA42320368F6
:100400005A6005E00268526822F4006203685A608C
:100410000268D26A22F470020368DA620268D36A60
:10042000828B521E43EA02520368DA6202689268C3
:1004300022F4007203689A600268936890F8302092
:1004400043EA422203689A600268926822F480625A
:1004500003689A6002689368426943EA82220368EB
:100460009A607047002301400100000F2DE9F0431E
:100470008FB000200E90342101A8FFF7FDFE002070
:10048000009081460026012247F6F9710EA804F07B
:100490004BFA9DF83800012878D1032247F6FA710B
:1004A0004E4804F041FA012247F6F171684604F023
:1004B0003BFA9DF80000322869DA9DF8000047F603
:1004C000F072101A411C9DF8002001A804F02CFACB
:1004D0009DF804004A2815D19DF805004E2811D139
:1004E00000200CE0011D01AA515C392903DC011D2B
:1004F000515C302901DA012603E0411CC8B208280A
:10050000F0DB00E00126002E5DD19DF809003038B7
:100510009DF80810303901EB810100EB4100C4B2B5
:100520009DF80B0030389DF80A10303901EB81013D
:1005300000EB4100C5B2152C05DB0C2D03DC152C9E
:1005400002D10A2D00DA0126DEBB9DF80C003038FE
:100550004FF47A7110FB01F19DF80D00303800EB7B
:10056000C00202EB001001EB80019DF80E00303854
:1005700000EB800001EB40019DF80F00303808448B
:1005800087B2152C04D1A5F10A0008E021E019E09A
:10059000A4F1160000EB400005EB8000801C1FFA60
:1005A00080F80E48007800040C49497800EB0120DF
:1005B0000A49897800EB010907EB8830484502D0E9
:1005C000012600E0012626B1002004490870487089
:1005D000887030460FB0BDE8F0830000270000208F
:1005E00010B5012080F3108800BF0C4800680C494A
:1005F0000840B0F1005F0FD1084840680949086021
:1006000008460068084908600449086880F30888BB
:1006100000BF05480068804710BD000000000208C8
:100620000000FE2F300000202C00002000BFFEE75D
:10063000F0B504460D464FF6FF76002707E014F8A4
:10064000010B314600F007F80646781C87B2AF422E
:10065000F5DB3046F0BD10B5024681EA020000230A
:100660000AE000F0010424B14AF2010484EA6000C7
:1006700000E040105C1CA3B2082BF2DB10BD7047F9
:1006800010B5012000F0CEFE10BD10B5022000F024
:10069000C9FE10BD72B600BFFEE7000010B5002213
:1006A00001B909E0012901D10A0205E0022901D1BD
:1006B0000A0201E04FF440720B2800D9001D0E4BD6
:1006C0001B6823F440730C4C236023461B681343C0
:1006D000236023461B6823F0F803236023461B682E
:1006E000022444EAC0042343034C236023461B68CE
:1006F00043F48033236010BD103C02401C48006866
:1007000000F40070B0B11A48006820F40070184975
:10071000086000BF0846006840F4006008600846B2
:10072000006820F40060086000BF0846006840F4DC
:10073000007008600E48006800F48060B0B10C489A
:10074000006820F480600A49086000BF084600681D
:1007500040F4805008600846006820F4805008602B
:1007600000BF0846006840F48060086070470000E1
:10077000003C0240134A126822F44072114B1A6086
:10078000032906D11A461268DB131A430D4B1A606F
:100790000EE0012906D10B4A126842F00402094B0F
:1007A0001A6005E0074A126842F40042054B1A60DD
:1007B000044A12684FF4803343EA00231A43014B82
:1007C0001A607047103C0240074A126822F44072D7
:1007D000054B1A601A4612681A601A46126842F0EF
:1007E00001021A6001707047103C024010B50D49BB
:1007F000096821F440710B4C21602146096841F4DD
:10080000407121602146096841F0010121600260C8
:1008100000BF00BF00BFBFF36F8F00BF00BF00BFAE
:10082000436010BD103C0240084A126822F4407236
:10083000064B1A601A46126842F480721A601A4611
:10084000126842F001021A6001807047103C0240B9
:10085000084A126822F44072064B1A601A4612685F
:1008600042F400721A601A46126842F001021A60DD
:1008700001607047103C02402A48006800F01000F8
:1008800040B12948C06940F010002749C8611020D4
:10089000244908602348006800F0200040B1224845
:1008A000C06940F008002049C86120201D49086047
:1008B0001C48006800F0400040B11B48C06940F08F
:1008C00004001949C86140201649086015480068AD
:1008D00000F0800040B11448C06940F002001249A5
:1008E000C86180200F4908600E48006800F48070DD
:1008F00048B10D48C06940F001000B49C8614FF490
:100900008070084908600748006800F0020040B1A4
:100910000548C06940F020000349C8610220014930
:10092000086070470C3C02403404002070B5044657
:10093000002500201449C86100F0A0FE054609E02A
:10094000601C38B124B100F099FE401BA04201D9CF
:10095000032070BD0D48006800F480300028EFD1FE
:100960000A48006800F0010010B101200749086042
:100970000648006800F4F97018B1FFF77DFF012008
:10098000E7E70020E5E70000340400200C3C0240CB
:1009900010B5044800F0A7FE0421034800F05EFEF5
:1009A00010BD0000440100200004024070B505465F
:1009B0000C4600F01BFD284600F094F82B49086017
:1009C000204600F08FF829490968401A401C284940
:1009D0000860002027490860022008610120486063
:1009E00022480068886022480068C860F2202249D6
:1009F000086022491F4800F049FC10B1012020493D
:100A000008701D480C38006820F480601A490C39C1
:100A100008600846006820F40070086000BF0846BF
:100A2000006840F4805008600846006820F4805058
:100A3000086000BF00BF0846006840F4006008601E
:100A40000846006820F40060086000BF084600689F
:100A500040F4007008600846006840F48060086058
:100A600000F06EFC0648007870BD000050000020C9
:100A700054000020541C00200C3C02405C0000206C
:100A8000600000202DE9F05F06460F4690460024E6
:100A9000B2463D46A34600F0A9FCA1461AE0E8781C
:100AA00044EA0064A87844EA0044687844EA0024F0
:100AB000287804432D1D224600235146022000F0D1
:100AC00049FC10B90AF1040A01E04FF0010B0024BF
:100AD00009F10409C145E2D300F032FC5846BDE8F3
:100AE000F09F0000014600205C4A914203D2B1F120
:100AF000006F00D3B0E05A4A914204D2574A914263
:100B000001D30120A8E0574A914204D2544A9142AD
:100B100001D30220A0E0544A914204D2514A9142AA
:100B200001D3032098E0514A914204D24E4A9142A7
:100B300001D3042090E04E4A914204D24B4A9142A4
:100B400001D3052088E04B4A914204D2484A9142A1
:100B500001D3062080E0484A914204D2454A91429E
:100B600001D3072078E0454A914204D2424A91429B
:100B700001D3082070E0424A914204D23F4A914298
:100B800001D3092068E03F4A914204D23C4A914295
:100B900001D30A2060E0B1F1016F04D2394A9142D9
:100BA00001D30B2058E0384A914204D2B1F1016FD1
:100BB00001D30C2050E0354A914204D2324A91428E
:100BC00001D30D2048E0324A914204D22F4A91428B
:100BD00001D30E2040E02F4A914204D22C4A914288
:100BE00001D30F2038E02C4A914204D2294A914285
:100BF00001D3102030E0294A914204D2264A914282
:100C000001D3112028E0264A914204D2234A91427E
:100C100001D3122020E0234A914204D2204A91427B
:100C200001D3132018E0204A914204D21D4A914278
:100C300001D3142010E01D4A914204D21A4A914275
:100C400001D3152008E01A4A914204D2174A914272
:100C500001D3162000E01720704700000040000874
:100C60000080000800C00008000001080000020821
:100C700000000408000006080000080800000A0838
:100C800000000C0800000E0800401008008010084A
:100C900000C010080000110800001208000014082D
:100CA000000016080000180800001A0800001C08C0
:100CB00000001E0838B502460020009000BF92F8E0
:100CC0003C00012801D1022038BD012082F83C00FF
:100CD00000BF0868092816D91068C0680C780A3C5B
:100CE00004EB44050724AC40A0431468E0600C7892
:100CF0000A3C04EB44048868A0401468E46820437C
:100D00001468E06013E0106800690C7804EB440597
:100D10000724AC40A043146820610C7804EB440421
:100D20008868A040146824692043146820614868DA
:100D3000072817D21068406B0C79641E04EB8405F9
:100D40001F24AC40A04314686063088880B20C790B
:100D5000641E04EB8404A0401468646B2043146890
:100D6000606331E048680D2817D21068006B0C7979
:100D7000E41F04EB84051F24AC40A04314682063E7
:100D8000088880B20C79E41F04EB8404A040146846
:100D9000246B20431468206316E01068C06A0C7945
:100DA0000D3C04EB84051F24AC40A0431468E062B2
:100DB000088880B20C790D3C04EB8404A0401468D0
:100DC000E46A20431468E0621E4B1F4C1068A04286
:100DD0000AD10868122807D1586820F4000058602A
:100DE000586840F480005860174C1068A04222D127
:100DF000164C0868A04202D0086811281BD1586818
:100E000020F480005860586840F4000058600F4C8F
:100E10000868A0420FD10E4800680E4CB0FBF4F0F9
:100E200000EB80004000009002E00098401E00901F
:100E300000980028F9D100BF002082F83C0000BFD4
:100E400000BF41E7002301400020014012000010D4
:100E50004400002040420F0070B5044600250CB944
:100E6000012070BD1549A06A884200D000BF206CE7
:100E700030B9204600F024F80020606484F83C007B
:100E8000206C00F0100088B9206C20F4885040F0ED
:100E9000020020642046FFF739FA00206064206CCD
:100EA00020F0020040F00100206400E0012500BFB6
:100EB000002084F83C0000BF2846D2E70100000F64
:100EC00010B586B00446142101A8FFF7D5F93249C0
:100ED000206888425DD100BF002000902F48006844
:100EE00040F480602D4908600846006800F4806086
:100EF000009000BF00BF00BF0020009027481438BA
:100F0000006840F020002549143908600846006850
:100F100000F02000009000BF00BF00BF0020009044
:100F20000846006840F0040008600846006800F0C9
:100F30000400009000BF00BF00BF002000900846E2
:100F4000006840F0010008600846006800F00100F9
:100F5000009000BF00BF7820019003200290002085
:100F6000039001A90E4800F06BFA0D2001900320B8
:100F700002900020039001A90A4800F061FA0820BD
:100F80000190032002900020039001A9064800F080
:100F900057FA06B010BD000000220140443802405C
:100FA00000140240000802400000024070B50446F0
:100FB0000CB9012070BD94F8200010B9204600F053
:100FC000AFF82068006840F001002168086000F078
:100FD00055FB05460DE000F051FB401B0A2808D9DF
:100FE000606A40F400306062052084F8200001202F
:100FF000E0E72068406800F001000028EBD020689E
:10100000006820F002002168086000F037FB054608
:101010000DE000F033FB401B0A2808D9606A40F459
:1010200000306062052084F820000120C2E72068BB
:10103000406800F002000028EBD1207E012806D194
:101040002068006840F080002168086005E02068A2
:10105000006820F0800021680860607E012806D1C9
:101060002068006840F040002168086005E02068C2
:10107000006820F0400021680860A07E012806D1A9
:101080002068006840F020002168086005E02068C2
:10109000006820F0200021680860E07E012806D169
:1010A0002068006820F010002168086005E02068D2
:1010B000006840F0100021680860207F012806D1F8
:1010C0002068006840F008002168086005E020689A
:1010D000006820F0080021680860607F012806D1C0
:1010E0002068006840F004002168086005E020687E
:1010F000006820F0040021680860D4E90201084378
:1011000021690843616908436168491E08432168F1
:10111000C86100206062012084F82000002049E7B7
:1011200010B586B00446142101A8FFF7A5F8474979
:10113000206888423AD146480068401C444908600B
:101140000846006801280FD100BF002000904148E8
:10115000006840F000703F4908600846006800F0F1
:101160000070009000BF00BF00BF00200090394811
:101170001038006840F00100364910390860084610
:10118000006800F00100009000BF00BF4FF4C050A5
:101190000190022002900020039003200490092077
:1011A000059001A92C4800F04BF94DE02B4920682F
:1011B000884249D100BF002000902648006840F0D6
:1011C0008060244908600846006800F08060009054
:1011D00000BF00BF1E480068401C1D49086008464B
:1011E000006801280FD100BF002000901948006856
:1011F00040F00070174908600846006800F0007071
:10120000009000BF00BF00BF0020009011481038C0
:10121000006840F002000F49103908600846006875
:1012200000F00200009000BF00BF4FF4405001905A
:1012300002200290002003900320049009200590D2
:1012400001A9074800F0FCF806B010BD006400409A
:101250003400002040380240000002400068004096
:101260000004024070B5044600F008FA0646254620
:10127000681C10B104480078054400BF00F0FEF976
:10128000801BA842FAD370BD400000202DE9F04138
:1012900004460E460127002500BF2748007E01288E
:1012A00002D10220BDE8F08101202349087600BF69
:1012B0004CF25030FFF73AFB0746002F34D1401E66
:1012C00030602068012810D1207C6168FFF752FA55
:1012D0004CF25030FFF72AFB07461848006848F2E6
:1012E00004018843154908601CE0A56814E0FFF775
:1012F0004FFB217C2846FFF7D1F94CF25030FFF725
:1013000015FB07460D48006820F0FA000B490860FD
:101310000FB1356005E06D1CD4E902100844A84205
:10132000E5D800BFFFF7EAF900BF002002490876C0
:1013300000BF3846B6E7000034040020103C0240ED
:101340000348006840F000400149086000207047F1
:10135000103C02402DE9F04106460F4614461D465A
:101360004FF0010800BF1F48007E012802D1022073
:10137000BDE8F08101201B49087600BF4CF25030D7
:10138000FFF7D4FA8046B8F1000F23D126B9E1B2B5
:101390003846FFF719FA12E0012E04D1A1B23846FF
:1013A000FFF742FA0BE0022E04D121463846FFF740
:1013B0004FFA04E022462B463846FFF717FA4CF264
:1013C0005030FFF7B3FA80460748006820F001006C
:1013D0000549086000BF00200249087600BF40466A
:1013E000C6E7000034040020103C024000200949F8
:1013F000096801F0004159B10749064A0C3A1160E9
:10140000064911600349096801F0004101B101205A
:1014100070470000103C024023016745AB89EFCDC7
:101420007047000010B5044604480068204020B111
:10143000024804602046FFF7F3FF10BD143C014052
:10144000F8B502460B460025002400200021DFE00D
:10145000012606FA01F51E6806EA0504AC4274D1BD
:101460001E7906F00306012E04D01E7906F003064D
:10147000022E13D190684F000326BE40B0434F00A8
:10148000DE68BE4030439060506801268E40B04315
:101490001E79C6F300168E40304350601E7906F068
:1014A0000306032E09D0D0684F000326BE40B04388
:1014B0004F009E68BE403043D0601E7906F00306A0
:1014C000022E13D1CF0802F1200656F827004E074E
:1014D000F70E0F26BE40B0434F07FF0E1E69BE40F9
:1014E0003043CF0802F1200646F8270010684F006D
:1014F0000326BE40B0431E7906F003064F00BE40EF
:10150000304310605E6806F44036002E7FD000BF86
:1015100000260096404E366846F480463E4F3E60B8
:101520003E46366806F48046009600BF00BF3B4E3C
:101530008F0856F827008E07370F0F26BE40B0439E
:10154000374EB24202D100262EE060E0354EB24264
:1015500001D1012628E0344EB24201D1022623E017
:10156000324EB24201D103261EE0314EB24201D1C9
:10157000042619E02F4EB24201D1052614E02E4E6A
:10158000B24201D106260FE02C4EB24201D107260D
:101590000AE02B4EB24201D1082605E0294EB242A4
:1015A00001D1092600E00A268F073F0FBE403043D5
:1015B0001A4E8F0846F82700234E3068A0435E6815
:1015C00006F4803606B120431F4E3060361D306869
:1015D000A0435E6806F4003606B120431A4E361D5D
:1015E0003060361D3068A0435E6806F4801606B190
:1015F0002043154E08363060361D3068A0435E68C3
:1016000006F4001606B120430F4E0C363060491C1C
:101610001029FFF41DAFF8BD4438024008380140DE
:10162000000002400004024000080240000C02409A
:10163000001002400014024000180240001C02404A
:101640000020024000240240003C01400246136991
:101650000B400BB1012000E00020704710B542693B
:1016600021EA020302EA010443EA0443836110BD54
:101670000AB1816101E00B04836170470148006891
:10168000704700003800002070B504460CB90120F6
:1016900070BD4CF6CC402168086045F25550216879
:1016A0000860D4E9001048602168A0688860FFF7EE
:1016B000E5FF05460BE0FFF7E1FF401B312806D9A7
:1016C0002068C06800F0030008B10320E0E720684C
:1016D000C06800F003000028EDD14AF6AA20216876
:1016E00008600020D4E701464AF6AA200A68106084
:1016F00000207047034800680349097808440149FD
:1017000008607047380000204000002010B50D48E8
:10171000006840F400700B4908600846006840F417
:10172000806008600846006840F48070086003200C
:1017300000F0E4F8002000F007F800F04BF800207B
:1017400010BD0000003C024070B588B00446002582
:10175000002600222146372000F092F8372000F0C2
:101760007FF800BF002001901648006840F020007C
:10177000144908600846006800F02000019000BF8E
:1017800000BF02A903A800F0D5F900F0FBF945005D
:101790000D48B5FBF0F0461E0C480D49086040F2BC
:1017A000E7310B48C160466000210161816000F0B3
:1017B000D7FE20B9064800F02BFF08B070BD01200D
:1017C000FBE700004038024040420F000014004098
:1017D000EC03002008B500BF002000900E48006810
:1017E00040F480400C4908600846006800F48040DE
:1017F000009000BF00BF00BF00200090081F0068DD
:1018000040F08050091F08600846006800F08050D2
:10181000009000BF00BF08BD4438024010B501462B
:101820000846002817DB00F01F0301229A400B4BEB
:10183000440943F8242000BF00BF00BFBFF34F8F0F
:1018400000BF00BF00BF00BF00BF00BFBFF36F8F6E
:1018500000BF00BF00BF00BF10BD000080E100E07E
:1018600001460846002809DB00F01F0301229A40C8
:1018700043099B0003F1E023C3F8002100BF704738
:101880002DE9F05F80460D461646002702F092FFD4
:10189000074639462A46334601F00700C0F1070AD9
:1018A000BAF1040F02D94FF0040A01E0C0F1070AAF
:1018B000D14600F1040ABAF1070F02D24FF0000A34
:1018C00001E0A0F1030AD4464FF0010A0AFA09FA2E
:1018D000AAF1010A0AEA020A0AFA0CFA4FF0010B0D
:1018E0000BFA0CFBABF1010B0BEA030B4AEA0B04FE
:1018F0002146404602F066FFBDE8F09F00BF00F0C1
:101900000702064B19684FF6FF031940044B0B43BF
:1019100043EA0221014B196000BF70470CED00E063
:101920000000FA0538B5002400BF002000901D48D3
:10193000006840F080501B4908600846006800F0CD
:101940008050009000BF00BF012017490864FFF7D6
:1019500095FE044607E0FFF791FE001BB0F57A7F85
:1019600001D9032038BD1148406800F48030B0F53B
:10197000803FF0D101200C494864FFF77FFE044608
:1019800007E0FFF77BFE001BB0F57A7F01D903204B
:10199000E8E70648406800F40030B0F5003FF0D1B9
:1019A0000020DFE74038024000000E420070004097
:1019B00070B504460D460CB9012070BD584800684A
:1019C00000F00F00A84209D255490D700846006882
:1019D00000F00F00A84201D00120EEE7207800F0CF
:1019E000020002281DD1207800F00400042805D14F
:1019F0004C48006840F4E0504A490860207800F004
:101A00000800082805D14748006840F4604045496F
:101A100008604448006820F0F000A168084341498C
:101A20000860207800F00100A8B36068012807D1A1
:101A30003C4808380068C0F34040B8B90120BCE712
:101A40006068022802D06068032807D1354808384A
:101A50000068C0F3406048B90120AEE7314808385B
:101A60000068C0F3400008B90120A6E72D480068CF
:101A700020F00300616808432A490860FFF7FEFD73
:101A8000064609E0FFF7FAFD801B41F288318842E3
:101A900002D9032091E707E02248006800F00C001B
:101AA0006168B0EB810FEDD11D48006800F00F00B8
:101AB000A84209D91A490D700846006800F00F00C5
:101AC000A84201D0012078E7207800F00400042823
:101AD00007D11448006820F4E050E1680843114938
:101AE0000860207800F00800082808D10D48006838
:101AF00020F46040216940EAC1000A49086000F012
:101B000061F808490968C1F30311074A515CC840EC
:101B10000649086006480068FFF716FE00204CE7FB
:101B2000003C024008380240EA520008440000200D
:101B30003C0000200F2202600D4A126802F00302EE
:101B400042600B4A126802F0F0028260084A126892
:101B500002F4E052C260064A126802F46042D208FF
:101B60000261044A126802F00F020A607047000026
:101B700008380240003C02400148006870470000FD
:101B80004400002000B5FFF7F7FF04490968C1F3DE
:101B90008221034A515CC84000BD00000838024061
:101BA000FA52000800B5FFF7E7FF04490968C1F3DE
:101BB0004231034A515CC84000BD00000838024071
:101BC000FA5200082DE9F047002400250026A1461E
:101BD0002548006800F00C0020B1042805D0082832
:101BE0003AD105E0DFF8849039E0DFF8849036E000
:101BF0001D48001F006800F03F041B48001F0068DC
:101C000000F4800078B11A481749091F0968C1F328
:101C10008811A0FB01700146224600233846FEF7DA
:101C2000E1FA05460EE011480F49091F0968C1F3A2
:101C30008811A0FB01700146224600233846FEF7BA
:101C4000D1FA05460848001F0068C0F30140401C57
:101C50004600B5FBF6F902E0DFF8109000BF00BFC8
:101C60004846BDE8F0870000083802400024F40030
:101C700000127A00F8B504460CB90120F8BD2078AE
:101C800000F00100002874D0F948006800F00C0052
:101C900004280DD0F648006800F00C00082813D185
:101CA000F348001F006800F48000B0F5800F0BD1EE
:101CB000EF4808380068C0F34040002859D06068F9
:101CC000002856D10120D9E700BF6068B0F5803FF9
:101CD00008D1E7480838006840F48030E449083902
:101CE00008601EE06068B0F5A02F0DD1E04808380C
:101CF000006840F48020DE49083908600846006822
:101D000040F4803008600CE0D9480838006820F4BE
:101D10008030D749083908600846006820F48020E0
:101D2000086000BF606890B1FFF7A8FC054606E0B8
:101D3000FFF7A4FC401B642801D903209EE7CC4890
:101D400008380068C0F340400028F1D011E0FFF7E8
:101D500095FC054606E0FFF791FC401B642801D97D
:101D600003208BE7C24808380068C0F340400028D1
:101D7000F1D1207800F0020002285FD1BC48006851
:101D800000F00C0058B1BA48006800F00C000828B8
:101D90001CD1B748001F006800F48000B0B9B448F7
:101DA00008380068C0F3400020B1E068012801D085
:101DB000012063E7AE480838006820F0F800216988
:101DC00040EAC100AA490839086037E0E06800B37A
:101DD0000120A8490860FFF751FC054606E0FFF71F
:101DE0004DFC401B022801D9032047E7A0480838D2
:101DF0000068C0F340000028F1D09D480838006812
:101E000020F0F800216940EAC100994908390860CA
:101E100014E0002097490860FFF730FC054606E013
:101E2000FFF72CFC401B022801D9032026E790482D
:101E300008380068C0F340000028F1D1207800F095
:101E4000080008282CD16069A8B101208A490860DF
:101E5000FFF714FC054606E0FFF710FC401B0228C4
:101E600001D903200AE782486C300068C0F34000C3
:101E70000028F1D014E000207F490860FFF7FEFB46
:101E8000054606E0FFF7FAFB401B022801D90320B4
:101E9000F4E677486C300068C0F340000028F1D1C8
:101EA000207800F00400042870D1002770483830F2
:101EB000006800F0805090B900BF002000906C488E
:101EC0003830006840F08050694938310860084671
:101ED000006800F08050009000BF00BF01276748F5
:101EE000006800F48070B0B96448006840F4807005
:101EF00062490860FFF7C2FB054606E0FFF7BEFB3C
:101F0000401B022801D90320B8E65C48006800F4B1
:101F100080700028F2D000BFA068012808D1544882
:101F20006830006840F001005149683108601DE0E8
:101F3000A06805280DD14E486830006840F00400C4
:101F40004B49683108600846006840F001000860AD
:101F50000CE047486830006820F0010044496831CF
:101F600008600846006820F00400086000BFA06810
:101F7000A8B1FFF783FB054609E0FFF77FFB401B95
:101F800041F28831884202D9032077E626E03848BA
:101F900068300068C0F340000028EED013E0FFF77F
:101FA0006DFB054608E0FFF769FB401B41F28831F5
:101FB000884201D9032061E62D4868300068C0F3EB
:101FC00040000028EFD1012F07D1294838300068A0
:101FD00020F0805026493831086000BFA0690028F1
:101FE00045D02348006800F00C0008285DD0A069A7
:101FF000022845D100201F490866FFF73FFB054630
:1020000006E0FFF73BFB401B022801D9032035E621
:10201000174808380068C0F340600028F1D1D4E9BF
:1020200007010843616A40EA81110122A06AC2EBFC
:10203000500041EA00412C20005D41EA00600C495B
:10204000091F086001200B490866FFF717FB0546CA
:1020500006E0FFF713FB401B022801D903200DE621
:10206000034808380068C0F340600028F1D049E018
:102070000838024000004742800E4742007000408E
:10208000002021490866FFF7F9FA054606E0FFF748
:10209000F5FA401B022801D90320EFE51B48006830
:1020A000C0F340600028F2D12CE0A069012800D1E3
:1020B000E4E51648001D0668A069012820D006F452
:1020C0008001E06981421BD106F03F01206A814214
:1020D00016D147F6C0703040616AB0EB811F0FD156
:1020E00006F440310122A06AC2EB5000B1EB004F70
:1020F00006D106F070612C20005DB1EB006F01D0BD
:102100000120BBE50020B9E500004742003802404D
:1021100010B504460CB9012010BD606A38B960687A
:10212000B0F5827F00D105E00021E16102E00021ED
:10213000216161610021A16294F8510028B9002059
:1021400084F85000204600F047F8022084F851003F
:102150002068006820F0400021680860A08800F432
:102160008270218901F404410843A18901F40061CE
:102170000843217C01F002010843217D01F00101A7
:102180000843218B01F400710843217F01F03801DD
:1021900008432021095D01F080010843218D01F4ED
:1021A00000510843216808600421A06901EA104039
:1021B00094F8241001F01001084321684860206859
:1021C000C06920F400602168C861002060650120BA
:1021D00084F8510000209FE710B586B00446142112
:1021E00001A8FEF749F8A3492068884230D100BF12
:1021F00000200090A048006840F480509E4908608C
:102200000846006800F48050009000BF00BF00BF87
:102210000020009098481438006840F00200964969
:10222000143908600846006800F00200009000BF02
:1022300000BF38200190022002900120039003206B
:1022400004900520059001A98C48FFF7F9F80FE1EB
:102250008B492068884232D100BF00200090864818
:10226000001F006840F480408349091F0860084649
:10227000006800F48040009000BF00BF00BF002055
:1022800000907D481438006840F480707A49143911
:1022900008600846006800F48070009000BF00BF2E
:1022A0000E20019002200290012003900320049050
:1022B0000520059001A97348FFF7C2F8D8E07249DC
:1022C0002068884233D100BF002000906A48001F78
:1022D000006840F400406849091F0860084600682B
:1022E00000F40040009000BF00BF00BF002000903D
:1022F00061481438006840F004005F4914390860F0
:102300000846006800F00400009000BF00BF4FF4D2
:10231000E0500190022002900120039003200490DD
:102320000620059001A95948FFF78AF8A0E058490E
:102330002068884231D100BF002000904E480068DC
:1023400040F400504C4908600846006800F4005012
:10235000009000BF00BF00BF002000904648143826
:10236000006840F0100044491439086008460068CD
:1023700000F01000009000BF00BF4FF4E04001905B
:102380000220029001200390032004900520059074
:1023900001A94048FFF754F86AE03F4920688842A5
:1023A00031D100BF002000903348006840F4801015
:1023B000314908600846006800F48010009000BFB2
:1023C00000BF00BF002000902B481438006840F088
:1023D00020002949143908600846006800F02000F0
:1023E000009000BF00BF4FF4607001900220029087
:1023F00001200390032004900520059001A927489F
:10240000FFF71EF834E026492068884230D100BF2B
:10241000002000901848006840F400101649086039
:102420000846006800F40010009000BF00BF00BF25
:102430000020009010481438006840F040000E4919
:10244000143908600846006800F04000009000BFA2
:1024500000BF4FF4E0400190022002900120039061
:10246000032004900520059001A90E48FEF7E8FF1F
:1024700006B010BD00300140443802400004024064
:102480000038004000200240003C004000080240AC
:10249000003401400010024000500140001402408E
:1024A00000540140001802407047704730B50246A2
:1024B0000B4600BF92F83C00012801D1022030BD3C
:1024C000012082F83C0000BF022082F83D00106825
:1024D00044681068816824F0700418680443106828
:1024E0004460184D1068A8421BD01068B0F1804FAE
:1024F00017D0154D1068A84213D0144D1068A8428B
:102500000FD0134D1068A8420BD0124D1068A8428E
:1025100007D0114D1068A84203D0104D1068A84292
:1025200005D121F0800158680143106881600120C5
:1025300082F83D0000BF002082F83C0000BF00BFD1
:10254000BDE700000000014000040040000800401A
:10255000000C004000040140004001400018004011
:1025600010B504460CB9012010BD94F83D0028B9FF
:10257000002084F83C00204600F026F8022084F871
:102580003D00211D206801F0A7FA012084F84600D3
:1025900000BF84F83E0001213F2001554020015535
:1025A0004120015500BF00BF012084F842004320B4
:1025B0000155442001554520015500BF012084F8F4
:1025C0003D000020D0E7000038B504460E492068E1
:1025D000884217D100BF002000900C48006840F0EE
:1025E00004000A4908600846006800F004000090F2
:1025F00000BF00BF002211461E20FFF741F91E2038
:10260000FFF72EF938BD00000008004040380240B6
:10261000014691F83D00012801D0012070470220B9
:1026200081F83D000868C06840F001000B68D86080
:102630001A4B086898421BD00868B0F1804F17D039
:10264000174B0868984213D0164B086898420FD071
:10265000154B086898420BD0144B0868984207D075
:10266000134B0868984203D0124B086898420CD16B
:102670000868806800F00702062A0CD00868006825
:1026800040F001000B68186005E00868006840F041
:1026900001000B6818600020C0E700000000014046
:1026A0000004004000080040000C0040000401400D
:1026B00000400140001800402DE9F04104460D465D
:1026C000002700BF94F83C00012802D10220BDE899
:1026D000F081012084F83C0000BF022084F83D0016
:1026E0002068866826F0770626F47F462068866094
:1026F0002868502833D00CDC202850D004DC002877
:102700004BD0102851D149E0302849D040284CD135
:1027100039E060282DD0702807D0B0F5805F03D055
:10272000B0F5005F41D10DE041E0D5E902136A68E0
:10273000206801F03DFA2068866846F07706206838
:10274000866034E0D5E902136A68206801F030FA47
:102750002068806840F480402168886027E0EA684B
:102760006968206801F038FA5021206801F02BFADE
:102770001DE0EA686968206801F041FA602120687C
:1027800001F021FA13E0EA686968206801F024FA90
:102790004021206801F017FA09E000BF00BF00BF28
:1027A0002968206801F00FFA01E0012700BF00BF8F
:1027B000012084F83D0000BF002084F83C0000BFE9
:1027C000384684E7704710B5044620680069C0F3B6
:1027D0004000D8B12068C068C0F34000B0B16FF0CD
:1027E000020021680861012020772068806900F0DC
:1027F000030018B12046FFF7E5FF05E0204600F092
:10280000ADF8204600F0ABF8002020772068006982
:10281000C0F38000D8B12068C068C0F38000B0B1B8
:102820006FF0040021680861022020772068806929
:1028300000F4407018B12046FFF7C4FF05E02046C1
:1028400000F08CF8204600F08AF8002020772068FD
:102850000069C0F3C000D8B12068C068C0F3C000F0
:10286000B0B16FF00800216808610420207720686B
:10287000C06900F0030018B12046FFF7A3FF05E090
:10288000204600F06BF8204600F069F80020207721
:1028900020680069C0F30010D8B12068C068C0F398
:1028A0000010B0B16FF01000216808610820207797
:1028B0002068C06900F4407018B12046FFF782FF1D
:1028C00005E0204600F04AF8204600F048F80020D5
:1028D00020772068006900F0010058B12068C068C6
:1028E00000F0010030B16FF001002168086120465E
:1028F00000F036F820680069C0F3C01058B12068B5
:10290000C068C0F3C01030B16FF08000216808616A
:102910002046FFF7C9FD20680069C0F3801058B158
:102920002068C068C0F3801030B16FF040002168AB
:102930000861204600F020F820680069C0F34010CC
:1029400058B12068C068C0F3401030B16FF020006B
:10295000216808612046FFF7A8FD10BD7047704749
:1029600010B5044603492068884201D1FEF7C2FE33
:1029700010BD000000140040704710B504460CB9AB
:10298000012010BDA06900B100E000BF94F83D0037
:1029900028B9002084F83C00204600F027F82420C5
:1029A00084F83D002068C06820F400502168C860A9
:1029B000204601F039F92068006920F49040216830
:1029C00008612068406920F02A0021684861206879
:1029D000C06840F400502168C860002020642020B6
:1029E00084F83D0084F83E000020CAE710B586B0A8
:1029F0000446142101A8FDF73FFC1B4920688842CA
:102A000030D100BF002000901848006840F48020BA
:102A1000164908600846006800F48020009000BF56
:102A200000BF00BF0020009010481038006840F040
:102A300008000E49103908600846006800F00800D8
:102A4000009000BF00BF4FF4407001900220029040
:102A500000200390032004900720059001A904485A
:102A6000FEF7EEFC06B010BD0048004040380240C2
:102A7000000C024000BFFEE710B500244FF40041F7
:102A80004648FEF7E3FD50B90A20FEF7EBFB4FF492
:102A900000414248FEF7DAFD08B9601CC4B24FF4A9
:102AA00080613F48FEF7D2FD50B90A20FEF7DAFBFD
:102AB0004FF480613A48FEF7C9FD08B9A01CC4B2C2
:102AC00040213848FEF7C2FD48B90A20FEF7CAFB8C
:102AD00040213448FEF7BAFD08B9201DC4B2601C7D
:102AE000C4B231488470002402213048FEF7AEFDA4
:102AF00048B90A20FEF7B6FB02212C48FEF7A6FDD6
:102B000008B9601CC4B280212448FEF79FFD48B973
:102B10000A20FEF7A7FB80212048FEF797FD08B9A1
:102B2000A01CC4B24FF480711C48FEF78FFD50B951
:102B30000A20FEF797FB4FF480711848FEF786FDD8
:102B400008B9201DC4B24FF400711448FEF77EFD91
:102B500058B90A20FEF786FB4FF400710F48FEF7C4
:102B600075FD10B904F10800C4B24FF480610B4840
:102B7000FEF76CFD58B90A20FEF774FB4FF4806134
:102B80000648FEF763FD10B904F11000C4B204F169
:102B90000B00C4B20448C47010BD00000010024015
:102BA00000040240001C02406400002000180240A3
:102BB00010B500224FF480612C48FEF759FD002229
:102BC0004FF400412948FEF753FD00224FF4006105
:102BD0002748FEF74DFD002204212648FEF748FD58
:102BE000002202212448FEF743FD00224FF48061B9
:102BF0001F48FEF73DFD002201211C48FEF738FD6D
:102C0000002210211948FEF733FD00224FF4007115
:102C10001A48FEF72DFD00224FF480611748FEF799
:102C200027FD00224FF400611448FEF721FD002229
:102C30004FF480511148FEF71BFD00224FF48041F4
:102C40000F48FEF715FD00224FF480610D48FEF796
:102C50000FFD00224FF400610A48FEF709FD002233
:102C60004FF480510748FEF703FD10BD00000240FD
:102C7000002002400010024000080240001C0240F8
:102C800000040240000C02401FB50020009001909B
:102C9000029003901548164908604FF48030486050
:102CA0000021134881600161017680F82010C16223
:102CB000104981620021C1600121C161002180F8B9
:102CC000301001214161FEF7C7F808B1FDF7E2FCC1
:102CD0000E200090012001900020029069460448D7
:102CE000FDF7E8FF08B1FDF7D5FC1FBD002201404C
:102CF000AC0000200100000F10B50E480E4908601E
:102D00001220486000210C488160C1604FF470219E
:102D100001614FF400114161002101764176817615
:102D2000C17601774177FEF741F908B1FDF7B2FCB2
:102D300010BD000000640040F400002010B50E48F3
:102D40000E4908601220486000210C488160C16073
:102D50004FF4702101614FF40011416100210176AF
:102D600041768176C17601774177FEF71FF908B188
:102D7000FDF790FC10BD0000006800401C01002021
:102D800000B587B0142102A8FDF776FA00BF002035
:102D90000190FE48006840F01000FC4908600846B9
:102DA000006800F01000019000BF00BF00BF0020CD
:102DB00001900846006840F480700860084600688A
:102DC00000F48070019000BF00BF00BF00200190A0
:102DD0000846006840F0040008600846006800F0FB
:102DE0000400019000BF00BF00BF00200190084612
:102DF000006840F0200008600846006800F02000ED
:102E0000019000BF00BF00BF00200190084600688D
:102E100040F0800008600846006800F080000190E3
:102E200000BF00BF00BF002001900846006840F0CE
:102E3000010008600846006800F00100019000BF32
:102E400000BF00BF002001900846006840F002006B
:102E500008600846006800F00200019000BF00BF53
:102E600000BF002001900846006840F04000086064
:102E70000846006800F04000019000BF00BF00BF9E
:102E8000002001900846006840F0080008600846ED
:102E9000006800F00800019000BF00BF002264211C
:102EA000BB48FEF7E5FB012240F61801B848FEF7E3
:102EB000DFFB00224FF47361B648FEF7D9FB002216
:102EC00042F23201B448FEF7D3FB00220721B34897
:102ED000FEF7CEFB01229102B048FEF7C9FB0022AB
:102EE00048F27741AE48FEF7C3FB01224FF4DE7192
:102EF000AC48FEF7BDFB00224CF6C431AA48FEF7F1
:102F0000B7FB00224FF47E41A648FEF7B1FB00223A
:102F10004FF6FC41A548FEF7ABFB002248F27C616E
:102F2000A348FEF7A5FB01224FF41861A048FEF765
:102F30009FFB01224FF470719748FEF799FB012225
:102F40004FF440719648FEF793FB0122C12191484E
:102F5000FEF78EFB012211469448FEF789FB042000
:102F6000029001200390022004900020059002A905
:102F70008748FEF765FA1820029001200390002090
:102F80000490059002A98248FEF75AFA6020029048
:102F90000120039004900020059002A97C48FEF7D0
:102FA0004FFA4FF44C7002900120039004900020DF
:102FB000059002A97748FEF743FA4FF400500290BB
:102FC0000120039004900020059002A97248FEF7AA
:102FD00037FA4FF4406002900120039002200490E1
:102FE0000020059002A96B48FEF72AFA07200290FC
:102FF0000120039004900020059002A96748FEF785
:103000001FFA4FF480600290012003900490022088
:10301000059002A96148FEF713FA022002900120F0
:103020000390022004900020059002A95A48FEF760
:1030300007FA48F211400290012003900220049008
:103040000020059002A95648FEF7FAF940F26630D2
:1030500002900120039000200490059002A950489E
:10306000FEF7EEF90C20029001200390002004905E
:103070000220059002A94B48FEF7E2F94FF4D87000
:1030800002900120039004900220059002A9454877
:10309000FEF7D6F98020029000200390049002A948
:1030A0003F48FEF7CDF94FF47C7002900120039069
:1030B00000200490059002A93748FEF7C1F90320CB
:1030C000029000200390049002A93748FEF7B8F957
:1030D00040F6C40002900120039000200490059067
:1030E00002A93148FEF7ACF94FF478400290002075
:1030F0000390049002A92948FEF7A2F9012002904A
:1031000000200390049002A92948FEF799F90220B3
:103110000290002003900220049002A92448FEF7A8
:103120008FF948F2807002900020039002200490F2
:1031300002A91748FEF784F94FF4006002900120BD
:10314000039004900220059002A91148FEF778F937
:103150004FF480600290002003900220049002A9A6
:103160001148FEF76DF940200290002003900220E4
:10317000049002A90B48FEF763F94FF4F050029057
:103180000120039002200490002013E03038024018
:1031900000100240002002400008024000140240DB
:1031A00000000240001C024000040240000C0240EB
:1031B00000180240059002A95B48FEF741F94FF460
:1031C000804002900120039002200490002005908E
:1031D00002A95648FEF734F94FF40040029001204E
:1031E000039002200490059002A95048FEF728F9A8
:1031F0004FF4E05002900120039002200490002040
:10320000059002A94A48FEF71BF942F2FC00029021
:103210000120039000200490059002A94448FEF785
:103220000FF94FF4404002900120039004900020D9
:10323000059002A93E48FEF703F948F27C0002908F
:103240000120039004900020059002A93948FEF760
:10325000F7F84FF4F06002900120039000200490F2
:10326000059002A93348FEF7EBF84FF46040029056
:103270000120039004900020059002A92A48FEF73F
:10328000DFF8C120029001200390049002200590F5
:1032900002A92948FEF7D4F8012002900390049077
:1032A0000220059002A92248FEF7CAF802200290E7
:1032B00000200390049002A91D48FEF7C1F84FF4C6
:1032C000006002900120039004900220059002A962
:1032D0001848FEF7B5F84FF44070029001200390B3
:1032E00004900020059002A91048FEF7A9F80320D9
:1032F00002904FF4041003900020049002A90F489C
:10330000FEF79EF8002211460620FEF7B9FA0620C5
:10331000FEF7A6FA002211460720FEF7B1FA0720B1
:10332000FEF79EFA07B000BD001C024000040240F8
:10333000000C024000180240002002400010024031
:1033400010B50748074908600420486040F6FF713F
:1033500004488160FEF798F908B1FDF79BF910BDAC
:10336000003000404401002010B50E480E490860AE
:103370004FF48270486000210B488160C160016198
:1033800041614FF4007181610021C16101624162BC
:1033900081620A21C162FEF7BBFE08B1FDF77AF92E
:1033A00010BD0000003001405001002010B50E4853
:1033B0000E4908604FF48270486000210B4881601C
:1033C000C160016141614FF4007181611821C161E7
:1033D00000210162416281620A21C162FEF798FE0A
:1033E00008B1FDF757F910BD00380040A8010020D2
:1033F00010B50E480E4908604FF4827048600021F5
:103400000B488160C160016141614FF400718161CD
:103410000821C16100210162416281620A21C16209
:10342000FEF776FE08B1FDF735F910BD003C00400F
:103430000002002010B50F480F4908604FF4827059
:10344000486000210C488160C160022101610021B7
:1034500041614FF4007181611021C161002101625D
:10346000416281620A21C162FEF752FE08B1FDF796
:1034700011F910BD003401405802002010B50F486A
:103480000F4908604FF48270486000210C48816049
:10349000C16002210161002141614FF4007181612D
:1034A0001021C16100210162416281620A21C16271
:1034B000FEF72EFE08B1FDF7EDF810BD00500140FB
:1034C000B002002010B50F480F4908604FF4827019
:1034D000486000210C488160C16002210161012126
:1034E0004161490281610821C1610021016241629B
:1034F00081620A21C162FEF70BFE08B1FDF7CAF82E
:1035000010BD0000005401400803002000B587B042
:1035100000200390049005900690019002901548B9
:1035200015490860002048600021134881604AF670
:10353000C771C1604FF48071016180218161FFF723
:103540000FF808B1FDF7A6F84FF48050039003A9D7
:103550000948FFF7B1F808B1FDF79CF80020019089
:10356000029001A90448FEF7A1FF08B1FDF792F807
:1035700007B000BD000800406003002010B50B48F4
:103580000B4908604FF4E130486000210848816031
:10359000C16001610C21416100218161C161FFF7BE
:1035A000ECF908B1FDF776F810BD000000480040C6
:1035B000A803002000BFFEE700BFFEE7704770478A
:1035C00010B50E48007800F04000B0B90C48007803
:1035D000012812D1C1020B48FCF74EFE0A480288AE
:1035E0000A490848FCF72FFE0448007840F04000E4
:1035F0000249087000200249087010BD4A000020EE
:103600004B000020540C00204800002054040020EF
:103610007047000000B593B0302107A8FCF72CFEDE
:10362000142102A8FCF728FE00BF002001902848C2
:10363000006840F08050264908600846006800F0A5
:103640008050019000BF00BF00BF002001902148C2
:10365000006840F440401F4908600846006800F4D4
:103660004040019000BF00BF092007904FF4803018
:10367000089001200C9002200D9041050E9104212C
:103680000F91B4211091022111910421129107A8E8
:10369000FEF7F0FA08B1FCF7FDFFFEF743F908B1B9
:1036A000FCF7F8FF0F200290022003900020049006
:1036B0004FF4A05005904FF480500690052102A8C9
:1036C000FEF776F908B1FCF7E5FF13B000BD000086
:1036D00040380240007000400348006840F4700029
:1036E000014908607047000088ED00E02DE9FE4FB9
:1036F000A0200290502001904FF6FF750026002078
:1037000000900024002780468146824683464FF47D
:103710000061E048FCF7B0FDDF48007800F04000B1
:1037200000287DD04FF40061DC48FCF7A5FDDC48A3
:103730008078DB49C97800EB012084B2D848007852
:10374000D749497800EB012087B2D548C079D449E0
:10375000097A00EB01201FFA80F9D149A01C095C0D
:10376000CF4AE01C105C01EB00201FFA80F81046E5
:10377000015D601C105C01EB002086B2A01E81B2CE
:10378000901CFCF755FF054645F65A2087426FD13D
:103790004AF2A5508045FAD15A20C04908704870B5
:1037A000BF4840790E287DD1BD488079022806D0D7
:1037B00003283BD0042876D0052875D1ECE0072CEF
:1037C00009D1B54203D10120B449C87106E00220F5
:1037D000B249C87102E00320B049C8710820AF495E
:1037E00088700020C870AE48007908710E204871BA
:1037F000022088710621A948801CFCF719FF00905F
:10380000A648BDF800100181A520A4498872C8729D
:10381000A148007820F040009F4908700C2200E089
:1038200035E19E49002000F03DFD26E10F2C24D11A
:10383000B5421ED19B489C4908609948D0F807A022
:10384000D0F80BB0012000F0E0FF98499548FDF753
:10385000ADF830B901209149C87100209449088021
:1038600002E005208D49C871002000F0CEFF07E07E
:1038700007E102208949C87102E003208749C87125
:103880000820864988700020C87085480079087132
:103890000E2048710320887106218048801CFCF7A7
:1038A000C7FE02E0EBE015E0E6E000907B48BDF8E3
:1038B00000100181A52079498872C8727648007885
:1038C00020F04000744908700C227449002000F078
:1038D000E9FCD2E040F20940844234D1B5422ED115
:1038E00073480088814526D101206C49C871820245
:1038F0006B4909316748FCF7A6FC012000F085FF01
:103900004FF48062634968480068FDF7BBF818B15E
:1039100005206249C8710AE06348006800F58060CC
:103920006149086062480088401C614908800020A5
:1039300000F06BFF0AE004205849C87106E002203D
:103940005649C87102E003205449C8710820534900
:1039500088700020C8705248007908710E204871A4
:103960000420887106214D48801CFCF761FE009000
:103970004A48BDF800100181A52048498872C872E4
:103980004548007820F04000434908700C22434924
:10399000002000F087FC70E0072C41D1B5423BD1FC
:1039A00001203E49C871082088700020C8703C483A
:1039B000007908710E20487105208871062137486A
:1039C000801CFCF735FE00903448BDF800100181E2
:1039D000A52032498872C8722F48007820F0400034
:1039E0002D4908700C222D49002000F05BFC0122BB
:1039F00047F6FE7102A800F0D6FF012000F008FF94
:103A0000012247F6FF7101A800F0CDFF012000F070
:103A1000FFFEFCF7E5FD06E002202049C87102E048
:103A200003201E49C87108201C4988700020C870F6
:103A30001B48007908710E20487105208871062105
:103A40001648801CFCF7F4FD00901448BDF80010E7
:103A50000181A52011498872C8720F48007820F0B2
:103A600040000D4908700C220C49002000F01AFC9F
:103A7000012000F0CDFE00E000BF00BF00E000BF6D
:103A800000BF0548007820F0400003490870BDE8F9
:103A9000FE8F0000681C00204A0000205414002003
:103AA000540C0020000002084C0000200000040814
:103AB0006200002010B50348FEF785FEFCF768FFA2
:103AC00010BD00006003002010B50248FEF77BFE29
:103AD00010BD0000EC03002010B50268294B98428D
:103AE0000ED0B0F1804F0BD0274B984208D0274B17
:103AF000984205D0264B984202D0264B984203D1DB
:103B000022F070024B681A431E4B984220D0B0F14D
:103B1000804F1DD01C4B98421AD01C4B984217D096
:103B20001B4B984214D01B4B984211D01A4B984211
:103B30000ED01A4B98420BD0194B984208D0194B13
:103B4000984205D0184B984202D0184B984203D1A6
:103B500022F44072CB681A4322F080034C6943EA96
:103B6000040202608B68C3620B688362054B984253
:103B700002D0084B984201D10B69036301234361D2
:103B800010BD00000000014000040040000800409B
:103B9000000C00400004014000400140004401408E
:103BA0000048014000180040001C00400020004078
:103BB00030B50C46816821F47F4142EA0325254354
:103BC0002943816030BD0A46816821F0700142F0CE
:103BD000070319438160704730B50B461446026AEB
:103BE000056A25F001050562816921F0F00141EACD
:103BF000041122F00A021A438161026230BD30B51D
:103C00000B461446056A25F0100505628169026AB3
:103C100021F4704141EA043122F0A00242EA031289
:103C20008161026230BD00002DE9F84F0446206832
:103C3000006920F44050E168084321680861216967
:103C4000A068084361690843E1690843009020685F
:103C5000C06849F20C618843009908432168C86034
:103C60002068406920F44070A169084321684861D8
:103C700076492068884203D075492068884203D17C
:103C8000FDF790FF814602E0FDF77CFF8146E06989
:103C9000B0F5004F6CD102206168A0FB01500346D3
:103CA0001920A9FB007001462A463846FCF79AFA0B
:103CB0006421B0FBF1F04FEA001A02206168A0FB1A
:103CC00001510B461920A9FB00712A463846FCF722
:103CD00089FA834602206168A0FB0150034619203F
:103CE000A9FB00712A463846FCF77CFA6421B0FB38
:103CF000F1F000EBC00101EB0010ABEB80003221D2
:103D000001EBC0006421B0FBF1F000F0F8000AEB19
:103D1000400A02206168A0FB015003461920A9FB5C
:103D2000007001462A463846FCF75CFA83460220BA
:103D30006168A0FB015003461920A9FB00712A46C7
:103D40003846FCF74FFA6421B0FBF1F000EBC001FC
:103D500001EB0010ABEB8000322101EBC0006421CD
:103D6000B0FBF1F000F007005044216888606AE081
:103D700004206168A0FB015003461920A9FB0070D4
:103D800001462A463846FCF72DFA8246042061682F
:103D9000A0FB015003461920A9FB007001462A46EA
:103DA0003846FCF71FFA6421B0FBF1F000EBC001CC
:103DB00001EB0010AAEB8000322101EB001064211E
:103DC000B0FBF1F000F0F00A04206168A0FB017084
:103DD00003461920A9FB00513A462846FCF702FA8F
:103DE0006421B0FBF1F00AEB001A04206168A0FB2B
:103DF00001510B461920A9FB00712A463846FCF7F1
:103E0000F1F9834604206168A0FB015003461920A4
:103E1000A9FB007001462A463846FCF7E3F9642105
:103E2000B0FBF1F000EBC00101EB0010ABEB800048
:103E3000322101EB00106421B0FBF1F000F00F0023
:103E4000504421688860BDE8F88F000000100140F0
:103E50000014014000BFFEE770B54FF4427000F05F
:103E6000ABFB054635B1132D0CD0172D0ED01C2DF4
:103E700030D128E0202341F288320121002000F0D7
:103E8000D1FA28E0002000F02DF924E04FF4027070
:103E900000F092FB00F0010020B101214FF402700C
:103EA00000F00AFC002000F0DCFD0446002C09DDD7
:103EB00022460A49002000F065F9012008490870EF
:103EC0000848048007E0002000F05EF8002000F0C1
:103ED0000BF800E000BF00BF70BD000054040020DC
:103EE0004B0000204800002010B5044600BF082CFD
:103EF00002DD4FF0FF3010BD00BFA100491C4FF4A0
:103F0000807202EBC100102100F0D6FB00BFA100BF
:103F1000491C4FF4807202EBC10000F04DFB0028F9
:103F2000F5D1A100491C4FF4007202EBC1001F2122
:103F300000F0C2FB0120A0400F49098881430E48D0
:103F400001800120A0400D49098881430B48018070
:103F500000200B4921F814000A49085500BFA100B0
:103F6000491C4FF4407202EBC10000F025FB002811
:103F7000F5D10120BFE700006A0000206C0000209E
:103F8000682400206E00002010B5044600BF082CF5
:103F900002DD4FF0FF3010BD00BF00BFA100491C83
:103FA000002202EBC10000F007FB00F00F00012827
:103FB00002D06FF00400EEE700BFA100491C4FF4EF
:103FC000807202EBC100082100F076FB00BFA10067
:103FD000491C4FF4807202EBC10000F0EDFA00289A
:103FE000F5D10120A040154909888143134801807B
:103FF0000120A04012490988084008B10020CAE702
:1040000010E0A100491C4FF4007202EBC10000F067
:10401000D3FA00F0080028B12046FFF765FF6FF0E3
:104020000C00B8E7A100491C4FF4407202EBC1003C
:1040300000F0C2FA0028E4D10120ACE76C000020B7
:104040006A00002030B587B00021084600F022FF4A
:104050000021084600F032FF0021084600F042FF30
:104060000024002512E04FF4385000F0A5FA00F0CB
:1040700001040120FDF7F6F8FCF78AFC681C80B209
:10408000054641F28831884200DD01E0002CEAD08B
:1040900000BF01F0F1F8012000F0BAFB0E4900204A
:1040A00000F01AFC01A9012000F016FC17220A49B1
:1040B00001A8FCF7ECF80949094801F014F80820B8
:1040C0008DF800004FF4FA60ADF80200684601F088
:1040D00092F807B030BD0000000000201F00002053
:1040E0001700002010B5044600BF082C02DD4FF079
:1040F000FF3010BD00BF00BFA100491C002202EB31
:10410000C10000F059FA00F00F00012802D06FF052
:104110000400EEE700BF00BFA100491C4FF440724D
:1041200002EBC10000F048FA132802D06FF0020041
:10413000DFE700BFA100491C4FF4807202EBC10011
:10414000022100F0B9FA00BFA100491C4FF48072AF
:1041500002EBC10000F030FA0028F5D105E020465E
:10416000FFF7C2FE6FF00300C3E7A100491C4FF444
:10417000407202EBC10000F01FFA1428EFD10120B9
:10418000B7E700002DE9F0470446884616460027A9
:10419000002500BF082C02DD681EBDE8F08700BFC7
:1041A00000BFA100491C002202EBC10000F004FA8C
:1041B00000F00F00012802D06FF00400EDE700BF0F
:1041C00000BF16B96FF00D00E7E700BFA100491C62
:1041D0004FF4F05202EBC10000F0EEF94FF6FF7120
:1041E00001EA8025B54200DA2E4638E0204600F08C
:1041F00038FC0546A100491C4FF4407202EBC10097
:1042000000F0DAF90746172F1ED01C2F16D105B182
:1042100026E0204600F05BFC8146A100491C4FF4DB
:10422000F85202EBC10000F0C7F9B9EB802F0BD1B7
:104230002046FFF759FE6FF00600AEE72046FFF775
:1042400053FE6FF00600A8E70120A040144909883A
:10425000084010B10DB900209FE705B100E0C5E7A7
:1042600000BFB54200DA2E4632464146204600F0F5
:1042700053FEA100491C4FF4807202EBC1004021A3
:1042800000F01AFA00BFA100491C4FF4807202EB43
:10429000C10000F091F90028F5D130467DE700001B
:1042A0006A0000202DE9F0410446884615460026A4
:1042B000002700BF082C02DD701EBDE8F08100BFA2
:1042C00000BFA100491C002202EBC10000F074F9FC
:1042D00000F00F00012802D06FF00400EDE700BFEE
:1042E00000BF15B96FF00D00E7E700BFA100491C42
:1042F0004FF4407202EBC10000F05EF90646172E43
:1043000004D01C2E02D06FF00600D6E70120A0409A
:1043100042490988084040B3A100491C4FF400728B
:1043200002EBC10000F048F900F01F0606F0100093
:1043300080B1A100491C4FF4007202EBC1001021B2
:1043400000F0BAF90120A04034490988814333487C
:1043500001800AE006F0080028B12046FFF7C4FDFE
:104360006FF00C00A9E70020A7E7A100491C4FF45B
:10437000F85202EBC10000F01FF94FF6FF7101EA9D
:104380008027BD4200DD3D4623E0204600F09FFB34
:104390000746A100491C4FF4407202EBC10000F037
:1043A0000BF90646172E07D01C2E05D02046FFF726
:1043B0009BFD6FF0060080E70120A04018490988A6
:1043C000084018B1BD4201DD002076E7BD4200DCA7
:1043D00000E0DAE700BF2A464146204600F0DEFD55
:1043E000A100491C4FF4807202EBC100202100F0B3
:1043F00063F900BFA100491C4FF4807202EBC100B9
:1044000000F0DAF80028F5D10120A040034909881E
:1044100008430249088028464FE700006C0000204E
:104420006A000020F8B504460E4617461D4600BF38
:10443000082C02DD4FF0FF30F8BD00BF012E06D082
:10444000022E10D0032E10D0042E0FD10CE0042227
:1044500069464FF4706000F0E9F8009810B96FF009
:104460000200E9E705E000BF00BF02E06FF00400D2
:10447000E2E700BF05F0040010B16FF00500DBE7D4
:1044800005B3012E02D0022E1AD106E005F021005C
:1044900010B96FF00500CFE713E005F0200028B158
:1044A00005F0800010B96FF00500C5E705F01000B9
:1044B00028B105F0800010B96FF00500BCE700E0FE
:1044C00000BF00BF2046FFF70FFD05F0F00242EAF3
:1044D0000601A200521C002303EBC20000F0ECF81E
:1044E0007FB9304807880088401C2E49088008465C
:1044F00000884FF6F071884203D14FF440402949BB
:1045000008803912A200521C4FF4806303EBC200F2
:1045100000F0D2F8F9B2A200521C4FF4806303EB12
:10452000C20202F5807000F0C7F8A100491C4FF4E8
:10453000807202EBC100012100F0BEF800BFA100B3
:10454000491C4FF4807202EBC10000F035F80028DE
:10455000F5D10120A0401449098881431248018007
:1045600005F00100A0401049098808430E49088061
:104570000120A0400D49098881430C48018000209A
:104580000B4921F814000B49085500BFA100491C34
:104590004FF4407202EBC10000F00EF80028F5D095
:1045A00060B249E7680000206A0000206C0000202B
:1045B000682400206E00002038B504461A49C868F7
:1045C000804719494869804700BF1748406A10B1C1
:1045D0001548806A70B91448016AC4F307408847D7
:1045E0001148016AC4F307208847E0B20E4A116AF5
:1045F00088470DE0200C8DF80000200A8DF801009E
:10460000E0B28DF8020008480321826A68469047AC
:104610000549C869804705460349886980470249BA
:1046200008698047284638BD78000020F8B5044660
:104630000E4617461F49C86880471E49486980478B
:1046400000BF1C48406A10B11A48806AC0B91948B6
:10465000016AC4F3074088471648016AC4F307207B
:104660008847E0B2134A116A8847002505E01149DE
:10467000C86980477055681C85B2BD42F7DB12E0FF
:10468000200C8DF80000200A8DF80100E0B28DF8B2
:10469000020008480321826A684690470548394667
:1046A000426A304690470349886980470149086952
:1046B0008047F8BD7800002038B504460D461A49F9
:1046C000C868804718494869804744F00404164880
:1046D000806A90B91448016AC4F3074088471248B9
:1046E000016AC4F307208847E0B20F4A116A88477D
:1046F0000D48016A284688470FE0200C8DF800001D
:10470000200A8DF80100E0B28DF802008DF8035008
:1047100005480421826A68469047034988698047B2
:1047200001490869804738BD78000020F8B5044683
:104730000E4617461E49C86880471D49486980478C
:1047400044F004041A48806AC0B91948016AC4F3E5
:10475000074088471648016AC4F307208847E0B23B
:10476000134A116A8847002505E0705D104A116AF6
:104770008847681C85B2BD42F7DB12E0200C8DF83B
:104780000000200A8DF80100E0B28DF80200084810
:104790000321826A6846904705483946826A304656
:1047A0009047034988698047014908698047F8BDF7
:1047B0007800002002480068C0F302207047000023
:1047C0000CED00E010B5002804DB0A07130E054AC3
:1047D000135406E00A07140E034A00F00F031B1FD0
:1047E000D45410BD00E400E018ED00E002E008C879
:1047F000121F08C1002AFAD170477047002001E05B
:1048000001C1121F002AFBD1704780F31088704746
:1048100010B504464FF47A7104FB01F000F002F881
:1048200010BD000030B5084C63680021074C2468B7
:10483000074DB4FBF5F404FB00F202E0024C64689F
:10484000E11A9142FAD330BD001000E0440000208C
:1048500040420F000748006840F08070054908603A
:104860000020054948600846006840F001000860E3
:1048700070470000FCED00E0001000E000B587B0DC
:1048800000BF002001901248006840F080001049ED
:1048900008600846006800F08000019000BF00BF7B
:1048A00011200390002004900320059080200290A6
:1048B00002A90848FCF7C4FD4FF48070029002A9D9
:1048C0000448FCF7BDFD00F0D5F907B000BD0000BD
:1048D00030380240001C024070B505460C46062DDB
:1048E0001CD2DFE805F003070B0F1317204600F07A
:1048F00043FC16E0204600F0AFFB12E0207800F009
:1049000067FC70BD00F0D6FB20700AE0204600F086
:1049100072FC06E0204600F0D2FB02E04FF0FF30D0
:10492000EFE700BF0020ECE72DE9F04107460D4618
:10493000164600F087F9A02000F05AF900F0B0F90F
:1049400000B12CE0281200F053F900F0A9F900B1F1
:1049500025E0E8B200F04CF900F0A2F900B11EE049
:1049600000F070F9A12000F043F900F099F900B1CE
:1049700015E000240CE000F019F93855701EA04233
:1049800002D000F0DBF801E000F0FAF8601C84B21D
:10499000B442F0DB00F06EF90120BDE8F08100F0D8
:1049A00069F90020F9E72DE9F04707468846914666
:1049B0004646002533E015B106F03F0020BB00F06D
:1049C00059F900240AE000F03DF9A02000F010F9A8
:1049D00000F066F900B904E0601C84B2B4F57A7F97
:1049E000F1DB00BFB4F57A7F00D136E0301200F081
:1049F000FFF800F055F900B12FE0F0B200F0F8F840
:104A000000F04EF900B128E0785D00F0F1F800F018
:104A100047F900B121E0701C86B2681C85B24D4593
:104A2000C9DB00F027F900240AE000F00BF9A02010
:104A300000F0DEF800F034F900B904E0601C84B244
:104A4000B4F57A7FF1DB00BFB4F57A7F00D104E0E2
:104A500000F010F90120BDE8F08700F00BF900200C
:104A6000F9E770B504460025002600BFA100491CE7
:104A70004FF4185202EBC100FFF79EFD0646A1005D
:104A8000491C4FF4185202EBC10101F58070FFF789
:104A900093FD00EB062086B2AEB1A100491C4FF495
:104AA000185202EBC100FFF787FD0546A100491C23
:104AB0004FF4185202EBC10101F58070FFF77CFD45
:104AC00000EB052085B2B542D0D1284670BD70B547
:104AD00004460025002600BFA100491C4FF40052E7
:104AE00002EBC100FFF768FD0646A100491C4FF428
:104AF000005202EBC10101F58070FFF75DFD00EB94
:104B0000062086B2AEB1A100491C4FF4005202EB60
:104B1000C100FFF751FD0546A100491C4FF40052AA
:104B200002EBC10101F58070FFF746FD00EB0520A7
:104B300085B2B542D0D1284670BD000010B54FF007
:104B400080700B49086000F015F880200849086063
:104B500000F010F84FF400000549086000F00AF872
:104B60004FF480700249086000F004F810BD0000A6
:104B7000181C024010B50220FFF754FE10BD0000C3
:104B800010B54FF4807008490860FFF7F3FF8020EC
:104B900005490860FFF7EEFF4FF400000249086086
:104BA000FFF7E8FF10BD0000181C024070B500249C
:104BB000002516E06006040E80200C490860FFF70F
:104BC000D9FF0A480838006800F4807008B1601CFA
:104BD000C4B24FF4000005490860FFF7CBFF681C22
:104BE000C5B2082DE6DB204670BD0000181C02404F
:104BF00070B5044600251FE004F0800020B14FF49A
:104C000080700F49086003E04FF080700C49086025
:104C1000FFF7B0FF80200A490860FFF7ABFF4FF4B1
:104C20000000074908600860072D01D1C013086023
:104C30006006040E681CC5B2082DDDDB70BD0000E7
:104C4000181C024010B54FF480700949086080209C
:104C50000860FFF78FFF4FF0807005490860FFF78D
:104C600089FF4FF4000002490860FFF783FF10BD81
:104C7000181C024010B54FF0807008490860FFF71B
:104C800079FF802005490860FFF774FF4FF48070BA
:104C900002490860FFF76EFF10BD0000181C0240BB
:104CA00010B54FF480700D490860FFF763FF802056
:104CB0000A490860FFF75EFF08480838006800F4FA
:104CC000807008B1012400E000244FF40000034983
:104CD0000860FFF74FFF204610BD0000181C02407F
:104CE0001CB5FCF713FDFEF795FCFEF749F8FEF73F
:104CF0003BFBFEF725FBFEF709FCFDF7C5FFFDF7C3
:104D0000FBFFFEF71BF8FEF751FBFEF771FBFEF70A
:104D100091FBFEF7B3FBFEF7D5FBFEF72FFCFFF789
:104D200099FDFDF745FF55480068006840F04000D8
:104D300052490968086052480068006840F0010064
:104D40004F4909680860FFF799FDFDF795FE4D484A
:104D500081784D4801724B48C1784B484172FBF74E
:104D600085FB4A4800784849C8704848407808712F
:104D7000464880784871FFF765F94148FDF748FCDF
:104D80001E20FCF76DFDFBF703FE012247F6FE71C6
:104D900001A8FFF7C9FD012247F6FF716846FFF73A
:104DA000C3FD9DF80400AA2803D19DF800005528F2
:104DB00007D09DF80400FF2815D19DF80000FF28BA
:104DC00011D1FBF7E5FD0620FCF728FD0720FCF7D5
:104DD00025FD1E20FCF722FD012080F3108800BF76
:104DE000FBF7FEFB2DE09DF80400A02829D19DF8DB
:104DF0000000502825D1FF2001900090012247F6A5
:104E0000FE7101A8FFF7CFFD0120FFF701FD012290
:104E100047F6FF716846FFF7C6FD0120FFF7F8FC73
:104E2000FBF7B6FD0620FCF7F9FC0720FCF7F6FCC3
:104E30001E20FCF7F3FC012080F3108800BFFBF775
:104E4000CFFB19E0FFF708F8FEF7BAFBFEF74EFCC0
:104E5000FBF79EFD0120FCF705FA601C84B2B4F557
:104E6000FA7F08DB002410210948FCF7F7FB082132
:104E70000748FCF7F3FB00BFE4E700005001002007
:104E800060030020640000200000002027000020B4
:104E90000010024000B131B9054A064BDA60064BFA
:104EA000044A136102E0034AD060116170470000B8
:104EB0002B500008780000202D50000800B131B9B7
:104EC000054A064B5A61064B044A936102E0034AC5
:104ED0005061916170470000455000087800002043
:104EE0003150000800BF094A128802F40072002AFB
:104EF000F9D000B131B9064A044BDA61054B034AD7
:104F0000136202E0014AD06111627047780000200C
:104F10001D5200084D5200082DE9F04704460F4687
:104F200016460025A8460EB9BDE8F087A100491C29
:104F30004FF4205202EBC10101F58070FFF73CFBFA
:104F40008146A100491C4FF4205202EBC100FFF73B
:104F500033FB09EB002085B22902A000C01C01EB45
:104F6000C008324639464046FFF760FBA81985B2B3
:104F70002912A200521C4FF4205303EBC200FFF78A
:104F80009BFBE9B2A200521C4FF4205303EBC20278
:104F900002F58070FFF790FB00BFC5E72DE9F047F1
:104FA00004460F4616460025A8460EB9BDE8F08710
:104FB000A100491C4FF4105202EBC10101F58070B1
:104FC000FFF7FAFA8146A100491C4FF4105202EB98
:104FD000C100FFF7F1FA09EB002085B22902A00019
:104FE000801C01EBC008324639464046FFF79EFB65
:104FF000A81985B22912A200521C4FF4105303EBDA
:10500000C200FFF759FBE9B2A200521C4FF4105343
:1050100003EBC20202F58070FFF74EFB00BFC5E74D
:10502000014608787047017070477047704700006C
:1050300010B5012240210248FCF71AFB10BD000008
:105040000020024010B5002240210248FCF710FB6E
:1050500010BD00000020024010B504460622214683
:105060004FF41060FFF7E2FA042204F10E01900100
:10507000FFF7DCFA042204F10A014FF4A060FFF705
:10508000D5FA0422A11D4FF47060FFF7CFFA07484C
:105090000078A07405484178E17481782175C17861
:1050A000617503480078A07510BD0000A4000020C1
:1050B000A800002010B50020FFF77EFA10BD70B5E3
:1050C00004464FF4D850FFF777FA20704FF4D050D1
:1050D000FFF772FA05464FF4C850FFF76DFA05EB7B
:1050E0000020608070BD2DE9F04105460E46002786
:1050F00000F0C2F8F5B100BF00240AE0285D384492
:1051000047B2102F03DD4FF0FF30BDE8F081601C87
:1051100044B2082CF2DB00240AE0295DA200521CF4
:105120004FF4F85303EBC200FFF7C6FA601C44B219
:10513000082CF2DBEEB10027002409E0305D384492
:1051400047B2102F02DD4FF0FF30DEE7601C44B2A3
:10515000082CF3DB00240AE0315DA200521C4FF45E
:10516000F05303EBC200FFF7A7FA601C44B2082C0F
:10517000F2DB0020C9E7000010B5044606222146F4
:105180004FF41060FFF7D2FA042204F10E019001EF
:10519000FFF7CCFA042204F10A014FF4A060FFF7F4
:1051A000C5FA0422A11D4FF47060FFF7BFFAA07C7E
:1051B00005490870E07C4870207D8870607DC8706B
:1051C000A07D0249087010BDA4000020A8000020A6
:1051D00070B50446002524F03A0008B1681E70BD81
:1051E0000020FFF7E9F90546254329460020FFF78F
:1051F00063FA0020F3E710B5044621784FF4D85045
:10520000FFF75AFA608801124FF4C850FFF754FABA
:10521000A1784FF4D050FFF74FFA10BD00BF0A48F5
:10522000806800F002000028F9D0FF200649C8601D
:1052300000BF0548806800F001000028F9D002484E
:10524000C068C0B2704700000030014000BF094A8A
:10525000926802F00202002AF9D0064AD06000BF2C
:10526000044A926802F00102002AF9D0014AD26889
:10527000D1B270470030014000B585B006226946C2
:105280004FF41060FFF7D2F9042204A99001FFF750
:10529000CDF9042203A94FF4A060FFF7C7F9042257
:1052A00002A94FF47060FFF7C1F980210020FFF7D9
:1052B00003FA0020FFF780F9062269464FF41060D8
:1052C000FFF734FA042204A99001FFF72FFA042211
:1052D00003A94FF4A060FFF729FA042202A94FF4B2
:1052E0007060FFF723FA05B000BD00000000000069
:1052F0000000010203040607080900000000010283
:10530000030400002453000800000020AC0000004B
:10531000EC470008D0530008AC000020CC27000068
:10532000FC4700080028F4000000C0A8010BFFFFA4
:105330000000C0A8010100000000011000000000F2
:10534000000000100000000000000000000000004D
:10535000000000000000000000000000000000004D
:1053600010000000010000000024F4000000000014
:105370000000020800000000000000000000000023
:105380000000000000000000C0A8010B00C00000E9
:10539000000000000000000000000000010257357E
:1053A00035303000000000002B5000082D50000860
:1053B00045500008315000082150000827500008CF
:1053C00000000000000000000000000000000000DD
:04000005080001AD41
:00000001FF
