:020000040802F0
:10000000E8AD01209D080208D5F602082911020872
:100010002FF60208295A02080142030800000000D6
:10002000000000000000000000000000C1080208FD
:100030004980020800000000590902086909020805
:10004000B7080208B7080208B7080208B70802088C
:10005000B7080208B7080208958402089F840208BE
:10006000B7080208B7080208B7080208B70802086C
:10007000B7080208B7080208B7080208B70802085C
:10008000B7080208B7080208B7080208B70802084C
:100090002D5A0208A55C0208B7080208B708020832
:1000A000B7080208B7080208B7080208B70802082C
:1000B000792F03082D300308D9300308B708020848
:1000C000B7080208B7080208B70802086510030855
:1000D000B7080208B7080208B7080208F941030880
:1000E000B7080208B7080208B7080208B7080208EC
:1000F000B7080208B7080208B7080208B7080208DC
:10010000B7080208B70802089D360308B7080208B6
:10011000B7080208B7080208B7080208F53A03084A
:100120001D7E0208B70802082D7E02083D7E0208E7
:10013000B70802083D840208B7080208B708020899
:10014000B7080208B7080208B7080208B70802088B
:100150004D7E02085D7E0208B7080208B708020853
:10016000B7080208B7080208B7080208B70802086B
:10017000B7080208B7080208B70802080000000024
:10018000B7080208B7080208B7080208B70802084B
:10019000B7080208B708020805110308B7080208E3
:1001A000B7080208B7080208B7080208DFF80CD041
:1001B00000F06AFF00480047E1AF0308E8AD012006
:1001C0000246D2E84F0FC2E8431F03B1F9E7704778
:1001D000024652E8000F40EA010042E8000303B182
:1001E000F7E7704710B5024652E8000F20EA010415
:1001F00042E8004303B1F7E710BD10B5024652E8EC
:10020000000F00EA01048C4203D0BFF32F8F0020BF
:1002100010BD20EA010442E8004303B1EFE710BD3E
:1002200010B5024652E8000F084203D1BFF32F8FEA
:10023000002010BD20EA010442E8004303B1F1E7C9
:1002400010BD024652E8000F411C42E8001303B102
:10025000F8E7704710B50246D2E85F0F814202D836
:10026000BFF32F8F10BD441CC2E8534F03B1F3E717
:1002700010BD10B50246D2E85F0F441CA14200D861
:100280000024C2E8534F03B1F5E710BD024652E81F
:10029000000F411E42E8001303B1F8E77047024621
:1002A00052E8000F10B9BFF32F8F7047411E42E88C
:1002B000001303B1F4E770470246D2E85F0F10B9AC
:1002C000BFF32F8F7047411EC2E8531F03B1F4E7FD
:1002D0007047024652E8000F10B9BFF32F8F7047E6
:1002E000016842E8001303B1F4E7704702680A604E
:1002F000BFF35F8F50E8002F0B689342F6D140E8C0
:10030000001303B1F2E770470246D2E84F0FC2E88C
:10031000431F03B1F9E77047024652E8000F40EA75
:10032000010042E8000303B1F7E7704710B5024649
:1003300052E8000F20EA010442E8004303B1F7E766
:1003400010BD10B5024652E8000F00EA01048C42CD
:1003500003D0BFF32F8F002010BD20EA010442E834
:10036000004303B1EFE710BD10B5024652E8000F9D
:10037000084203D1BFF32F8F002010BD20EA0104F3
:1003800042E8004303B1F1E710BD024652E8000F16
:10039000411C42E8001303B1F8E7704710B502466C
:1003A000D2E85F0F814202D8BFF32F8F10BD441CEB
:1003B000C2E8534F03B1F3E710BD10B50246D2E8CF
:1003C0005F0F441CA14200D80024C2E8534F03B180
:1003D000F5E710BD024652E8000F411E42E8001347
:1003E00003B1F8E77047024652E8000F10B9BFF3B7
:1003F0002F8F7047411E42E8001303B1F4E77047A6
:100400000246D2E85F0F10B9BFF32F8F7047411E2D
:10041000C2E8531F03B1F4E77047024652E8000FE9
:1004200010B9BFF32F8F7047016842E8001303B182
:10043000F4E7704702680A60BFF35F8F50E8002F4F
:100440000B689342F6D140E8001303B1F2E770471E
:100450000246D2E84F0FC2E8431F03B1F9E77047E5
:10046000024652E8000F40EA010042E8000303B1EF
:10047000F7E7704710B5024652E8000F20EA010482
:1004800042E8004303B1F7E710BD10B5024652E859
:10049000000F00EA01048C4203D0BFF32F8F00202D
:1004A00010BD20EA010442E8004303B1EFE710BDAC
:1004B00010B5024652E8000F084203D1BFF32F8F58
:1004C000002010BD20EA010442E8004303B1F1E737
:1004D00010BD024652E8000F411C42E8001303B170
:1004E000F8E7704710B50246D2E85F0F814202D8A4
:1004F000BFF32F8F10BD441CC2E8534F03B1F3E785
:1005000010BD10B50246D2E85F0F441CA14200D8CE
:100510000024C2E8534F03B1F5E710BD024652E88C
:10052000000F411E42E8001303B1F8E7704702468E
:1005300052E8000F10B9BFF32F8F7047411E42E8F9
:10054000001303B1F4E770470246D2E85F0F10B919
:10055000BFF32F8F7047411EC2E8531F03B1F4E76A
:100560007047024652E8000F10B9BFF32F8F704753
:10057000016842E8001303B1F4E7704702680A60BB
:10058000BFF35F8F50E8002F0B689342F6D140E82D
:10059000001303B1F2E770470246D2E84F0FC2E8FA
:1005A000431F03B1F9E77047024652E8000F40EAE3
:1005B000010042E8000303B1F7E7704710B50246B7
:1005C00052E8000F20EA010442E8004303B1F7E7D4
:1005D00010BD10B5024652E8000F00EA01048C423B
:1005E00003D0BFF32F8F002010BD20EA010442E8A2
:1005F000004303B1EFE710BD10B5024652E8000F0B
:10060000084203D1BFF32F8F002010BD20EA010460
:1006100042E8004303B1F1E710BD024652E8000F83
:10062000411C42E8001303B1F8E7704710B50246D9
:10063000D2E85F0F814202D8BFF32F8F10BD441C58
:10064000C2E8534F03B1F3E710BD10B50246D2E83C
:100650005F0F441CA14200D80024C2E8534F03B1ED
:10066000F5E710BD024652E8000F411E42E80013B4
:1006700003B1F8E77047024652E8000F10B9BFF324
:100680002F8F7047411E42E8001303B1F4E7704713
:100690000246D2E85F0F10B9BFF32F8F7047411E9B
:1006A000C2E8531F03B1F4E77047024652E8000F57
:1006B00010B9BFF32F8F7047016842E8001303B1F0
:1006C000F4E7704702680A60BFF35F8F50E8002FBD
:1006D0000B689342F6D140E8001303B1F2E770478C
:1006E0000246D2E84F0FC2E8431F03B1F9E7704753
:1006F000024652E8000F40EA010042E8000303B15D
:10070000F7E7704710B5024652E8000F20EA0104EF
:1007100042E8004303B1F7E710BD10B5024652E8C6
:10072000000F00EA01048C4203D0BFF32F8F00209A
:1007300010BD20EA010442E8004303B1EFE710BD19
:1007400010B5024652E8000F084203D1BFF32F8FC5
:10075000002010BD20EA010442E8004303B1F1E7A4
:1007600010BD024652E8000F411C42E8001303B1DD
:10077000F8E7704710B50246D2E85F0F814202D811
:10078000BFF32F8F10BD441CC2E8534F03B1F3E7F2
:1007900010BD10B50246D2E85F0F441CA14200D83C
:1007A0000024C2E8534F03B1F5E710BD024652E8FA
:1007B000000F411E42E8001303B1F8E770470246FC
:1007C00052E8000F10B9BFF32F8F7047411E42E867
:1007D000001303B1F4E770470246D2E85F0F10B987
:1007E000BFF32F8F7047411EC2E8531F03B1F4E7D8
:1007F0007047024652E8000F10B9BFF32F8F7047C1
:10080000016842E8001303B1F4E7704702680A6028
:10081000BFF35F8F50E8002F0B689342F6D140E89A
:10082000001303B1F2E770470246D2E84F0F411CB4
:10083000C2E8431F03B1F8E77047024652E8000FD1
:10084000411C42E8001303B1F8E77047024652E842
:10085000000F42E8001303B1F9E77047024652E87F
:10086000000F830103D3BFF32F8F0020704700F0E8
:100870000040084342E8000303B1F0E77047024636
:1008800052E8000F800103D2BFF32F8F0020704782
:1008900042E8001303B1F3E70120704706488047A0
:1008A00006480047FEE7FEE7FEE7FEE7FEE7FEE755
:1008B000FEE7FEE7FEE7FEE715240308AD010208A8
:1008C0001EF0040F0CBFEFF30880EFF3098081697D
:1008D00011F8021C91BB01B590E80F10E047BDE88C
:1008E00000508CE80300244B93E80600914208BFB7
:1008F000704741B91EF0100F10D12049086820F050
:10090000010008600AE02CE9F00F1EF0100F08BF8C
:100910002CED108AC1F838C081F822E01A6092F8F4
:100920002210906B61F0FF0E1EF0100F08BFB0ECAC
:10093000108AB0E8F00F80F309887047104A1368F6
:100940009942FAD801B552F821C00FC8E047BDE876
:100950000050CCF80000704701B51AF089FFBDE8DF
:100960000140EFF3098CBEE701B51BF097FABDE833
:100970000140EFF3098CB6E73CD3002034EF00E0F0
:1009800024E303082DE9F05F0546002092469B46CC
:1009900088460646814640241BE028464146474695
:1009A000224600F09CF953465A46C01A914110D392
:1009B00011461846224600F083F92D1A67EB01080C
:1009C0004F4622460120002100F07AF917EB00097A
:1009D0004E41201EA4F10104DFDC484631462A4680
:1009E0004346BDE8F09F2DE9F0410024061B254653
:1009F00071F1000605DA01240027D0EB070067EB50
:100A00000101161E73F1000605DA0027D2EB07027A
:100A1000012567EB0303FFF7B5FF86460E46174631
:100A20009C46AC4204D00025D0EB050E65EB0106D8
:100A300024B10020D2EB000760EB030C7046314676
:100A40003A466346BDE8F08140EA01039B0703D0C4
:100A500009E008C9121F08C0042AFAD203E011F8FD
:100A6000013B00F8013B521EF9D27047D2B201E0BF
:100A700000F8012B491EFBD270470022F6E710B5A3
:100A800013460A4604461946FFF7F0FF204610BDFC
:100A90002DE9F04D81EA030404F0004B21F00045FC
:100AA00014464FF0000A23F0004150EA050220D01E
:100AB00054EA01021DD0C5F30A570246C5F31303D9
:100AC000C1F31300C1F30A5640F4801543F48013B8
:100AD000A7EB0608101BD64608F2FD3873EB05009D
:100AE00002D308F1010801E092185B41B8F1000F50
:100AF00003DA00200146BDE8F08D00204FF480119C
:100B0000064684460EE0171B73EB050705D3121B40
:100B100063EB050306434CEA010C49084FEA300039
:100B200092185B4150EA0107EDD152EA030012D05E
:100B300082EA040083EA0501084305D0101BAB419B
:100B400006D20122002306E000224FF0004302E01B
:100B50006FF0010253101AEB06004CEB085110EB3A
:100B60000A0041EB0B01BDE8F04D00F0FFB80EB5F7
:100B7000C10F80EAE0700844CA07002140F2334305
:100B80008DE80E000A460B4600F0FFF803B000BDEA
:100B90000EB540F2334102910021CDE900110A4621
:100BA0000B4600F0F2F803B000BD20F00040C20D8B
:100BB000C0F3160040F400007F2A02DA002001464C
:100BC00070470021962A03DCC2F19602D04070479C
:100BD000963A00F075B800F0004230F000400AD0BC
:100BE000C10D01F56071C0F3160042EA0151C2085F
:100BF00040071143704700200146704730B5041E7E
:100C000071F1000404DB4FF00044404264EB010149
:100C1000141E73F1000405DB1C464FF000435242E2
:100C200063EB04038B4208BF824230BD30B5041E23
:100C300071F1000404DB4FF00044404264EB010119
:100C4000141E73F1000405DB1C464FF000435242B2
:100C500063EB0403994208BF904230BD01F00043AA
:100C600030B421F0004150EA010206D00A0DA2F58D
:100C70006072C1F31301002A02DC30BC002070470F
:100C8000440F44EAC104C100E01830BC00EBC2507C
:100C900000F035B830B50B46014600202022012473
:100CA00009E021FA02F59D4205D303FA02F5491B3A
:100CB00004FA02F52844151EA2F10102F1DC30BD50
:100CC000202A04DB203A00FA02F10020704791400C
:100CD000C2F1200320FA03F3194390407047202A01
:100CE00004DB203A21FA02F00021704721FA02F3D6
:100CF000D040C2F1200291400843194670470029B4
:100D0000A8BF7047401C490008BF20F00100704791
:100D100010B4B0FA80FC00FA0CF050EA010404BFF1
:100D200010BC704749B1CCF1200421FA04F411FA47
:100D30000CF118BF012121430843A3EB0C01CB1D8B
:100D40004FEA00614FEA102042BF002010BC7047FC
:100D500000EBC35010440029A4BF10BC7047401CD6
:100D6000490008BF20F0010010BC704710B5141EE8
:100D700073F1000408DA401C41F1000192185B4154
:100D80001A4301D120F0010010BD2DE9F04D92462B
:100D90009B4611B1B1FA81F202E0B0FA80F2203242
:100DA0009046FFF78DFF04460F4640EA0A0041EAED
:100DB0000B0153465A46084313D0114653EA01002B
:100DC00019D0C8F140025046FFF789FF05460E468C
:100DD000504659464246FFF773FF084305D00120AD
:100DE00004E020463946BDE8F08D0020054346EA80
:100DF000E0762C4337430A986305E40AA0EB080029
:100E00000022FD0A44EA47540A3002D50020014678
:100E1000E9E7010510196941DDE908450019694153
:100E2000BDE8F04DA2E72DE9FE4F804681EA0300C0
:100E3000C00F0C46009021F0004123F00045B8EBB4
:100E40000200A94105D24046214690461C460B4669
:100E5000024623F00040104347D0270DC7F30A0095
:100E6000C3F30A510290401A019040286BDAC3F391
:100E7000130040F4801B0098924620B10023D2EB6F
:100E8000030A63EB0B0B01985946C0F14002504630
:100E9000FFF716FF06460D4650465946019A00F0E8
:100EA00005F910EB08006141002487EA115284EA39
:100EB000E7731A4340D0009A62B3019A012A4FEABD
:100EC000075215DC001B61EB02014FF0004202EA01
:100ED0000752CDE90042001C41F5801132462B46F5
:100EE000FFF753FF03B0BDE8F08F40462146F9E716
:100EF000001B61EB0201001C41F5801300185B41EF
:100F00002018A2F5001747EB030140EAD570B61987
:100F10006D4111E06D084FEA360645EAC0754FEAAB
:100F20000752001B61EB0201001C41F580114908CA
:100F30004FEA30000019514132462B4603B0BDE85C
:100F4000F04FFFF713BF0098012240000023D0EBC1
:100F5000020263EBE073009821464FEAE074B8EBBD
:100F6000000061EB0401E9E783F000435BE781F0F7
:100F7000004158E72DE9FE4F81EA030404F00044E4
:100F800021F0004100944FF0000B23F0004350EAA1
:100F900001045ED052EA03045BD0C3F30A54C1F3E8
:100FA0000A552C44A4F2F3340194A0FB0254C1F37B
:100FB000130141F48011C3F3130343F4801301FBC5
:100FC000024400FB034E840A970A44EA815447EA2C
:100FD0008357A4FB076802958D0A05FB07854FEA36
:100FE000932C04FB0C542705029D4FEA065847EA50
:100FF0001637B5EB08056EEB070C870E920E47EA25
:10100000811742EA8312A7FB0201B6EB0B0164EBE6
:1010100000042B0D43EA0C335E1844EB1C50DA46F7
:101020005146E7FB0201C5F313044FEA0B3343EAD1
:1010300014534FEA0432019C43EA0603A4F10C0462
:101040000294009CCDE900B4FFF79FFE03B0BDE819
:10105000F08F00200146F9E7C1F30A52C1F31301F2
:1010600040F2FF3341F480119A4202DA0020014637
:10107000704740F233439A42A2F2334202DC5242BA
:10108000FFF72DBEFFF71CBE064C074D06E0E068DB
:1010900040F0010394E8070098471034AC42F6D3BF
:1010A000FFF788F84CE603086CE60308202A06DB05
:1010B000CB17203A41FA02F043EAE07306E041FA26
:1010C00002F3D040C2F12002914008431946704714
:1010D00070B58C1810F8015B15F0070301D110F8FA
:1010E000013B2A1106D110F8012B03E010F8016B27
:1010F00001F8016B5B1EF9D12B0705D40023521EAA
:101100000DD401F8013BFAE710F8013BCB1A921C11
:1011100003E013F8015B01F8015B521EF9D5A1420F
:10112000D8D3002070BD00001EF0040F0CBFEFF3F9
:101130000880EFF309800CF065B800002DE9F04F4E
:1011400085B0804615461C4600260020039004907A
:1011500000278146029001900090E02001902088B5
:101160009DF8041041552088401C2080FE480088CE
:1011700018F8000002909DF80800012803DB9DF894
:101180000800032815DD4FF0080901200090208891
:101190009DF8081041552088401C208020889DF82B
:1011A000001041552088401C2080484605B0BDE80D
:1011B000F08F9DF80800012804D0022844D00328AD
:1011C0007ED178E2E948007898BB0120E7490870B1
:1011D00017F0DBFB1AF018F88246E54800681AF0B1
:1011E000BDFFE44809F0C4FAE34800681BF01EF8AC
:1011F000E24800681AF0B2FFE14800681AF0AEFF5A
:10120000E04800681AF0AAFF1D200AF065FC3220B1
:101210000AF062FC06200AF05FFC07200AF05CFC82
:101220001AF044F8834658461AF008F850461AF067
:1012300005F8012017F0A9FB20889DF808104155FA
:101240002088401C208045E2C848007801286AD1E7
:10125000CD480078022803D0CB4800781628F6D174
:10126000C1480088404440780006BF49098841448D
:10127000897800EB0140BC4909884144C97800EBFA
:101280000120B9490988414409794618B6480088BF
:10129000404450F8051F039140680490082303AAB6
:1012A0003146BA4804F02EFF300E1C2804D1F0203D
:1012B00000EA1640B02837D0300E1C2806D100E0D6
:1012C00007E2F02000EA1640A0282DD0300E1C289E
:1012D00004D1F02000EA1640D02825D00020AC49E7
:1012E000087000E000BFAB48007B0028FAD02088DF
:1012F0009DF8081041552088401C208020882844F3
:10130000A449096801602088001D208020882844A5
:10131000A0494A68026089684160208808302080BE
:1013200000209C4908737EE0300E1C2839D1F02043
:1013300000EA1640A02834D100209549087008E042
:10134000781C87B2012017F020FB9248007B00B187
:1013500002E0B7F5FA5FF3DB00BFB7F5FA5F1CDA1E
:1013600020889DF8081041552088401C2080208846
:1013700028448849096801602088001D2080208851
:10138000284484494A68026089684160208808309E
:10139000208000207F49087345E001207C490870C7
:1013A00041E0300E1C283BD1F02000EA1640D02846
:1013B00036D100207649087008E0781C87B20120F9
:1013C00017F0E3FA7348007B00B103E040F6B83051
:1013D0008742F2DB00BF40F6B83087421CDA208833
:1013E0009DF8081041552088401C20802088284402
:1013F0006849096801602088001D208020882844F1
:1014000064494A6802608968416020880830208009
:1014100000206049087306E001205D49087002E081
:1014200001205B49087051480078012864D1564872
:101430000078012803D0544800780B28F6D14A4898
:10144000008840444078000647490988414489782B
:1014500000EB0140444909884144C97800EB012070
:10146000414909884144097946183F480088404469
:1014700050F8051F039140680490082303AA3146E1
:10148000424804F03FFE300E10283AD1C6F3074020
:10149000512836D100203E49087008E0781C87B2F8
:1014A000642017F07BFA3B48007B00B103E042F276
:1014B00010708742F2DB00BF42F2107087421CDAE4
:1014C00020889DF8081041552088401C20802088E5
:1014D00028443049096801602088001D2080208848
:1014E00028442C494A680260896841602088083095
:1014F0002080002027490873DCE00120244908707F
:10150000D8E0300E102854D1C6F30740522850D1ED
:1015100000201F49087009E0781C87B24FF47A70E8
:1015200017F03CFA1B48007B00B103E044F6206052
:101530008742F1DB00BF44F62060874235DA20881D
:101540009DF8081041552088401C208020882844A0
:101550001049096801602088001D208020882844E7
:101560000C494A68026017E092D2002058D200204D
:1015700014CE00208415012048CE00201CCE00206F
:1015800020CE002034CE002038CF00208C2F012028
:101590006FD2002098F800208968416020880830C8
:1015A000208000204D49087384E001204C490870D8
:1015B00080E0300E10283BD1C6F30740552837D1C4
:1015C00000204749087009E0781C87B24FF47A7010
:1015D00017F0E4F94148007B00B103E043F698209E
:1015E0008742F1DB00BF43F6982087421CDA20884F
:1015F0009DF8081041552088401C208020882844F0
:101600003649096801602088001D20802088284410
:1016100032494A6802608968416020880830208029
:1016200000202E49087345E001202D49087041E053
:10163000300E10283BD1C6F30740562837D1002082
:101640002749087009E0781C87B24FF47A7017F0C8
:10165000A5F92248007B00B103E043F698208742B9
:10166000F1DB00BF43F6982087421CDA20889DF802
:10167000081041552088401C2080208828441749A4
:10168000096801602088001D2080208828441349B3
:101690004A68026089684160208808302080002004
:1016A0000E49087306E001200D49087002E0012090
:1016B0000B4908700EE002200A4908700020084912
:1016C000087020889DF8081041552088401C208013
:1016D00000E000BF00BF484668E5000098F8002021
:1016E0006FD2002058D200207CB504460D46012C54
:1016F0000ED14FF0815040EA052614A103C9CDE96F
:10170000000108236A463146124804F0FBFC00BF82
:10171000022C19D14FF6FF7000EAC5200E4940EAAD
:10172000010600200090019001208DF8000020208B
:101730008DF8010005208DF8030008236A46314624
:10174000044804F0DFFC00BF7CBD00000062000024
:10175000000000008C2F01200B0008C67CB5044659
:101760000D46022C19D14FF6FF7000EAC5200B4937
:1017700040EA010600200090019001208DF8000051
:1017800020208DF80100BE208DF8030008236A4652
:101790003146034804F0B6FC00BF7CBD0B0008C610
:1017A0008C2F01207FB52B4E002002900390372014
:1017B0008DF8090033208DF80F000020264981F8AC
:1017C00028000021244880F8291000240AE008237A
:1017D00002AA3146214804F095FCC82019F0C2FC49
:1017E000601CC4B2032CF2DB1B4890F8280033289D
:1017F00002D1012004B070BD0020174981F82800F3
:101800000021154880F82910154D00200090019006
:1018100001208DF800001F208DF8030033208DF883
:10182000070000240AE008236A4629460B4804F012
:1018300069FCC82019F096FC601CC4B2032CF2DBD2
:10184000054890F82800332801D10220D2E7002073
:10185000D0E7000000FF201038CF00208C2F01209F
:101860000B0000C62DE9FC4104460D461646012C2E
:1018700012D14FF0815040EA0527002000900190DE
:1018800037208DF801008DF8076008236A46394635
:10189000124804F037FC00BF022C1CD14FF6FF7039
:1018A00000EAC5200E4940EA01070EA103C9CDE9AF
:1018B000000101208DF8000000208DF801001F209C
:1018C0008DF803008DF8076008236A4639460348FF
:1018D00004F018FC00BFBDE8FC8100008C2F012043
:1018E0000B0008C60100001F0000000000B587B013
:1018F000142102A8FFF7C1F800BF00200190104892
:10190000006840F080000E4908600846006800F05A
:101910008000019000BF00BF0022302109480AF07A
:101920000AF830200290012003900020049001204A
:10193000059002A9034809F0DFFE07B000BD0000D2
:1019400030380240001C024070B5044600250BF000
:1019500091FD20460BF054FD0BF0D4FD00200BF060
:101960001DFD05460BF0AAFD284670BD70B5054665
:101970000C460BF07FFD28460BF042FD0BF0C2FD3C
:1019800000200BF03DFD0BF0BDFD20460BF038FDB7
:101990000BF0B8FD0BF092FD052016F0F6FF691C68
:1019A000C8B2FFF7D1FFA04201D1012070BD0020D5
:1019B00009E0074951F8201041F48021044A42F817
:1019C0002010411CC8B20828F3DB0020EEE700001D
:1019D0000042012070B52DED028BF0EE408A9FEDA4
:1019E000120A28EE800AB0EE408A9FED100AB4EE8B
:1019F000C08AF1EE10FA01DDFF240BE0B5EEC08ADB
:101A0000F1EE10FA01D2002404E0BCEEC80A10EE98
:101A1000100AC4B221465820FFF7A8FF0546284601
:101A2000BDEC028B70BD00000000CC4100007F4384
:101A300038B5002407200AF04FF800F0DBF904461F
:101A4000002C01DA204638BD02224FF490610120BB
:101A500000F00AFA0446002C01DA2046F3E70322DC
:101A60000021104600F000FA0446002C01DA20465E
:101A7000E9E702220021042000F0F6F90446002CD8
:101A800001DA2046DFE703220421072000F0ECF909
:101A90000446002C01DA2046D5E7022248F2110163
:101AA000092000F0E1F90446002C01DA2046CAE7DB
:101AB000022248F231010A2000F0D6F90446002C37
:101AC00001DA2046BFE7022248F251010B2000F064
:101AD000CBF90446002C01DA2046B4E7022248F292
:101AE00071010C2000F0C0F90446002C01DA2046F8
:101AF000A9E7022248F291010D2000F0B5F9044651
:101B0000002C01DA20469EE7022248F2B1010E20A5
:101B100000F0AAF90446002C01DA204693E70222DD
:101B200048F2D1010F2000F09FF90446002C01DAA1
:101B3000204688E7022248F2F101102000F094F9D3
:101B40000446002C01DA20467DE7022248F21111FA
:101B5000112000F089F90446002C01DA204672E7D2
:101B6000022248F23111122000F07EF90446002CC6
:101B700001DA204667E7022248F25111132000F0F3
:101B800073F90446002C01DA20465CE7022248F291
:101B90007111142000F068F90446002C01DA204687
:101BA00051E7022248F29111152000F05DF9044638
:101BB000002C01DA204646E7022248F2B111162035
:101BC00000F052F90446002C01DA20463BE70222DD
:101BD00048F2D111172000F047F90446002C01DA31
:101BE000204630E7022248F2F111182000F03CF9BB
:101BF0000446002C01DA204625E702224FF4066154
:101C0000192000F031F90446002C01DA20461AE7C9
:101C100003221949212000F027F90446002C01DA9B
:101C2000204610E70020009002226946052000F0BF
:101C300081F80446002C09DB9DF80000142805D12A
:101C40009DF8010000F0760076280FD04FF0FF34A9
:101C5000002009E0094951F8201041F48041074A69
:101C600042F82010411CC8B20828F3DB01200449C7
:101C700008702046E7E6000001001600004201203F
:101C800070CF002000B587B000BF002001900D4844
:101C9000006840F010000B4908600846006800F03A
:101CA0001000019000BF00BF022002900648039080
:101CB000002004900220059002A9044809F01CFDB0
:101CC00007B000BD30380240000021100010024073
:101CD00038B5002000900024684600F021F8A8B92B
:101CE0009DF8000004049DF8010004EB00249DF819
:101CF000020004449DF8030000F0F00030B99DF8A4
:101D0000030000F00F00044941F8204000220121A7
:101D1000024809F010FE38BDE82F012000200240E3
:101D200070B5044604222146022000F003F805465F
:101D3000284670BD2DE9F04387B006460F4615468C
:101D400000BF4FF0000800BF0020059006900390F0
:101D500004900190029006F03F0040F040008DF8A2
:101D6000140000220121204809F0E5FDA81C64218F
:101D70004843AB1C03AA05A900901C480AF0DEFEEC
:101D8000814601221146184809F0D5FD06F03F00B2
:101D900040F040008DF80400012405E003A8005D38
:101DA00001A90855601CC4B2A81C8442F6DBC1B26C
:101DB00001A805F0EBFC80460D480078012806D10B
:101DC000B8F1000F03D0C01E07B0BDE8F0830124B6
:101DD00005E003A8015D601E3954601CC4B2681C94
:101DE0008442F6DB4846EFE7002002405411012010
:101DF00070CF002010B586B0002417A103C9CDE92B
:101E0000040100200290039000220121144809F0EF
:101E100092FD4FF44870082302AA04A900901148CB
:101E20000AF08CFE0446012211460D4809F083FD9C
:101E30001CB14FF0FF3006B010BD4FF4487016F0E3
:101E400083FD044614B14FF0FF30F4E74FF4FA502D
:101E500006F08FFA2046EEE7FFFFFFFFFFFFFFFFD0
:101E600000200240541101202DE9F04385B0804646
:101E70000D461446002600BF00BF002003900490CA
:101E80000190029008F03F008DF80C0000BF05E0C3
:101E9000A11B03AA55542D12701CC6B2A642F7DB33
:101EA000601CC1B203A805F071FC814603A9601C47
:101EB00001F8009000220121134809F03CFDA01C0C
:101EC00064214843A31C01AA03A900900F480AF00B
:101ED00035FE0746012211460B4809F02CFD012F63
:101EE0000DD1002009E00A4951F8201041F4804149
:101EF000074A42F82010411CC8B20828F3DB3846D4
:101F000005B0BDE8F083000000200240541101201C
:101F10000042012010B50024062009F0DDFD00F08C
:101F200013FA0446002C01DA204610BD4FF4FA5093
:101F300006F025FA02224FF40851012000F02EFA93
:101F40000446002C01DA2046EFE702224FF4A47188
:101F5000104600F023FA0446002C01DA2046E4E79C
:101F600002220021062000F019FA0446002C01DAB2
:101F70002046DAE7022248F21001102000F00EFAA3
:101F80000446002C01DA2046CFE7022248F2300155
:101F9000112000F003FA0446002C01DA2046C4E7C1
:101FA000022248F25001122000F0F8F90446002CF9
:101FB00001DA2046B9E7022248F27001132000F04E
:101FC000EDF90446002C01DA2046AEE7022248F281
:101FD0009001142000F0E2F90446002C01DA2046BA
:101FE000A3E7022248F2B001152000F0D7F9044619
:101FF000002C01DA204698E7022248F2D001162090
:1020000000F0CCF90446002C01DA20468DE70222CC
:1020100048F2F001172000F0C1F90446002C01DA63
:10202000204682E7022248F21011182000F0B6F98B
:102030000446002C01DA204677E7022248F23011EC
:10204000192000F0ABF90446002C01DA20466CE7B9
:10205000022248F250111A2000F0A0F90446002C88
:1020600001DA204661E7022248F270111B2000F0DD
:1020700095F90446002C01DA204656E7022248F280
:1020800090111C2000F08AF90446002C01DA204649
:102090004BE7022248F2B0111D2000F07FF9044600
:1020A000002C01DA204640E7022248F2D0111E201F
:1020B00000F074F90446002C01DA204635E70222CC
:1020C00048F2F0111F2000F069F90446002C01DAF3
:1020D00020462AE702224FF49851202000F05EF9B2
:1020E0000446002C01DA20461FE7022240F2055187
:1020F000282000F053F90446002C01DA204614E7AA
:1021000002221349072000F0C5F80446002C09DB21
:102110000F4800783C2805D10D48407800F0D000E9
:10212000D0280FD04FF0FF34002009E0094951F8C2
:10213000201041F48041074A42F82010411CC8B2E7
:102140000828F3DB062009F0E9FC2046EDE6000054
:1021500077CF00200042012000B587B000BF0020EB
:1021600001900D48006840F008000B4908600846DF
:10217000006800F00800019000BF00BF022002903C
:102180000020039004900320059002A9034809F061
:10219000B3FA07B000BD000030380240000C024026
:1021A00000B587B000BF002001900D48006840F0E6
:1021B00010000B4908600846006800F0100001900C
:1021C00000BF00BF01200290064803900020049049
:1021D0000220059002A9044809F08EFA07B000BD5C
:1021E00030380240000021100010024030B5024695
:1021F0000023002018E0802311E014781C400CB16B
:10220000012400E00024C0F3C015AC4204D0440611
:10221000200E80F0070001E04406200E5B10002B2A
:10222000EBD1521C4C1EE1B20029E4D130BD0000BC
:1022300038B5002000900024684600F021F8A8B9C5
:102240009DF8000004049DF8010004EB00249DF8B3
:10225000020004449DF8030000F0B00030B99DF87E
:10226000030000F00F00044941F820400022012142
:10227000024809F060FB38BD28300120000C024004
:1022800070B5044604222146104600F003F80546C6
:10229000284670BD2DE9F04387B006460F46154627
:1022A00000BF4FF0000800BF00200590069003908B
:1022B00004900190029006F03F0040F040008DF83D
:1022C0001400002201211E4809F035FBA81C6421DE
:1022D0004843AB1C03AA05A900901A480AF02EFC3B
:1022E000814601221146164809F025FB06F03F0001
:1022F00040F040008DF80400012405E003A8005DD3
:1023000001A90855601CC4B2A81C8442F6DBC1B206
:1023100001A8FFF76BFF8046B8F1000F01D06FF006
:102320000109012405E003A8015D601E3954601C09
:10233000C4B2681C8442F6DB484607B0BDE8F083AF
:10234000000C0240AC11012010B586B000240FA192
:1023500003C9CDE90401002002900390002201216D
:102360000C4809F0E8FA4FF44870082302AA04A9BF
:10237000009009480AF0E2FB044601221146054894
:1023800009F0D9FA204606B010BD0000FFFFFFFF9C
:10239000FFFFFFFF000C0240AC1101202DE9F043CC
:1023A00085B080460D461446002600BF00BF0020C1
:1023B000039004900190029008F03F008DF80C000B
:1023C00000BF05E0A11B03AA55542D0A701CC6B21C
:1023D000A642F7DB601CC1B203A8FFF707FF8146E6
:1023E00003A9601C01F8009000220121134809F0A4
:1023F000A2FAA01C64214843A31C01AA03A90090CF
:102400000F480AF09BFB0746012211460B4809F0D2
:1024100092FA012F0DD1002009E00A4951F820104D
:1024200041F48041074A42F82010411CC8B20828F4
:10243000F3DB384605B0BDE8F0830000000C024035
:10244000AC1101200042012070B50546AC6B206C38
:1024500000F0500050BB206C40F4007020642068F5
:10246000806800F04050E8B9207ED8B92068C06A82
:1024700000F4700020B12068806800F4806088B9A2
:102480002068406820F0200021684860206C20F41B
:1024900080702064206C00F4805018B9206C40F0EB
:1024A00001002064204607F0BBFF0BE0206C00F029
:1024B000100018B1204607F0B5FF03E0A06BC16C17
:1024C0002846884770BD70B50546AC6B4020206437
:1024D000606C40F004006064204607F0A3FF70BD0C
:1024E00070B50446A56B284607F09BFF70BD000041
:1024F00055494A6822F440324A604A6843681A43A0
:102500004A600268526822F4807203685A60026866
:102510005368026943EA022203685A6002685268FB
:1025200022F0407203685A600268526883681A4356
:1025300003685A600268926822F4006203689A6035
:1025400002689268C3681A4303689A603F4B826AC4
:102550009A4218D00268926822F0706203689A600A
:1025600002689268836A1A4303689A6002689268F4
:1025700022F0405203689A6002689268C36A1A4364
:1025800003689A600BE00268926822F07062036848
:102590009A600268926822F0405203689A6002686A
:1025A000926822F0020203689A6002689368027ED1
:1025B00043EA420203689A602022125CA2B10268D8
:1025C000526842F4006203685A600268526822F45A
:1025D000604203685A6002685368426A521E43EAC6
:1025E000423203685A6005E00268526822F40062D1
:1025F00003685A600268D26A22F470020368DA62E1
:102600000268D36A828B521E43EA02520368DA627E
:102610000268926822F4007203689A600268936804
:1026200090F8302043EA422203689A600268926878
:1026300022F4806203689A6002689368426943EA00
:10264000822203689A607047002301400100000F56
:1026500010B50848007800F00FF806480078401CD4
:102660000449087008460078502801D100200870FD
:1026700010BD000034CF002070B588B00646202180
:102680006846FEF7FAF9FE4808F072F890B10020AB
:1026900009E0FC4951F8201041F48041F94A42F820
:1026A0002010411CC8B20828F3DB4FF42071F6A0BB
:1026B00006F0F8F82EB1142E03D0282E01D03C2EAF
:1026C00020D19FEDF90AF94880ED000A9FEDF60A46
:1026D00080ED010A9FEDF40A80ED020A9FEDF20AF7
:1026E00080ED030A9FEDF00A80ED040A9FEDEE0AEB
:1026F00080ED050A9FEDEC0A80ED060A9FEDEA0ADF
:1027000080ED070A132E71DA00241CE0002516E084
:10271000684600EB8500D0ED000A05EBC400E449F3
:1027200031F8100000EE100AB8EE400A30EE800AD0
:10273000684600EB850080ED000A681CC5B2082DD4
:10274000E6DB601CC4B2642CE0DBDDED040A9FED27
:10275000D91A80EE810AD548D0ED060A30EE200A5B
:1027600080ED060A9DED050ADFEDD20A80EE201A03
:1027700090ED070A31EE000A80ED070A9DED060A8A
:10278000DFEDCC0A80EE201ACB4880ED061A9DEDD5
:10279000070ADFEDC80A80EE201A80ED071A012231
:1027A0000421C64809F0C7F801220821C34809F0EE
:1027B000C2F84FF44872BE49B14807F017FF00282D
:1027C00012D0002009E0AF4951F8201041F48041B7
:1027D000AC4A42F82010411CC8B20828F3DB40F292
:1027E000A321A9A006F05EF8B8E3FFE7132E72D18B
:1027F00000241CE0002516E0684600EB8500D0EDC3
:10280000000A05EBC400AA4931F8100000EE100AD6
:10281000B8EE400A30EE800A684600EB850080ED95
:10282000000A681CC5B2082DE6DB601CC4B2642C2B
:10283000E0DB9DED040ADFED9F0A80EE201A9B4845
:1028400090ED060A31EE000A80ED060A9DED050ABC
:10285000DFED980A80EE201A90ED070A31EE000AAB
:1028600080ED070A9DED060ADFED920A80EE201A40
:10287000914880ED061A9DED070ADFED8E0A80EE85
:10288000201A80ED071A894890ED060AF3EE040A33
:1028900080EE201A8A4880ED061A844890ED070AD7
:1028A000F3EE040A80EE201A854880ED071A002214
:1028B0000421824809F03FF8002208217F4809F0EE
:1028C0003AF84FF448727F496D4807F08FFE0028B0
:1028D0008AD000200AE011E06A4951F8201041F442
:1028E0008041684A42F82010411CC8B20828F3DB36
:1028F00040F2BD2164A005F0D5FF2FE3272E71DA49
:1029000000241CE0002516E0684600EB8500D0EDB1
:10291000000A05EBC4006B4931F8100000EE100A04
:10292000B8EE400A30EE800A684600EB850080ED84
:10293000000A681CC5B2082DE6DB601CC4B2642C1A
:10294000E0DB9DED040ADFED5B0A80EE201A5748BC
:1029500090ED000A31EE000A80ED000A9DED050AB7
:10296000DFED540A80EE201A90ED010A31EE000AE4
:1029700080ED010A9DED060ADFED4E0A80EE201A79
:102980004D4880ED001A9DED070ADFED4A0A80EE02
:10299000201A80ED011A00220421484808F0CBFFDC
:1029A00000220821454808F0C6FF4FF44872454907
:1029B000334807F01BFE00289FD0002009E0314972
:1029C00051F8201041F480412E4A42F82010411C59
:1029D000C8B20828F3DB4FF435712BA005F062FF75
:1029E000BCE2FFE7272E6FD100241CE0002516E093
:1029F000684600EB8500D0ED000A05EBC4003149C4
:102A000031F8100000EE100AB8EE400A30EE800AED
:102A1000684600EB850080ED000A681CC5B2082DF1
:102A2000E6DB601CC4B2642CE0DB9DED040ADFED44
:102A3000210A80EE201A1D4890ED000A31EE000AAE
:102A400080ED000A9DED050ADFED1A0A80EE201ADE
:102A500090ED010A31EE000A80ED010A9DED060AB3
:102A6000DFED140A80EE201A134880ED001A9DED68
:102A7000070ADFED100A80EE201A80ED011A24E02B
:102A800084150120004201202E2E5C2E2E5C5573F1
:102A900065725C6273705C7372635C6273705F61B9
:102AA0006463332E63000000000000006C2F0120DF
:102AB000EC2801200000C8424C2F0120001C0240DD
:102AC0002C2F01202C1601203AE0FE4890ED000A40
:102AD000F3EE040A80EE201AFB4880ED001AF94854
:102AE00090ED010AF3EE040A80EE201AF64880ED1C
:102AF000011A01220421F54808F01DFF00220821D7
:102B0000F24808F018FF4FF44872F149F14807F015
:102B10006DFD002813D0002009E0EF4951F8201086
:102B200041F48041EC4A42F82010411CC8B2082808
:102B3000F3DB40F2EE21AFF2B00005F0B3FE0DE2A0
:102B40003B2E72DA00241CE0002516E0684600EBFC
:102B50008500D0ED000A05EBC400DD4931F8100016
:102B600000EE100AB8EE400A30EE800A684600EB2C
:102B7000850080ED000A681CC5B2082DE6DB601CEC
:102B8000C4B2642CE0DBDDED040A1FED361A80EEE2
:102B9000810ACC48D0ED020A30EE200A80ED020A0C
:102BA000DDED050A1FED3D1A80EE810AD0ED030A26
:102BB00030EE200A80ED030A9DED060A5FED430A20
:102BC00080EE201AC54880ED021A9DED070A5FEDE0
:102BD000470A80EE201A80ED031A01220421BB4827
:102BE00008F0A9FE00220821B84808F0A4FE4FF41E
:102BF0004872B749B74807F0F9FC00289FD0002079
:102C000009E0B54951F8201041F48041B24A42F838
:102C10002010411CC8B20828F3DB40F20531AFF2A6
:102C2000981005F03FFE99E1FFE73B2E72D100249A
:102C30001CE0002516E0684600EB8500D0ED000A98
:102C400005EBC400A24931F8100000EE100AB8EEFE
:102C5000400A30EE800A684600EB850080ED000AED
:102C6000681CC5B2082DE6DB601CC4B2642CE0DB36
:102C70009DED040A1FED711AC0EE010A914890ED16
:102C8000020A30EE800A80ED020ADDED050A1FED32
:102C9000771A80EE810AD0ED030A30EE200A80ED2B
:102CA000030A9DED060A5FED7D0A80EE201A8B482F
:102CB00080ED021A9DED070A5FED820A80EE201A70
:102CC00080ED031A7F4890ED020AF3EE040A80EECD
:102CD000201A7D4880ED021A7A4890ED030AF3EE3F
:102CE000040A80EE201A784880ED031A002204219D
:102CF000764808F020FE01220821744808F01BFEE7
:102D00004FF448727649734807F070FC00288AD067
:102D100000200AE012E0704951F8201041F480418F
:102D20006D4A42F82010411CC8B20828F3DB40F27B
:102D30001F31AFF2AC2005F0B5FD0FE14F2E72DA76
:102D400000241CE0002516E0684600EB8500D0ED6D
:102D5000000A05EBC400624931F8100000EE100AC9
:102D6000B8EE400A30EE800A684600EB850080ED40
:102D7000000A681CC5B2082DE6DB601CC4B2642CD6
:102D8000E0DBDDED040A1FEDB51A80EE810A4D4847
:102D9000D0ED040A30EE200A80ED040ADDED050ACC
:102DA0001FEDBC1A80EE810AD0ED050A30EE200A34
:102DB00080ED050A9DED060A5FEDC20A80EE201A3D
:102DC000464880ED041A9DED070A5FEDC60A80EEC5
:102DD000201A80ED051A002204213C4808F0ABFDC2
:102DE00001220821394808F0A6FD4FF448723C49F9
:102DF000384807F0FBFB002813D0002009E03649D3
:102E000051F8201041F48041334A42F82010411C0F
:102E1000C8B20828F3DB40F23631AFF2943005F047
:102E200041FD9BE0FFE74F2E7ED100241CE00025F2
:102E300016E0684600EB8500D0ED000A05EBC40003
:102E4000274931F8100000EE100AB8EE400A30EEC3
:102E5000800A684600EB850080ED000A681CC5B258
:102E6000082DE6DB601CC4B2642CE0DB9DED040A97
:102E70005FEDF00A80EE201A124890ED040A31EE60
:102E8000000A80ED040A9DED050A5FEDF60A80EE6A
:102E9000201A90ED050A31EE000A80ED050A9DED3D
:102EA000060A5FEDFC0A80EE201A0C4880ED041A39
:102EB0009DED070ADFED0B0A80EE201A80ED051A62
:102EC000004811E06C2F01202C2F0120001C024033
:102ED0006C1C012084150120004201204C2F012090
:102EE000AC2201200000C84290ED040AF3EE040A6F
:102EF00080EE201A2C4880ED041A2C4890ED050A2B
:102F0000F3EE040A80EE201A274880ED051A01220C
:102F10000421274808F00FFD01220821244808F069
:102F20000AFD4FF4487200E018E02249224807F0F9
:102F30005DFB98B1002009E0204951F8201041F4D0
:102F400080411E4A42F82010411CC8B20828F3DB19
:102F50004FF45471AFF2D04005F0A4FC9DED000A8F
:102F60005FED200A80EE201A154880ED001A9DEDD5
:102F7000010A5FED240A80EE201A124880ED001A43
:102F80009DED020A5FED290A80EE201A0E4880EDC1
:102F9000001A9DED030A5FED2D0A80EE201A0B4802
:102FA00080ED001A08B070BD2C2F01206C2F01207D
:102FB000001C0240EC280120841501200042012061
:102FC00024CF002028CF00202CCF002030CF00209D
:102FD00000B587B000BF002001901E48006840F097
:102FE00080001C4908600846006800F080000190DD
:102FF00000BF00BF04200290012003900020049035
:103000000320059002A9144808F076FB08200290DE
:1030100001200390002004900320059002A90E488F
:1030200008F06AFB012204210B4808F084FC01220D
:103030000821094808F07FFC4FF448720749084806
:1030400007F0D4FA20B140F28B1106A005F02AFC5B
:1030500007B000BD30380240001C0240EC280120BF
:10306000841501202E2E5C2E2E5C557365725C62D9
:1030700073705C7372635C6273705F616463332E40
:10308000630000002DE9FC4704460D464FF0000C9C
:10309000002001900027009000268B2000901888C7
:1030A0009DF8001081541888401C1880002067E0AB
:1030B0000121814001F0FF083449897901EA0801C2
:1030C00000295CD0DFF8C890B9F8001053E014F87C
:1030D0000190CDF804909DF80490B9F1000F04DD43
:1030E0009DF80490B9F1050F20DB4FF0FF36B3F8DF
:1030F00000909DF804A009F802A0B3F8009009F12F
:103100000109A3F80090B3F800909144C9F8006059
:10311000B3F8009009F10409A3F800909DF8049019
:10312000B9F1FF0F01D04FF0080C23E09DF8049097
:10313000A9F1010909F0FF07DFF8589009EB001920
:1031400059F82760B3F800909DF804A009F802A090
:10315000B3F8009009F10109A3F80090B3F80090CA
:103160009144C9F80060B3F8009009F10409A3F88C
:10317000009000BF491CA5F104098945A7DC401C4B
:10318000082895DB6046BDE8FC8700009C7901209B
:1031900092D2002088760120F0B52DED048B85B009
:1031A0004420F749087000240AE0F649085D0A2126
:1031B00003F030FFF349085D052103F02BFF641C89
:1031C000082CF2DBF0480078B8B1F048007801280C
:1031D0000FD10102EE48FDF750FCEB480278EDA15B
:1031E000EB4814F0E9FE4FF48072E949002019F031
:1031F0000DF905B0BDEC048BF0BDE4480078012862
:103200002BD10102E248FDF738FCF149E04814F007
:10321000D3FE4FF48072DE49002019F0F7F84FF426
:103220008071DB48FDF729FCEA49D94814F0C4FE57
:103230004FF48072D649002019F0E8F84FF48071FD
:10324000D348FDF71AFCE249D14814F0B5FE4FF41B
:103250008072CF49002019F0D9F8F2EE040AB7EED7
:10326000000A00221146F02003F070FDC7480078E4
:1032700001280DD10102C648FDF7FFFBD6A1C448C5
:1032800014F09AFE4FF48072C149002019F0BEF884
:103290004FF47A7017F066FFF3EE040AB1EE020AFB
:1032A000002201210F2003F051FDB84800780128C9
:1032B0000DD10102B648FDF7E0FBD3A1B44814F0EC
:1032C0007BFE4FF48072B249002019F09FF84FF452
:1032D0007A7017F047FFDFEDD80AB1EE020A00223C
:1032E00001210F2003F032FDA848007801280DD1FC
:1032F0000102A748FDF7C1FBD0A1A54814F05CFE70
:103300004FF48072A249002019F080F84FF47A70CF
:1033100017F028FFF3EE0E0AB7EE000A002211465E
:10332000F02003F013FD9948007801280DD1010227
:103330009748FDF7A2FBCDA1954814F03DFE4FF450
:1033400080729349002019F061F800270120D349C9
:10335000087003E28C480078002870D1B7F5FA7F36
:103360006EDD0024F2E188480078002869D1254606
:10337000261DCB4800EB850090ED000AF1EE000A17
:10338000B4EEE00AF1EE10FA5CDDC54800EB850012
:1033900090ED000AF1EE040AB4EEE00AF1EE10FA44
:1033A00050D2BF4800EB860090ED000AF1EE000A13
:1033B000B4EEE00AF1EE10FA44DDB94800EB860005
:1033C00090ED000AF1EE040AB4EEE00AF1EE10FA14
:1033D00038D2B348203800EB850090ED000AF3EEB8
:1033E000090AB4EEE00AF1EE10FA2BDDAC48203801
:1033F00000EB850090ED000ADFEDAA0AB4EEE00ACA
:10340000F1EE10FA1ED2A648203800EB860090EDAF
:10341000000AF3EE090AB4EEE00AF1EE10FA11DD4B
:103420009F48203800EB860090ED000ADFED9D0AF2
:10343000B4EEE00AF1EE10FA04D2012003E089E1D3
:1034400089E181E1002000286ED19748005DC828FD
:103450006BDD0020944908554C48007801286FD155
:1034600017F076F94FF480714948FDF706FB3346B3
:103470002A468EA1464814F09FFD4FF480724449BD
:10348000002018F0C3FF4FF480714148FDF7F5FAB2
:103490008348203800EB850090ED000A10EE101AEA
:1034A0000846FDF798FB41EC180B7D4800EB8500C2
:1034B00090ED000A10EE101A0846FDF78CFB41EC67
:1034C000190B8DED028B8DED009B2A4684A13048AF
:1034D00014F072FD4FF480722D49002018F096FF11
:1034E0004FF480712A48FDF7C8FA6D48203800EB88
:1034F000860090ED000A10EE101A0846FDF76BFBEF
:1035000041EC180B664800EB860090ED000A10EEC7
:10351000101A0846FDF75FFB41EC190B8DED028B8D
:103520008DED009B324601E025E01EE078A11848B1
:1035300014F042FD4FF480721549002018F066FF28
:103540007F48405D40F002007D4948550846805D57
:1035500040F0020088550C48007840F002000A490B
:10356000087001207749087008E04F48005D401C52
:103570004D49085502E000204B490855E5E00000A0
:103580009CCF002019CF00209DCF0020A4CE00208A
:10359000844001205BCCE1CABE5D203A20436861D3
:1035A0006E6E656C4572726F72466C6167203D206D
:1035B00025642C20D2F2B9CAD5CFB4E6D4DACDCB6B
:1035C000B3F6C0CFBBAFC4A3CABD0D0A0000000054
:1035D00080E40308C8E403083120CDA8B5C0343521
:1035E0003637B7C5B5E72CB7C5B5E7B5E7D1B931BB
:1035F0002E30562CB7C5B5E7B5E7C1F731302E30C0
:1036000041210D0A000000003220CDA8B5C03031A4
:103610003233B3E4B5E72CB3E4B5E7B5E7D1B93459
:103620002E35562CB3E4B5E7B5E7C1F732302E306E
:1036300041210D0A00000000000000423220CDA808
:10364000B5C030313233B3E4B5E72CB3E4B5E7B5F8
:10365000E7D1B9342E35562CB3E4B5E7B5E7C1F759
:1036600033322E3041210D0A000000003120CDA858
:10367000B5C034353637B7C5B5E72CB7C5B5E7B5EE
:10368000E7D1B9312E30562CB7C5B5E7B5E7C1F74C
:1036900033302E3041210D0A00000000B0CF002051
:1036A0000C79012000000C42C4CF00205BCCE1CAA1
:1036B000BE5D203A20CDA8B5C02564B3E4B5E7C00F
:1036C000CFBBAFD2ECB3A32CCDA8B5C02564B7C592
:1036D000B5E7C0CFBBAFD2ECB3A3210D0A00000009
:1036E0005BCCE1CABE5D203A20CDA8B5C02564B34D
:1036F000E4B5E72CB3E4B5E7B5E7D1B92566562CB8
:10370000B3E4B5E7B5E7C1F7256641210D0A00002E
:103710005BCCE1CABE5D203A20CDA8B5C02564B718
:10372000C5B5E72CB7C5B5E7B5E7D1B92566562CC1
:10373000B7C5B5E7B5E7C1F7256641210D0A000019
:103740009FCF00209ECF002003E0641C042CFFF6D6
:103750000AAE00E008E00A2017F004FD781C0746D6
:10376000F7498842FFF6F6AD00BF0F2003F074FA68
:10377000F02003F071FAF3480078A0B1F248007825
:1037800001280FD10102F148FDF777F9ED480278E1
:10379000EF49EE4814F010FC4FF48072EB49002022
:1037A00018F034FE25E5E848007801282BD1010205
:1037B000E648FDF762F9E749E44814F0FDFB4FF4F1
:1037C0008072E249002018F021FE4FF48071DF483A
:1037D000FDF753F9E0A1DD4814F0EEFB4FF48072E1
:1037E000DA49002018F012FE4FF48071D748FDF737
:1037F00044F9D849D54814F0DFFB4FF48072D3491F
:10380000002018F003FEF2EE040AB7EE000A0022D0
:1038100011460F2003F09AFACB48007801280DD109
:103820000102CA48FDF729F9D3A1C84814F0C4FB26
:103830004FF48072C549002018F0E8FD4FF47A700B
:1038400017F090FCF3EE040AB1EE020A0022012107
:10385000F02003F07BFABC48007801280DD101026A
:10386000BA48FDF70AF9D0A1B84814F0A5FB4FF407
:103870008072B649002018F0C9FD4FF47A7017F035
:1038800071FC5FED930AB1EE020A00220121F020E3
:1038900003F05CFAAC48007801280DD10102AB4876
:1038A000FDF7EBF8CCA1A94814F086FB4FF4807229
:1038B000A649002018F0AAFD4FF47A7017F052FCC8
:1038C000F3EE0E0AB7EE000A002211460F2003F0B5
:1038D0003DFA9D48007801280DD101029B48FDF773
:1038E000CCF8C9A1994814F067FB4FF4807297494E
:1038F000002018F08BFD00270120CF490870A8E1B7
:1039000090480078002870D1B7F5FA7F6EDD002569
:1039100010E18C480078002869D12E1D2C46C7483C
:1039200000EB860090ED000AF1EE000AB4EEE00A2A
:10393000F1EE10FA5CDDC14800EB860090ED000A64
:10394000F1EE040AB4EEE00AF1EE10FA50D2BB48F0
:1039500000EB840090ED000AF1EE000AB4EEE00AFC
:10396000F1EE10FA44DDB54800EB840090ED000A5A
:10397000F1EE040AB4EEE00AF1EE10FA38D2AF48E4
:10398000203800EB860090ED000AF3EE090AB4EE51
:10399000E00AF1EE10FA2BDDA848203800EB860093
:1039A00090ED000A5FEDC10AB4EEE00AF1EE10FA04
:1039B0001ED2A248203800EB840090ED000AF3EEFE
:1039C000090AB4EEE00AF1EE10FA11DD9B48203846
:1039D00000EB840090ED000A5FEDCE0AB4EEE00A41
:1039E000F1EE10FA04D2012003E0A7E02EE19FE0FF
:1039F000002000287DD19248405DC8287ADD002053
:103A00008F4948555048007801286FD116F0A0FE24
:103A10004FF480714D48FDF730F823463246AFF23F
:103A200074314A4814F0C8FA4FF4807247490020B4
:103A300018F0ECFC4FF480714448FDF71EF87F4805
:103A4000203800EB860090ED000A10EE101A0846B0
:103A5000FDF7C1F841EC180B784800EB860090EDBB
:103A6000000A10EE101A0846FDF7B5F841EC190BE4
:103A70008DED028B8DED009B3246AFF29C313348C9
:103A800014F09AFA4FF480723049002018F0BEFC0E
:103A90004FF480712D48FCF7F0FF6848203800EBA8
:103AA000840090ED000A10EE101A0846FDF793F816
:103AB00041EC180B614800EB840090ED000A10EE19
:103AC000101A0846FDF787F841EC190B8DED028BB3
:103AD0008DED009B2246AFF2C8311C4814F06CFA01
:103AE0004FF480721949002018F090FC5548805D11
:103AF00001E019E012E040F0020052498855084602
:103B0000005D40F0020008550E48007840F00200C9
:103B10000C49087001204C49087008E04848405D95
:103B2000401C4749485502E000204549485500E0FF
:103B300003E06D1C042DFFF6ECAE87E08FE0000083
:103B4000A0BB0D009DCF0020A4CE0020844001200A
:103B500058E5030880E40308B5A5B1DFC0CFBBAFCB
:103B6000CDEAB3C92CBBBBB1DFBCCCD0F8C0CFBB56
:103B7000AFA1ADA1AD0D0A003120CDA8B5C0303147
:103B80003233B7C5B5E72CB7C5B5E7B5E7D1B9311D
:103B90002E30562CB7C5B5E7B5E7C1F731302E301A
:103BA00041210D0A000000003220CDA8B5C03435F7
:103BB0003637B3E4B5E72CB3E4B5E7B5E7D1B934AC
:103BC0002E35562CB3E4B5E7B5E7C1F732302E30C9
:103BD00041210D0A000000003320CDA8B5C03435C6
:103BE0003637B3E4B5E72CB3E4B5E7B5E7D1B9347C
:103BF0002E35562CB3E4B5E7B5E7C1F733322E3096
:103C000041210D0A000000003420CDA8B5C030319C
:103C10003233B7C5B5E72CB7C5B5E7B5E7D1B9318C
:103C20002E30562CB7C5B5E7B5E7C1F733302E3087
:103C300041210D0A00000000B0CF00200C790120C6
:103C4000C4CF00209FCF00209ECF00200A2017F075
:103C500089FA781C074606498842FFF651AE00BF34
:103C6000F02002F0F9FF0F2002F0F6FF00BF99E507
:103C7000A0BB0D007CB51B480078022803D0194872
:103C80000078162813D1184D0020009001900120D3
:103C90008DF8000042208DF8030001208DF8070008
:103CA00008236A462946114802F02CFA00BF002476
:103CB0000EE000200E4941F824000E4941F824008E
:103CC0000D4941F824000D4941F82400601CC4B29C
:103CD000082CEEDB00200349488000210148818048
:103CE0007CBD000038CF00200B0000C68C2F0120C7
:103CF0000042012040420120204201206042012078
:103D00002DE9F043ADF2044D0024002500260027E4
:103D10004FF4806101A8FCF7B0FE5B208DF8040031
:103D20008DF8050009208DF8060000208DF80700A9
:103D30008DF808008DF809008DF80A0009F04EFD95
:103D400006F066F900BFB4E0CA4850F82400002825
:103D500053D0C94800788DF80800C7480078401C47
:103D6000C54908700120A040C0B28DF80A00A0200B
:103D70008DF80B00002016E000EB4001BF4A02EB7B
:103D800081014968BB4A52F82420114049B1691C9D
:103D90008DB200EB4001B94A12F82120E91D01ABB8
:103DA0005A54411CC8B21B28E6D305F1080086B25C
:103DB000F0B28DF80600300A8DF80700A81D81B218
:103DC0000DF1060002F05EFC074605F1080001AAAD
:103DD0001754390A401C1154A521401C1154401C91
:103DE0001154301D82B201A9002018F00FFB0120F0
:103DF000A3490870002514F0C8FD0025A14850F81B
:103E00002400002853D09C4800788DF808009A4878
:103E10000078401C984908700120A040C0B28DF87D
:103E20000A0083208DF80B00002016E000EB400113
:103E3000954A02EB81014968924A52F824201140C8
:103E400049B1691C8DB200EB40018F4A12F8212064
:103E5000E91D01AB5A54411CC8B20C28E6D305F148
:103E6000080086B2F0B28DF80600300A8DF807001F
:103E7000A81D81B20DF1060002F004FC074605F111
:103E8000080001AA1754390A401C1154A521401CEE
:103E90001154401C1154301D82B201A9002018F0A9
:103EA000B5FA012076490870002514F06EFD601CFB
:103EB000C4B2082CFFF648AF45F65B307349088062
:103EC000092048800020087148710F208871A120C6
:103ED000C87100200872A1F809004AF2A550A1F8A3
:103EE0000B006B48B0F80280B0F80490B8F1000FF6
:103EF00002D0084680798871B9F1000F03D0634879
:103F000080796249887162480078012807D00228C8
:103F100057D00B2802D016287ED151E000BF0024D4
:103F20004BE05C4800EB8400408800EA0800E8B100
:103F300000220321FF200BF0B7FC564810F82400A4
:103F4000524908724C48007808714B480078401C70
:103F50004949087007214D48801C02F093FB4B49EA
:103F6000A1F809000D22002018F050FA494800EB92
:103F70008400408800EA0900E8B100220321FF2004
:103F80000BF092FC434810F82400404908723A486C
:103F90000078087138480078401C374908700721BC
:103FA0003A48801C02F06EFB3849A1F809000D2246
:103FB000002018F02BFA601CC4B2082CB1DB54E0CE
:103FC00000BF00244DE0344800EB8400408800EA44
:103FD0000800E8B100220321FF200BF065FC2E4809
:103FE00010F82400294908722348007808712248F3
:103FF0000078401C2049087007212448801C02F0EA
:1040000041FB2249A1F809000D22002018F0FEF919
:10401000214800EB840000E026E0408800EA090027
:10402000E8B100220321FF200BF03EFC1A4810F8F3
:104030002400164908721048007808710E4800786C
:10404000401C0D49087007211048801C02F01AFB23
:104050000E49A1F809000D22002018F0D7F9601CC4
:10406000C4B20B2CAFDB00E000BF00BF0DF2044D6B
:10407000BDE8F0830042012000D2002000D00020E3
:10408000FCCF00202042012044D100200043012029
:1040900038CF002006D200202AD200201AE14FF0AB
:1040A000FF318D48006817F09FFF00287ED145F64C
:1040B0005B308A49088009204880002008714871D7
:1040C0008871A120C87100200872A1F809004AF285
:1040D000A550A1F80B008248408D8149498800EA2B
:1040E00001057F48808D7E49898800EA01061DB15F
:1040F0007A488079794988711EB178488079774902
:10410000887177480078012807D0022872D00B28E0
:1041100002D016286CD16CE000BF00244BE071483F
:1041200000EB840040882840E8B100220321FF20F2
:104130000BF0BAFB6B4810F82400684908726A4813
:104140000078087168480078401C674908700721AA
:104150006248801C02F096FA6049A1F809000D221D
:10416000002018F053F95F4800EB8400408830408D
:10417000F8B100220321FF200BF096FB594810F8FC
:10418000240056490872584800780871564800784B
:10419000401C5549087007215048801C02F072FAF3
:1041A0004E49A1F809000D22002000E08CE018F033
:1041B0002DF9601CC4B2082CB1DB05F0080006F034
:1041C0000801084390B100220121FF200BF06CFB95
:1041D000002009E0454951F8201041F40071434A9C
:1041E00042F82010411CC8B20828F3DB6BE001E064
:1041F00068E000BF002449E03D4800EB84004088AF
:104200002840E8B100220321FF200BF04DFB384885
:1042100010F8240031490872334800780871324898
:104220000078401C3049087007212C48801C02F09F
:1042300029FA2A49A1F809000D22002018F0E6F811
:104240002B4800EB840040883040E8B10022032175
:10425000FF200BF029FB264810F824001F490872A4
:1042600021480078087120480078401C1E490870D9
:1042700007211A48801C02F005FA1849A1F8090024
:104280000D22002018F0C2F8601CC4B20B2CB3DB66
:1042900005F4804006F48041084390B100220121DA
:1042A000FF200BF001FB002009E0104951F820101D
:1042B00041F400710D4A42F82010411CC8B2082890
:1042C000F3DB00E000BF00BF0AA013F065FE012091
:1042D00016F048FFE3E600003CCE0020004301203A
:1042E00038CF002006D2002000D20020004201205A
:1042F0002AD2002061636463207461736B20697348
:104300002072756E6E696E67210000002DE01748FF
:10431000007838BB1648007820BB164880780828FB
:104320000FD11448C0782A280BD1134800780128EF
:1043300018D10020104908700DF056FAFEF72CFF36
:1043400010E00C48807808280CD10A48C078292849
:1043500008D109480078012804D1002006490870D6
:104360000DF042FA642016F0FDFED0E7D4D1002013
:1043700008CE002005CF0020D4CF0020ADF5015D90
:10438000002656E1AB48007810B10020A94908701A
:10439000A94890ED000AF2EE000AB4EE600AF1EED0
:1043A00010FA07D0B2EE000A80ED000A90ED000A84
:1043B000FDF710FB40F219164FF4005110A8FCF75E
:1043C0005CFB002400256DE005EB850202EB851205
:1043D0009A4BD11810AA10194522FCF735FB453429
:1043E00005EB850202EB8513954A991810AA10195E
:1043F0004522FCF729FB453405EB850202EB8512CB
:10440000904BD11810AA10194522FCF71DFB45341A
:1044100005EB4502C2EB85128B4BD11810AA10197F
:104420003D22FCF711FB3D3410A8011905EB4502B4
:10443000864800EB820002680A6042684A60806831
:1044400088600C3410A88249495D0155641C05EB55
:1044500045017E4810F8210002281BD005EB4501DC
:104460007A4810F82100062814D005EB450177485A
:1044700010F8210004280DD005EB4501734810F811
:104480002100052806D005EB4501704810F82100F1
:10449000012803D101206F49485502E000206D49F1
:1044A00048556D1C082D8FDB01210F9101220FA9AA
:1044B00050030AF00DFF052016F054FE002516E00B
:1044C0006448405D01280ED1002062494855B2B2CF
:1044D00010AB06FB053106FB05F00AF0F9FEFA20E9
:1044E00016F040FE02E0FA2016F03CFE6D1C082D8E
:1044F000E6DB4FF4805110A8FCF7BFFA002400253A
:104500006DE005EB850202EB85124C4BD11810AA29
:1045100010194522FCF798FA453405EB850202EBA9
:104520008513474A991810AA10194522FCF78CFAEE
:10453000453405EB850202EB8512424BD11810AAD7
:1045400010194522FCF780FA453405EB4502C2EB11
:1045500085123D4BD11810AA10193D22FCF774FAB0
:104560003D3410A8011905EB4502384800EB8200E4
:1045700002680A6042684A60806888600C3410A84B
:104580003349495D0155641C05EB45012F4810F87E
:10459000210002281BD005EB45012C4810F8210012
:1045A000062814D005EB4501284810F821000428FE
:1045B0000DD005EB4501254810F82100052806D04F
:1045C00005EB4501214810F82100012803D1012005
:1045D0002049485502E000201E4948556D1C082D11
:1045E0008FDB02210F9101220FA950030AF070FE08
:1045F000052016F0B7FD002518E01648405D01289B
:1046000010D1002013494855B2B210AB06FB05315A
:1046100006FB05F303F580500AF05AFEFA2016F067
:10462000A1FD02E0FA2016F09DFD6D1C082DE4DBD3
:1046300000BFA7E6D4D10020D8D10020186D0120FA
:10464000C8680120F06A0120406F012048710120F4
:104650005FD20020E4D1002000BF15F0D5F859E06A
:104660002D48007801280DD12C480078012806D16A
:1046700015F0CAF800202A490870284908700FF080
:104680009FFF22E02448007802280DD123480078BB
:10469000012806D115F0B8F80020214908701F49FB
:1046A000087010F061F810E01E48007810B90FF0A3
:1046B00087FF0AE01A480078022804D115F0A4F810
:1046C00000201749087010F04FF817480078F0B92B
:1046D000144840684EF66021884218D91348007883
:1046E000A8B913480078662811D1124880780828A4
:1046F00003D11048C078292809D000200949486012
:10470000012008720870002015F0D2FDA5E70520F1
:1047100016F028FDA4E700008ED200208FD20020E2
:1047200075D20020F441012058D20020D8CF0020BB
:104730009CCF002005CF00200024002524E0134852
:104740000078012803D10020104908700024052CAE
:1047500008DA0F48007828B920460AF08FFA601C62
:10476000C4B202E005240AF0D3FA0AF06BF901F0B2
:1047700029F9322D02DA681CC5B202E000F0A6FD6C
:104780000025142016F0EEFCD9E700009CD2002092
:10479000FDCF0020ADF5806D00254FF480616846A7
:1047A000FCF76BF95B208DF800008DF80100092003
:1047B0008DF8020000208DF803008DF804008DF8BC
:1047C00005008DF806002AE14FF0FF31944800689B
:1047D00017F00AFC00287DD19248007800287AD191
:1047E0000024DBE0904850F82400002865D08E4873
:1047F00050F824008D4951F8241088425DD00022E1
:10480000012120460AF0B0FF874850F8240087496C
:1048100041F82400864800788DF804008448007828
:10482000401C834908700120A040C0B28DF80600EA
:10483000A0208DF80700002016E000EB40017D4A23
:1048400002EB81014968784A52F82420114049B1AD
:10485000691C8DB200EB4001764A12F82120E91D57
:104860000DF80120411CC8B21B28E6D305F1080051
:1048700086B2F0B28DF80200300A8DF80300A81D50
:1048800081B20DF1020001F0FDFE0746F9B205F11B
:1048900008000DF80010390A401C0DF80010A52181
:1048A000401C0DF80010401C0DF80010301D82B2A5
:1048B0006946002017F0AAFD002500255E4850F843
:1048C0002400002868D05C4850F824005B4951F867
:1048D000241001E0A0E065E088425DD0002211468E
:1048E00020460AF041FF544850F82400534941F84B
:1048F00024004F4800788DF804004D480078401C93
:104900004B4908700120A040C0B28DF806008320FA
:104910008DF80700002016E000EB4001484A02EB4A
:1049200081014968444A52F82420114049B1691C68
:104930008DB200EB4001424A12F82120E91D0DF82A
:104940000120411CC8B20C28E6D305F1080086B24C
:10495000F0B28DF80200300A8DF80300A81D81B274
:104960000DF1020001F08EFE0746F9B205F10800D4
:104970000DF80010390A401C0DF80010A521401C4C
:104980000DF80010401C0DF80010301D82B2694671
:10499000002017F03BFD0025601CC4B2082CFFF678
:1049A00021AF36E000201F49087000242FE01E4888
:1049B00050F8240090B11C4850F824001B4951F8CD
:1049C000241088420AD00022012120460AF0CCFEA1
:1049D000154850F82400154941F82400164850F8AD
:1049E000240090B1144850F82400144951F82410C0
:1049F00088420AD00022114620460AF0B5FE0E4831
:104A000050F824000D4941F82400601CC4B2082C61
:104A1000CDDB1D2007F082F8012016F0A3FBD3E6C2
:104A200040CE0020FCCF0020004201204042012067
:104A300000D2002000D0002020420120604201204E
:104A400044D10020ADF5016DA5E04FF0FF31524893
:104A5000006817F0C9FA0028F6D14FF4006104A8E5
:104A6000FCF70BF800244D48B0F8001804A80BF030
:104A700047F978E000200390029001904748B0F891
:104A8000001804F10A00814209DA444AB2F8002809
:104A9000121B91B204AA101913F004FA68E004A8DA
:104AA00020440088039004A9A01C084400880190B9
:104AB000BDF80C0045F65A21884202D0A01C84B2F1
:104AC00051E0BDF804002044001D3449B1F800183D
:104AD000884209DD314AB2F80028121B91B204AABB
:104AE000101913F0DFF943E0BDF804002044801CE6
:104AF00004A9084400880290BDF808004AF2A551B4
:104B0000884202D0A01C84B22DE0BDF80400001D34
:104B10002349088004A80119214802882148FBF78D
:104B200093FF1F480088204484B21F4B1F4A1C4833
:104B300001881C480AF08CFF1D48007890B900BF1E
:104B4000194802881949002017F060FC0028F7D0A6
:104B500018480078022805D141F2883013F015FF7B
:104B600013F05AFA00BF0D48B0F80008A04281DCEB
:104B700000BF0A48B0F80008A04207DB0748B0F8B9
:104B80000008001B0549A1F8000803E000200349C4
:104B9000A1F8000800BF58E744CE0020C808012053
:104BA0005CD20020104701205AD20020104301207F
:104BB0006FD2002058D200201CB50020019007F0D1
:104BC00011FC14F015F8012247F6F27101A815F056
:104BD00051FE9DF8040001280BD1042247F6F37121
:104BE000FE4815F047FE022247F6F771FC4815F023
:104BF00041FE08F0B7FCFB488078082807D1F94847
:104C0000C0782A2807D0F748C078292803D0F6486A
:104C10000078662803D00120F449087002E00020E3
:104C2000F2490870FE2101200BF05AF8F049087093
:104C300000F0A2FBEF4A0021012017F017FAEE491D
:104C40000860EE4A0021EE4817F062FAED4908606C
:104C5000ED4A0021ED4817F05BFAED490860ED4898
:104C6000007840B3132014F075FE00240DE04FF4DB
:104C7000FA7013F08AFE132014F0F6FE142014F0DC
:104C8000F3FE04F075FE601CC4B2142CEFDB13209D
:104C900014F0CEFD142014F0CBFD13F0E3FF32200E
:104CA00013F073FE08F018FDFCF77CFDDA4908707C
:104CB0000020D8490870D948008800F4004098B90D
:104CC000D648006800F4803070B9D448006800F419
:104CD000003048B9D148008800F4006020B9CF48BE
:104CE000008800F4805010B10120CD49087018F000
:104CF000A3FC0BF0AFFC0120CA49C8700020009053
:104D00000122694650030AF075FA0822C64942F2A8
:104D100010000AF06FFA9DF80000012859D1050330
:104D2000002453E0C048005D01284ED104EB84000C
:104D300000EB8410BD4A8118452228460AF05AFA31
:104D4000453504EB840000EB8412B9481118452264
:104D500028460AF04FFA453504EB840000EB841036
:104D6000B44A8118452228460AF044FA453504EB36
:104D70004400C0EB8410B04A81183D2228460AF056
:104D800039FA3D3504EB4402AC4800EB82010C22B9
:104D900028460AF02FFA0C35A948011901222846A5
:104DA0000AF028FA6D1C04EB4401A44810F8210015
:104DB000062804D10120A3490855A349085501211B
:104DC00004EB44029D4800F82210641C082CA9DB67
:104DD0005DE09DF80000022859D10025002453E031
:104DE0009148005D01284ED104EB840000EB841053
:104DF0008E4A8118452228460AF0FCF9453504EB15
:104E0000840000EB84128A481118452228460AF0D3
:104E1000F1F9453504EB840000EB8410854A8118D4
:104E2000452228460AF0E6F9453504EB4400C0EB7C
:104E30008410814A81183D2228460AF0DBF93D356D
:104E400004EB44027D4800EB82010C2228460AF064
:104E5000D1F90C357A480119012228460AF0CAF91D
:104E60006D1C04EB4401754810F82100062804D19C
:104E700001207449085574490855012104EB440286
:104E80006E4800F82210641C082CA9DB00BF03F058
:104E900011FC6E4A0021012017F0E8F86C49086007
:104EA0006C4A0021012017F0E1F86B4908606B4A59
:104EB0000021012017F0DAF869490860694A1021D9
:104EC000084616F037FA6849086002F081FC51483C
:104ED000007828B9002301221921644815F088F8C8
:104EE000F7E040488078082807D13E48C0782A2853
:104EF00007D03C48C078292803D03B480078662872
:104F000003D001203949087002E0002037490870B9
:104F1000574890ED000ADFED570A60EE200A564828
:104F2000006800EE100AB8EE400AF4EEC00AF1EE96
:104F300010FA25D251480078012821D15048007834
:104F4000F0B901204C490860002403E0012016F06C
:104F500009F9641C082CF9DB00200FE04949095CC1
:104F6000012903D10221474A115406E04549095C51
:104F7000022902D10321434A1154401C0828EDDBC9
:104F800041480068401C40490860404800780128BA
:104F900023D108460068B0F5FA5F7BD9002008608D
:104FA00002203A49087000247BE004EB44012348C6
:104FB00010F8210080B104EB4401204810F82100D2
:104FC00003286DD001203249085516F0CBF8E0B225
:104FD00000F022FC01215EE062E065E09ECE002050
:104FE000A2CE002005CF00209CCF0020FDCF0020C6
:104FF00000D2002094DE030844CE0020A0DD030888
:105000005946020824CE00200CDE0308454A020857
:1050100030CE002008CE002038CF002000420120F2
:1050200050CE002070D20020DCD10020186D01206D
:10503000C8680120F06A0120406F012048710120FA
:105040005FD2002009D3002051CE002054DE030897
:1050500038CE002074DE03083CCE002084DE030836
:1050600040CE0020B4DE03084CCE002000040040F7
:1050700098D2002000007A440CCE00209DCE002063
:1050800058D2002067D2002010CE002075D2002018
:1050900077D2002014E004EB44020E4800F82210FE
:1050A000641C082C81DB0BE00B48007840B90B48EE
:1050B0000078012804D108490870002008490860D8
:1050C00008480078662801D00AF006FC012016F096
:1050D00049F806E74871012075D200209DCE0020D6
:1050E00010CE00209CCF0020002572E011F0F4FAD1
:1050F00010F0CEFD01F06AF8002460E06100354850
:105100000088084100F00300012815D16100032048
:1051100088403049098808432E4908800121A14070
:10512000C8B201F099FD610003208840294909882F
:105130008143284801802AE0610026480088084110
:1051400000F00300022822D1610003208840214999
:10515000098808431F4908801F4BD3F8063000EE2A
:10516000903A1D4BD3F8023000EE103A1B4B1A5DFB
:10517000194B59780123A340D8B201F0E7FD610033
:10518000032088401349098881431248018014484C
:10519000005D01280FD1134850F82400401C11492C
:1051A00041F82400B0F5FA6F05D900200C490855E4
:1051B0000C4941F82400E0B211F038FE641C082CC0
:1051C0009CDB142D01DA6D1C00E00025012015F098
:1051D000C9FF8BE788D200200877012011CF00207B
:1051E000D0D2002008880120354991ED680A00EBF3
:1051F0008001344A02EBC10181ED000A304991ED92
:10520000690A00EB800102EBC10181ED010A2C4922
:10521000E43991ED060A00EB800102EBC10181ED5A
:10522000020A2749E43991ED0B0A00EB800102EBF9
:10523000C10181ED030A2249E43991ED100A00EB26
:10524000800102EBC10181ED040A1D49E43991EDB1
:10525000150A00EB800102EBC10181ED050A184936
:10526000E43991ED1A0A00EB800102EBC10181EDF6
:10527000060A1349E43991ED1F0A00EB800102EBA5
:10528000C10181ED070A0E49E43991ED240A00EBD2
:10529000800102EBC10181ED080A0949E43991ED71
:1052A000290A00EB800102EBC10181ED090A01210D
:1052B0008140054A12781143034A1170704700007B
:1052C000EC770120B479012074D2002010B58EB0A3
:1052D000342101A8FBF7D1FB00200090002443E01B
:1052E0000120A04022490978084000283AD0342102
:1052F00001A8FBF7C2FB5A208DF804008DF80500C9
:105300002F208DF8060000208DF807008DF808008A
:105310008DF80900FF208DF80A0004EB8400154A7F
:1053200002EBC00128220DF10B00FBF78DFB2F21B2
:105330000DF1060001F0A6F90090BDF80000ADF8EF
:105340003300A5208DF835008DF83600332201A9F1
:10535000002017F05BF80120A0400549097881433F
:1053600003480170601CC4B2072CB9DB0EB010BD3D
:1053700074D20020B47901202DE9F0438FB00020D1
:105380000E90342101A8FBF778FB002000908146A5
:105390000026012247F6F9710EA815F06BFA9DF868
:1053A0003800012878D1032247F6FA71554815F0E4
:1053B00061FA012247F6F171684615F05BFA9DF833
:1053C0000000322869DA9DF8000047F6F072101AE2
:1053D000411C9DF8002001A815F04CFA9DF804002E
:1053E0004A2815D19DF805004E2811D100200CE067
:1053F000011D01AA515C392903DC011D515C3029D2
:1054000001DA012603E0411CC8B20828F0DB00E005
:105410000126002E5DD19DF8090030389DF8081056
:10542000303901EB810100EB4100C4B29DF80B0063
:1054300030389DF80A10303901EB810100EB410052
:10544000C5B2152C05DB0C2D03DC152C02D10A2D61
:1054500000DA0126DEBB9DF80C0030384FF47A717B
:1054600010FB01F19DF80D00303800EBC00202EB9B
:10547000001001EB80019DF80E00303800EB800039
:1054800001EB40019DF80F003038084487B2152C1D
:1054900004D1A5F10A0008E02FE019E0A4F11600FC
:1054A00000EB400005EB8000801C1FFA80F81548D7
:1054B000007800041349497800EB012011498978EC
:1054C00000EB010907EB8830484502D0012600E0D7
:1054D000012696B100200B4908704870887000BF03
:1054E00009E0094951F8201041F00071064A42F8DC
:1054F0002010411CC8B20828F3DB30460FB0BDE8CD
:10550000F08300009ACE0020004201202DE9F04FE8
:105510002DED048B87B0824688469146F0EE408A96
:10552000B0EE608A5446082C06DB4FF0FF3007B01F
:10553000BDEC048BBDE8F08FAE48005D4FEA101B58
:10554000AC48005D00F00F000690082090FBFBF0D7
:10555000C6B20698401E10FB06F0C5B20027002018
:105560000290039004900590A348005DA34908555C
:105570000120A1490855A148005D095D884206D077
:1055800001209F49085500209E4941F8240000EE63
:10559000106AB8EE400AB4EEC08AF1EE10FA01DDEE
:1055A000374600E0012798480770002412E034B91C
:1055B0002919964A505C052101F02CFD05E02919B6
:1055C000924A505C062101F025FD0A2015F0CAFD23
:1055D000601CC4B2B442EADB002412E034B92919D9
:1055E0008A4A505C052101F015FD05E02919874A1A
:1055F000505C062101F00EFD0A2015F0B3FD601C81
:10560000C4B2B442EADB002416E0B8F1000F05D1C1
:1056100029197E4A505C022101F0FCFCB8F1010F0F
:1056200005D12919794A505C012101F0F3FC0A20C7
:1056300015F098FD601CC4B2B442E6DB002416E00D
:10564000B8F1000F05D12919704A505C022101F010
:10565000E1FCB8F1010F05D129196C4A505C012118
:1056600001F0D8FC0A2015F07DFD601CC4B2B442E4
:10567000E6DB002416E0B9F1000F05D12919634AD1
:10568000505C0A2101F0C6FCB9F1010F05D12919BE
:105690005E4A505C092101F0BDFC0A2015F062FD54
:1056A000601CC4B2B442E6DB002416E0B9F1000F7E
:1056B00005D12919554A505C0A2101F0ABFCB9F11A
:1056C000010F05D12919514A505C092101F0A2FCB2
:1056D0000A2015F047FD601CC4B2B442E6DB00248A
:1056E00024E005EB040C0DF1080E0EEB4C0305EB6A
:1056F000040CDFF81CE11EF80C2005EB040CDFF8AD
:1057000014E11EF80C1005EB040C0CF0FF00B0EED9
:10571000680A0EF027FE2A1902AB33F812102A1974
:10572000D0B2002202F06CFA601CC4B2B442D8DBE2
:1057300000240AE02919354A505C072101F06AFC6F
:105740000A2015F00FFD601CC4B2BC42F2DB00243D
:105750000AE029192D4A505C072101F05BFC0A2060
:1057600015F000FD601CC4B2BC42F2DB002413E063
:10577000002001902919254A505C042101F04AFCBF
:105780000A2015F0EFFC2A192049885C042101F059
:1057900085FE0190601CC4B2BC42E9DB002413E02A
:1057A000002001902919194A505C042101F032FCB3
:1057B0000A2015F0D7FC2919144A505C042101F085
:1057C0006DFE0190601CC4B2BC42E9DB544600EEA1
:1057D000107AB8EE400AC8EE000AB0EE609AB0EE59
:1057E000490A204602F0AAF8012015F0BBFC00206F
:1057F0009DE60000F9D20020C0D20020C8D20020CF
:10580000D0D2002008880120F8D2002019CF002033
:1058100011CF002009CF00202DE9F04707463C4674
:10582000082C03DB4FF0FF30BDE8F08739480078E3
:1058300000286CD13848005D4FEA10183648005DEA
:1058400000F00F09082090FBF8F0C5B2A9F10100A3
:1058500010FB05F0C6B23148005D31490855002003
:105860002E4908552E48005D095D88420AD0012066
:105870002C49085500202C4941F824002B49085593
:105880002B4908559FED2B0A204602F057F80520BA
:1058900015F068FC00240AE03119274A505C032106
:1058A00001F0B8FB052015F05DFC601CC4B2AC42F1
:1058B000F2DB00240AE031191F4A505C032101F099
:1058C000A9FB052015F04EFC601CC4B2AC42F2DB13
:1058D00000240AE03119184A505C082101F09AFBB3
:1058E000052015F03FFC601CC4B2AC42F2DB002482
:1058F0000AE03119104A505C082101F08BFB0520A9
:1059000015F030FC601CC4B2AC42F2DB00BF0020DA
:105910008AE70000FDCF0020F9D20020C0D200208D
:10592000C8D20020D0D200200888012067D20020F1
:10593000F0D200200000000019CF00207EB5044600
:1059400000200025029501950095A02501951D8850
:105950009DF80460AE541D886D1C1D80184D2D8867
:10596000655D02959DF80850012D03DB9DF80850F8
:10597000042D11DD0820012500951D889DF8086083
:10598000AE541D886D1C1D801D889DF80060AE54AE
:105990001D886D1C1D807EBD9DF80850012D06D010
:1059A000022D05D0032D04D0042D04D102E003E024
:1059B00002E001E000E000BF00BF00BFEBE7000035
:1059C00092D2002010B5164804781648007800B12D
:1059D00010BD1348807828281FDA04EBC40000EBC0
:1059E00044130F48001D30F8132004EBC40000EBF3
:1059F00044130B48001D00EB4300811C002016F0EF
:105A000005FD272C02DA601CC4B200E00024044823
:105A100004708078401C0249887000BFD8E70000FD
:105A2000F47A0120A5CE002000BFFEE770B52DED71
:105A3000048B82B08E4805F0FDF8002500246B46EB
:105A40008C4A00218A4805F01CF8064689484568BA
:105A5000E6B989480078012818D188482840884943
:105A6000884213D1C5F30741280E61F31F20C5F307
:105A7000072100EB014000EB056582480560DDE988
:105A800000124160826001207E490873002E7DD1A2
:105A9000794800780028FAD17B4828407B49884221
:105AA000F5D19DF80000F028F1D1C5F3072010B121
:105AB000012804D101E0002402E0012400E000BF3D
:105AC00000BF9DF8010059284ED006DC372809D0C8
:105AD00053280FD054287BD129E062287AD063283C
