:020000040002F8
:10000000E8A0FF1F710902008D470300C5E502004B
:10001000DF4603009D6502007FA70300000000008B
:100020000000000000000000000000009509020030
:1000300059AB0200000000002D0A02003D0A020038
:1000400001E9020011E9020021E9020031E90200A0
:1000500041E9020051E9020061E9020071E9020090
:1000600081E9020091E90200A1E90200B1E9020080
:10007000C1E90200D1E90200E1E90200F1E9020070
:1000800001EA020011EA020021EA020031EA02005C
:1000900041EA020051EA020061EA020071EA02004C
:1000A00081EA020091EA0200A1EA0200B1EA02003C
:1000B000C1EA0200D1EA0200E1EA0200F1EA02002C
:1000C00001EB020011EB020021EB020031EB020018
:1000D00041EB020051EB020061EB020071EB020008
:1000E00081EB020091EB0200A1EB0200B1EB0200F8
:1000F000C1EB0200D1EB0200E1EB0200F1EB0200E8
:1001000001EC020011EC020021EC020031EC0200D3
:1001100041EC020051EC020061EC020071EC0200C3
:1001200081EC020091EC0200A1EC0200B1EC0200B3
:10013000C1EC0200D1EC0200E1EC0200F1EC0200A3
:1001400001ED020011ED020021ED020031ED02008F
:1001500041ED020051ED020061ED020071ED02007F
:1001600081ED020091ED0200A1ED0200B1ED02006F
:10017000C1ED0200D1ED0200E1ED0200F1ED02005F
:1001800001EE020011EE020021EE020031EE02004B
:1001900041EE020051EE020061EE020071EE02003B
:1001A00081EE020091EE0200A1EE0200B1EE02002B
:1001B000C1EE0200D1EE0200E1EE0200F1EE02001B
:1001C00001EF020011EF020021EF020031EF020007
:1001D00041EF020051EF020061EF020071EF0200F7
:1001E00081EF020091EF0200A1EF0200B1EF0200E7
:1001F000C1EF0200D1EF0200E1EF0200F1EF0200D7
:1002000001F0020011F0020021F0020031F00200C2
:1002100041F0020051F0020061F0020071F00200B2
:1002200081F0020091F00200A1F00200B1F00200A2
:10023000C1F00200D1F00200E1F00200F1F0020092
:1002400001F1020051F202003DF70200F1FB020051
:1002500049FF0200F102030079060300B50803001C
:10026000C50C0300D5100300151403009D190300ED
:10027000811E03000D220300812503001D280300B9
:10028000DFF80CD000F092FF004800474B1202004C
:10029000E8A0FF1F0246D2E84F0FC2E8431F03B198
:1002A000F9E77047024652E8000F40EA010042E8D1
:1002B000000303B1F7E7704710B5024652E8000F9C
:1002C00020EA010442E8004303B1F7E710BD10B58E
:1002D000024652E8000F00EA01048C4203D0BFF34B
:1002E0002F8F002010BD20EA010442E8004303B133
:1002F000EFE710BD10B5024652E8000F084203D1E7
:10030000BFF32F8F002010BD20EA010442E8004314
:1003100003B1F1E710BD024652E8000F411C42E86C
:10032000001303B1F8E7704710B50246D2E85F0F3B
:10033000814202D8BFF32F8F10BD441CC2E8534F37
:1003400003B1F3E710BD10B50246D2E85F0F441CBD
:10035000A14200D80024C2E8534F03B1F5E710BD15
:10036000024652E8000F411E42E8001303B1F8E7CD
:100370007047024652E8000F10B9BFF32F8F704745
:10038000411E42E8001303B1F4E770470246D2E889
:100390005F0F10B9BFF32F8F7047411EC2E8531F84
:1003A00003B1F4E77047024652E8000F10B9BFF3FB
:1003B0002F8F7047016842E8001303B1F4E77047DC
:1003C00002680A60BFF35F8F50E8002F0B6893420A
:1003D000F6D140E8001303B1F2E770470246D2E8D5
:1003E0004F0FC2E8431F03B1F9E77047024652E8D6
:1003F000000F40EA010042E8000303B1F7E770474D
:1004000010B5024652E8000F20EA010442E800431A
:1004100003B1F7E710BD10B5024652E8000F00EA3D
:1004200001048C4203D0BFF32F8F002010BD20EABF
:10043000010442E8004303B1EFE710BD10B50246E6
:1004400052E8000F084203D1BFF32F8F002010BDE8
:1004500020EA010442E8004303B1F1E710BD02467F
:1004600052E8000F411C42E8001303B1F8E770475F
:1004700010B50246D2E85F0F814202D8BFF32F8F3A
:1004800010BD441CC2E8534F03B1F3E710BD10B5D3
:100490000246D2E85F0F441CA14200D80024C2E803
:1004A000534F03B1F5E710BD024652E8000F411E5D
:1004B00042E8001303B1F8E77047024652E8000F24
:1004C00010B9BFF32F8F7047411E42E8001303B1EC
:1004D000F4E770470246D2E85F0F10B9BFF32F8FE1
:1004E0007047411EC2E8531F03B1F4E7704702464C
:1004F00052E8000F10B9BFF32F8F7047016842E830
:10050000001303B1F4E7704702680A60BFF35F8F1E
:1005100050E8002F0B689342F6D140E8001303B176
:10052000F2E770470246D2E84F0FC2E8431F03B11B
:10053000F9E77047024652E8000F40EA010042E83E
:10054000000303B1F7E7704710B5024652E8000F09
:1005500020EA010442E8004303B1F7E710BD10B5FB
:10056000024652E8000F00EA01048C4203D0BFF3B8
:100570002F8F002010BD20EA010442E8004303B1A0
:10058000EFE710BD10B5024652E8000F084203D154
:10059000BFF32F8F002010BD20EA010442E8004382
:1005A00003B1F1E710BD024652E8000F411C42E8DA
:1005B000001303B1F8E7704710B50246D2E85F0FA9
:1005C000814202D8BFF32F8F10BD441CC2E8534FA5
:1005D00003B1F3E710BD10B50246D2E85F0F441C2B
:1005E000A14200D80024C2E8534F03B1F5E710BD83
:1005F000024652E8000F411E42E8001303B1F8E73B
:100600007047024652E8000F10B9BFF32F8F7047B2
:10061000411E42E8001303B1F4E770470246D2E8F6
:100620005F0F10B9BFF32F8F7047411EC2E8531FF1
:1006300003B1F4E77047024652E8000F10B9BFF368
:100640002F8F7047016842E8001303B1F4E7704749
:1006500002680A60BFF35F8F50E8002F0B68934277
:10066000F6D140E8001303B1F2E770470246D2E842
:100670004F0FC2E8431F03B1F9E77047024652E843
:10068000000F40EA010042E8000303B1F7E77047BA
:1006900010B5024652E8000F20EA010442E8004388
:1006A00003B1F7E710BD10B5024652E8000F00EAAB
:1006B00001048C4203D0BFF32F8F002010BD20EA2D
:1006C000010442E8004303B1EFE710BD10B5024654
:1006D00052E8000F084203D1BFF32F8F002010BD56
:1006E00020EA010442E8004303B1F1E710BD0246ED
:1006F00052E8000F411C42E8001303B1F8E77047CD
:1007000010B50246D2E85F0F814202D8BFF32F8FA7
:1007100010BD441CC2E8534F03B1F3E710BD10B540
:100720000246D2E85F0F441CA14200D80024C2E870
:10073000534F03B1F5E710BD024652E8000F411ECA
:1007400042E8001303B1F8E77047024652E8000F91
:1007500010B9BFF32F8F7047411E42E8001303B159
:10076000F4E770470246D2E85F0F10B9BFF32F8F4E
:100770007047411EC2E8531F03B1F4E770470246B9
:1007800052E8000F10B9BFF32F8F7047016842E89D
:10079000001303B1F4E7704702680A60BFF35F8F8C
:1007A00050E8002F0B689342F6D140E8001303B1E4
:1007B000F2E770470246D2E84F0FC2E8431F03B189
:1007C000F9E77047024652E8000F40EA010042E8AC
:1007D000000303B1F7E7704710B5024652E8000F77
:1007E00020EA010442E8004303B1F7E710BD10B569
:1007F000024652E8000F00EA01048C4203D0BFF326
:100800002F8F002010BD20EA010442E8004303B10D
:10081000EFE710BD10B5024652E8000F084203D1C1
:10082000BFF32F8F002010BD20EA010442E80043EF
:1008300003B1F1E710BD024652E8000F411C42E847
:10084000001303B1F8E7704710B50246D2E85F0F16
:10085000814202D8BFF32F8F10BD441CC2E8534F12
:1008600003B1F3E710BD10B50246D2E85F0F441C98
:10087000A14200D80024C2E8534F03B1F5E710BDF0
:10088000024652E8000F411E42E8001303B1F8E7A8
:100890007047024652E8000F10B9BFF32F8F704720
:1008A000411E42E8001303B1F4E770470246D2E864
:1008B0005F0F10B9BFF32F8F7047411EC2E8531F5F
:1008C00003B1F4E77047024652E8000F10B9BFF3D6
:1008D0002F8F7047016842E8001303B1F4E77047B7
:1008E00002680A60BFF35F8F50E8002F0B689342E5
:1008F000F6D140E8001303B1F2E770470246D2E8B0
:100900004F0F411CC2E8431F03B1F8E7704702468E
:1009100052E8000F411C42E8001303B1F8E77047AA
:10092000024652E8000F42E8001303B1F9E77047AE
:10093000024652E8000F830103D3BFF32F8F00203C
:10094000704700F00040084342E8000303B1F0E7BD
:100950007047024652E8000F800103D2BFF32F8F89
:100960000020704742E8001303B1F3E7012070470D
:100970000648804706480047FEE7FEE7FEE7FEE739
:10098000FEE7FEE7FEE7FEE7FEE7FEE7657C030025
:10099000810202001EF0040F0CBFEFF30880EFF39A
:1009A0000980816911F8021C91BB01B590E80F1014
:1009B000E047BDE800508CE80300244B93E80600B4
:1009C000914208BF704741B91EF0100F10D1204965
:1009D000086820F0010008600AE02CE9F00F1EF022
:1009E000100F08BF2CED108AC1F838C081F822E042
:1009F0001A6092F82210906B61F0FF0E1EF0100F3B
:100A000008BFB0EC108AB0E8F00F80F30988704797
:100A1000104A13689942FAD801B552F821C00FC89C
:100A2000E047BDE80050CCF80000704701B520F069
:100A3000B3FEBDE80140EFF3098CBEE701B521F03C
:100A4000C1F9BDE80140EFF3098CB6E78CFCFE1F4D
:100A500034EF00E04C3D04002DE9F05F0546002036
:100A600092469B4688460646814640241BE028461F
:100A700041464746224600F0C4F953465A46C01A3A
:100A8000914110D311461846224600F0ABF92D1AB9
:100A900067EB01084F4622460120002100F0A2F931
:100AA00017EB00094E41201EA4F10104DFDC48468B
:100AB00031462A464346BDE8F09F2DE9F041002427
:100AC000061B254671F1000605DA01240027D0EB4C
:100AD000070067EB0101161E73F1000605DA002717
:100AE000D2EB0702012567EB0303FFF7B5FF86464C
:100AF0000E4617469C46AC4204D00025D0EB050EAE
:100B000065EB010624B10020D2EB000760EB030C7B
:100B1000704631463A466346BDE8F08140EA01033B
:100B20009B0703D009E008C9121F08C0042AFAD2A3
:100B300003E011F8013B00F8013B521EF9D2704767
:100B4000D2B201E000F8012B491EFBD2704700220F
:100B5000F6E710B513460A4604461946FFF7F0FFBC
:100B6000204610BD10B5002200E0521C835C8C5C56
:100B7000A34201D1002BF8D1D8B2E1B2401A10BD86
:100B800030B504460020034600E05B1C934203D2CC
:100B9000E05CCD5C401BF8D030BD2DE9F04D81EA22
:100BA000030404F0004B21F0004514464FF0000A06
:100BB00023F0004150EA050220D054EA01021DD082
:100BC000C5F30A570246C5F31303C1F31300C1F37B
:100BD0000A5640F4801543F48013A7EB0608101B57
:100BE000D64608F2FD3873EB050002D308F1010880
:100BF00001E092185B41B8F1000F03DA00200146D2
:100C0000BDE8F08D00204FF48011064684460EE0CA
:100C1000171B73EB050705D3121B63EB0503064394
:100C20004CEA010C49084FEA300092185B4150EA47
:100C30000107EDD152EA030012D082EA040083EAF0
:100C40000501084305D0101BAB4106D20122002349
:100C500006E000224FF0004302E06FF00102531063
:100C60001AEB06004CEB085110EB0A0041EB0B01AC
:100C7000BDE8F04D00F00CB90EB5C10F80EAE07090
:100C80000844CA07002140F233438DE80E000A46AB
:100C90000B4600F00CF903B000BD0EB540F2334135
:100CA00002910021CDE900110A460B4600F0FFF841
:100CB00003B000BD0EB540F2334202920022CDE9EE
:100CC0000022134600F0F3F803B000BD20F000400E
:100CD000C20DC0F3160040F400007F2A02DA0020A3
:100CE000014670470021962A03DCC2F19602D040EB
:100CF0007047963A00F076B800F0004230F00040BD
:100D00000AD0C10D01F56071C0F3160042EA01512D
:100D1000C208400711437047002001467047000099
:100D200030B5041E71F1000404DB4FF00044404272
:100D300064EB0101141E73F1000405DB1C464FF047
:100D40000043524263EB04038B4208BF824230BD32
:100D500030B5041E71F1000404DB4FF00044404242
:100D600064EB0101141E73F1000405DB1C464FF017
:100D70000043524263EB0403994208BF904230BDE6
:100D800001F0004330B421F0004150EA010206D0E6
:100D90000A0DA2F56072C1F31301002A02DC30BC17
:100DA00000207047440F44EAC104C100E01830BC81
:100DB00000EBC25000F035B830B50B4601460020BC
:100DC0002022012409E021FA02F59D4205D303FA0D
:100DD00002F5491B04FA02F52844151EA2F101028E
:100DE000F1DC30BD202A04DB203A00FA02F10020B9
:100DF00070479140C2F1200320FA03F31943904059
:100E00007047202A04DB203A21FA02F000217047C3
:100E100021FA02F3D040C2F1200291400843194662
:100E200070470029A8BF7047401C490008BF20F048
:100E30000100704710B4B0FA80FC00FA0CF050EAE0
:100E4000010404BF10BC704749B1CCF1200421FA61
:100E500004F411FA0CF118BF012121430843A3EB5C
:100E60000C01CB1D4FEA00614FEA102042BF002069
:100E700010BC704700EBC35010440029A4BF10BC45
:100E80007047401C490008BF20F0010010BC7047AB
:100E900010B5141E73F1000408DA401C41F1000182
:100EA00092185B411A4301D120F0010010BD2DE9D9
:100EB000F04D92469B4611B1B1FA81F202E0B0FAD0
:100EC00080F220329046FFF78DFF04460F4640EA3D
:100ED0000A0041EA0B0153465A46084313D0114613
:100EE00053EA010019D0C8F140025046FFF789FFCC
:100EF00005460E46504659464246FFF773FF0843E3
:100F000005D0012004E020463946BDE8F08D0020E0
:100F1000054346EAE0762C4337430A986305E40A22
:100F2000A0EB08000022FD0A44EA47540A3002D52B
:100F300000200146E9E7010510196941DDE908458E
:100F400000196941BDE8F04DA2E72DE9FE4F80464A
:100F500081EA0300C00F0C46009021F0004123F00D
:100F60000045B8EB0200A94105D240462146904613
:100F70001C460B46024623F00040104347D0270D85
:100F8000C7F30A00C3F30A510290401A01904028A7
:100F90006BDAC3F3130040F4801B0098924620B133
:100FA0000023D2EB030A63EB0B0B01985946C0F107
:100FB00040025046FFF716FF06460D46504659467A
:100FC000019A00F005F910EB08006141002487EA5E
:100FD000115284EAE7731A4340D0009A62B3019A2F
:100FE000012A4FEA075215DC001B61EB02014FF0AA
:100FF000004202EA0752CDE90042001C41F580118F
:1010000032462B46FFF753FF03B0BDE8F08F404652
:101010002146F9E7001B61EB0201001C41F580133A
:1010200000185B412018A2F5001747EB030140EAC6
:10103000D570B6196D4111E06D084FEA360645EAE4
:10104000C0754FEA0752001B61EB0201001C41F51D
:10105000801149084FEA30000019514132462B46B1
:1010600003B0BDE8F04FFFF713BF00980122400026
:101070000023D0EB020263EBE073009821464FEAB5
:10108000E074B8EB000061EB0401E9E783F0004392
:101090005BE781F0004158E72DE9FE4F81EA030448
:1010A00004F0004421F0004100944FF0000B23F0C5
:1010B000004350EA01045ED052EA03045BD0C3F35C
:1010C0000A54C1F30A552C44A4F2F3340194A0FB52
:1010D0000254C1F3130141F48011C3F3130343F429
:1010E000801301FB024400FB034E840A970A44EA82
:1010F000815447EA8357A4FB076802958D0A05FBD4
:1011000007854FEA932C04FB0C542705029D4FEAF8
:10111000065847EA1637B5EB08056EEB070C870E45
:10112000920E47EA811742EA8312A7FB0201B6EB4F
:101130000B0164EB00042B0D43EA0C335E1844EB07
:101140001C50DA465146E7FB0201C5F313044FEA8F
:101150000B3343EA14534FEA0432019C43EA06037B
:10116000A4F10C040294009CCDE900B4FFF79FFEAB
:1011700003B0BDE8F08F00200146F9E7C1F30A5241
:10118000C1F3130140F2FF3341F480119A4202DAB5
:1011900000200146704740F233439A42A2F23342A4
:1011A00002DC5242FFF72DBEFFF71CBE064C074D76
:1011B00006E0E06840F0010394E807009847103427
:1011C000AC42F6D3FFF760F874400400944004008A
:1011D000202A06DBCB17203A41FA02F043EAE073FB
:1011E00006E041FA02F3D040C2F1200291400843E8
:1011F0001946704770B58C1810F8015B15F007039D
:1012000001D110F8013B2A1106D110F8012B03E09F
:1012100010F8016B01F8016B5B1EF9D12B0705D4A7
:101220000023521E0DD401F8013BFAE710F8013BF0
:10123000CB1A921C03E013F8015B01F8015B521E0C
:10124000F9D5A142D8D3002070BD10B516F09AFC94
:101250001FF006FF002010BD2DE9F04F85B080463D
:1012600015461C4600260020039004900027814666
:10127000029001900090E020019020889DF80410D9
:1012800041552088401C2080FE48008818F8000046
:1012900002909DF80800012803DB9DF80800032850
:1012A00015DD4FF008090120009020889DF80810F6
:1012B00041552088401C208020889DF80010415511
:1012C0002088401C2080484605B0BDE8F08F9DF87E
:1012D0000800012804D002284BD003287ED17FE2E9
:1012E000E9480078002839D10120E74908701EF04C
:1012F000F7FD1FF01DFF8246E448006820F0C2FEA3
:101300000020E3490870E348006820F015FFE24838
:10131000006820F0B7FEE148006820F0B3FEE04826
:10132000006820F0AFFE012018F034FA4A201EF0C9
:1013300031F8032018F02EFA50201EF02BF802206E
:101340001EF028F801201EF025F81FF043FF834609
:1013500058461FF007FF50461FF004FF01201EF003
:10136000BFFD20889DF8081041552088401C208032
:1013700045E2C548007801286AD1CA4800780228A9
:1013800003D0C84800781628F6D1BE4800884044EB
:1013900040780006BB4909884144897800EB014048
:1013A000B84909884144C97800EB0120B54909884A
:1013B000414409794618B3480088404450F8051F55
:1013C000039140680490082303AA3146B64806F00A
:1013D0005BF8300E1C2806D1F02000E00EE200EA97
:1013E0001640B02835D0300E1C2804D1F02000EA79
:1013F0001640A0282DD0300E1C2804D1F02000EA81
:101400001640D02825D00020A849087000E000BF71
:10141000A748007B0028FAD020889DF80810415585
:101420002088401C208020882844A1490968016048
:101430002088001D2080208828449D494A68026039
:10144000896841602088083020800020984908730E
:101450007EE0300E1C2839D1F02000EA1640A0288A
:1014600034D100209149087008E0781C87B201202F
:101470001EF036FD8E48007B00B102E0B7F5FA5F42
:10148000F3DB00BFB7F5FA5F1CDA20889DF808107F
:1014900041552088401C20802088284484490968C0
:1014A00001602088001D20802088284480494A68E7
:1014B00002608968416020880830208000207C49D3
:1014C000087345E001207949087041E0300E1C287E
:1014D0003BD1F02000EA1640D02836D100207349D5
:1014E000087008E0781C87B201201EF0F9FC7048F3
:1014F000007B00B103E040F6B8308742F2DB00BF6A
:1015000040F6B83087421CDA20889DF80810415513
:101510002088401C20802088284465490968016093
:101520002088001D20802088284461494A68026084
:101530008968416020880830208000205C49087359
:1015400006E001205949087002E00120574908705F
:101550004D480078012864D152480078012803D012
:10156000504800780B28F6D146480088404440781F
:101570000006444909884144897800EB014041490B
:1015800009884144C97800EB01203E49098841445B
:10159000097946183B480088404450F8051F0391DC
:1015A00040680490082303AA31463F4805F06CFFC9
:1015B000300E10283AD1C6F30740512836D100200A
:1015C0003A49087008E0781C87B264201EF092FC4B
:1015D0003748007B00B103E042F210708742F2DB33
:1015E00000BF42F2107087421CDA20889DF8081074
:1015F00041552088401C2080208828442C490968B7
:1016000001602088001D20802088284428494A68DD
:1016100002608968416020880830208000202449C9
:101620000873DCE0012021490870D8E0300E102852
:1016300054D1C6F30740522850D100201B490870EE
:1016400009E0781C87B24FF47A701EF053FC1848FA
:10165000007B00B103E044F620608742F1DB00BF6D
:1016600044F62060874235DA20889DF808104155FD
:101670002088401C2080208828440D49096801608A
:10168000208817E04AF9FE1F16F9FE1F1CF5FE1F01
:101690000008044050F5FE1F24F5FE1F28F5FE1F2C
:1016A0003CF5FE1F7CF5FE1F009000402DF9FE1F4B
:1016B0001CFFFE1F001D20802088284451494A68D5
:1016C00002608968416020880830208000204D49F0
:1016D000087384E001204C49087080E0300E102827
:1016E0003BD1C6F30740552837D100204649087042
:1016F00009E0781C87B24FF47A701EF0FBFB41487A
:10170000007B00B103E043F698208742F1DB00BF85
:1017100043F6982087421CDA20889DF8081041552E
:101720002088401C208020882844364909680160B0
:101730002088001D20802088284432494A680260A1
:101740008968416020880830208000202D49087376
:1017500045E001202C49087041E0300E10283BD1B3
:10176000C6F30740562837D100202749087009E002
:10177000781C87B24FF47A701EF0BCFB2148007BC6
:1017800000B103E043F698208742F1DB00BF43F647
:10179000982087421CDA20889DF80810415520883F
:1017A000401C208020882844164909680160208850
:1017B000001D20802088284412494A6802608968F8
:1017C000416020880830208000200E49087306E020
:1017D00001200D49087002E001200B4908700EE05D
:1017E00002200A49087000200749087020889DF8E7
:1017F000081041552088401C208000E000BF00BF39
:10180000484661E51CFFFE1F2DF9FE1F16F9FE1F5D
:101810007CB504460D46012C0ED14FF0815040EAB4
:10182000052614A103C9CDE9000108236A46314603
:10183000124805F029FE00BF022C19D14FF6FF70A7
:1018400000EAC5200E4940EA010600200090019000
:1018500001208DF8000020208DF8010005208DF872
:10186000030008236A463146044805F00DFE00BF18
:101870007CBD0000006200000000000000900040FD
:101880000B0008C62DE9F0412DED048B04460D46F2
:1018900000270026FE480078012868D105EB4500A6
:1018A00054F8200000F0F850FA4988422AD100206C
:1018B00005EB450154F82110C1F3074205EB450142
:1018C00054F82110090E62F31F2105EB450234F88C
:1018D0002220C2F3072201EB024105EB450214F876
:1018E000222001EB0260EC49086005EB450104EBA6
:1018F00081018968E84A0B68536049689160012159
:1019000011733EE305EB450054F8200000F0F85059
:10191000B0F1E05FF5D1002005EB450154F821104E
:10192000C1F3074205EB450154F82110090E62F39B
:101930001F2105EB450234F82220C2F3072201EBF8
:10194000024105EB450214F8222001EB0260D24966
:10195000086005EB450104EB81018A68CE491368F4
:101960004B6052688A600121CB4A117309E3C84871
:1019700000780028C5D105EB450054F82000C74980
:101980000840C74988427DD105EB450004EB800043
:1019900080680078F02803D0BDEC048BBDE8F081AE
:1019A00005EB450034F82000C0F3072008B90026F5
:1019B00008E005EB450034F82000C0F307200128BB
:1019C00000D1012605EB450004EB800080684078DB
:1019D000592861D006DC372809D0532810D0542864
:1019E0007DD132E062287BD06328F9D1D3E005EBCA
:1019F000450004EB80008068C179AA488155F0E079
:101A000005EB450104EB81018968C97905EB4502C5
:101A100004EB82029268927901EB0220FFF72CF925
:101A200041EC190B9FEDA00B53EC102BFFF7B5F811
:101A300041EC180BFFF7A4F900EE100A9948103892
:101A400000EB860080ED000ACBE005EB450104EBDE
:101A500081018968C97905EB450204EB820292682D
:101A6000927901EB0220FFF707F941EC190B9FED8A
:101A70008E0B53EC102BFFF790F841EC180BFFF78F
:101A80007FF900E0AEE000EE100A8648083800EB6F
:101A9000860080ED000AA4E04FF442701AF0FEFACE
:101AA000172844D105EB450004EB80008068C0791D
:101AB00005EB450104EB81018968897900EB01217F
:101AC0007848363830F81600814230D005EB4500B2
:101AD00004EB80008068C07905EB450101E07FE000
:101AE00026E004EB81018968897900EB01216D48CA
:101AF000363830F8160041406A48801C20F816102D
:101B000005EB450004EB80008068C07905EB4501DA
:101B100004EB81018968897900EB012081B2614879
:101B2000363820F816106248006820F059FA58E05C
:101B300005EB450104EB81018968C97905EB450294
:101B400004EB82029268927901EB0220FFF794F88D
:101B500041EC190B9FED540B53EC102BFFF71DF8C4
:101B600041EC180BFFF70CF900EE100A4D48203835
:101B700000EB860080ED000A2FB901204949383971
:101B800081F8460006E0012F04D10220454938398A
:101B900081F8460025E005EB450104EB81018968E9
:101BA000C97905EB450204EB82029268927901EB58
:101BB0000220FFF761F841EC190B9FED3B0B53EC52
:101BC000102BFEF7EAFF41EC180BFFF7D9F800EEF7
:101BD000100A3448183800EB860080ED000A00E057
:101BE00000BFCEE105EB450054F820002B4908402A
:101BF000B0F1C16FF5D105EB450034F82000C0F31A
:101C0000C70008B9002608E005EB450034F82000BD
:101C1000C0F3C700012800D101261D480078002824
:101C20007ED105EB450004EB8000806840783028C9
:101C3000F6D105EB450004EB80008068C0780628EB
:101C40006FD006DC012809D0022854D0052869D1BC
:101C5000D4E0432867D0BE28F9D153E105EB450114
:101C600004EB8101896809794FF6FF7202EA01618C
:101C700005EB450204EB8202926852794FF6FF733E
:101C800003EA0242114405EB450204EB820211E033
:101C900016F9FE1F000050101CFFFE1F0000FF1F62
:101CA00000002B10B4F5FE1F0000000000002440CF
:101CB00044F5FE1F9268927901EB022105EB450283
:101CC00004EB82029268D2798818FEF7D5FF41ECC6
:101CD000190B9FEDAD0B53EC102BFEF75EFF41ECA3
:101CE000180BFFF74DF800EE100AA94800EB86002C
:101CF00080ED000A28E105EB450104EB81018968CC
:101D000009794FF6FF7202EA016105EB450204EB27
:101D10008202926852794FF6FF7303EA024203E0AF
:101D200013E1B4E00FE126E0114405EB450204EBBA
:101D300082029268927901EB022105EB450204EBE5
:101D400082029268D2798818FEF796FF41EC190B4F
:101D50009FED8D0B53EC102BFEF71FFF41EC180B82
:101D6000FFF70EF800EE100A8948083000EB8600F5
:101D700080ED000AE8E005EB450004EB8000806898
:101D8000C07905EB450104EB81018968897900EB95
:101D900001217F48263830F8160081422DD005EB0E
:101DA000450004EB80008068C07905EB450104EB39
:101DB00081018968897900EB01217548263830F85E
:101DC000160041407248123020F8161005EB45000D
:101DD00004EB80008068C07905EB450104EB8101CC
:101DE0008968897900EB012081B26948263820F89A
:101DF00016106848006820F0F3F8A5E005EB4501EF
:101E000004EB8101896809794FF6FF7202EA0161EA
:101E100005EB450204EB8202926852794FF6FF739C
:101E200003EA0242114405EB450204EB8202926888
:101E3000927901EB022105EB450204EB82029268E4
:101E4000D2798818FEF718FF41EC190B9FED4E0B65
:101E500053EC102BFEF7A1FE41EC180BFEF790FFA0
:101E600000EE100A4A48103800EB860080ED000AA8
:101E70002FB901204649283981F8460006E0012F94
:101E800004D102204249283981F846005CE005EB84
:101E9000450104EB8101896809794FF6FF7202EA76
:101EA000016105EB450204EB8202926852794FF61C
:101EB000FF7303EA0242114405EB450204EB820280
:101EC0009268927901EB022105EB450204EB820254
:101ED0009268D2798818FEF7CFFE41EC190B9FED7E
:101EE0002A0B53EC102BFEF758FE41EC180BFEF7B3
:101EF00047FF00EE100A2648083800EB860080ED08
:101F0000000A21E000200DE005EB450104EB810112
:101F10008A68011D525C1E49163101EB87010A5483
:101F2000411CC8B20428EFDB2FB906201849283914
:101F300081F8460006E0012F04D107201449283912
:101F400081F8460000E000BF1BE013480078C0B9EC
:101F500005EB450004EB800080684078102810D124
:101F600005EB450004EB80008068C0781F2808D18D
:101F700005EB450004EB80008068C179044810300F
:101F8000815500BF08E500000000000000009040FF
:101F9000A4F5FE1F44F5FE1F16F9FE1F7CB504468E
:101FA0000D46022C19D14FF6FF7000EAC5200B49EF
:101FB00040EA010600200090019001208DF8000009
:101FC00020208DF80100BE208DF8030008236A460A
:101FD0003146034805F058FA00BF7CBD0B0008C627
:101FE000009000407FB5304E0020029003903720D3
:101FF0008DF8090033208DF80F0000202B4981F85F
:1020000038000021294880F8391000240AE008230C
:1020100002AA3146264805F037FAC8201FF036F8E4
:10202000601CC4B2032CF2DB204890F8380033283F
:1020300004D01E4890F83900332802D1012004B0A2
:1020400070BD0020194981F838000021174880F838
:102050003910184D00200090019001208DF80000EB
:102060001F208DF8030033208DF8070000240AE0BC
:1020700008236A4629460E4805F006FAC8201FF0D4
:1020800005F8601CC4B2032CF2DB084890F8380055
:10209000332804D0054890F83900332801D10220B4
:1020A000CDE70020CBE7000000FF20107CF5FE1FED
:1020B000009000400B0000C62DE9FC4104460D468F
:1020C0001646012C12D14FF0815040EA052700201E
:1020D0000090019037208DF801008DF807600823EB
:1020E0006A463946124805F0CFF900BF022C1CD1D0
:1020F0004FF6FF7000EAC5200E4940EA01070EA125
:1021000003C9CDE9000101208DF8000000208DF801
:1021100001001F208DF803008DF8076008236A4630
:102120003946034805F0B0F900BFBDE8FC81000066
:10213000009000400B0008C60100001F00000000D6
:1021400000B585B068460BF007F90220ADF8020033
:102150002020ADF806004020ADF80A000420ADF8BC
:1021600004006A46202107200AF00CFE6A4610216E
:1021700007200AF007FE0CF0E7FA05B000BD70B5C5
:10218000044600250CF0C8FA20460CF098FA0CF032
:10219000EFFA00200CF06DFA05460CF0D5FA28464F
:1021A00070BD70B505460C460CF0B6FA28460CF02A
:1021B00086FA0CF0DDFA00200CF081FA0CF0D8FA67
:1021C00020460CF07CFA0CF0D3FA0CF0BDFA052096
:1021D0001DF086FE691CC8B2FFF7D1FFA04201D1F5
:1021E000012070BD002001E0411CC8B20828FBDBC3
:1021F0000020F6E770B52DED028BF0EE408A9FEDE2
:10220000120A28EE800AB0EE408A9FED100AB4EE62
:10221000C08AF1EE10FA01DDFF240BE0B5EEC08AB2
:10222000F1EE10FA01D2002404E0BCEEC80A10EE70
:10223000100AC4B221465820FFF7B3FF05462846CE
:10224000BDEC028B70BD00000000CC4100007F435C
:1022500038B50024022000280BDB00F01F0201210A
:102260009140864A430942F82310BFF34F8FBFF3D2
:102270006F8F00BF00F018FA04460CB1204638BD3D
:1022800002224FF49061012000F0ACFA04460CB138
:102290002046F4E703220021104600F0A3FA04468A
:1022A0000CB12046EBE702220021042000F09AFA4C
:1022B00004460CB12046E2E703220421072000F087
:1022C00091FA04460CB12046D9E7022248F21101E6
:1022D000092000F087FA04460CB12046CFE702221D
:1022E00048F231010A2000F07DFA04460CB1204684
:1022F000C5E7022248F251010B2000F073FA0446B0
:102300000CB12046BBE7022248F271010C2000F01C
:1023100069FA04460CB12046B1E7022248F2910165
:102320000D2000F05FFA04460CB12046A7E7022218
:1023300048F2B1010E2000F055FA04460CB12046D7
:102340009DE7022248F2D1010F2000F04BFA04462B
:102350000CB1204693E7022248F2F101102000F070
:1023600041FA04460CB1204689E7022248F21111D5
:10237000112000F037FA04460CB120467FE7022214
:1023800048F23111122000F02DFA04460CB120461B
:1023900075E7022248F25111132000F023FA044697
:1023A0000CB120466BE7022248F27111142000F0B4
:1023B00019FA04460CB1204661E7022248F2911155
:1023C000152000F00FFA04460CB1204657E7022210
:1023D00048F2B111162000F005FA04460CB120466F
:1023E0004DE7022248F2D111172000F0FBF9044614
:1023F0000CB1204643E7022248F2F111182000F008
:10240000F1F904460CB1204639E702224FF4066187
:10241000192000F0E7F904460CB120462FE703220B
:102420001749212000F0DEF904460CB1204626E7CA
:1024300000200090684600F0B3F84CB99DF8000009
:10244000142805D19DF8010000F0760076280FD001
:10245000002009E00B4951F8201041F48041094A5D
:1024600042F82010411CC8B20828F3DB204606E7DA
:10247000012005490870204601E7000080E100E0E6
:1024800001001600D47AFF1FC7F5FE1F00B58DB0FE
:1024900068460AF061FF4FF48050ADF8100040200C
:1024A000ADF80A006A46022104200AF06BFC07A876
:1024B00009F0B6F90220079000200C9007A809F057
:1024C0000BF90120ADF814000220ADF81600084801
:1024D000069005A80CF06AF902201CF01BFF0D21E4
:1024E00002201CF0C1FF02201CF042FF0DB000BD15
:1024F000F524020010B5022009F0B8F801281CD11B
:10250000022009F07FF80D480088401C0B49088024
:1025100002201CF02DFF09490888C11700EB9171BA
:102520008910A0EB810109B900F00AF80121082007
:102530000AF05EFD02201CF061FF10BD96F7FE1F41
:1025400038B5002000900024684600F01FF8C0B99C
:102550009DF8000004049DF8010004EB00249DF8A0
:10256000020004449DF8030000F0F00048B99DF813
:10257000030000F00F00034908800348098840F871
:10258000214038BDC4F5FE1F2CFFFE1F70B5044668
:1025900004222146022000F033F80546284670BD8B
:1025A0007FB50446002513A103C9CDE9020100202F
:1025B0000090019045208DF80800012108200AF0C4
:1025C00017FD08236A4602A90C4814F06BFB054668
:1025D000012108200AF028FE012005E01DF8002056
:1025E000411E6254411CC8B20328F7DB284604B0E0
:1025F00070BD0000FFFFFFFFFFFFFFFF00C40140B1
:102600002DE9F04387B006460F4615460024A04644
:10261000A14600200590069003900490019002903E
:1026200006F03F0040F040008DF814000121082022
:102630000AF0DEFCAB1C03AA05A91A4814F032FB11
:102640008146012108200AF0EFFD06F03F0040F02E
:1026500040008DF80400012405E003A8005D01A9F5
:102660000855601CC4B2A81C8442F6DB681CC1B2C9
:1026700001A807F00BFB804601A9681C085C4045D7
:1026800003D00D2007B0BDE8F083012405E003A8C6
:10269000015D601E3954601CC4B2681C8442F6DBC4
:1026A0004846EFE700C401401FB5002413A103C949
:1026B000CDE90201002000900190012108200AF0DC
:1026C00097FC08236A4602A90E4814F0EBFA044668
:1026D000012108200AF0A8FD14B1204604B010BD65
:1026E0004FF448701DF076FB04460CB12046F5E728
:1026F00044F6206008F0C9FB2046EFE7FFFFFFFF2C
:10270000FFFFFFFF00C4014000B591B00121480464
:1027100012F0E4F80CA80AF01FFE0220ADF8320017
:102720002020ADF836000120ADF830000CAA0121C0
:1027300008200AF027FB0CA80AF00EFE2020ADF8B6
:1027400036000CAA022108200AF01CFB0CAA082162
:1027500008460AF017FB0CA80AF0FEFD0020ADF8B1
:1027600036004FF48060ADF83E000CAA042108202A
:102770000AF008FB00232B22022108200AF0D4FCD7
:1027800000232D22042108200AF0CEFC00232C2255
:10279000082108460AF0C8FC114813F0B7FE01A84A
:1027A00014F06AFA012001900020029008200390A2
:1027B0000020049005900690032007900C200890BC
:1027C0004FF48060099000200A9001A9044814F099
:1027D000D1F80121024814F077F811B000BD0000D3
:1027E00000C401402DE9FF4707460D461446002668
:1027F000B046B1460020029003900090019007F08F
:102800003F008DF8080000BF05E0A11B02AA555447
:102810002D12701CC6B2A642F7DB601CC1B202A822
:1028200007F034FA804602A9601C01F800800121FB
:1028300008200AF0DDFBA31C6A4602A9054814F033
:1028400031FA8146012108200AF0EEFC484604B026
:10285000BDE8F08700C4014070B5002501200028C4
:102860000BDB00F01F02012191402B4A430942F883
:102870002310BFF34F8FBFF36F8F00BF00F058F9E5
:1028800005460DB1284670BD4FF4FA5008F003FB21
:1028900000241AE0214800EBC4004078012800D150
:1028A00011E01E4B03EBC4039A781C4B03EBC403EB
:1028B00059681A4B13F8340000F0CEF905460DB1F3
:1028C0002846E0E700BF601CC4B2222CE2D31349C3
:1028D00091F83A2091F83800114900F0D5F80546F2
:1028E0004DB90F4800783C2805D10D48407800F0DC
:1028F000D000D0280ED00125002009E0094951F868
:10290000201041F48041074A42F82010411CC8B20F
:102910000828F3DB2846B6E780E100E0D4F5FE1F87
:10292000CDF5FE1FD47AFF1F30B5024600230020EC
:1029300018E0802311E014781C400CB1012400E061
:102940000024C0F3C015AC4204D04406200E80F031
:10295000070001E04406200E5B10002BEBD1521C57
:102960004C1EE1B20029E4D130BD000000B58DB0AD
:1029700068460AF0F1FC4FF48050ADF8100040209A
:10298000ADF80A006A46012104200AF0FBF907A805
:1029900008F046FF0120079000200C9007A808F0DF
:1029A0009BFE0020ADF814000120ADF81600084889
:1029B000069005A80BF0FAFE01201CF0ABFC0E21DE
:1029C00001201CF051FD01201CF0D2FC0DB000BD17
:1029D000D529020010B5012008F048FE01281BD1BE
:1029E00008F010FE0D480088401C0C4908800120AA
:1029F0001CF0BEFC09490888C11700EB91718910D1
:102A0000A0EB810109B900F00BF8012103200AF0C5
:102A1000EFFA01201CF0F2FC10BD000094F7FE1F3D
:102A200038B50025002000900024684600F01CF80E
:102A3000A0B90B480078012810D19DF800000404CB
:102A40009DF8010004EB00249DF8020004449DF869
:102A5000030000F00F05034840F8254038BD000092
:102A6000CCF5FE1F6CFFFE1F70B50446054991F8BA
:102A7000222091F82000214600F006F8054628465D
:102A800070BD0000D4F5FE1F2DE9F04387B0064667
:102A90000F4615460024A046A1460020059006904A
:102AA000039004900190029006F03F0040F0400037
:102AB0008DF81400012103200AF09AFAAB1C03AA36
:102AC00005A91A4814F0EEF88146012103200AF006
:102AD000ABFB06F03F0040F040008DF804000124FD
:102AE00005E003A8005D01A90855601CC4B2A81C3C
:102AF0008442F6DB681CC1B201A8FFF715FF8046CF
:102B000001A9681C085C404501D04FF00D09012463
:102B100005E003A8015D601E3954601CC4B2681C46
:102B20008442F6DB484607B0BDE8F08300C80140A8
:102B30001FB500240CA103C9CDE9020100200090BB
:102B40000190012103200AF053FA08236A4602A9E2
:102B5000074814F0A7F80446012103200AF064FB9B
:102B6000204604B010BD0000FFFFFFFFFFFFFFFF86
:102B700000C8014000B591B00121880411F0AEFEFB
:102B80000CA80AF0E9FB0220ADF832002020ADF8D5
:102B900036000120ADF830000CAA012103200AF014
:102BA000F1F80CA80AF0D8FB2020ADF836000CAAEA
:102BB000410102200AF0E6F80CAA4FF480510220ED
:102BC0000AF0E0F80CA80AF0C7FB0020ADF83600C8
:102BD0004FF48060ADF83E000CAA410002200AF0DC
:102BE000D1F8002313224FF4806102200AF09CFAEE
:102BF000002313224FF4006102200AF095FA00230B
:102C000013224FF4805102200AF08EFA114813F07B
:102C10007DFC01A814F030F8012001900020029002
:102C20000820039000200490059006900320079050
:102C30000C2008904FF48060099000200A9001A9B0
:102C4000044813F097FE0121024813F03DFE11B035
:102C500000BD000000C801402DE9FF4707460D46B2
:102C600014460026B046B146002002900390009022
:102C7000019007F03F008DF8080000BF05E0A11BA0
:102C800002AA55542D0A701CC6B2A642F7DB601C7E
:102C9000C1B202A8FFF748FE804602A9601C01F8F5
:102CA0000080012103200AF0A3F9A31C6A4602A9AF
:102CB000054813F0F7FF8146012103200AF0B4FA1A
:102CC000484604B0BDE8F08700C80140704770472F
:102CD000704770477047704770477047704770473C
:102CE0007047704770477047704700002DE9F0410A
:102CF00004460D46164600BF1548844205D01548C7
:102D0000844202D01448844200D104E040F25F21A2
:102D100012A007F0F5FB00BF00BF0EB1012E00D1DD
:102D200004E04FF418710DA007F0EAFB00BFD4F8DF
:102D30000C80276948EA07000540012E03D160692D
:102D40002843606102E06069A8436061BDE8F081EA
:102D50000000044000040440000804402E2E5C2EB5
:102D60002E5C4C69627261726965735C647269762B
:102D700065725C7372635C68633332663461305FC2
:102D80006164632E6300000070B505460C4600BF09
:102D90001448854205D01448854202D01348854224
:102DA00000D104E040F2452111A007F0A9FB00BFCB
:102DB00000BF34B12CB124B11CB114B10CB104B1B9
:102DC00004B904E040F2462109A007F099FB00BFD6
:102DD00068884FF6FF01084004F4E061084368800A
:102DE00070BD0000000004400004044000080440DE
:102DF0002E2E5C2E2E5C4C69627261726965735C6A
:102E00006472697665725C7372635C6863333266A0
:102E10003461305F6164632E630000002DE9F04F80
:102E200085B004460E4615469846DDF838A04FF0AA
:102E30000009CB463A4A07CA01AF07C704200090F1
:102E4000B8F1000F68D000BF3648844205D036483C
:102E5000844202D03548844200D104E040F2072188
:102E600033A007F04DFB00BF00BF0EB1012E00D113
:102E700004E04FF402712EA007F042FB00BF00BF38
:102E8000BAF1000F02D0BAF1010F00D104E040F214
:102E9000092127A007F034FB00BF04F10C0000EB70
:102EA0008607143004902046C0F3872001A951F80A
:102EB00020000540BAF1010F29D138682843386055
:102EC00022E005F00100B8B100BF18F80B0005289A
:102ED00000D304E040F2172115A007F011FB00BF5A
:102EE00018F80B10049800F80910B9F1100F03D26C
:102EF0000BF1010000F0FF0B6D08B9F1100F03D2C8
:102F000009F1010000F0FF09002DDAD102E0386874
:102F1000A843386000200090009805B0BDE8F08F0D
:102F2000EC350400000004400004044000080440A4
:102F30002E2E5C2E2E5C4C69627261726965735C28
:102F40006472697665725C7372635C68633332665F
:102F50003461305F6164632E630000002DE9F04747
:102F600005460C4690464FF0000A00BF25488542B2
:102F700005D02548854202D02448854200D104E08E
:102F800040F2FF4122A007F0BBFA00BF00BFB8F13A
:102F90000F0F00D804E04FF4A0611DA007F0B0FAB5
:102FA00000BF00BF3CB14FF6FF7020434FF6FF71EA
:102FB000884200D104E040F2015115A007F0A0FAC8
:102FC00000BF05F1380918E004F0010090B14FEAA4
:102FD0009A064FEA8A70070F39F816000F21B94098
:102FE000884308FA07F10F22BA4092B21140084311
:102FF00029F8160064080AF1010A002CE4D1BDE8A2
:10300000F087000000000440000404400008044071
:103010002E2E5C2E2E5C4C69627261726965735C47
:103020006472697665725C7372635C68633332667E
:103030003461305F6164632E630000002DE9F04766
:1030400005460C46002600BF2148854205D0214890
:10305000854202D02048854200D104E040F22C5144
:103060001EA007F04DFA00BF00BF3CB14FF6FF7045
:1030700020434FF6FF71884200D104E040F22D5109
:1030800016A007F03DFA00BF00BF1CB1601E204033
:1030900000B904E040F22E5110A007F031FA00BF51
:1030A00000E0761C0120B04020400028F9D0B7088D
:1030B000B0074FEA107A05F1380000EB4708B8F87E
:1030C000000040FA0AF000F00F094846BDE8F0871A
:1030D0000000044000040440000804402E2E5C2E32
:1030E0002E5C4C69627261726965735C64726976A8
:1030F00065725C7372635C68633332663461305F3F
:103100006164632E6300000070B505460C4604261A
:10311000002C65D000BF3348854205D03248854237
:1031200002D03248854200D104E04FF4A57130A0AE
:1031300007F0E6F900BF00BF208840B120880128D1
:1031400005D02088022802D02088032800D104E07E
:1031500040F24B1126A007F0D3F900BF00BF6088F2
:10316000202804D06088102801D0608800B904E0CD
:103170004FF4A6711EA007F0C3F900BF00BFA088DE
:1031800010B1A088402800D104E040F24D1118A0F1
:1031900007F0B6F900BF00BFE08810B1E0888028D2
:1031A00000D104E04FF4A77111A007F0A9F900BF06
:1031B00000BF208910B12089042800D104E040F22A
:1031C0004F110BA007F09CF900BF208861880843CD
:1031D000A1880843E188084368802089A8800026E8
:1031E000304670BD00000440000404400008044064
:1031F0002E2E5C2E2E5C4C69627261726965735C66
:103200006472697665725C7372635C68633332669C
:103210003461305F6164632E630000002DE9F05F6C
:1032200005460E4617461C46DDF828904FF0000A6A
:1032300000BF4FF0040B4FF4C87004FB00F876B1E8
:1032400006F0010080F0010048B147B107F001002D
:1032500080F0010018B114B1B8F1000F03D10120C2
:103260008346BDE8F09F287808B90120287014E053
:1032700099F8000001280ED1002089F8000006EB23
:103280000A1010223946FDF749FC0AF1010000F04E
:10329000FF0A601EC4B2A8F1010814B1B8F1000F12
:1032A000E6D12CB9B8F1000F02D04FF0000B03E0CB
:1032B0004FF00A0B002028705846D2E7012902D1AE
:1032C0000122027002E009B900220270704700007A
:1032D00010B50848007800F01BF806480078401C3C
:1032E0000449087008460078282801D10020087099
:1032F00010BD0000F5F6FE1F0146042031B100228A
:103300000A804A808A80CA800A81002070470000B3
:1033100070B52DED028B82B00646002500245A20A0
:1033200008EE100A0A2096FBF0F030B101287DD09B
:10333000022879D0032878D166E10421072009F01A
:1033400057FE0821072009F053FEFE480A23FE4AD3
:10335000FE490090FE48FFF761FF90B1002009E0B0
:10336000FC4951F8201041F48041FA4A42F82010FB
:10337000411CC8B20828F3DB40F2A911F6A008F0FE
:1033800099FCBEB1002513E000240DE0FA4850F886
:10339000240004EBC501ED4A32F811100844F64947
:1033A00041F82400601CC4B2082CEFDB681CC5B2D5
:1033B0000A2DE9DB092E35D1EF4890ED040AB8EE6D
:1033C000400AF8EE480A80EE201AEC4880ED001A18
:1033D000E94890ED050AB8EE400AF8EE480A80EE9A
:1033E000201AE64880ED011AE34890ED060AB8EE8F
:1033F000400AF8EE480A80EE201AE14880ED001AF3
:10340000DD4890ED070AB8EE400AF8EE480A80EE73
:10341000201ADB4880ED011A0020D7490861486175
:103420008861C86168E101E077E064E10421072078
:1034300009F0FAFE0821072009F0DAFDC1480A2345
:10344000C14AD0490090C248FFF7E8FE90B1002081
:1034500009E0C04951F8201041F48041BD4A42F8CA
:103460002010411CC8B20828F3DB4FF4E771BAA062
:1034700008F020FC0A2E17D0002513E000240DE0F0
:10348000BD4850F8240004EBC501BE4A32F81110C3
:103490000844B94941F82400601CC4B2082CEFDB91
:1034A000681CC5B20A2DE9DB132E35D1B24890ED68
:1034B000040AB8EE400AF8EE480A80EE201AAF4837
:1034C00080ED021AAC4890ED050AB8EE400AF8EE1D
:1034D000480A80EE201AA94880ED031AA64890ED0C
:1034E000060AB8EE400AF8EE480A80EE201AA44810
:1034F00080ED021AA04890ED070AB8EE400AF8EEF7
:10350000480A80EE201A9E4880ED031A00209A494E
:10351000086148618861C861EEE00421072009F074
:1035200067FD0821072009F07FFE86480A23864AA6
:10353000954900908648FFF771FE90B1002009E0A0
:10354000844951F8201041F48041824A42F8201009
:10355000411CC8B20828F3DB40F2F3117EA008F04A
:10356000A9FB142E17D0002513E000240DE082489B
:1035700050F8240004EBC501834A32F811100844C6
:103580007D4941F82400601CC4B2082CEFDB681CA4
:10359000C5B20A2DE9DB1D2E35D1774890ED040A1E
:1035A000B8EE400AF8EE480A80EE201A734880ED23
:1035B000041A714890ED050AB8EE400AF8EE480A80
:1035C00080EE201A6D4880ED051A6B4890ED060AD2
:1035D000B8EE400AF8EE480A80EE201A684880EDFE
:1035E000041A654890ED070AB8EE400AF8EE480A5A
:1035F00080EE201A624880ED051A00205E490861BD
:1036000048618861C86177E00421072009F00CFE59
:103610000821072009F008FE4A480A234A4A5B4964
:1036200000904B48FFF7FAFD90B1002009E04949AE
:1036300051F8201041F48041464A42F82010411CC4
:10364000C8B20828F3DB4FF4067143A008F032FB40
:103650001E2E17D0002513E000240DE0464850F838
:10366000240004EBC501494A32F8111008444249CC
:1036700041F82400601CC4B2082CEFDB681CC5B202
:103680000A2DE9DB272E35D13B4890ED040AB8EE30
:10369000400AF8EE480A80EE201A384880ED061AF3
:1036A000354890ED050AB8EE400AF8EE480A80EE7B
:1036B000201A324880ED071A2F4890ED060AB8EE1E
:1036C000400AF8EE480A80EE201A2D4880ED061ACE
:1036D000294890ED070AB8EE400AF8EE480A80EE55
:1036E000201A274880ED071A002023490861486105
:1036F0008861C86100E000BF00BF1F4890ED000A6C
:10370000B8EE400AF2EE040A80EE201A204880ED5E
:10371000001A194890ED010AB8EE400AF2EE040AC8
:1037200080EE201A1B4880ED001A134890ED020A23
:10373000B8EE400AF2EE040A80EE201A164880ED38
:10374000001A2BE0F4F6FE1FECFFFE1FFCFFFE1F2D
:1037500000080440D47AFF1F2E2E5C2E2E5C557379
:1037600065725C4253505C7372635C6273705F613C
:103770006463332E630000007C02FF1FACFFFE1F5A
:10378000CCFFFE1F9C00FF1F3C01FF1FDC01FF1F41
:10379000E4F6FE1FE8F6FE1FECF6FE1F0A4890ED69
:1037A000030AB8EE400AF2EE040A80EE201A074837
:1037B00080ED001A00200449086048608860C860F5
:1037C00002B0BDEC028B70BD7C02FF1FF0F6FE1F45
:1037D00000B585B0684609F0BFFD0020ADF80000D7
:1037E0000220ADF802002020ADF806000020ADF860
:1037F00004006A460421072009F0C4FA6A46082139
:10380000072009F0BFFA05B000BD00002DE9FC4714
:1038100004460D464FF0000C002001900027009058
:1038200000268B20009018889DF80010815418887D
:10383000401C1880002067E00121814001F0FF0852
:103840003449897901EA080100295CD0DFF8C89081
:10385000B9F8001053E014F80190CDF804909DF8E9
:103860000490B9F1000F04DD9DF80490B9F1050F43
:1038700020DB4FF0FF36B3F800909DF804A009F864
:1038800002A0B3F8009009F10109A3F80090B3F881
:1038900000909144C9F80060B3F8009009F1040960
:1038A000A3F800909DF80490B9F1FF0F01D04FF0FC
:1038B000080C23E09DF80490A9F1010909F0FF0725
:1038C000DFF8589009EB001959F82760B3F8009019
:1038D0009DF804A009F802A0B3F8009009F10109CD
:1038E000A3F80090B3F800909144C9F80060B3F8D1
:1038F000009009F10409A3F8009000BF491CA5F14C
:1039000004098945A7DC401C082895DB6046BDE812
:10391000FC870000DC59FF1F4AF9FE1FC856FF1F35
:103920000EB521A103C9CDE90101032201212048DF
:10393000FFF714FB0D2202211D48FFF70FFB0922A0
:1039400004211B48FFF70AFB0E2208211848FFF745
:1039500005FB0F2210211648FFF700FB042220214F
:103960001348FFF7FBFA0A2240211148FFF7F6FA45
:103970000C2280210E48FFF7F1FAFF210C4800F0DD
:10398000D3F8012001ABFF22002100900848FFF787
:1039900045FA00210648FFF7F7F90122FF21044804
:1039A000FFF7A4F90EBD00001E1E1E1E1E1E1E1EC9
:1039B0000008044010B54FF48131142004F0E2F8FF
:1039C000002004F00FFB10BD00B58DB001214FF4B5
:1039D000203010F031FF4FF4F47200211C4806F043
:1039E000E9FF05A807F030F84FF480500590082053
:1039F000099000200A904FF48070089015480790B5
:103A00001548069001200B9004200C9005AA002177
:103A10000F4806F083FE01A806F0C0FF10200190B9
:103A200008200290202003900820049001AA002181
:103A3000074806F029FF00F011F80121044806F0BC
:103A400037FE01220021024806F0A6FD0DB000BDA0
:103A500000340540ECFFFE1F500804401CB5482010
:103A6000ADF800000A20ADF802001D48019068463C
:103A70000AF09CFE4FF480311A4806F0DBFD0A2064
:103A8000002807DB00F01F0201219140164A43097C
:103A900042F8231000BF0A200321002804DB0A0794
:103AA000130E124A135406E00A07140E104A00F0CF
:103AB0000F031B1FD45400BF0A2000280DDB00BFDA
:103AC00000BF00F01F02012191404209920002F163
:103AD000E022C2F8001100BF00BF00BF1CBD000003
:103AE00065A502000034054080E200E000E400E04B
:103AF00018ED00E00EB56846FFF7FEFB4020ADF87C
:103B000004000020ADF80600ADF802000120ADF879
:103B100000000121042010F069FF69460148FFF709
:103B2000F3FA0EBD000804402DE9F04106460C46AC
:103B3000002510E004F0010050B1012000FA05F169
:103B40003046FFF77BFA07463946304600F008F862
:103B50006408681CC5B2002CECD1BDE8F0810000FF
:103B600030B5A9B005460C464022164914A8FCF70A
:103B7000D5FF5022134940316846FCF7CFFF24A8F7
:103B800009F0EAFB4FF40040ADF8A2000E48854270
:103B900002D00E4885420AD114AA02EB8402518851
:103BA00014AA12F8240024AA09F0ECF808E06A46E6
:103BB00002EB840251881DF8240024AA09F0E2F8DF
:103BC00029B030BD203C0400000004400004044043
:103BD000F0B52DED048B85B04420F7490870002422
:103BE0000AE0F649085D0A2105F0E6FFF349085DA1
:103BF000052105F0E1FF641C082CF2DBF048007899
:103C0000B8B1F048007801280FD10102EE48FCF766
:103C10009EFFEB480278EDA1EB481BF059FB4FF4F7
:103C20008072E949002018F0ADF805B0BDEC048BB6
:103C3000F0BDE448007801282BD10102E248FCF7EE
:103C400086FFF149E0481BF043FB4FF48072DE49E8
:103C5000002018F097F84FF48071DB48FCF777FFED
:103C6000EA49D9481BF034FB4FF48072D649002052
:103C700018F088F84FF48071D348FCF768FFE249E8
:103C8000D1481BF025FB4FF48072CF49002018F07B
:103C900079F8F2EE040AB7EE000A00221146F0208D
:103CA00005F026FEC748007801280DD10102C6485C
:103CB000FCF74DFFD6A1C4481BF00AFB4FF48072FD
:103CC000C149002018F05EF84FF47A701DF0DEF95B
:103CD000F3EE040AB1EE020A002201210F2005F0E2
:103CE00007FEB848007801280DD10102B648FCF75C
:103CF0002EFFD3A1B4481BF0EBFA4FF48072B24907
:103D0000002018F03FF84FF47A701DF0BFF9DFED96
:103D1000D80AB1EE020A002201210F2005F0E8FDC9
:103D2000A848007801280DD10102A748FCF70FFF31
:103D3000D0A1A5481BF0CCFA4FF48072A249002014
:103D400018F020F84FF47A701DF0A0F9F3EE0E0A87
:103D5000B7EE000A00221146F02005F0C9FD99488F
:103D6000007801280DD101029748FCF7F0FECDA1A3
:103D700095481BF0ADFA4FF480729349002018F07B
:103D800001F800270120D349087003E28C4800782D
:103D9000002870D1B7F5FA7F6EDD0024F2E1884883
:103DA0000078002869D12546261DCB4800EB850008
:103DB00090ED000AF1EE000AB4EEE00AF1EE10FA1E
:103DC0005CDDC54800EB850090ED000AF1EE040AC9
:103DD000B4EEE00AF1EE10FA50D2BF4800EB8600D4
:103DE00090ED000AF1EE000AB4EEE00AF1EE10FAEE
:103DF00044DDB94800EB860090ED000AF1EE040ABC
:103E0000B4EEE00AF1EE10FA38D2B348203800EBF5
:103E1000850090ED000AF3EE090AB4EEE00AF1EE37
:103E200010FA2BDDAC48203800EB850090ED000A3D
:103E3000DFEDAA0AB4EEE00AF1EE10FA1ED2A648AF
:103E4000203800EB860090ED000AF3EE090AB4EE8C
:103E5000E00AF1EE10FA11DD9F48203800EB8600F1
:103E600090ED000ADFED9D0AB4EEE00AF1EE10FAE3
:103E700004D2012003E089E189E181E100200028EA
:103E80006ED19748005DC8286BDD00209449085525
:103E90004C48007801286FD11CF09CFD4FF48071D4
:103EA0004948FCF754FE33462A468EA146481BF08B
:103EB0000FFA4FF480724449002017F063FF4FF46B
:103EC00080714148FCF743FE8348203800EB8500B1
:103ED00090ED000A10EE101A0846FCF70DFF41ECB9
:103EE000180B7D4800EB850090ED000A10EE101ACB
:103EF0000846FCF701FF41EC190B8DED028B8DEDAF
:103F0000009B2A4684A130481BF0E2F94FF48072EE
:103F10002D49002017F036FF4FF480712A48FCF736
:103F200016FE6D48203800EB860090ED000A10EE7A
:103F3000101A0846FCF7E0FE41EC180B664800EB4F
:103F4000860090ED000A10EE101A0846FCF7D4FE29
:103F500041EC190B8DED028B8DED009B324601E09B
:103F600025E01EE078A118481BF0B2F94FF48072EA
:103F70001549002017F006FF7F48405D40F0020021
:103F80007D4948550846805D40F0020088550C4840
:103F9000007840F002000A49087001207749087053
:103FA00008E04F48005D401C4D49085502E00020E4
:103FB0004B490855E5E00000B8F9FE1F06F7FE1F63
:103FC000B9F9FE1FE1F7FE1F6478FF1F5BCCE1CA61
:103FD000BE5D203A204368616E6E656C4572726FFB
:103FE00072466C6167203D2025642C20D2F2B9CA4C
:103FF000D5CFB4E6D4DACDCBB3F6C0CFBBAFC4A334
:10400000CABD0D0A00000000A83E0400F03E0400F6
:104010003120CDA8B5C034353637B7C5B5E72CB794
:10402000C5B5E7B5E7D1B9312E30562CB7C5B5E7E0
:10403000B5E7C1F731302E3041210D0A00000000F4
:104040003220CDA8B5C030313233B3E4B5E72CB35C
:10405000E4B5E7B5E7D1B9342E35562CB3E4B5E76E
:10406000B5E7C1F732302E3041210D0A00000000C3
:10407000000000423220CDA8B5C030313233B3E465
:10408000B5E72CB3E4B5E7B5E7D1B9342E35562CF6
:10409000B3E4B5E7B5E7C1F733322E3041210D0A5D
:1040A000000000003120CDA8B5C034353637B7C583
:1040B000B5E72CB7C5B5E7B5E7D1B9312E30562CE9
:1040C000B7C5B5E7B5E7C1F733302E3041210D0A4A
:1040D00000000000CCF9FE1F4C59FF1F00000C42ED
:1040E000DDF9FE1F5BCCE1CABE5D203A20CDA8B54C
:1040F000C02564B3E4B5E7C0CFBBAFD2ECB3A32C0B
:10410000CDA8B5C02564B7C5B5E7C0CFBBAFD2EC6D
:10411000B3A3210D0A0000005BCCE1CABE5D203ACA
:1041200020CDA8B5C02564B3E4B5E72CB3E4B5E76A
:10413000B5E7D1B92566562CB3E4B5E7B5E7C1F7C5
:10414000256641210D0A00005BCCE1CABE5D203A24
:1041500020CDA8B5C02564B7C5B5E72CB7C5B5E770
:10416000B5E7D1B92566562CB7C5B5E7B5E7C1F7B0
:10417000256641210D0A0000BBF9FE1FBAF9FE1F9A
:1041800003E0641C042CFFF60AAE00E008E00A20FD
:104190001CF07CFF781C0746F7498842FFF6F6AD15
:1041A00000BF0F2005F02AFBF02005F027FBF348A5
:1041B0000078A0B1F248007801280FD10102F1483F
:1041C000FCF7C5FCED480278EF49EE481BF080F89B
:1041D0004FF48072EB49002017F0D4FD25E5E84844
:1041E000007801282BD10102E648FCF7B0FCE74932
:1041F000E4481BF06DF84FF48072E249002017F09C
:10420000C1FD4FF48071DF48FCF7A1FCE0A1DD485F
:104210001BF05EF84FF48072DA49002017F0B2FD0F
:104220004FF48071D748FCF792FCD849D5481BF071
:104230004FF84FF48072D349002017F0A3FDF2EE3F
:10424000040AB7EE000A002211460F2005F050FBC9
:10425000CB48007801280DD10102CA48FCF777FC51
:10426000D3A1C8481BF034F84FF48072C549002030
:1042700017F088FD4FF47A701CF008FFF3EE040A83
:10428000B1EE020A00220121F02005F031FBBC480A
:10429000007801280DD10102BA48FCF758FCD0A1E2
:1042A000B8481BF015F84FF48072B649002017F09B
:1042B00069FD4FF47A701CF0E9FE5FED930AB1EEF0
:1042C000020A00220121F02005F012FBAC48007820
:1042D00001280DD10102AB48FCF739FCCCA1A9485B
:1042E0001AF0F6FF4FF48072A649002017F04AFD3D
:1042F0004FF47A701CF0CAFEF3EE0E0AB7EE000A15
:10430000002211460F2005F0F3FA9D48007801289D
:104310000DD101029B48FCF71AFCC9A199481AF07B
:10432000D7FF4FF480729749002017F02BFD00272C
:104330000120CF490870A8E190480078002870D18A
:10434000B7F5FA7F6EDD002510E18C480078002873
:1043500069D12E1D2C46C74800EB860090ED000A5F
:10436000F1EE000AB4EEE00AF1EE10FA5CDDC148AD
:1043700000EB860090ED000AF1EE040AB4EEE00ACC
:10438000F1EE10FA50D2BB4800EB840090ED000A29
:10439000F1EE000AB4EEE00AF1EE10FA44DDB548A1
:1043A00000EB840090ED000AF1EE040AB4EEE00A9E
:1043B000F1EE10FA38D2AF48203800EB860090EDCD
:1043C000000AF3EE090AB4EEE00AF1EE10FA2BDD72
:1043D000A848203800EB860090ED000A5FEDC10A86
:1043E000B4EEE00AF1EE10FA1ED2A248203800EB3B
:1043F000840090ED000AF3EE090AB4EEE00AF1EE53
:1044000010FA11DD9B48203800EB840090ED000A83
:104410005FEDCE0AB4EEE00AF1EE10FA04D201200C
:1044200003E0A7E02EE19FE0002000287DD1924824
:10443000405DC8287ADD00208F49485550480078F3
:1044400001286FD11CF0C6FA4FF480714D48FCF77B
:104450007EFB23463246AFF274314A481AF038FFE9
:104460004FF480724749002017F08CFC4FF48071A4
:104470004448FCF76CFB7F48203800EB860090ED49
:10448000000A10EE101A0846FCF736FC41EC180B37
:10449000784800EB860090ED000A10EE101A0846EE
:1044A000FCF72AFC41EC190B8DED028B8DED009B86
:1044B0003246AFF29C3133481AF00AFF4FF4807253
:1044C0003049002017F05EFC4FF480712D48FCF756
:1044D0003EFB6848203800EB840090ED000A10EEA7
:1044E000101A0846FCF708FC41EC180B614800EB79
:1044F000840090ED000A10EE101A0846FCF7FCFB51
:1045000041EC190B8DED028B8DED009B2246AFF235
:10451000C8311C481AF0DCFE4FF4807219490020A3
:1045200017F030FC5548805D01E019E012E040F0E2
:104530000200524988550846005D40F002000855C7
:104540000E48007840F002000C49087001204C49E8
:10455000087008E04848405D401C4749485502E063
:1045600000204549485500E003E06D1C042DFFF68E
:10457000ECAE87E08FE0000080F52000B9F9FE1F67
:10458000E1F7FE1F6478FF1F803F0400A83E04008F
:10459000B5A5B1DFC0CFBBAFCDEAB3C92CBBBBB1B2
:1045A000DFBCCCD0F8C0CFBBAFA1ADA1AD0D0A0030
:1045B0003120CDA8B5C030313233B7C5B5E72CB7FF
:1045C000C5B5E7B5E7D1B9312E30562CB7C5B5E73B
:1045D000B5E7C1F731302E3041210D0A000000004F
:1045E0003220CDA8B5C034353637B3E4B5E72CB3A7
:1045F000E4B5E7B5E7D1B9342E35562CB3E4B5E7C9
:10460000B5E7C1F732302E3041210D0A000000001D
:104610003320CDA8B5C034353637B3E4B5E72CB375
:10462000E4B5E7B5E7D1B9342E35562CB3E4B5E798
:10463000B5E7C1F733322E3041210D0A00000000EA
:104640003420CDA8B5C030313233B7C5B5E72CB76B
:10465000C5B5E7B5E7D1B9312E30562CB7C5B5E7AA
:10466000B5E7C1F733302E3041210D0A00000000BC
:10467000CCF9FE1F4C59FF1FDDF9FE1FBBF9FE1FD1
:10468000BAF9FE1F0A201CF001FD781C07460649F6
:104690008842FFF651AE00BFF02005F0AFF80F20C2
:1046A00005F0ACF800BF99E580F520007CB500244A
:1046B0001A480078022803D018480078162813D129
:1046C000174D00200090019001208DF8000042203D
:1046D0008DF8030001208DF8070008236A4629465B
:1046E000104802F0D1FE00BF00240EE000200E4969
:1046F00041F824000D4941F824000D4941F82400F7
:104700000C4941F82400601CC4B2082CEEDB0020E8
:10471000024948800021014881807CBD7CF5FE1F54
:104720000B0000C600900040D47AFF1F147BFF1FCF
:10473000F47AFF1F347BFF1F2DE9F043ADF2044DE7
:1047400000240025002600274FF4806101A8FCF713
:10475000FEF95B208DF804008DF8050009208DF826
:10476000060000208DF807008DF808008DF809007C
:104770008DF80A000EF0D2F909F084F900BFB4E018
:10478000CA4850F82400002853D0C94800788DF852
:104790000800C7480078401CC54908700120A040A7
:1047A000C0B28DF80A00A0208DF80B00002016E0A2
:1047B00000EB4001BF4A02EB81014968BB4A52F855
:1047C0002420114049B1691C8DB200EB4001B94A67
:1047D00012F82120E91D01AB5A54411CC8B21B2814
:1047E000E6D305F1080086B2F0B28DF80600300A73
:1047F0008DF80700A81D81B20DF1060003F0B2FF8D
:10480000074605F1080001AA1754390A401C115443
:10481000A521401C1154401C1154301D82B201A925
:10482000002017F0AFFA0120A349087000251BF003
:1048300057FB0025A14850F82400002853D09C487D
:1048400000788DF808009A480078401C9849087054
:104850000120A040C0B28DF80A0083208DF80B0023
:10486000002016E000EB4001954A02EB8101496807
:10487000924A52F82420114049B1691C8DB200EBD4
:1048800040018F4A12F82120E91D01AB5A54411C06
:10489000C8B20C28E6D305F1080086B2F0B28DF854
:1048A0000600300A8DF80700A81D81B20DF1060040
:1048B00003F058FF074605F1080001AA1754390A0A
:1048C000401C1154A521401C1154401C1154301D92
:1048D00082B201A9002017F055FA0120764908702C
:1048E00000251BF0FDFA601CC4B2082CFFF648AF8F
:1048F00045F65B3073490880092048800020087124
:1049000048710F208871A120C87100200872A1F899
:1049100009004AF2A550A1F80B006B48B0F80280DC
:10492000B0F80490B8F1000F02D008468079887181
:10493000B9F1000F03D063488079624988716248F9
:104940000078012806D0022856D00B2803D016285C
:104950007ED152E000BF00244BE05C4800EB8400B5
:10496000408800EA0800E8B100220321FF2010F08F
:10497000ADF9564810F82400524908724C480078A6
:1049800008714B480078401C4949087007214D4880
:10499000801C03F0E7FE4B49A1F809000D2200201E
:1049A00017F0F0F9494800EB8400408800EA09005C
:1049B000E8B100220321FF2010F088F9434810F8E5
:1049C0002400404908723A48007808713848007855
:1049D000401C3749087007213A48801C03F0C2FE8A
:1049E0003849A1F809000D22002017F0CBF9601C0E
:1049F000C4B2082CB1DB54E000BF00244DE03448C1
:104A000000EB8400408800EA0800E8B1002203219E
:104A1000FF2010F05BF92E4810F824002949087295
:104A200023480078087122480078401C204908700B
:104A300007212448801C03F095FE2249A1F80900B3
:104A40000D22002017F09EF9214800EB840000E0C1
:104A500026E0408800EA0900E8B100220321FF2097
:104A600010F034F91A4810F824001649087210485A
:104A7000007808710E480078401C0D490870072125
:104A80001048801C03F06EFE0E49A1F809000D22AB
:104A9000002017F077F9601CC4B20B2CAFDB00E0EC
:104AA00000BF00BF0DF2044DBDE8F083D47AFF1FB4
:104AB00060F9FE1F10FAFE1F04FAFE1FF47AFF1FB2
:104AC00054FBFE1F5478FF1F7CF5FE1F66F9FE1F86
:104AD0008AF9FE1F2DED028B8AB028216846FCF76B
:104AE00036F8B8E14FF0FF31DB4800681DF010FAEE
:104AF00000287DD145F65B30D849088009204880E0
:104B00000020087148718871A120C87100200872C6
:104B1000A1F809004AF2A550A1F80B00D048408F37
:104B2000CF49498800EA0105CD48808FCC49898862
:104B300000EA01061DB1C9488079C84988711EB1D3
:104B4000C6488079C5498871C5480078012807D0D2
:104B5000022872D00B2802D016286CD16CE000BF5E
:104B600000244BE0BF4800EB840040882840E8B1B7
:104B700000220321FF2010F0A9F8BA4810F8240001
:104B8000B6490872B84800780871B7480078401CE8
:104B9000B54908700721B148801C03F0E3FDAF4917
:104BA000A1F809000D22002017F0ECF8AD4800EB49
:104BB000840040883040F8B100220321FF2010F02B
:104BC00085F8A84810F82400A4490872A64800787F
:104BD0000871A5480078401CA349087007219F4828
:104BE000801C03F0BFFD9D49A1F809000D2200E0E3
:104BF0002BE1002017F0C6F8601CC4B2082CB1DB12
:104C000005F0080006F00801084390B100220121D8
:104C1000FF2010F05BF8002009E0944951F82010C3
:104C200041F40071914A42F82010411CC8B2082892
:104C3000F3DB09E101E006E100BF002449E08C4814
:104C400000EB840040882840E8B100220321FF20C7
:104C500010F03CF8864810F8240080490872824819
:104C60000078087180480078401C7F49087007214F
:104C70007A48801C03F076FD7849A1F809000D22DE
:104C8000002017F07FF87A4800EB8400408830401D
:104C9000E8B100220321FF2010F018F8744810F842
:104CA00024006E4908727048007808716E480078D8
:104CB000401C6D49087007216848801C03F052FDB4
:104CC0006649A1F809000D22002017F05BF8601C6E
:104CD000C4B20B2CB3DB05F4804006F480410843DA
:104CE00090B100220121FF200FF0F0FF002009E029
:104CF0005E4951F8201041F400715C4A42F82010DE
:104D0000411CC8B20828F3DB5548408800F0100069
:104D100020B95348408800F02000F8B15548007889
:104D200001281BD128216846FBF711FF4C4890ED64
:104D3000020A10EE101A0846FBF7DEFF41EC180BD2
:104D400053EC182B4CA168461AF0C2FA0D226946A2
:104D5000002017F017F80020464908704048808866
:104D600000F0100020B93E48808800F02000F8B123
:104D70004048007801281BD128216846FBF7E7FE50
:104D8000374890ED030A10EE101A0846FBF7B4FFFF
:104D900041EC180B53EC182B3DA168461AF098FA19
:104DA0000D226946002016F0EDFF00203149087001
:104DB0002B48408800F48060F8B13B480078012817
:104DC0001BD128216846FBF7C2FE254890ED040A56
:104DD00010EE101A0846FBF78FFF41EC180B53EC4E
:104DE000182B32A168461AF073FA0D22694600208A
:104DF00016F0C8FF00202C4908701948808800F47C
:104E00008060F8B12848007801281BD12821684625
:104E1000FBF79DFE124890ED050A10EE101A0846A9
:104E2000FBF76AFF41EC180B53EC182B25A16846E1
:104E30001AF04EFA0D226946002016F0A3FF00205A
:104E40001949087000E000BF00BF24A01AF030FA32
:104E500001201CF01BF945E644F5FE1F5478FF1FA6
:104E60007CF5FE1F66F9FE1F60F9FE1FD47AFF1F56
:104E70008AF9FE1F70F5FE1FC4A3BFE930B9CAD579
:104E8000CF4143B5E7D1B93D2531660D0A00000099
:104E9000C4A3BFE931B9CAD5CF4143B5E7D1B93DC4
:104EA0002531660D0A00000071F5FE1FC4A3BFE99D
:104EB00030B9CAD5CF4443B5E7D1B93D2531660DE8
:104EC0000A000000C4A3BFE931B9CAD5CF4443B535
:104ED000E7D1B93D2531660D0A00000061636463C6
:104EE000207461736B2069732072756E6E696E67D2
:104EF000210000002DE01748007838BB16480078E4
:104F000020BB1648807808280FD11448C0782A287A
:104F10000BD113480078012818D1002010490870DF
:104F200012F070F8FEF754FE10E00C488078082864
:104F30000CD10A48C078292808D1094800780128EE
:104F400004D100200649087012F05CF864201CF0BF
:104F50009DF8D0E7F4F9FE1F10F5FE1FA2F7FE1F23
:104F6000F0F9FE1FADF5015D002656E1AB48007873
:104F700010B10020A9490870A94890ED000AF2EE8E
:104F8000000AB4EE600AF1EE10FA07D0B2EE000AA1
:104F900080ED000A90ED000AFDF72CF940F2191699
:104FA0004FF4005110A8FBF7D2FD002400256DE05E
:104FB00005EB850202EB85129A4BD11810AA101945
:104FC0004522FBF7ABFD453405EB850202EB85136B
:104FD000954A991810AA10194522FBF79FFD4534F0
:104FE00005EB850202EB8512904BD11810AA10191F
:104FF0004522FBF793FD453405EB4502C2EB8512D4
:105000008B4BD11810AA10193D22FBF787FD3D34B8
:1050100010A8011905EB4502864800EB82000268E2
:105020000A6042684A60806888600C3410A882492F
:10503000495D0155641C05EB45017E4810F82100CF
:1050400002281BD005EB45017A4810F821000628FC
:1050500014D005EB4501774810F8210004280DD045
:1050600005EB4501734810F82100052806D005EB33
:105070004501704810F82100012803D101206F4933
:10508000485502E000206D4948556D1C082D8FDB06
:1050900001210F9101220FA950030FF0DFFA052023
:1050A0001BF0F4FF002516E06448405D01280ED196
:1050B000002062494855B2B210AB06FB053106FB31
:1050C00005F00FF0CBFAFA201BF0E0FF02E0FA2027
:1050D0001BF0DCFF6D1C082DE6DB4FF4805110A89F
:1050E000FBF735FD002400256DE005EB850202EBA2
:1050F00085124C4BD11810AA10194522FBF70EFD52
:10510000453405EB850202EB8513474A991810AA2E
:1051100010194522FBF702FD453405EB850202EB31
:105120008512424BD11810AA10194522FBF7F6FC44
:10513000453405EB4502C2EB85123D4BD11810AA50
:1051400010193D22FBF7EAFC3D3410A8011905EBCC
:105150004502384800EB820002680A6042684A60F3
:10516000806888600C3410A83349495D0155641C7F
:1051700005EB45012F4810F8210002281BD005EB54
:1051800045012C4810F82100062814D005EB4501F4
:10519000284810F8210004280DD005EB45012548CA
:1051A00010F82100052806D005EB4501214810F82C
:1051B0002100012803D101202049485502E00020A8
:1051C0001E4948556D1C082D8FDB02210F910122CD
:1051D0000FA950030FF042FA05201BF057FF0025DE
:1051E00018E01648405D012810D1002013494855A9
:1051F000B2B210AB06FB053106FB05F303F5805098
:105200000FF02CFAFA201BF041FF02E0FA201BF00D
:105210003DFF6D1C082DE4DB00BFA7E6F4F9FE1F7F
:10522000F8F9FE1F584DFF1F0849FF1F304BFF1FA5
:10523000804FFF1F8851FF1F1DF9FE1F70F8FE1FD2
:1052400000BF1BF0B7F958E02C48007801280DD1B9
:105250002B480078012806D11BF0ACF90020294921
:1052600008702749087015F013FD22E023480078E4
:1052700002280DD122480078012806D11BF09AF9A6
:105280000020204908701E49087016F0CBF810E085
:105290001D48007810B915F0FBFC0AE019480078A9
:1052A000022804D11BF086F900201649087016F078
:1052B000B9F816480078E8B913484068144988429C
:1052C00018D914480078A8B913480078662811D175
:1052D00012488078082803D11048C078292809D0BE
:1052E000002009494860012008720870002016F06B
:1052F000BBFBA6E705201BF0C9FEA5E714F9FE1FBE
:1053000015F9FE1F33F9FE1F4868FF1F16F9FE1F2F
:10531000905F010058F9FE1FB8F9FE1FA2F7FE1FAB
:1053200000240025012623E0012E01D100260024BF
:10533000052C08DA0F48007828B920460EF076FED2
:10534000601CC4B202E005240EF0BAFE0EF052FD5D
:105350000948007848B901F0F7F8322D02DA681CE4
:10536000C5B202E000F0CCFD002514201BF08EFE3B
:10537000DAE7000005FAFE1F17F9FE1FADF5806D94
:1053800000240025002600274FF480616846FBF7C3
:10539000DEFB5B208DF800008DF8010009208DF800
:1053A000020000208DF803008DF804008DF8050040
:1053B0008DF8060036E14FF0FF319B4800681CF085
:1053C000A7FD0028F6D19948007800287ED1002456
:1053D000DAE0974850F82400002865D0944850F847
:1053E0002400944951F8241088425DD00022012104
:1053F00020460FF0CBFB8E4850F824008D4941F831
:1054000024008D4800788DF804008B480078401CFB
:10541000894908700120A040C0B28DF80600A02084
:105420008DF80700002016E000EB4001834A02EBF4
:10543000810149687E4A52F82420114049B1691C13
:105440008DB200EB40017D4A12F82120E91D0DF8D4
:105450000120411CC8B21B28E6D305F1080086B222
:10546000F0B28DF80200300A8DF80300A81D81B259
:105470000DF1020003F076F90746F9B205F10800D4
:105480000DF80010390A401C0DF80010A521401C31
:105490000DF80010401C0DF80010301D82B2694656
:1054A000002016F06FFC00250025654850F8240008
:1054B000002867D0624850F82400624951F824104F
:1054C00088425FD000221146204600E060E00FF0E5
:1054D0005DFB5B4850F824005A4941F824005648C7
:1054E00000788DF8040054480078401C5249087038
:1054F0000120A040C0B28DF8060083208DF807007F
:10550000002016E000EB40014F4A02EB81014968A0
:105510004B4A52F82420114049B1691C8DB200EB6E
:105520004001494A12F82120E91D0DF80120411CD3
:10553000C8B20C28E6D305F1080086B2F0B28DF8A7
:105540000200300A8DF80300A81D81B20DF102009F
:1055500003F008F90746F9B205F108000DF800104C
:10556000390A401C0DF80010A521401C0DF8001050
:10557000401C0DF80010301D82B26946002016F064
:1055800001FC0025601CC4B2082CFFF622AF36E0F7
:1055900000202649087000242FE0254850F82400F8
:1055A00090B1234850F82400224951F82410884231
:1055B0000AD00022012120460FF0E8FA1C4850F8DA
:1055C00024001C4941F824001D4850F8240090B1E3
:1055D0001B4850F824001B4951F8241088420AD077
:1055E0000022114620460FF0D1FA154850F8240049
:1055F000144941F82400601CC4B2082CCDDB4A20B9
:1056000000280DDB00BF00BF00F01F020121914008
:105610004209920002F1E022C2F8001100BF00BF6F
:1056200000BF00BFC7E6000048F5FE1F04FAFE1FDA
:10563000D47AFF1F147BFF1F60F9FE1F10FAFE1FB4
:10564000F47AFF1F347BFF1F54FBFE1FADF5016D85
:10565000A5E04FF0FF31524800681CF059FC0028CB
:10566000F6D14FF4006104A8FBF771FA00244D480D
:10567000B0F8001804A80FF05FFD78E00020039058
:10568000029001904748B0F8001804F10A008142E6
:1056900009DA444AB2F80028121B91B204AA101980
:1056A00019F08CFD68E004A820440088039004A948
:1056B000A01C084400880190BDF80C0045F65A2152
:1056C000884202D0A01C84B251E0BDF804002044FE
:1056D000001D3449B1F80018884209DD314AB2F89A
:1056E0000028121B91B204AA101919F067FD43E0BB
:1056F000BDF804002044801C04A9084400880290DE
:10570000BDF808004AF2A551884202D0A01C84B21C
:105710002DE0BDF80400001D2349088004A80119EC
:10572000214802882148FBF7F9F91F4800882044E6
:1057300084B21F4B1F4A1C4801881C480FF09AFB7B
:105740001D48007890B900BF194802881949002007
:1057500016F018FB0028F7D018480078022805D169
:1057600041F288301AF0BCFB19F0A6FE00BF0D48CC
:10577000B0F80008A04281DC00BF0A48B0F8000879
:10578000A04207DB0748B0F80008001B0549A1F854
:10579000000803E000200349A1F8000800BF58E713
:1057A0004CF5FE1F0013FF1F1AF9FE1F5027FF1FA5
:1057B00018F9FE1F5023FF1F2DF9FE1F16F9FE1FBB
:1057C0001CB500200190012247F6F27101A81BF0E0
:1057D00035F99DF8040001280BD1042247F6F37136
:1057E000FD481BF02BF9022247F6F771FB481BF02E
:1057F00025F909F027F8FA488078082807D1F848F1
:10580000C0782A2807D0F648C078292803D0F54860
:105810000078662803D00120F349087002E00020D8
:10582000F1490870FE2101200FF05EFCEF4908707D
:1058300000F0BCFBEE4A002101201CF0ABFBED495F
:105840000860ED4A0021ED481CF0F6FBEC490860C9
:10585000EC4A0021EC481CF0EFFBEC490860EC48F6
:10586000007830B313201AF0D3FE00240DE04FF47B
:10587000FA701AF035FB13201AF0E8FE14201AF023
:10588000E5FE07F071FA601CC4B20A2CEFDB1320AE
:105890001AF0A0FE14201AF09DFE32201AF020FB10
:1058A0000DF0E2F8FCF79EFBDA4908700020D849B9
:1058B0000870D948008800F4004098B9D6480068BC
:1058C00000F4803070B9D448006800F4003048B962
:1058D000D148008800F4006020B9CF48008800F467
:1058E000805010B10120CD4908701DF043FC10F02C
:1058F000C7F80120CA49C8700020009001226946FB
:1059000050030EF052FE0822C64942F210000EF07B
:105910004CFE9DF80000012859D10503002453E0F6
:10592000C048005D01284ED104EB840000EB8410D8
:10593000BD4A8118452228460EF037FE453504EB56
:10594000840000EB8412B9481118452228460EF055
:105950002CFE453504EB840000EB8410B44A81181A
:10596000452228460EF021FE453504EB4400C0EBED
:105970008410B04A81183D2228460EF016FE3D35AF
:1059800004EB4402AC4800EB82010C2228460EF0E6
:105990000CFE0C35A9480119012228460EF005FE1F
:1059A0006D1C04EB4401A44810F82100062804D122
:1059B0000120A3490855A3490855012104EB4402DD
:1059C0009D4800F82210641C082CA9DB5DE09DF8BE
:1059D0000000022859D10025002453E09148005DC1
:1059E00001284ED104EB840000EB84108E4A81180C
:1059F000452228460EF0D9FD453504EB840000EB26
:105A000084128A481118452228460EF0CEFD4535ED
:105A100004EB840000EB8410854A81184522284657
:105A20000EF0C3FD453504EB4400C0EB8410814A01
:105A300081183D2228460EF0B8FD3D3504EB4402A6
:105A40007D4800EB82010C2228460EF0AEFD0C359D
:105A50007A480119012228460EF0A7FD6D1C04EBBF
:105A60004401754810F82100062804D1012074492A
:105A7000085574490855012104EB44026E4800F8AA
:105A80002210641C082CA9DB00BF05F0EDFF6E4A54
:105A9000002101201CF07EFA6C4908606C4A00214C
:105AA00001201CF077FA6B4908606B4A0021012045
:105AB0001CF070FA69490860694A102108461BF019
:105AC000CDFB6849086004F003F95148007810B92B
:105AD000012013F041FE01E141488078082807D1F8
