:020000040002F8
:10000000689FFF1F71090200B949030011E7020050
:100010000B49030049640200D3AC03000000000058
:100020000000000000000000000000009509020030
:10003000B1AC0200000000002D0A02003D0A0200DF
:100040004DEA02005DEA02006DEA02007DEA02006C
:100050008DEA02009DEA0200ADEA0200BDEA02005C
:10006000CDEA0200DDEA0200EDEA0200FDEA02004C
:100070000DEB02001DEB02002DEB02003DEB020038
:100080004DEB02005DEB02006DEB02007DEB020028
:100090008DEB02009DEB0200ADEB0200BDEB020018
:1000A000CDEB0200DDEB0200EDEB0200FDEB020008
:1000B0000DEC02001DEC02002DEC02003DEC0200F4
:1000C0004DEC02005DEC02006DEC02007DEC0200E4
:1000D0008DEC02009DEC0200ADEC0200BDEC0200D4
:1000E000CDEC0200DDEC0200EDEC0200FDEC0200C4
:1000F0000DED02001DED02002DED02003DED0200B0
:100100004DED02005DED02006DED02007DED02009F
:100110008DED02009DED0200ADED0200BDED02008F
:10012000CDED0200DDED0200EDED0200FDED02007F
:100130000DEE02001DEE02002DEE02003DEE02006B
:100140004DEE02005DEE02006DEE02007DEE02005B
:100150008DEE02009DEE0200ADEE0200BDEE02004B
:10016000CDEE0200DDEE0200EDEE0200FDEE02003B
:100170000DEF02001DEF02002DEF02003DEF020027
:100180004DEF02005DEF02006DEF02007DEF020017
:100190008DEF02009DEF0200ADEF0200BDEF020007
:1001A000CDEF0200DDEF0200EDEF0200FDEF0200F7
:1001B0000DF002001DF002002DF002003DF00200E3
:1001C0004DF002005DF002006DF002007DF00200D3
:1001D0008DF002009DF00200ADF00200BDF00200C3
:1001E000CDF00200DDF00200EDF00200FDF00200B3
:1001F0000DF102001DF102002DF102003DF102009F
:100200004DF102005DF102006DF102007DF102008E
:100210008DF102009DF10200ADF10200BDF102007E
:10022000CDF10200DDF10200EDF10200FDF102006E
:100230000DF202001DF202002DF202003DF202005A
:100240004DF202009DF3020089F802003DFD02001C
:10025000950003003D040300C5070300010A0300E5
:10026000110E03002112030061150300E91A0300B7
:10027000CD1F030059230300CD2603006929030085
:10028000DFF80CD000F092FF004800474B1202004C
:10029000689FFF1F0246D2E84F0FC2E8431F03B119
:1002A000F9E77047024652E8000F40EA010042E8D1
:1002B000000303B1F7E7704710B5024652E8000F9C
:1002C00020EA010442E8004303B1F7E710BD10B58E
:1002D000024652E8000F00EA01048C4203D0BFF34B
:1002E0002F8F002010BD20EA010442E8004303B133
:1002F000EFE710BD10B5024652E8000F084203D1E7
:10030000BFF32F8F002010BD20EA010442E8004314
:1003100003B1F1E710BD024652E8000F411C42E86C
:10032000001303B1F8E7704710B50246D2E85F0F3B
:10033000814202D8BFF32F8F10BD441CC2E8534F37
:1003400003B1F3E710BD10B50246D2E85F0F441CBD
:10035000A14200D80024C2E8534F03B1F5E710BD15
:10036000024652E8000F411E42E8001303B1F8E7CD
:100370007047024652E8000F10B9BFF32F8F704745
:10038000411E42E8001303B1F4E770470246D2E889
:100390005F0F10B9BFF32F8F7047411EC2E8531F84
:1003A00003B1F4E77047024652E8000F10B9BFF3FB
:1003B0002F8F7047016842E8001303B1F4E77047DC
:1003C00002680A60BFF35F8F50E8002F0B6893420A
:1003D000F6D140E8001303B1F2E770470246D2E8D5
:1003E0004F0FC2E8431F03B1F9E77047024652E8D6
:1003F000000F40EA010042E8000303B1F7E770474D
:1004000010B5024652E8000F20EA010442E800431A
:1004100003B1F7E710BD10B5024652E8000F00EA3D
:1004200001048C4203D0BFF32F8F002010BD20EABF
:10043000010442E8004303B1EFE710BD10B50246E6
:1004400052E8000F084203D1BFF32F8F002010BDE8
:1004500020EA010442E8004303B1F1E710BD02467F
:1004600052E8000F411C42E8001303B1F8E770475F
:1004700010B50246D2E85F0F814202D8BFF32F8F3A
:1004800010BD441CC2E8534F03B1F3E710BD10B5D3
:100490000246D2E85F0F441CA14200D80024C2E803
:1004A000534F03B1F5E710BD024652E8000F411E5D
:1004B00042E8001303B1F8E77047024652E8000F24
:1004C00010B9BFF32F8F7047411E42E8001303B1EC
:1004D000F4E770470246D2E85F0F10B9BFF32F8FE1
:1004E0007047411EC2E8531F03B1F4E7704702464C
:1004F00052E8000F10B9BFF32F8F7047016842E830
:10050000001303B1F4E7704702680A60BFF35F8F1E
:1005100050E8002F0B689342F6D140E8001303B176
:10052000F2E770470246D2E84F0FC2E8431F03B11B
:10053000F9E77047024652E8000F40EA010042E83E
:10054000000303B1F7E7704710B5024652E8000F09
:1005500020EA010442E8004303B1F7E710BD10B5FB
:10056000024652E8000F00EA01048C4203D0BFF3B8
:100570002F8F002010BD20EA010442E8004303B1A0
:10058000EFE710BD10B5024652E8000F084203D154
:10059000BFF32F8F002010BD20EA010442E8004382
:1005A00003B1F1E710BD024652E8000F411C42E8DA
:1005B000001303B1F8E7704710B50246D2E85F0FA9
:1005C000814202D8BFF32F8F10BD441CC2E8534FA5
:1005D00003B1F3E710BD10B50246D2E85F0F441C2B
:1005E000A14200D80024C2E8534F03B1F5E710BD83
:1005F000024652E8000F411E42E8001303B1F8E73B
:100600007047024652E8000F10B9BFF32F8F7047B2
:10061000411E42E8001303B1F4E770470246D2E8F6
:100620005F0F10B9BFF32F8F7047411EC2E8531FF1
:1006300003B1F4E77047024652E8000F10B9BFF368
:100640002F8F7047016842E8001303B1F4E7704749
:1006500002680A60BFF35F8F50E8002F0B68934277
:10066000F6D140E8001303B1F2E770470246D2E842
:100670004F0FC2E8431F03B1F9E77047024652E843
:10068000000F40EA010042E8000303B1F7E77047BA
:1006900010B5024652E8000F20EA010442E8004388
:1006A00003B1F7E710BD10B5024652E8000F00EAAB
:1006B00001048C4203D0BFF32F8F002010BD20EA2D
:1006C000010442E8004303B1EFE710BD10B5024654
:1006D00052E8000F084203D1BFF32F8F002010BD56
:1006E00020EA010442E8004303B1F1E710BD0246ED
:1006F00052E8000F411C42E8001303B1F8E77047CD
:1007000010B50246D2E85F0F814202D8BFF32F8FA7
:1007100010BD441CC2E8534F03B1F3E710BD10B540
:100720000246D2E85F0F441CA14200D80024C2E870
:10073000534F03B1F5E710BD024652E8000F411ECA
:1007400042E8001303B1F8E77047024652E8000F91
:1007500010B9BFF32F8F7047411E42E8001303B159
:10076000F4E770470246D2E85F0F10B9BFF32F8F4E
:100770007047411EC2E8531F03B1F4E770470246B9
:1007800052E8000F10B9BFF32F8F7047016842E89D
:10079000001303B1F4E7704702680A60BFF35F8F8C
:1007A00050E8002F0B689342F6D140E8001303B1E4
:1007B000F2E770470246D2E84F0FC2E8431F03B189
:1007C000F9E77047024652E8000F40EA010042E8AC
:1007D000000303B1F7E7704710B5024652E8000F77
:1007E00020EA010442E8004303B1F7E710BD10B569
:1007F000024652E8000F00EA01048C4203D0BFF326
:100800002F8F002010BD20EA010442E8004303B10D
:10081000EFE710BD10B5024652E8000F084203D1C1
:10082000BFF32F8F002010BD20EA010442E80043EF
:1008300003B1F1E710BD024652E8000F411C42E847
:10084000001303B1F8E7704710B50246D2E85F0F16
:10085000814202D8BFF32F8F10BD441CC2E8534F12
:1008600003B1F3E710BD10B50246D2E85F0F441C98
:10087000A14200D80024C2E8534F03B1F5E710BDF0
:10088000024652E8000F411E42E8001303B1F8E7A8
:100890007047024652E8000F10B9BFF32F8F704720
:1008A000411E42E8001303B1F4E770470246D2E864
:1008B0005F0F10B9BFF32F8F7047411EC2E8531F5F
:1008C00003B1F4E77047024652E8000F10B9BFF3D6
:1008D0002F8F7047016842E8001303B1F4E77047B7
:1008E00002680A60BFF35F8F50E8002F0B689342E5
:1008F000F6D140E8001303B1F2E770470246D2E8B0
:100900004F0F411CC2E8431F03B1F8E7704702468E
:1009100052E8000F411C42E8001303B1F8E77047AA
:10092000024652E8000F42E8001303B1F9E77047AE
:10093000024652E8000F830103D3BFF32F8F00203C
:10094000704700F00040084342E8000303B1F0E7BD
:100950007047024652E8000F800103D2BFF32F8F89
:100960000020704742E8001303B1F3E7012070470D
:100970000648804706480047FEE7FEE7FEE7FEE739
:10098000FEE7FEE7FEE7FEE7FEE7FEE791800300F5
:10099000810202001EF0040F0CBFEFF30880EFF39A
:1009A0000980816911F8021C91BB01B590E80F1014
:1009B000E047BDE800508CE80300244B93E80600B4
:1009C000914208BF704741B91EF0100F10D1204965
:1009D000086820F0010008600AE02CE9F00F1EF022
:1009E000100F08BF2CED108AC1F838C081F822E042
:1009F0001A6092F82210906B61F0FF0E1EF0100F3B
:100A000008BFB0EC108AB0E8F00F80F30988704797
:100A1000104A13689942FAD801B552F821C00FC89C
:100A2000E047BDE80050CCF80000704701B521F068
:100A300035F9BDE80140EFF3098CBEE701B521F0BF
:100A400043FCBDE80140EFF3098CB6E774FCFE1FE0
:100A500034EF00E0504204002DE9F05F054600202D
:100A600092469B4688460646814640241BE028461F
:100A700041464746224600F0C4F953465A46C01A3A
:100A8000914110D311461846224600F0ABF92D1AB9
:100A900067EB01084F4622460120002100F0A2F931
:100AA00017EB00094E41201EA4F10104DFDC48468B
:100AB00031462A464346BDE8F09F2DE9F041002427
:100AC000061B254671F1000605DA01240027D0EB4C
:100AD000070067EB0101161E73F1000605DA002717
:100AE000D2EB0702012567EB0303FFF7B5FF86464C
:100AF0000E4617469C46AC4204D00025D0EB050EAE
:100B000065EB010624B10020D2EB000760EB030C7B
:100B1000704631463A466346BDE8F08140EA01033B
:100B20009B0703D009E008C9121F08C0042AFAD2A3
:100B300003E011F8013B00F8013B521EF9D2704767
:100B4000D2B201E000F8012B491EFBD2704700220F
:100B5000F6E710B513460A4604461946FFF7F0FFBC
:100B6000204610BD10B5002200E0521C835C8C5C56
:100B7000A34201D1002BF8D1D8B2E1B2401A10BD86
:100B800030B504460020034600E05B1C934203D2CC
:100B9000E05CCD5C401BF8D030BD2DE9F04D81EA22
:100BA000030404F0004B21F0004514464FF0000A06
:100BB00023F0004150EA050220D054EA01021DD082
:100BC000C5F30A570246C5F31303C1F31300C1F37B
:100BD0000A5640F4801543F48013A7EB0608101B57
:100BE000D64608F2FD3873EB050002D308F1010880
:100BF00001E092185B41B8F1000F03DA00200146D2
:100C0000BDE8F08D00204FF48011064684460EE0CA
:100C1000171B73EB050705D3121B63EB0503064394
:100C20004CEA010C49084FEA300092185B4150EA47
:100C30000107EDD152EA030012D082EA040083EAF0
:100C40000501084305D0101BAB4106D20122002349
:100C500006E000224FF0004302E06FF00102531063
:100C60001AEB06004CEB085110EB0A0041EB0B01AC
:100C7000BDE8F04D00F00CB90EB5C10F80EAE07090
:100C80000844CA07002140F233438DE80E000A46AB
:100C90000B4600F00CF903B000BD0EB540F2334135
:100CA00002910021CDE900110A460B4600F0FFF841
:100CB00003B000BD0EB540F2334202920022CDE9EE
:100CC0000022134600F0F3F803B000BD20F000400E
:100CD000C20DC0F3160040F400007F2A02DA0020A3
:100CE000014670470021962A03DCC2F19602D040EB
:100CF0007047963A00F076B800F0004230F00040BD
:100D00000AD0C10D01F56071C0F3160042EA01512D
:100D1000C208400711437047002001467047000099
:100D200030B5041E71F1000404DB4FF00044404272
:100D300064EB0101141E73F1000405DB1C464FF047
:100D40000043524263EB04038B4208BF824230BD32
:100D500030B5041E71F1000404DB4FF00044404242
:100D600064EB0101141E73F1000405DB1C464FF017
:100D70000043524263EB0403994208BF904230BDE6
:100D800001F0004330B421F0004150EA010206D0E6
:100D90000A0DA2F56072C1F31301002A02DC30BC17
:100DA00000207047440F44EAC104C100E01830BC81
:100DB00000EBC25000F035B830B50B4601460020BC
:100DC0002022012409E021FA02F59D4205D303FA0D
:100DD00002F5491B04FA02F52844151EA2F101028E
:100DE000F1DC30BD202A04DB203A00FA02F10020B9
:100DF00070479140C2F1200320FA03F31943904059
:100E00007047202A04DB203A21FA02F000217047C3
:100E100021FA02F3D040C2F1200291400843194662
:100E200070470029A8BF7047401C490008BF20F048
:100E30000100704710B4B0FA80FC00FA0CF050EAE0
:100E4000010404BF10BC704749B1CCF1200421FA61
:100E500004F411FA0CF118BF012121430843A3EB5C
:100E60000C01CB1D4FEA00614FEA102042BF002069
:100E700010BC704700EBC35010440029A4BF10BC45
:100E80007047401C490008BF20F0010010BC7047AB
:100E900010B5141E73F1000408DA401C41F1000182
:100EA00092185B411A4301D120F0010010BD2DE9D9
:100EB000F04D92469B4611B1B1FA81F202E0B0FAD0
:100EC00080F220329046FFF78DFF04460F4640EA3D
:100ED0000A0041EA0B0153465A46084313D0114613
:100EE00053EA010019D0C8F140025046FFF789FFCC
:100EF00005460E46504659464246FFF773FF0843E3
:100F000005D0012004E020463946BDE8F08D0020E0
:100F1000054346EAE0762C4337430A986305E40A22
:100F2000A0EB08000022FD0A44EA47540A3002D52B
:100F300000200146E9E7010510196941DDE908458E
:100F400000196941BDE8F04DA2E72DE9FE4F80464A
:100F500081EA0300C00F0C46009021F0004123F00D
:100F60000045B8EB0200A94105D240462146904613
:100F70001C460B46024623F00040104347D0270D85
:100F8000C7F30A00C3F30A510290401A01904028A7
:100F90006BDAC3F3130040F4801B0098924620B133
:100FA0000023D2EB030A63EB0B0B01985946C0F107
:100FB00040025046FFF716FF06460D46504659467A
:100FC000019A00F005F910EB08006141002487EA5E
:100FD000115284EAE7731A4340D0009A62B3019A2F
:100FE000012A4FEA075215DC001B61EB02014FF0AA
:100FF000004202EA0752CDE90042001C41F580118F
:1010000032462B46FFF753FF03B0BDE8F08F404652
:101010002146F9E7001B61EB0201001C41F580133A
:1010200000185B412018A2F5001747EB030140EAC6
:10103000D570B6196D4111E06D084FEA360645EAE4
:10104000C0754FEA0752001B61EB0201001C41F51D
:10105000801149084FEA30000019514132462B46B1
:1010600003B0BDE8F04FFFF713BF00980122400026
:101070000023D0EB020263EBE073009821464FEAB5
:10108000E074B8EB000061EB0401E9E783F0004392
:101090005BE781F0004158E72DE9FE4F81EA030448
:1010A00004F0004421F0004100944FF0000B23F0C5
:1010B000004350EA01045ED052EA03045BD0C3F35C
:1010C0000A54C1F30A552C44A4F2F3340194A0FB52
:1010D0000254C1F3130141F48011C3F3130343F429
:1010E000801301FB024400FB034E840A970A44EA82
:1010F000815447EA8357A4FB076802958D0A05FBD4
:1011000007854FEA932C04FB0C542705029D4FEAF8
:10111000065847EA1637B5EB08056EEB070C870E45
:10112000920E47EA811742EA8312A7FB0201B6EB4F
:101130000B0164EB00042B0D43EA0C335E1844EB07
:101140001C50DA465146E7FB0201C5F313044FEA8F
:101150000B3343EA14534FEA0432019C43EA06037B
:10116000A4F10C040294009CCDE900B4FFF79FFEAB
:1011700003B0BDE8F08F00200146F9E7C1F30A5241
:10118000C1F3130140F2FF3341F480119A4202DAB5
:1011900000200146704740F233439A42A2F23342A4
:1011A00002DC5242FFF72DBEFFF71CBE064C074D76
:1011B00006E0E06840F0010394E807009847103427
:1011C000AC42F6D3FFF760F8784504009845040078
:1011D000202A06DBCB17203A41FA02F043EAE073FB
:1011E00006E041FA02F3D040C2F1200291400843E8
:1011F0001946704770B58C1810F8015B15F007039D
:1012000001D110F8013B2A1106D110F8012B03E09F
:1012100010F8016B01F8016B5B1EF9D12B0705D4A7
:101220000023521E0DD401F8013BFAE710F8013BF0
:10123000CB1A921C03E013F8015B01F8015B521E0C
:10124000F9D5A142D8D3002070BD10B516F0B0FE7C
:1012500020F088F9002010BD2DE9F04F85B08046C0
:1012600015461C4600260020039004900027814666
:10127000029001900090E020019020889DF80410D9
:1012800041552088401C2080FE48008818F8000046
:1012900002909DF80800012803DB9DF80800032850
:1012A00015DD4FF008090120009020889DF80810F6
:1012B00041552088401C208020889DF80010415511
:1012C0002088401C2080484605B0BDE8F08F9DF87E
:1012D0000800012804D002284BD003287ED17FE2E9
:1012E000E9480078002839D10120E74908701FF04B
:1012F000A3F820F09FF98246E448006821F044F901
:101300000020E3490870E348006821F097F9E248BB
:10131000006821F039F9E148006821F035F9E0482A
:10132000006821F031F9012018F0DCFC4A201EF0A1
:10133000DDFA032018F0D6FC50201EF0D7FA022068
:101340001EF0D4FA01201EF0D1FA20F0C5F9834630
:10135000584620F089F9504620F086F901201FF008
:101360006BF820889DF8081041552088401C20808B
:1013700045E2C548007801286AD1CA4800780228A9
:1013800003D0C84800781628F6D1BE4800884044EB
:1013900040780006BB4909884144897800EB014048
:1013A000B84909884144C97800EB0120B54909884A
:1013B000414409794618B3480088404450F8051F55
:1013C000039140680490082303AA3146B64805F00B
:1013D000B1FF300E1C2806D1F02000E00EE200EA3A
:1013E0001640B02835D0300E1C2804D1F02000EA79
:1013F0001640A0282DD0300E1C2804D1F02000EA81
:101400001640D02825D00020A849087000E000BF71
:10141000A748007B0028FAD020889DF80810415585
:101420002088401C208020882844A1490968016048
:101430002088001D2080208828449D494A68026039
:10144000896841602088083020800020984908730E
:101450007EE0300E1C2839D1F02000EA1640A0288A
:1014600034D100209149087008E0781C87B201202F
:101470001EF0E2FF8E48007B00B102E0B7F5FA5F94
:10148000F3DB00BFB7F5FA5F1CDA20889DF808107F
:1014900041552088401C20802088284484490968C0
:1014A00001602088001D20802088284480494A68E7
:1014B00002608968416020880830208000207C49D3
:1014C000087345E001207949087041E0300E1C287E
:1014D0003BD1F02000EA1640D02836D100207349D5
:1014E000087008E0781C87B201201EF0A5FF704844
:1014F000007B00B103E040F6B8308742F2DB00BF6A
:1015000040F6B83087421CDA20889DF80810415513
:101510002088401C20802088284465490968016093
:101520002088001D20802088284461494A68026084
:101530008968416020880830208000205C49087359
:1015400006E001205949087002E00120574908705F
:101550004D480078012864D152480078012803D012
:10156000504800780B28F6D146480088404440781F
:101570000006444909884144897800EB014041490B
:1015800009884144C97800EB01203E49098841445B
:10159000097946183B480088404450F8051F0391DC
:1015A00040680490082303AA31463F4805F0C2FE74
:1015B000300E10283AD1C6F30740512836D100200A
:1015C0003A49087008E0781C87B264201EF03EFF9C
:1015D0003748007B00B103E042F210708742F2DB33
:1015E00000BF42F2107087421CDA20889DF8081074
:1015F00041552088401C2080208828442C490968B7
:1016000001602088001D20802088284428494A68DD
:1016100002608968416020880830208000202449C9
:101620000873DCE0012021490870D8E0300E102852
:1016300054D1C6F30740522850D100201B490870EE
:1016400009E0781C87B24FF47A701EF0FFFE18484C
:10165000007B00B103E044F620608742F1DB00BF6D
:1016600044F62060874235DA20889DF808104155FD
:101670002088401C2080208828440D49096801608A
:10168000208817E024F9FE1FF2F8FE1F1CF5FE1F4C
:101690000008044050F5FE1F24F5FE1F28F5FE1F2C
:1016A0003CF5FE1F7CF5FE1F0090004009F9FE1F6F
:1016B00004FFFE1F001D20802088284451494A68ED
:1016C00002608968416020880830208000204D49F0
:1016D000087384E001204C49087080E0300E102827
:1016E0003BD1C6F30740552837D100204649087042
:1016F00009E0781C87B24FF47A701EF0A7FE4148CB
:10170000007B00B103E043F698208742F1DB00BF85
:1017100043F6982087421CDA20889DF8081041552E
:101720002088401C208020882844364909680160B0
:101730002088001D20802088284432494A680260A1
:101740008968416020880830208000202D49087376
:1017500045E001202C49087041E0300E10283BD1B3
:10176000C6F30740562837D100202749087009E002
:10177000781C87B24FF47A701EF068FE2148007B17
:1017800000B103E043F698208742F1DB00BF43F647
:10179000982087421CDA20889DF80810415520883F
:1017A000401C208020882844164909680160208850
:1017B000001D20802088284412494A6802608968F8
:1017C000416020880830208000200E49087306E020
:1017D00001200D49087002E001200B4908700EE05D
:1017E00002200A49087000200749087020889DF8E7
:1017F000081041552088401C208000E000BF00BF39
:10180000484661E504FFFE1F09F9FE1FF2F8FE1FBE
:101810007CB504460D46012C0ED14FF0815040EAB4
:10182000052614A103C9CDE9000108236A46314603
:10183000124805F07FFD00BF022C19D14FF6FF7052
:1018400000EAC5200E4940EA010600200090019000
:1018500001208DF8000020208DF8010005208DF872
:10186000030008236A463146044805F063FD00BFC3
:101870007CBD0000006200000000000000900040FD
:101880000B0008C62DE9F0412DED048B04460D46F2
:1018900000270026FE480078012868D105EB4500A6
:1018A00054F8200000F0F850FA4988422AD100206C
:1018B00005EB450154F82110C1F3074205EB450142
:1018C00054F82110090E62F31F2105EB450234F88C
:1018D0002220C2F3072201EB024105EB450214F876
:1018E000222001EB0260EC49086005EB450104EBA6
:1018F00081018968E84A0B68536049689160012159
:1019000011733EE305EB450054F8200000F0F85059
:10191000B0F1E05FF5D1002005EB450154F821104E
:10192000C1F3074205EB450154F82110090E62F39B
:101930001F2105EB450234F82220C2F3072201EBF8
:10194000024105EB450214F8222001EB0260D24966
:10195000086005EB450104EB81018A68CE491368F4
:101960004B6052688A600121CB4A117309E3C84871
:1019700000780028C5D105EB450054F82000C74980
:101980000840C74988427DD105EB450004EB800043
:1019900080680078F02803D0BDEC048BBDE8F081AE
:1019A00005EB450034F82000C0F3072008B90026F5
:1019B00008E005EB450034F82000C0F307200128BB
:1019C00000D1012605EB450004EB800080684078DB
:1019D000592861D006DC372809D0532810D0542864
:1019E0007DD132E062287BD06328F9D1D3E005EBCA
:1019F000450004EB80008068C179AA488155F0E079
:101A000005EB450104EB81018968C97905EB4502C5
:101A100004EB82029268927901EB0220FFF72CF925
:101A200041EC190B9FEDA00B53EC102BFFF7B5F811
:101A300041EC180BFFF7A4F900EE100A9948103892
:101A400000EB860080ED000ACBE005EB450104EBDE
:101A500081018968C97905EB450204EB820292682D
:101A6000927901EB0220FFF707F941EC190B9FED8A
:101A70008E0B53EC102BFFF790F841EC180BFFF78F
:101A80007FF900E0AEE000EE100A8648083800EB6F
:101A9000860080ED000AA4E04FF442701AF0A8FD21
:101AA000172844D105EB450004EB80008068C0791D
:101AB00005EB450104EB81018968897900EB01217F
:101AC0007848363830F81600814230D005EB4500B2
:101AD00004EB80008068C07905EB450101E07FE000
:101AE00026E004EB81018968897900EB01216D48CA
:101AF000363830F8160041406A48801C20F816102D
:101B000005EB450004EB80008068C07905EB4501DA
:101B100004EB81018968897900EB012081B2614879
:101B2000363820F816106248006820F0DBFC58E0D8
:101B300005EB450104EB81018968C97905EB450294
:101B400004EB82029268927901EB0220FFF794F88D
:101B500041EC190B9FED540B53EC102BFFF71DF8C4
:101B600041EC180BFFF70CF900EE100A4D48203835
:101B700000EB860080ED000A2FB901204949383971
:101B800081F8460006E0012F04D10220454938398A
:101B900081F8460025E005EB450104EB81018968E9
:101BA000C97905EB450204EB82029268927901EB58
:101BB0000220FFF761F841EC190B9FED3B0B53EC52
:101BC000102BFEF7EAFF41EC180BFFF7D9F800EEF7
:101BD000100A3448183800EB860080ED000A00E057
:101BE00000BFCEE105EB450054F820002B4908402A
:101BF000B0F1C16FF5D105EB450034F82000C0F31A
:101C0000C70008B9002608E005EB450034F82000BD
:101C1000C0F3C700012800D101261D480078002824
:101C20007ED105EB450004EB8000806840783028C9
:101C3000F6D105EB450004EB80008068C0780628EB
:101C40006FD006DC012809D0022854D0052869D1BC
:101C5000D4E0432867D0BE28F9D153E105EB450114
:101C600004EB8101896809794FF6FF7202EA01618C
:101C700005EB450204EB8202926852794FF6FF733E
:101C800003EA0242114405EB450204EB820211E033
:101C9000F2F8FE1F0000501004FFFE1F0000FF1F9F
:101CA00000002B10B4F5FE1F0000000000002440CF
:101CB00044F5FE1F9268927901EB022105EB450283
:101CC00004EB82029268D2798818FEF7D5FF41ECC6
:101CD000190B9FEDAD0B53EC102BFEF75EFF41ECA3
:101CE000180BFFF74DF800EE100AA94800EB86002C
:101CF00080ED000A28E105EB450104EB81018968CC
:101D000009794FF6FF7202EA016105EB450204EB27
:101D10008202926852794FF6FF7303EA024203E0AF
:101D200013E1B4E00FE126E0114405EB450204EBBA
:101D300082029268927901EB022105EB450204EBE5
:101D400082029268D2798818FEF796FF41EC190B4F
:101D50009FED8D0B53EC102BFEF71FFF41EC180B82
:101D6000FFF70EF800EE100A8948083000EB8600F5
:101D700080ED000AE8E005EB450004EB8000806898
:101D8000C07905EB450104EB81018968897900EB95
:101D900001217F48263830F8160081422DD005EB0E
:101DA000450004EB80008068C07905EB450104EB39
:101DB00081018968897900EB01217548263830F85E
:101DC000160041407248123020F8161005EB45000D
:101DD00004EB80008068C07905EB450104EB8101CC
:101DE0008968897900EB012081B26948263820F89A
:101DF00016106848006820F075FBA5E005EB45016A
:101E000004EB8101896809794FF6FF7202EA0161EA
:101E100005EB450204EB8202926852794FF6FF739C
:101E200003EA0242114405EB450204EB8202926888
:101E3000927901EB022105EB450204EB82029268E4
:101E4000D2798818FEF718FF41EC190B9FED4E0B65
:101E500053EC102BFEF7A1FE41EC180BFEF790FFA0
:101E600000EE100A4A48103800EB860080ED000AA8
:101E70002FB901204649283981F8460006E0012F94
:101E800004D102204249283981F846005CE005EB84
:101E9000450104EB8101896809794FF6FF7202EA76
:101EA000016105EB450204EB8202926852794FF61C
:101EB000FF7303EA0242114405EB450204EB820280
:101EC0009268927901EB022105EB450204EB820254
:101ED0009268D2798818FEF7CFFE41EC190B9FED7E
:101EE0002A0B53EC102BFEF758FE41EC180BFEF7B3
:101EF00047FF00EE100A2648083800EB860080ED08
:101F0000000A21E000200DE005EB450104EB810112
:101F10008A68011D525C1E49163101EB87010A5483
:101F2000411CC8B20428EFDB2FB906201849283914
:101F300081F8460006E0012F04D107201449283912
:101F400081F8460000E000BF1BE013480078C0B9EC
:101F500005EB450004EB800080684078102810D124
:101F600005EB450004EB80008068C0781F2808D18D
:101F700005EB450004EB80008068C179044810300F
:101F8000815500BF08E500000000000000009040FF
:101F9000A4F5FE1F44F5FE1FF2F8FE1F7CB50446B3
:101FA0000D46022C19D14FF6FF7000EAC5200B49EF
:101FB00040EA010600200090019001208DF8000009
:101FC00020208DF80100BE208DF8030008236A460A
:101FD0003146034805F0AEF900BF7CBD0B0008C6D2
:101FE000009000407FB53C4E0020029003903720C7
:101FF0008DF8090033208DF80F000020374981F853
:1020000038000021354880F8391000240AE0082300
:1020100002AA3146324805F08DF9C8201FF0B8FAFF
:10202000601CC4B2032CF2DB2C4890F83800332833
:1020300007D12A4890F83900332802D1012004B092
:1020400070BD264890F83800332804D0234890F813
:102050003900332801D10B20F1E700201F4981F816
:10206000380000211D4880F839101E4D00200090D6
:10207000019001208DF800001F208DF8030033200F
:102080008DF8070000240AE008236A462946144810
:1020900005F050F9C8201FF07BFA601CC4B2032C75
:1020A000F2DB0E4890F83800332806D10B4890F840
:1020B0003900332801D10220C1E7084890F83800E0
:1020C000332804D0054890F83900332801D1162070
:1020D000B5E70020B3E7000000FF20107CF5FE1FED
:1020E000009000400B0000C62DE9FC4104460D465F
:1020F0001646012C12D14FF0815040EA05270020EE
:102100000090019037208DF801008DF807600823BA
:102110006A463946124805F00DF900BF022C1CD161
:102120004FF6FF7000EAC5200E4940EA01070EA1F4
:1021300003C9CDE9000101208DF8000000208DF8D1
:1021400001001F208DF803008DF8076008236A4600
:102150003946034805F0EEF800BFBDE8FC810000F9
:10216000009000400B0008C60100001F00000000A6
:1021700000B585B068460BF095F90220ADF8020075
:102180002020ADF806004020ADF80A000420ADF88C
:1021900004006A46202107200AF09AFE6A461021B0
:1021A00007200AF095FE0CF075FB05B000BD70B578
:1021B000044600250CF056FB20460CF026FB0CF0E4
:1021C0007DFB00200CF0FBFA05460CF063FB284673
:1021D00070BD70B505460C460CF044FB28460CF06B
:1021E00014FB0CF06BFB00200CF00FFB0CF066FBFB
:1021F00020460CF00AFB0CF061FB0CF04BFB0520B9
:102200001EF01AF9691CC8B2FFF7D1FFA04201D134
:10221000012070BD002001E0411CC8B20428FBDB96
:102220000020F6E770B52DED028BF0EE408A9FEDB1
:10223000120A28EE800AB0EE408A9FED100AB4EE32
:10224000C08AF1EE10FA01DDFF240BE0B5EEC08A82
:10225000F1EE10FA01D2002404E0BCEEC80A10EE40
:10226000100AC4B221465820FFF7B3FF054628469E
:10227000BDEC028B70BD00000000CC4100007F432C
:1022800038B50024022000280BDB00F01F020121DA
:102290009140864A430942F82310BFF34F8FBFF3A2
:1022A0006F8F00BF00F018FA04460CB1204638BD0D
:1022B00002224FF49061012000F0ACFA04460CB108
:1022C0002046F4E703220021104600F0A3FA04465A
:1022D0000CB12046EBE702220021042000F09AFA1C
:1022E00004460CB12046E2E703220421072000F057
:1022F00091FA04460CB12046D9E7022248F21101B6
:10230000092000F087FA04460CB12046CFE70222EC
:1023100048F231010A2000F07DFA04460CB1204653
:10232000C5E7022248F251010B2000F073FA04467F
:102330000CB12046BBE7022248F271010C2000F0EC
:1023400069FA04460CB12046B1E7022248F2910135
:102350000D2000F05FFA04460CB12046A7E70222E8
:1023600048F2B1010E2000F055FA04460CB12046A7
:102370009DE7022248F2D1010F2000F04BFA0446FB
:102380000CB1204693E7022248F2F101102000F040
:1023900041FA04460CB1204689E7022248F21111A5
:1023A000112000F037FA04460CB120467FE70222E4
:1023B00048F23111122000F02DFA04460CB12046EB
:1023C00075E7022248F25111132000F023FA044667
:1023D0000CB120466BE7022248F27111142000F084
:1023E00019FA04460CB1204661E7022248F2911125
:1023F000152000F00FFA04460CB1204657E70222E0
:1024000048F2B111162000F005FA04460CB120463E
:102410004DE7022248F2D111172000F0FBF90446E3
:102420000CB1204643E7022248F2F111182000F0D7
:10243000F1F904460CB1204639E702224FF4066157
:10244000192000F0E7F904460CB120462FE70322DB
:102450001749212000F0DEF904460CB1204626E79A
:1024600000200090684600F0B3F84CB99DF80000D9
:10247000142805D19DF8010000F0760076280FD0D1
:10248000002009E00B4951F8201041F48041094A2D
:1024900042F82010411CC8B20428F3DB204606E7AE
:1024A000012005490870204601E7000080E100E0B6
:1024B000010016007C79FF1FC7F5FE1F00B58DB027
:1024C00068460AF0EFFF4FF48050ADF8100040204E
:1024D000ADF80A006A46022104200AF0F9FC07A8B8
:1024E00009F050FA0220079000200C9007A809F08C
:1024F000A5F90120ADF814000220ADF81600084837
:10250000069005A80CF0F8F902201DF0AFF90D2196
:1025100002201DF055FA02201DF0D6F90DB000BDC5
:102520002525020010B5022009F052F901281CD11E
:10253000022009F019F90D480088401C0B49088059
:1025400002201DF0C1F909490888C11700EB9171FB
:102550008910A0EB810109B900F00AF801210820D7
:102560000AF0ECFD02201DF0F5F910BD96F7FE1FF4
:1025700038B5002000900024684600F01FF8C0B96C
:102580009DF8000004049DF8010004EB00249DF870
:10259000020004449DF8030000F0F00048B99DF8E3
:1025A000030000F00F00034908800348098840F841
:1025B000214038BDC4F5FE1F14FFFE1F70B5044650
:1025C00004222146022000F033F80546284670BD5B
:1025D0007FB50446002513A103C9CDE902010020FF
:1025E0000090019045208DF80800012108200AF094
:1025F000A5FD08236A4602A90C4814F03BFD0546D8
:10260000012108200AF0B6FE012005E01DF8002097
:10261000411E6254411CC8B20328F7DB284604B0AF
:1026200070BD0000FFFFFFFFFFFFFFFF00C4014080
:102630002DE9F04387B006460F4615460024A04614
:10264000A14600200590069003900490019002900E
:1026500006F03F0040F040008DF8140001210820F2
:102660000AF06CFDAB1C03AA05A91A4814F002FD80
:102670008146012108200AF07DFE06F03F0040F06F
:1026800040008DF80400012405E003A8005D01A9C5
:102690000855601CC4B2A81C8442F6DB681CC1B299
:1026A00001A807F09FFB804601A9681C085C404513
:1026B00003D00D2007B0BDE8F083012405E003A896
:1026C000015D601E3954601CC4B2681C8442F6DB94
:1026D0004846EFE700C401401FB5002413A103C919
:1026E000CDE90201002000900190012108200AF0AC
:1026F00025FD08236A4602A90E4814F0BBFC0446D7
:10270000012108200AF036FE14B1204604B010BDA5
:102710004FF448701DF00AFE04460CB12046F5E760
:1027200044F6206008F063FC2046EFE7FFFFFFFF60
:10273000FFFFFFFF00C4014000B591B00121480434
:1027400012F0E2F90CA80AF0ADFE0220ADF832005A
:102750002020ADF836000120ADF830000CAA012190
:1027600008200AF0B5FB0CA80AF09CFE2020ADF86A
:1027700036000CAA022108200AF0AAFB0CAA0821A4
:1027800008460AF0A5FB0CA80AF08CFE0020ADF864
:1027900036004FF48060ADF83E000CAA04210820FA
:1027A0000AF096FB00232B22022108200AF062FD8A
:1027B00000232D22042108200AF05CFD00232C2296
:1027C000082108460AF056FD114814F087F801A8C0
:1027D00014F03AFC012001900020029008200390A0
:1027E0000020049005900690032007900C2008908C
:1027F0004FF48060099000200A9001A9044814F069
:10280000A1FA0121024814F047FA11B000BD0000FE
:1028100000C401402DE9FF4707460D461446002637
:10282000B046B1460020029003900090019007F05E
:102830003F008DF8080000BF05E0A11B02AA555417
:102840002D12701CC6B2A642F7DB601CC1B202A8F2
:1028500007F0C8FA804602A9601C01F80080012137
:1028600008200AF06BFCA31C6A4602A9054814F074
:1028700001FC8146012108200AF07CFD484604B095
:10288000BDE8F08700C4014070B500250120002894
:102890000BDB00F01F02012191402B4A430942F853
:1028A0002310BFF34F8FBFF36F8F00BF00F058F9B5
:1028B00005460DB1284670BD4FF4FA5008F09DFB57
:1028C00000241AE0214800EBC4004078012800D120
:1028D00011E01E4B03EBC4039A781C4B03EBC403BB
:1028E00059681A4B13F8340000F0CEF905460DB1C3
:1028F0002846E0E700BF601CC4B2222CE2D3134993
:1029000091F83A2091F83800114900F0D5F80546C1
:102910004DB90F4800783C2805D10D48407800F0AB
:10292000D000D0280ED00125002009E0094951F837
:10293000201041F48041074A42F82010411CC8B2DF
:102940000428F3DB2846B6E780E100E0D4F5FE1F5B
:10295000CDF5FE1F7C79FF1F30B502460023002015
:1029600018E0802311E014781C400CB1012400E031
:102970000024C0F3C015AC4204D04406200E80F001
:10298000070001E04406200E5B10002BEBD1521C27
:102990004C1EE1B20029E4D130BD000000B58DB07D
:1029A00068460AF07FFD4FF48050ADF810004020DB
:1029B000ADF80A006A46012104200AF089FA07A846
:1029C00008F0E0FF0120079000200C9007A808F015
:1029D00035FF0020ADF814000120ADF816000848BE
:1029E000069005A80BF088FF01201CF03FFF0E2188
:1029F00001201CF0E5FF01201CF066FF0DB000BDBA
:102A0000052A020010B5012008F0E2FE01281BD1C2
:102A100008F0AAFE0D480088401C0C4908800120DF
:102A20001CF052FF09490888C11700EB9171891009
:102A3000A0EB810109B900F00BF8012103200AF095
:102A40007DFB01201CF086FF10BD000094F7FE1FE7
:102A500038B50025002000900024684600F01CF8DE
:102A6000A0B90B480078012810D19DF8000004049B
:102A70009DF8010004EB00249DF8020004449DF839
:102A8000030000F00F05034840F8254038BD000062
:102A9000CCF5FE1F54FFFE1F70B50446054991F8A2
:102AA000222091F82000214600F006F8054628462D
:102AB00070BD0000D4F5FE1F2DE9F04387B0064637
:102AC0000F4615460024A046A1460020059006901A
:102AD000039004900190029006F03F0040F0400007
:102AE0008DF81400012103200AF028FBAB1C03AA77
:102AF00005A91A4814F0BEFA8146012103200AF004
:102B000039FC06F03F0040F040008DF8040001243D
:102B100005E003A8005D01A90855601CC4B2A81C0B
:102B20008442F6DB681CC1B201A8FFF715FF80469E
:102B300001A9681C085C404501D04FF00D09012433
:102B400005E003A8015D601E3954601CC4B2681C16
:102B50008442F6DB484607B0BDE8F08300C8014078
:102B60001FB500240CA103C9CDE90201002000908B
:102B70000190012103200AF0E1FA08236A4602A924
:102B8000074814F077FA0446012103200AF0F2FB0B
:102B9000204604B010BD0000FFFFFFFFFFFFFFFF56
:102BA00000C8014000B591B00121880411F0ACFFCC
:102BB0000CA80AF077FC0220ADF832002020ADF816
:102BC00036000120ADF830000CAA012103200AF0E4
:102BD0007FF90CA80AF066FC2020ADF836000CAA9C
:102BE000410102200AF074F90CAA4FF4805102202E
:102BF0000AF06EF90CA80AF055FC0020ADF836007A
:102C00004FF48060ADF83E000CAA410002200AF0AB
:102C10005FF9002313224FF4806102200AF02AFB9F
:102C2000002313224FF4006102200AF023FB00234B
:102C300013224FF4805102200AF01CFB114813F0BC
:102C40004DFE01A814F000FA01200190002002902E
:102C50000820039000200490059006900320079020
:102C60000C2008904FF48060099000200A9001A980
:102C7000044814F067F80121024814F00DF811B06F
:102C800000BD000000C801402DE9FF4707460D4682
:102C900014460026B046B1460020029003900090F2
:102CA000019007F03F008DF8080000BF05E0A11B70
:102CB00002AA55542D0A701CC6B2A642F7DB601C4E
:102CC000C1B202A8FFF748FE804602A9601C01F8C5
:102CD0000080012103200AF031FAA31C6A4602A9F0
:102CE000054814F0C7F98146012103200AF042FB90
:102CF000484604B0BDE8F08700C8014070477047FF
:102D0000704770477047704770477047704770470B
:102D10007047704770477047704700002DE9F041D9
:102D200004460D46164600BF1548844205D0154896
:102D3000844202D01448844200D104E040F25F2172
:102D400012A007F089FC00BF00BF0EB1012E00D118
:102D500004E04FF418710DA007F07EFC00BFD4F81A
:102D60000C80276948EA07000540012E03D16069FD
:102D70002843606102E06069A8436061BDE8F081BA
:102D80000000044000040440000804402E2E5C2E85
:102D90002E5C4C69627261726965735C64726976FB
:102DA00065725C7372635C68633332663461305F92
:102DB0006164632E6300000070B505460C4600BFD9
:102DC0001448854205D01448854202D013488542F4
:102DD00000D104E040F2452111A007F03DFC00BF06
:102DE00000BF34B12CB124B11CB114B10CB104B189
:102DF00004B904E040F2462109A007F02DFC00BF11
:102E000068884FF6FF01084004F4E06108436880D9
:102E100070BD0000000004400004044000080440AD
:102E20002E2E5C2E2E5C4C69627261726965735C39
:102E30006472697665725C7372635C686333326670
:102E40003461305F6164632E630000002DE9F04F50
:102E500085B004460E4615469846DDF838A04FF07A
:102E60000009CB463A4A07CA01AF07C704200090C1
:102E7000B8F1000F68D000BF3648844205D036480C
:102E8000844202D03548844200D104E040F2072158
:102E900033A007F0E1FB00BF00BF0EB1012E00D14F
:102EA00004E04FF402712EA007F0D6FB00BF00BF74
:102EB000BAF1000F02D0BAF1010F00D104E040F2E4
:102EC000092127A007F0C8FB00BF04F10C0000EBAC
:102ED0008607143004902046C0F3872001A951F8DA
:102EE00020000540BAF1010F29D138682843386025
:102EF00022E005F00100B8B100BF18F80B0005286A
:102F000000D304E040F2172115A007F0A5FB00BF95
:102F100018F80B10049800F80910B9F1100F03D23B
:102F20000BF1010000F0FF0B6D08B9F1100F03D297
:102F300009F1010000F0FF09002DDAD102E0386844
:102F4000A843386000200090009805B0BDE8F08FDD
:102F5000F03A04000000044000040440000804406B
:102F60002E2E5C2E2E5C4C69627261726965735CF8
:102F70006472697665725C7372635C68633332662F
:102F80003461305F6164632E630000002DE9F04717
:102F900005460C4690464FF0000A00BF2548854282
:102FA00005D02548854202D02448854200D104E05E
:102FB00040F2FF4122A007F04FFB00BF00BFB8F175
:102FC0000F0F00D804E04FF4A0611DA007F044FBF0
:102FD00000BF00BF3CB14FF6FF7020434FF6FF71BA
:102FE000884200D104E040F2015115A007F034FB03
:102FF00000BF05F1380918E004F0010090B14FEA74
:103000009A064FEA8A70070F39F816000F21B94067
:10301000884308FA07F10F22BA4092B211400843E0
:1030200029F8160064080AF1010A002CE4D1BDE871
:10303000F087000000000440000404400008044041
:103040002E2E5C2E2E5C4C69627261726965735C17
:103050006472697665725C7372635C68633332664E
:103060003461305F6164632E630000002DE9F04736
:1030700005460C46002600BF2148854205D0214860
:10308000854202D02048854200D104E040F22C5114
:103090001EA007F0E1FA00BF00BF3CB14FF6FF7081
:1030A00020434FF6FF71884200D104E040F22D51D9
:1030B00016A007F0D1FA00BF00BF1CB1601E20406F
:1030C00000B904E040F22E5110A007F0C5FA00BF8D
:1030D00000E0761C0120B04020400028F9D0B7085D
:1030E000B0074FEA107A05F1380000EB4708B8F84E
:1030F000000040FA0AF000F00F094846BDE8F087EA
:103100000000044000040440000804402E2E5C2E01
:103110002E5C4C69627261726965735C6472697677
:1031200065725C7372635C68633332663461305F0E
:103130006164632E6300000070B505460C460426EA
:10314000002C65D000BF3348854205D03248854207
:1031500002D03248854200D104E04FF4A57130A07E
:1031600007F07AFA00BF00BF208840B1208801280C
:1031700005D02088022802D02088032800D104E04E
:1031800040F24B1126A007F067FA00BF00BF60882D
:10319000202804D06088102801D0608800B904E09D
:1031A0004FF4A6711EA007F057FA00BF00BFA08819
:1031B00010B1A088402800D104E040F24D1118A0C1
:1031C00007F04AFA00BF00BFE08810B1E08880280D
:1031D00000D104E04FF4A77111A007F03DFA00BF41
:1031E00000BF208910B12089042800D104E040F2FA
:1031F0004F110BA007F030FA00BF20886188084308
:10320000A1880843E188084368802089A8800026B7
:10321000304670BD00000440000404400008044033
:103220002E2E5C2E2E5C4C69627261726965735C35
:103230006472697665725C7372635C68633332666C
:103240003461305F6164632E630000002DE9F05F3C
:1032500005460E4617461C46DDF828904FF0000A3A
:1032600000BF4FF0040B4FF4C87004FB00F876B1B8
:1032700006F0010080F0010048B147B107F00100FD
:1032800080F0010018B114B1B8F1000F03D1012092
:103290008346BDE8F09F287808B90120287014E023
:1032A00099F8000001280ED1002089F8000006EBF3
:1032B0000A1010223946FDF731FC0AF1010000F036
:1032C000FF0A601EC4B2A8F1010814B1B8F1000FE2
:1032D000E6D12CB9B8F1000F02D04FF0000B03E09B
:1032E0004FF00A0B002028705846D2E7012902D17E
:1032F0000122027002E009B900220270704700004A
:1033000010B50848007800F01BF806480078401C0B
:103310000449087008460078282801D10020087068
:1033200010BD0000F5F6FE1F0146042031B1002259
:103330000A804A808A80CA800A8100207047000083
:1033400070B52DED028B82B00646002500245A2070
:1033500008EE100A0A2096FBF0F030B101287DD06B
:10336000022879D0032878D166E10421072009F0EA
:10337000E5FE0821072009F0E1FEFE480A23FE4A87
:10338000FE490090FE48FFF761FF90B1002009E080
:10339000FC4951F8201041F48041FA4A42F82010CB
:1033A000411CC8B20428F3DB40F2A911F6A008F0D2
:1033B00033FDBEB1002513E000240DE0FA4850F8BB
:1033C000240004EBC501ED4A32F811100844F64917
:1033D00041F82400601CC4B2082CEFDB681CC5B2A5
:1033E0000A2DE9DB092E35D1EF4890ED040AB8EE3D
:1033F000400AF8EE480A80EE201AEC4880ED001AE8
:10340000E94890ED050AB8EE400AF8EE480A80EE69
:10341000201AE64880ED011AE34890ED060AB8EE5E
:10342000400AF8EE480A80EE201AE14880ED001AC2
:10343000DD4890ED070AB8EE400AF8EE480A80EE43
:10344000201ADB4880ED011A0020D7490861486145
:103450008861C86168E101E077E064E10421072048
:1034600009F088FF0821072009F068FEC1480A23F7
:10347000C14AD0490090C248FFF7E8FE90B1002051
:1034800009E0C04951F8201041F48041BD4A42F89A
:103490002010411CC8B20428F3DB4FF4E771BAA036
:1034A00008F0BAFC0A2E17D0002513E000240DE026
:1034B000BD4850F8240004EBC501BE4A32F8111093
:1034C0000844B94941F82400601CC4B2082CEFDB61
:1034D000681CC5B20A2DE9DB132E35D1B24890ED38
:1034E000040AB8EE400AF8EE480A80EE201AAF4807
:1034F00080ED021AAC4890ED050AB8EE400AF8EEED
:10350000480A80EE201AA94880ED031AA64890EDDB
:10351000060AB8EE400AF8EE480A80EE201AA448DF
:1035200080ED021AA04890ED070AB8EE400AF8EEC6
:10353000480A80EE201A9E4880ED031A00209A491E
:10354000086148618861C861EEE00421072009F044
:10355000F5FD0821072009F00DFF86480A23864A59
:10356000954900908648FFF771FE90B1002009E070
:10357000844951F8201041F48041824A42F82010D9
:10358000411CC8B20428F3DB40F2F3117EA008F01E
:1035900043FC142E17D0002513E000240DE08248D0
:1035A00050F8240004EBC501834A32F81110084496
:1035B0007D4941F82400601CC4B2082CEFDB681C74
:1035C000C5B20A2DE9DB1D2E35D1774890ED040AEE
:1035D000B8EE400AF8EE480A80EE201A734880EDF3
:1035E000041A714890ED050AB8EE400AF8EE480A50
:1035F00080EE201A6D4880ED051A6B4890ED060AA2
:10360000B8EE400AF8EE480A80EE201A684880EDCD
:10361000041A654890ED070AB8EE400AF8EE480A29
:1036200080EE201A624880ED051A00205E4908618C
:1036300048618861C86177E00421072009F09AFE9B
:103640000821072009F096FE4A480A234A4A5B49A6
:1036500000904B48FFF7FAFD90B1002009E049497E
:1036600051F8201041F48041464A42F82010411C94
:10367000C8B20428F3DB4FF4067143A008F0CCFB7A
:103680001E2E17D0002513E000240DE0464850F808
:10369000240004EBC501494A32F81110084442499C
:1036A00041F82400601CC4B2082CEFDB681CC5B2D2
:1036B0000A2DE9DB272E35D13B4890ED040AB8EE00
:1036C000400AF8EE480A80EE201A384880ED061AC3
:1036D000354890ED050AB8EE400AF8EE480A80EE4B
:1036E000201A324880ED071A2F4890ED060AB8EEEE
:1036F000400AF8EE480A80EE201A2D4880ED061A9E
:10370000294890ED070AB8EE400AF8EE480A80EE24
:10371000201A274880ED071A0020234908614861D4
:103720008861C86100E000BF00BF1F4890ED000A3B
:10373000B8EE400AF2EE040A80EE201A204880ED2E
:10374000001A194890ED010AB8EE400AF2EE040A98
:1037500080EE201A1B4880ED001A134890ED020AF3
:10376000B8EE400AF2EE040A80EE201A164880ED08
:10377000001A2BE0F4F6FE1FD4FFFE1FE4FFFE1F2D
:10378000000804407C79FF1F2E2E5C2E2E5C5573A2
:1037900065725C4253505C7372635C6273705F610C
:1037A0006463332E630000006402FF1F94FFFE1F5A
:1037B000B4FFFE1F8400FF1F2401FF1FC401FF1F71
:1037C000E4F6FE1FE8F6FE1FECF6FE1F0A4890ED39
:1037D000030AB8EE400AF2EE040A80EE201A074807
:1037E00080ED001A00200449086048608860C860C5
:1037F00002B0BDEC028B70BD6402FF1FF0F6FE1F2D
:1038000000B585B0684609F04DFE0020ADF8000017
:103810000220ADF802002020ADF806000020ADF82F
:1038200004006A460421072009F052FB6A46082179
:10383000072009F04DFB05B000BD00002DE9FC4755
:1038400004460D464FF0000C002001900027009028
:1038500000268B20009018889DF80010815418884D
:10386000401C1880002067E00121814001F0FF0822
:103870003449897901EA080100295CD0DFF8C89051
:10388000B9F8001053E014F80190CDF804909DF8B9
:103890000490B9F1000F04DD9DF80490B9F1050F13
:1038A00020DB4FF0FF36B3F800909DF804A009F834
:1038B00002A0B3F8009009F10109A3F80090B3F851
:1038C00000909144C9F80060B3F8009009F1040930
:1038D000A3F800909DF80490B9F1FF0F01D04FF0CC
:1038E000080C23E09DF80490A9F1010909F0FF07F5
:1038F000DFF8589009EB001959F82760B3F80090E9
:103900009DF804A009F802A0B3F8009009F101099C
:10391000A3F80090B3F800909144C9F80060B3F8A0
:10392000009009F10409A3F8009000BF491CA5F11B
:1039300004098945A7DC401C082895DB6046BDE8E2
:10394000FC870000C459FF1F24F9FE1FB056FF1F5B
:103950000EB521A103C9CDE90101032201212048AF
:10396000FFF714FB0D2202211D48FFF70FFB092270
:1039700004211B48FFF70AFB0E2208211848FFF715
:1039800005FB0F2210211648FFF700FB042220211F
:103990001348FFF7FBFA0A2240211148FFF7F6FA15
:1039A0000C2280210E48FFF7F1FAFF210C4800F0AD
:1039B000D3F8012001ABFF22002100900848FFF757
:1039C00045FA00210648FFF7F7F90122FF210448D4
:1039D000FFF7A4F90EBD00001E1E1E1E1E1E1E1E99
:1039E0000008044010B54FF48131142004F010F8A1
:1039F000002004F03DFA10BD00B58DB001214FF458
:103A0000203011F02FF84FF4F47200211C4807F019
:103A10007DF805A807F0C4F84FF480500590082001
:103A2000099000200A904FF4807008901548079084
:103A30001548069001200B9004200C9005AA002147
:103A40000F4806F017FF01A807F054F81020019066
:103A500008200290202003900820049001AA002151
:103A6000074806F0BDFF00F011F80121044806F0F8
:103A7000CBFE01220021024806F03AFE0DB000BD47
:103A800000340540D4FFFE1F500804401CB54820F8
:103A9000ADF800000A20ADF802001D48019068460C
:103AA0000AF02AFF4FF480311A4806F06FFE0A2010
:103AB000002807DB00F01F0201219140164A43094C
:103AC00042F8231000BF0A200321002804DB0A0764
:103AD000130E124A135406E00A07140E104A00F09F
:103AE0000F031B1FD45400BF0A2000280DDB00BFAA
:103AF00000BF00F01F02012191404209920002F133
:103B0000E022C2F8001100BF00BF00BF1CBD0000D2
:103B1000BDA602000034054080E200E000E400E0C1
:103B200018ED00E00EB56846FFF7FEFB4020ADF84B
:103B300004000020ADF80600ADF802000120ADF849
:103B400000000121042011F067F869460148FFF7E1
:103B5000F3FA0EBD000804402DE9F04106460C467C
:103B6000002510E004F0010050B1012000FA05F139
:103B70003046FFF77BFA07463946304600F008F832
:103B80006408681CC5B2002CECD1BDE8F0810000CF
:103B900030B5A9B005460C464022164914A8FCF7DA
:103BA000BDFF5022134940316846FCF7B7FF24A8F7
:103BB00009F078FC4FF40040ADF8A2000E488542B1
:103BC00002D00E4885420AD114AA02EB8402518821
:103BD00014AA12F8240024AA09F07AF908E06A4627
:103BE00002EB840251881DF8240024AA09F070F920
:103BF00029B030BD2441040000000440000404400A
:103C0000F0B52DED048B85B04420F84908700024F0
:103C100016E0F749085D0A2106F07AF8F449085DD4
:103C2000052106F075F8F24A611C505C0A2106F085
:103C30006FF8EF4A611C505C062106F069F8A41C7D
:103C4000082CE6DBEB480078B8B1EB480078012897
:103C50000FD10102E948FCF77AFFE6480278E8A1B3
:103C6000E6481BF0E1FD4FF48072E449002018F0B3
:103C700033FB05B0BDEC048BF0BDDF4800780128B4
:103C80002BD10102DD48FCF762FFEC49DB481BF059
:103C9000CBFD4FF48072D949002018F01DFB4FF482
:103CA0008071D648FCF753FFE549D4481BF0BCFDB2
:103CB0004FF48072D149002018F00EFB4FF4807150
:103CC000CE48FCF744FFDD49CC481BF0ADFD4FF476
:103CD0008072CA49002018F0FFFADFEDDA0AB7EE69
:103CE000000A00221146F02005F0A6FEC248007826
:103CF00001280DD10102C148FCF729FFD2A1BF481C
:103D00001BF092FD4FF48072BC49002018F0E4FAD9
:103D10004FF47A701DF03CFCDFEDD70AB1EE020AD9
:103D2000002201210F2005F087FEB348007801280A
:103D30000DD10102B148FCF70AFFD0A1AF481BF03A
:103D400073FD4FF48072AD49002018F0C5FA4FF4AE
:103D50007A701DF01DFCDFEDD50AB1EE020A0022DB
:103D600001210F2005F068FEA348007801280DD13D
:103D70000102A248FCF7EBFECDA1A0481BF054FDC8
:103D80004FF480729D49002018F0A6FA4FF47A7023
:103D90001DF0FEFBDFEDD20AB7EE000A002211464D
:103DA000F02005F049FE9448007801280DD1010269
:103DB0009248FCF7CCFECBA190481BF035FD4FF4A8
:103DC00080728E49002018F087FA00270120D1491F
:103DD000087009E287480078002870D1B7F5FA7FAB
:103DE0006EDD0024F8E183480078002869D125467B
:103DF000261DC94800EB850090ED000AF1EE000A8F
:103E0000B4EEE00AF1EE10FA5CDDC34800EB850089
:103E100090ED000AF1EE040AB4EEE00AF1EE10FAB9
:103E200050D2BD4800EB860090ED000AF1EE000A8A
:103E3000B4EEE00AF1EE10FA44DDB74800EB86007C
:103E400090ED000AF1EE040AB4EEE00AF1EE10FA89
:103E500038D2B148203800EB850090ED000ADFED44
:103E6000AF0AB4EEE00AF1EE10FA2BDDAA482038D2
:103E700000EB850090ED000ADFED8C0AB4EEE00A5D
:103E8000F1EE10FA1ED2A448203800EB860090ED27
:103E9000000ADFEDA20AB4EEE00AF1EE10FA11DD3D
:103EA0009D48203800EB860090ED000ADFED7F0A88
:103EB000B4EEE00AF1EE10FA04D2012003E08FE143
:103EC0008FE187E1002000286ED19548005DC82869
:103ED0006BDD0020924908554748007801286FD1D2
:103EE0001CF0FAFF4FF480714448FCF730FE334673
:103EF0002A468CA141481BF097FC4FF480723F4941
:103F0000002018F0E9F94FF480713C48FCF71FFEDF
:103F10008148203800EB850090ED000A10EE101A61
:103F20000846FCF7E9FE41EC180B7B4800EB8500E6
:103F300090ED000A10EE101A0846FCF7DDFE41EC89
:103F4000190B8DED028B8DED009B2A4682A12B482B
:103F50001BF06AFC4FF480722849002018F0BCF96D
:103F60004FF480712548FCF7F2FD6B48203800EBD8
:103F7000860090ED000A10EE101A0846FCF7BCFE11
:103F800041EC180B644800EB860090ED000A10EE3F
:103F9000101A0846FCF7B0FE41EC190B8DED028BB0
:103FA0008DED009B324601E010E109E176A1134856
:103FB0001BF03AFC4FF480721049002018F08CF985
:103FC0007D48405D40F002007B4948550846805DD1
:103FD00040F0020088550748007840F0020005498B
:103FE0000870012075490870F3E0000090F9FE1F89
:103FF00006F7FE1F91F9FE1FE1F7FE1F0C77FF1F6A
:104000005BCCE1CABE5D203A204368616E6E656C90
:104010004572726F72466C6167203D2025642C20CA
:10402000D2F2B9CAD5CFB4E6D4DACDCBB3F6C0CF8D
:10403000BBAFC4A3CABD0D0A00000000AC4304001E
:10404000F4430400000048423120CDA8B5C0343507
:104050003637B7C5B5E72CB7C5B5E7B5E7D1B93140
:104060002E30562CB7C5B5E7B5E7C1F735302E3041
:1040700041210D0A00000000000070423220CDA84E
:10408000B5C030313233B3E4B5E72CB3E4B5E7B5AE
:10409000E7D1B9342E35562CB3E4B5E7B5E7C1F70F
:1040A00036302E3041210D0A000000000000AA42E7
:1040B0003320CDA8B5C030313233B3E4B5E72CB3EB
:1040C000E4B5E7B5E7D1B9342E35562CB3E4B5E7FE
:1040D000B5E7C1F738352E3041210D0A0000000048
:1040E0000000A0423420CDA8B5C034353637B7C55E
:1040F000B5E72CB7C5B5E7B5E7D1B9312E30562CA9
:10410000B7C5B5E7B5E7C1F738302E3041210D0A04
:1041100000000000A4F9FE1F3459FF1F0000964262
:10412000B5F9FE1F5BCCE1CABE5D203A20CDA8B533
:10413000C02564B3E4B5E7C0CFBBAFD2ECB3A32CCA
:10414000CDA8B5C02564B7C5B5E7C0CFBBAFD2EC2D
:10415000B3A3210D0A0000005BCCE1CABE5D203A8A
:1041600020CDA8B5C02564B3E4B5E72CB3E4B5E72A
:10417000B5E7D1B92566562CB3E4B5E7B5E7C1F785
:10418000256641210D0A00005BCCE1CABE5D203AE4
:1041900020CDA8B5C02564B7C5B5E72CB7C5B5E730
:1041A000B5E7D1B92566562CB7C5B5E7B5E7C1F770
:1041B000256641210D0A000093F9FE1F92F9FE1FAA
:1041C000F948005D401CF849085502E00020F64916
:1041D000085500E003E0641C042CFFF604AE00E088
:1041E00008E00A201DF0D4F9781C0746EF49884200
:1041F000FFF6F0AD00BF0F2005F0A4FBF02005F0A6
:10420000A1FBEB480078A0B1EA48007801280FD163
:104210000102E948FCF79BFCE5480278E749E648DB
:104220001BF002FB4FF48072E349002018F054F8B1
:104230001FE5E048007801282BD10102DE48FCF799
:1042400086FCDF49DC481BF0EFFA4FF48072DA4954
:10425000002018F041F84FF48071D748FCF777FC44
:10426000D8A1D5481BF0E0FA4FF48072D249002063
:1042700018F032F84FF48071CF48FCF768FCD04951
:10428000CD481BF0D1FA4FF48072CB49002018F0D2
:1042900023F85FED940AB7EE000A002211460F20C2
:1042A00005F0CAFBC348007801280DD10102C248BD
:1042B000FCF74DFCCBA1C0481BF0B6FA4FF480725E
:1042C000BD49002018F008F84FF47A701DF060F92D
:1042D0005FED970AB1EE020A00220121F02005F0FD
:1042E000ABFBB448007801280DD10102B248FCF7BD
:1042F0002EFCC8A1B0481BF097FA4FF48072AE496B
:10430000002017F0E9FF4FF47A701DF041F95FEDDE
:10431000990AB1EE020A00220121F02005F08CFB7F
:10432000A448007801280DD10102A348FCF70FFC36
:10433000C4A1A1481BF078FA4FF480729E49002076
:1043400017F0CAFF4FF47A701DF022F95FED9C0A56
:10435000B7EE000A002211460F2005F06DFB9548CC
:10436000007801280DD101029348FCF7F0FBC1A1B0
:1043700091481BF059FA4FF480728F49002017F0D2
:10438000ABFF00270120C7490870A7E188480078E3
:10439000002870D1B7F5FA7F6EDD002596E18448DC
:1043A0000078002869D12E1D2C46BF4800EB8600FE
:1043B00090ED000AF1EE000AB4EEE00AF1EE10FA18
:1043C0005CDDB94800EB860090ED000AF1EE040ACE
:1043D000B4EEE00AF1EE10FA50D2B34800EB8400DC
:1043E00090ED000AF1EE000AB4EEE00AF1EE10FAE8
:1043F00044DDAD4800EB840090ED000AF1EE040AC4
:10440000B4EEE00AF1EE10FA38D2A748203800EBFB
:10441000860090ED000A5FEDBF0AB4EEE00AF1EE0F
:1044200010FA2BDDA048203800EB860090ED000A42
:104430005FEDE20AB4EEE00AF1EE10FA1ED29A48FD
:10444000203800EB840090ED000A5FEDCC0AB4EE5A
:10445000E00AF1EE10FA11DD9348203800EB8400F9
:1044600090ED000A5FEDEF0AB4EEE00AF1EE10FA0B
:1044700004D2012003E02DE12DE125E100200028F8
:104480007DD14948405DC8287ADD0020464948551D
:104490004848007801286FD11CF01EFD4FF4807150
:1044A0004548FCF754FB23463246AFF28831424878
:1044B0001BF0BAF94FF480723F49002017F00CFF4F
:1044C0004FF480713C48FCF742FB7748203800EB02
:1044D000860090ED000A10EE101A0846FCF70CFC5E
:1044E00041EC180B704800EB860090ED000A10EECE
:1044F000101A0846FCF700FC41EC190B8DED028BFD
:104500008DED009B3246AFF2B0312B481BF08CF999
:104510004FF480722849002017F0DEFE4FF48071BE
:104520002548FCF714FB6048203800EB840090ED30
:10453000000A10EE101A0846FCF7DEFB41EC180BDF
:10454000594800EB840090ED000A10EE101A08465E
:10455000FCF7D2FB41EC190B8DED028B8DED009B2E
:104560002246AFF2DC3114481BF05EF94FF4807242
:104570001149002017F0B0FE4C48805D01E09FE03B
:1045800098E040F00200494988550846005D40F037
:10459000020008550648007840F0020004490870FF
:1045A0000120434908708EE0B5F9FE1F80F5200018
:1045B00091F9FE1FE1F7FE1F0C77FF1F84440400F2
:1045C000AC430400B5A5B1DFC0CFBBAFCDEAB3C9E2
:1045D0002CBBBBB1DFBCCCD0F8C0CFBBAFA1ADA171
:1045E000AD0D0A003120CDA8B5C030313233B7C58A
:1045F000B5E72CB7C5B5E7B5E7D1B9312E30562CA4
:10460000B7C5B5E7B5E7C1F735302E3041210D0A02
:10461000000000003220CDA8B5C034353637B3E4F1
:10462000B5E72CB3E4B5E7B5E7D1B9342E35562C50
:10463000B3E4B5E7B5E7C1F736302E3041210D0AB6
:10464000000000003320CDA8B5C034353637B3E4C0
:10465000B5E72CB3E4B5E7B5E7D1B9342E35562C20
:10466000B3E4B5E7B5E7C1F738352E3041210D0A7F
:10467000000000003420CDA8B5C030313233B7C5BA
:10468000B5E72CB7C5B5E7B5E7D1B9312E30562C13
:10469000B7C5B5E7B5E7C1F738302E3041210D0A6F
:1046A00000000000A4F9FE1F3459FF1F93F9FE1FFC
:1046B00092F9FE1F1148405D401C1049485502E028
:1046C00000200E49485500E003E06D1C042DFFF664
:1046D00066AE00E008E00A201CF05AFF781C07468E
:1046E00007498842FFF652AE00BFF02005F02AF9D4
:1046F0000F2005F027F900BF9AE50000B5F9FE1F6D
:1047000080F520007CB500241A480078022803D0E8
:1047100018480078162813D1174D002000900190FA
:1047200001208DF8000042208DF8030001208DF853
:10473000070008236A462946104802F0FBFD00BF27
:1047400000240EE000200E4941F824000D4941F8F4
:1047500024000D4941F824000C4941F82400601C54
:10476000C4B2082CEEDB0020024948800021014839
:1047700081807CBD7CF5FE1F0B0000C600900040D0
:104780007C79FF1FBC79FF1F9C79FF1FDC79FF1F1D
:104790002DE9F043ADF2044D00240025002600274A
:1047A0004FF4806101A8FCF7D2F95B208DF804007A
:1047B0008DF8050009208DF8060000208DF807000F
:1047C0008DF808008DF809008DF80A000EF054FAF3
:1047D00009F0FEF900BFB4E0CA4850F824000028F0
:1047E00053D0C94800788DF80800C7480078401CAD
:1047F000C54908700120A040C0B28DF80A00A02071
:104800008DF80B00002016E000EB4001BF4A02EBE0
:1048100081014968BB4A52F82420114049B1691C02
:104820008DB200EB4001B94A12F82120E91D01AB1D
:104830005A54411CC8B21B28E6D305F1080086B2C1
:10484000F0B28DF80600300A8DF80700A81D81B27D
:104850000DF1060003F0CCFE074605F1080001AAA1
:104860001754390A401C1154A521401C1154401CF6
:104870001154301D82B201A9002017F02DFD012036
:10488000A349087000251BF0D7FD0025A14850F86A
:104890002400002853D09C4800788DF808009A48DE
:1048A0000078401C984908700120A040C0B28DF8E3
:1048B0000A0083208DF80B00002016E000EB400179
:1048C000954A02EB81014968924A52F8242011402E
:1048D00049B1691C8DB200EB40018F4A12F82120CA
:1048E000E91D01AB5A54411CC8B20C28E6D305F1AE
:1048F000080086B2F0B28DF80600300A8DF8070085
:10490000A81D81B20DF1060003F072FE074605F105
:10491000080001AA1754390A401C1154A521401C53
:104920001154401C1154301D82B201A9002017F00F
:10493000D3FC01207649087000251BF07DFD601C2A
:10494000C4B2042CFFF648AF45F65B3073490880CB
:10495000092048800020087148710F208871A1202B
:10496000C87100200872A1F809004AF2A550A1F808
:104970000B006B48B0F80280B0F80490B8F1000F5B
:1049800002D0084680798871B9F1000F03D06348DE
:1049900080796249887162480078012806D002282F
:1049A00056D00B2803D016287ED152E000BF002439
:1049B0004BE05C4800EB8400408800EA0800E8B166
:1049C000002203210F2010F097FA564810F8240017
:1049D000524908724C48007808714B480078401CD6
:1049E0004949087007214D48801C03F001FE4B49DE
:1049F000A1F809000D22002017F06EFC494800EBD9
:104A00008400408800EA0900E8B1002203210F2059
:104A100010F072FA434810F82400404908723A48EE
:104A20000078087138480078401C37490870072121
:104A30003A48801C03F0DCFD3849A1F809000D223A
:104A4000002017F049FC601CC4B2082CB1DB54E014
:104A500000BF00244DE0344800EB8400408800EAA9
:104A60000800E8B1002203210F2010F045FA2E487B
:104A700010F8240029490872234800780871224858
:104A80000078401C2049087007212448801C03F04E
:104A9000AFFD2249A1F809000D22002017F01CFCEF
:104AA000214800EB840000E026E0408800EA09008D
:104AB000E8B1002203210F2010F01EFA1A4810F866
:104AC0002400164908721048007808710E480078D2
:104AD000401C0D49087007211048801C03F088FD18
:104AE0000E49A1F809000D22002017F0F5FB601C0B
:104AF000C4B20B2CAFDB00E000BF00BF0DF2044DD1
:104B0000BDE8F0837C79FF1F38F9FE1FE8F9FE1F2E
:104B1000DCF9FE1F9C79FF1F2CFBFE1FFC76FF1F9C
:104B20007CF5FE1F3EF9FE1F62F9FE1F2DED028B84
:104B30008AB028216846FCF70AF8B8E14FF0FF3147
:104B4000DB4800681DF066FC00287DD145F65B302F
:104B5000D849088009204880002008714871887170
:104B6000A120C87100200872A1F809004AF2A550DE
:104B7000A1F80B00D048408FCF49498800EA0105D1
:104B8000CD48808FCC49898800EA01061DB1C9480B
:104B90008079C84988711EB1C6488079C549887135
:104BA000C5480078012807D0022872D00B2802D00F
:104BB00016286CD16CE000BF00244BE0BF4800EB2E
:104BC000840040882840E8B1002203210F2010F023
:104BD00093F9BA4810F82400B6490872B84800782A
:104BE0000871B7480078401CB54908700721B148E2
:104BF000801C03F0FDFCAF49A1F809000D22002044
:104C000017F06AFBAD4800EB840040883040F8B1F3
:104C1000002203210F2010F06FF9A84810F824009B
:104C2000A4490872A64800780871A5480078401C7D
:104C3000A349087007219F48801C03F0D9FC9D49B7
:104C4000A1F809000D2200E02BE1002017F044FB41
:104C5000601CC4B2082CB1DB05F0080006F00801A6
:104C6000084390B1002201210F2010F045F90020E7
:104C700009E0944951F8201041F40071914A42F83A
:104C80002010411CC8B20428F3DB09E101E006E171
:104C900000BF002449E08C4800EB84004088284095
:104CA000E8B1002203210F2010F026F9864810F801
:104CB0002400804908728248007808718048007892
:104CC000401C7F49087007217A48801C03F090FC43
:104CD0007849A1F809000D22002017F0FDFA7A4862
:104CE00000EB840040883040E8B1002203210F200F
:104CF00010F002F9744810F824006E4908727048E8
:104D0000007808716E480078401C6D4908700721D2
:104D10006848801C03F06CFC6649A1F809000D226C
:104D2000002017F0D9FA601CC4B20B2CB3DB05F4D9
:104D3000804006F48041084390B1002201210F20F9
:104D400010F0DAF8002009E05E4951F8201041F433
:104D500000715C4A42F82010411CC8B20428F3DB01
:104D60005548408800F0100020B95348408800F0B2
:104D70002000F8B15548007801281BD12821684649
:104D8000FBF7E5FE4C4890ED020A10EE101A0846BB
:104D9000FBF7B2FF41EC180B53EC182B4CA1684603
:104DA0001AF042FD0D226946002017F095FA002006
:104DB000464908704048808800F0100020B93E48FD
:104DC000808800F02000F8B14048007801281BD10D
:104DD00028216846FBF7BBFE374890ED030A10EE2A
:104DE000101A0846FBF788FF41EC180B53EC182B00
:104DF0003DA168461AF018FD0D226946002017F003
:104E00006BFA0020314908702B48408800F480601C
:104E1000F8B13B48007801281BD128216846FBF7F0
:104E200096FE254890ED040A10EE101A0846FBF78E
:104E300063FF41EC180B53EC182B32A168461AF0B3
:104E4000F3FC0D226946002017F046FA00202C4999
:104E500008701948808800F48060F8B1284800780C
:104E600001281BD128216846FBF771FE124890EDFE
:104E7000050A10EE101A0846FBF73EFF41EC180B2E
:104E800053EC182B25A168461AF0CEFC0D2269467A
:104E9000002017F021FA00201949087000E000BF37
:104EA00000BF24A01AF0B0FC01201CF071FB45E605
:104EB00044F5FE1FFC76FF1F7CF5FE1F3EF9FE1F2A
:104EC00038F9FE1F7C79FF1F62F9FE1F70F5FE1F87
:104ED000C4A3BFE930B9CAD5CF4143B5E7D1B93D85
:104EE0002531660D0A000000C4A3BFE931B9CAD557
:104EF000CF4143B5E7D1B93D2531660D0A00000029
:104F000071F5FE1FC4A3BFE930B9CAD5CF4443B57C
:104F1000E7D1B93D2531660D0A000000C4A3BFE901
:104F200031B9CAD5CF4443B5E7D1B93D2531660D76
:104F30000A00000061636463207461736B2069730D
:104F40002072756E6E696E67210000002DE01748B3
:104F5000007838BB1648007820BB164880780828AF
:104F60000FD11448C0782A280BD1134800780128A3
:104F700018D100201049087012F02CFAFEF740FEFC
:104F800010E00C48807808280CD10A48C0782928FD
:104F900008D109480078012804D10020064908708A
:104FA00012F018FA64201CF0F3FAD0E7CCF9FE1FD7
:104FB00010F5FE1FA2F7FE1FC8F9FE1FADF5825DBA
:104FC000002656E1AB48007810B10020A9490870CE
:104FD000A94890ED000AF2EE000AB4EE600AF1EE84
:104FE00010FA07D0B2EE000A80ED000A90ED000A38
:104FF000FDF718F940F219164FF4805110A8FBF78D
:10500000A6FD002400256DE005EB850202EB85126C
:105010009A4BD11810AA10194522FBF77FFD453491
:1050200005EB850202EB8513954A991810AA101911
:105030004522FBF773FD453405EB850202EB851233
:10504000904BD11810AA10194522FBF767FD453483
:1050500005EB4502C2EB85128B4BD11810AA101933
:105060003D22FBF75BFD3D3410A8011905EB45021D
:10507000864800EB820002680A6042684A608068E5
:1050800088600C3410A88249495D0155641C05EB09
:1050900045017E4810F8210002281BD005EB450190
:1050A0007A4810F82100062814D005EB450177480E
:1050B00010F8210004280DD005EB4501734810F8C5
:1050C0002100052806D005EB4501704810F82100A5
:1050D000012803D101206F49485502E000206D49A5
:1050E00048556D1C042D8FDB01210F9101220FA962
:1050F00050030FF0C9FB05201CF04AFA002516E00A
:105100006448405D01280ED1002062494855B2B282
:1051100010AB06FB053106FB05F00FF0B5FBFA20DE
:105120001CF036FA02E0FA201CF032FA6D1C042D55
:10513000E6DB4FF4805110A8FBF709FD00240025A1
:105140006DE005EB850202EB85124C4BD11810AADD
:1051500010194522FBF7E2FC453405EB850202EB12
:105160008513474A991810AA10194522FBF7D6FC57
:10517000453405EB850202EB8512424BD11810AA8B
:1051800010194522FBF7CAFC453405EB4502C2EB7A
:1051900085123D4BD11810AA10193D22FBF7BEFC19
:1051A0003D3410A8011905EB4502384800EB820098
:1051B00002680A6042684A60806888600C3410A8FF
:1051C0003349495D0155641C05EB45012F4810F832
:1051D000210002281BD005EB45012C4810F82100C6
:1051E000062814D005EB4501284810F821000428B2
:1051F0000DD005EB4501254810F82100052806D003
:1052000005EB4501214810F82100012803D10120B8
:105210002049485502E000201E4948556D1C042DC8
:105220008FDB02210F9101220FA950030FF02CFBFD
:1052300005201CF0ADF9002518E01648405D012856
:1052400010D1002013494855B2B210AB06FB05310E
:1052500006FB05F303F580500FF016FBFA201CF057
:1052600097F902E0FA201CF093F96D1C042DE4DBA1
:1052700000BFA7E6CCF9FE1FD0F9FE1F404DFF1F6F
:10528000F048FF1F184BFF1F684FFF1F7051FF1F93
:10529000F9F8FE1F58F8FE1F00BF1BF00DFC58E088
:1052A0002C48007801280DD12B480078012806D120
:1052B0001BF002FC0020294908702749087015F0EE
:1052C00091FF22E02348007802280DD1224800787F
:1052D000012806D11BF0F0FB0020204908701E4970
:1052E000087016F049FB10E01D48007810B915F061
:1052F00079FF0AE019480078022804D11BF0DCFB92
:1053000000201649087016F037FB16480078E8B9F7
:10531000134840681449884218D914480078A8B93D
:1053200013480078662811D112488078082803D1E4
:105330001048C078292809D0002009494860012078
:1053400008720870002016F039FEA6E705201CF050
:105350001FF9A5E7F0F8FE1FF1F8FE1F0EF9FE1F7A
:10536000F066FF1FF2F8FE1F905F010030F9FE1F8C
:1053700090F9FE1FA2F7FE1F0024012518E0012D61
:1053800001D100250024052C08DA0A48007828B944
:1053900020460EF061FF601CC4B202E005240EF04E
:1053A000A5FF0EF03DFE01F025F814201CF0F0F8EA
:1053B000E5E70000DDF9FE1FADF5806D0024002556
:1053C000002600274FF480616846FBF7C0FB5B2096
:1053D0008DF800008DF8010009208DF802000020F2
:1053E0008DF803008DF804008DF805008DF8060097
:1053F00036E14FF0FF319B4800681DF00BF80028A4
:10540000F6D19948007800287ED10024DAE0974848
:1054100050F82400002865D0944850F8240094499E
:1054200051F8241088425DD00022012120460FF05F
:10543000C3FC8E4850F824008D4941F824008D4863
:1054400000788DF804008B480078401C894908706A
:105450000120A040C0B28DF80600A0208DF8070002
:10546000002016E000EB4001834A02EB810149680D
:105470007E4A52F82420114049B1691C8DB200EBDC
:1054800040017D4A12F82120E91D0DF80120411C40
:10549000C8B21B28E6D305F1080086B2F0B28DF839
:1054A0000200300A8DF80300A81D81B20DF1020040
:1054B00003F09EF80746F9B205F108000DF8001058
:1054C000390A401C0DF80010A521401C0DF80010F1
:1054D000401C0DF80010301D82B26946002016F005
:1054E000FBFE00250025654850F82400002867D001
:1054F000624850F82400624951F8241088425FD075
:1055000000221146204600E060E00FF055FC5B48A9
:1055100050F824005A4941F82400564800788DF884
:10552000040054480078401C524908700120A040F3
:10553000C0B28DF8060083208DF80700002016E029
:1055400000EB40014F4A02EB810149684B4A52F897
:105550002420114049B1691C8DB200EB4001494A39
:1055600012F82120E91D0DF80120411CC8B20C28B9
:10557000E6D305F1080086B2F0B28DF80200300AD9
:105580008DF80300A81D81B20DF1020003F030F880
:105590000746F9B205F108000DF80010390A401C61
:1055A0000DF80010A521401C0DF80010401C0DF84E
:1055B0000010301D82B26946002016F08DFE0025D5
:1055C000601CC4B2042CFFF622AF36E0002026494E
:1055D000087000242FE0254850F8240090B123489B
:1055E00050F82400224951F8241088420AD00022A1
:1055F000012120460FF0E0FB1C4850F824001C4914
:1056000041F824001D4850F8240090B11B4850F880
:1056100024001B4951F8241088420AD00022114668
:1056200020460FF0C9FB154850F82400144941F8F2
:105630002400601CC4B2042CCDDB4A2000280DDB02
:1056400000BF00BF00F01F020121914042099200FB
:1056500002F1E022C2F8001100BF00BF00BF00BF8E
:10566000C7E6000048F5FE1FDCF9FE1F7C79FF1F2E
:10567000BC79FF1F38F9FE1FE8F9FE1F9C79FF1F58
:10568000DC79FF1F2CFBFE1FADF5016DA5E04FF08F
:10569000FF31524800681CF0BDFE0028F6D14FF4DF
:1056A000006104A8FBF753FA00244D48B0F8001835
:1056B00004A80FF057FE78E00020039002900190BC
:1056C0004748B0F8001804F10A00814209DA444A58
:1056D000B2F80028121B91B204AA10191AF01AF895
:1056E00068E004A820440088039004A9A01C084492
:1056F00000880190BDF80C0045F65A21884202D07E
:10570000A01C84B251E0BDF804002044001D3449BF
:10571000B1F80018884209DD314AB2F80028121B9E
:1057200091B204AA101919F0F5FF43E0BDF8040086
:105730002044801C04A9084400880290BDF8080099
:105740004AF2A551884202D0A01C84B22DE0BDF8D7
:105750000400001D2349088004A80119214802887B
:105760002148FBF7DBF91F480088204484B21F4B17
:105770001F4A1C4801881C480FF092FC1D48007805
:1057800090B900BF194802881949002016F0A4FDFD
:105790000028F7D018480078022805D141F2883057
:1057A0001AF04AFE1AF034F900BF0D48B0F80008AC
:1057B000A04281DC00BF0A48B0F80008A04207DB25
:1057C0000748B0F80008001B0549A1F8000803E0ED
:1057D00000200349A1F8000800BF58E74CF5FE1F60
:1057E000E812FF1FF6F8FE1F3827FF1FF4F8FE1F10
:1057F0003823FF1F09F9FE1FF2F8FE1F1CB5002019
:105800000190012247F6F27101A81BF099FB9DF867
:10581000040001280BD1042247F6F371FD481BF068
:105820008FFB022247F6F771FB481BF089FB09F05A
:10583000AFF8FA488078082807D1F848C0782A28B5
:1058400007D0F648C078292803D0F54800786628A4
:1058500003D00120F349087002E00020F1490870EC
:10586000FE2101200FF056FDEF49087000F0F4FA18
:10587000EE4A002101201CF00FFEED490860ED4AC0
:105880000021ED481CF05AFEEC490860EC4A00216A
:10589000EC481CF053FEEC490860EC48007830B34B
:1058A0000B201BF037F900240DE04FF4FA701AF0CA
:1058B000C3FD0B201BF04CF90C201BF049F907F03D
:1058C000F9FA601CC4B20A2CEFDB0B201BF004F9C0
:1058D0000C201BF001F932201AF0AEFD0DF06AF930
:1058E000FCF780FBDA4908700020D8490870D948D5
:1058F000008800F4004098B9D648006800F4803071
:1059000070B9D448006800F4003048B9D148008824
:1059100000F4006020B9CF48008800F4805010B136
:105920000120CD4908701DF0A7FE10F08BF9012071
:10593000CA49C870002000900122694650030EF049
:105940004AFF0822C64942F210000EF044FF9DF8BB
:105950000000012859D10503002453E0C048005D30
:1059600001284ED104EB840000EB8410BD4A81185D
:10597000452228460EF02FFF453504EB840000EB4E
:105980008412B9481118452228460EF024FF4535E7
:1059900004EB840000EB8410B44A811845222846A9
:1059A0000EF019FF453504EB4400C0EB8410B04AFB
:1059B00081183D2228460EF00EFF3D3504EB4402CF
:1059C000AC4800EB82010C2228460EF004FF0C3597
:1059D000A9480119012228460EF0FDFE6D1C04EBBA
:1059E0004401A44810F82100062804D10120A3494D
:1059F0000855A3490855012104EB44029D4800F8CD
:105A00002210641C042CA9DB5DE09DF80000022834
:105A100059D10025002453E09148005D01284ED162
:105A200004EB840000EB84108E4A8118452228463E
:105A30000EF0D1FE453504EB840000EB84128A4859
:105A40001118452228460EF0C6FE453504EB8400A9
:105A500000EB8410854A8118452228460EF0BBFED3
:105A6000453504EB4400C0EB8410814A81183D2287
:105A700028460EF0B0FE3D3504EB44027D4800EBB5
:105A800082010C2228460EF0A6FE0C357A48011938
:105A9000012228460EF09FFE6D1C04EB4401754860
:105AA00010F82100062804D10120744908557449D2
:105AB0000855012104EB44026E4800F82210641CD2
:105AC000042CA9DB00BF06F081F86E4A00210120FA
:105AD0001CF0E2FC6C4908606C4A002101201CF0BB
