:020000040800F2
:10000000408D002099050008FD2F00087128000888
:10001000792F0008C1080008913500080000000091
:10002000000000000000000000000000BD05000806
:100030007D090008000000002906000839060008B4
:10004000B3050008B3050008B3050008B3050008B0
:10005000B3050008B30500087F090008BB090008C4
:10006000C1090008C7090008CD090008B305000848
:10007000B3050008B3050008B3050008B305000880
:10008000B3050008B3050008B3050008B305000870
:10009000C5080008D1080008B3050008D309000806
:1000A000B3050008BD300008B3050008B30500081B
:1000B000B3050008B3050008B3050008B305000840
:1000C000B3050008B3050008B3050008B305000830
:1000D000B305000885350008B3050008B30500081E
:1000E00085090008B3050008B3050008B30500083A
:1000F000B3050008C9300008B3050008B3050008BF
:10010000B3050008B3050008B3050008B3050008EF
:10011000B3050008B3050008B3050008B3050008DF
:10012000F5080008B3050008B3050008B30500088A
:10013000B3050008B3050008B3050008B3050008BF
:10014000DD080008E9080008B3050008B305000849
:10015000B3050008B3050008B3050008B30500089F
:10016000B3050008B3050008B3050008B30500088F
:10017000B3050008B3050008B3050008000000003F
:10018000B3050008B3050008B3050008B30500086F
:10019000B3050008B3050008B3050008B30500085F
:1001A000B3050008B3050008B3050008DFF80CD05C
:1001B00000F0C2FA00480047D1350008408D002009
:1001C0000246D2E84F0FC2E8431F03B1F9E7704778
:1001D000024652E8000F40EA010042E8000303B182
:1001E000F7E7704710B5024652E8000F20EA010415
:1001F00042E8004303B1F7E710BD10B5024652E8EC
:10020000000F00EA01048C4203D0BFF32F8F0020BF
:1002100010BD20EA010442E8004303B1EFE710BD3E
:1002200010B5024652E8000F084203D1BFF32F8FEA
:10023000002010BD20EA010442E8004303B1F1E7C9
:1002400010BD024652E8000F411C42E8001303B102
:10025000F8E7704710B50246D2E85F0F814202D836
:10026000BFF32F8F10BD441CC2E8534F03B1F3E717
:1002700010BD10B50246D2E85F0F441CA14200D861
:100280000024C2E8534F03B1F5E710BD024652E81F
:10029000000F411E42E8001303B1F8E77047024621
:1002A00052E8000F10B9BFF32F8F7047411E42E88C
:1002B000001303B1F4E770470246D2E85F0F10B9AC
:1002C000BFF32F8F7047411EC2E8531F03B1F4E7FD
:1002D0007047024652E8000F10B9BFF32F8F7047E6
:1002E000016842E8001303B1F4E7704702680A604E
:1002F000BFF35F8F50E8002F0B689342F6D140E8C0
:10030000001303B1F2E770470246D2E84F0FC2E88C
:10031000431F03B1F9E77047024652E8000F40EA75
:10032000010042E8000303B1F7E7704710B5024649
:1003300052E8000F20EA010442E8004303B1F7E766
:1003400010BD10B5024652E8000F00EA01048C42CD
:1003500003D0BFF32F8F002010BD20EA010442E834
:10036000004303B1EFE710BD10B5024652E8000F9D
:10037000084203D1BFF32F8F002010BD20EA0104F3
:1003800042E8004303B1F1E710BD024652E8000F16
:10039000411C42E8001303B1F8E7704710B502466C
:1003A000D2E85F0F814202D8BFF32F8F10BD441CEB
:1003B000C2E8534F03B1F3E710BD10B50246D2E8CF
:1003C0005F0F441CA14200D80024C2E8534F03B180
:1003D000F5E710BD024652E8000F411E42E8001347
:1003E00003B1F8E77047024652E8000F10B9BFF3B7
:1003F0002F8F7047411E42E8001303B1F4E77047A6
:100400000246D2E85F0F10B9BFF32F8F7047411E2D
:10041000C2E8531F03B1F4E77047024652E8000FE9
:1004200010B9BFF32F8F7047016842E8001303B182
:10043000F4E7704702680A60BFF35F8F50E8002F4F
:100440000B689342F6D140E8001303B1F2E770471E
:100450000246D2E84F0FC2E8431F03B1F9E77047E5
:10046000024652E8000F40EA010042E8000303B1EF
:10047000F7E7704710B5024652E8000F20EA010482
:1004800042E8004303B1F7E710BD10B5024652E859
:10049000000F00EA01048C4203D0BFF32F8F00202D
:1004A00010BD20EA010442E8004303B1EFE710BDAC
:1004B00010B5024652E8000F084203D1BFF32F8F58
:1004C000002010BD20EA010442E8004303B1F1E737
:1004D00010BD024652E8000F411C42E8001303B170
:1004E000F8E7704710B50246D2E85F0F814202D8A4
:1004F000BFF32F8F10BD441CC2E8534F03B1F3E785
:1005000010BD10B50246D2E85F0F441CA14200D8CE
:100510000024C2E8534F03B1F5E710BD024652E88C
:10052000000F411E42E8001303B1F8E7704702468E
:1005300052E8000F10B9BFF32F8F7047411E42E8F9
:10054000001303B1F4E770470246D2E85F0F10B919
:10055000BFF32F8F7047411EC2E8531F03B1F4E76A
:100560007047024652E8000F10B9BFF32F8F704753
:10057000016842E8001303B1F4E7704702680A60BB
:10058000BFF35F8F50E8002F0B689342F6D140E82D
:10059000001303B1F2E7704706488047064800475A
:1005A000FEE7FEE7FEE7FEE7FEE7FEE7FEE7FEE723
:1005B000FEE7FEE7AD300008AD0100081EF0040FB5
:1005C0000CBFEFF30880EFF30980816911F8021C7A
:1005D00000291BD101B590E80F10E047BDE800509D
:1005E0008CE80300184B93E80600914208BF70475F
:1005F0001A6019B12CE9F00FC1F838C0906B6FF098
:10060000020EB0E8F00F80F3098870470F4A1368B4
:100610009942FAD801B552F821C00FC8E047BDE8A9
:100620000050CCF80000704701B503F0FDF9BDE8BB
:100630000140EFF3098CD5E701B503F0E3FBBDE81A
:100640000140EFF3098CCDE778850020E8420008EF
:100650002DE9F05F0546002092469B4688460646F7
:10066000814640241BE0284641464746224600F08A
:1006700053F853465A46C01A914110D311461846B2
:10068000224600F03AF82D1A67EB01084F46224641
:100690000120002100F031F817EB00094E41201E27
:1006A000A4F10104DFDC484631462A464346BDE852
:1006B000F09F40EA01039B0703D009E008C9121F1D
:1006C00008C0042AFAD203E011F8013B00F8013B0C
:1006D000521EF9D27047D2B201E000F8012B491E38
:1006E000FBD270470022F6E710B513460A460446CF
:1006F0001946FFF7F0FF204610BD202A04DB203A00
:1007000000FA02F1002070479140C2F1200320FA64
:1007100003F3194390407047202A04DB203A21FA62
:1007200002F00021704721FA02F3D040C2F120020A
:100730009140084319467047064C074D06E0E068B3
:1007400040F0010394E8070098471034AC42F6D318
:10075000FFF730FDA0430008C043000830B58C18F7
:1007600010F8012B12F00F0301D110F8013B120910
:1007700006D110F8012B03E010F8015B01F8015BD2
:100780005B1EF9D101E001F8013B521EFBD1A142F1
:10079000E6D3002030BD0000464910B54A6822F477
:1007A00040324A604A6843681A434A6001684A68AE
:1007B00022F480724A6001684A68036942EA0322AF
:1007C0004A6001684A6822F040724A6001684A68DB
:1007D00083681A434A6001688A6822F400628A606A
:1007E00001688A68C3681A438A60816A6FF0706220
:1007F000D14201688A6822F070628A6001688A6862
:100800000CD0836A1A438A6001688A6822F04052D9
:100810008A6001688A68C36A1A4301E022F0405284
:100820008A6001688A6822F002028A6001688A6828
:10083000037E42EA43028A6090F820100029016892
:100840004A680FD042F400624A6001684A6822F4A4
:1008500060424A6001684A68174C436A04EB4333BC
:100860001A4301E022F400624A600168CA6A22F475
:100870007002CA620168CA6A838B104C04EB03538E
:100880001A43CA6201688A6822F400728A600168A9
:100890008A6890F8303042EA43228A6001688A68A8
:1008A00022F480628A6001688A68406942EA802096
:1008B000886010BD0023014000E0FFFF0000F0FF52
:1008C000FEE70000014800F0F2B90000B086002009
:1008D000014800F0ECB90000B0860020014800F0AB
:1008E000E6B90000D8860020014800F0E0B9000019
:1008F000D8860020014800F05DBC00005086002032
:1009000001681823CAB2103AB2FBF3F2054B6FF339
:100910000901032A9B5CC36500D9091D816508464E
:10092000704700006842000810B5014600208B693E
:100930008A6A4FF0C07453B1B3F5005F15D072B13D
:10094000012A0CD0022A0AD0032A09D104E01AB1E4
:10095000012A06D0022A03D1C96AC90100D50120A3
:1009600010BDC96AA142FAD010BD002AF7D0012AF1
:10097000F2D0022AF3D0032AF3D010BD7047012031
:1009800000F054BD10B54FF4806000F04FFD4FF4FF
:10099000006000F04BFD4FF4805000F047FD4FF435
:1009A000005000F043FD4FF4804000F03FFDBDE8F3
:1009B00010404FF4004000F039BD022000F036BD79
:1009C000042000F033BD082000F030BD102000F0FE
:1009D0002DBD10B5202000F029FD402000F026FD9F
:1009E000802000F023FD4FF4807000F01FFDBDE873
:1009F00010404FF4007000F019BD72B6FEE770476A
:100A0000704770477047704770477047704770472E
:100A1000704770477047704770477047704770471E
:100A2000704770477047704770477047704770470E
:100A300070477047704770477047000078B50024D2
:100A4000009490F83C20012A19D0012280F83C2023
:100A50000A6807230568092A13D9EE680A3A02EBE7
:100A6000420293409E43EE600B788A680A3B03EB98
:100A700043039A400368DD682A43DA6010E00220ED
:100A800078BD2E6902EB420293409E432E610B78A3
:100A90008A6803EB43039A4003681D692A431A617D
:100AA0004A681F23072A13D205686E6B521E02EB99
:100AB000820293409E436E630A8893B20A79521E63
:100AC00002EB820293400268556B2B43536327E08D
:100AD00005680D2A12D22E6BD21F02EB82029340C0
:100AE0009E432E630B790A88DB1F92B203EB8303CC
:100AF0009A4003681D6B2A431A6311E0EE6A0D3AAF
:100B000002EB820293409E43EE620B790A880D3B12
:100B100092B203EB83039A400368DD6A2A43DA62E8
:100B20001B4B0568194A9D420AD10D68122D07D149
:100B3000556825F400055560556845F480055560F5
:100B400005689D421DD1134D0B68AB4201D0112B9E
:100B500017D1536823F480035360536843F40003B0
:100B600053600968A9420CD10B490C4A0968B1FBD2
:100B7000F2F101EB8101490000E0491E00910029DA
:100B8000FBD180F83C40002078BD000000230140EC
:100B900000200140120000106085002040420F003C
:100BA00070B504004FF0000503D0206C002610B192
:100BB00007E0012070BD204600F01CF8666484F850
:100BC0003C60206CC00610D4206C20F4885040F0AB
:100BD000020020642046FFF7DFFD6664206C20F0F1
:100BE000020040F00100206400E0012584F83C6030
:100BF000284670BD70B586B0064614216846FFF7DA
:100C000071FD24493068884241D12348002501689C
:100C100041F48071016000681F4900F4807014394C
:100C20000590086840F004000860086800F00400BF
:100C30000590086840F0010008600868032400F08F
:100C4000010005900F208DE831006946134800F03F
:100C5000F9FB1F208DE831006946114800F0F2FBD6
:100C6000114C1048C4E900050015A560C4E9035003
:100C7000400060618000C4E9060525622046656287
:100C800000F068FB08B1FFF7B8FEB463A66306B0D6
:100C900070BD0000002001404438024000080240BE
:100CA00000000240106402405086002070472DE989
:100CB000F05F0546006800244669D0F80490876814
:100CC000D0F80CB0D0F810A0D0F81880F10748D0B8
:100CD000F90714D001218160B80703D5284600F038
:100CE00007FA0CE0780702D54FF4006407E03807F4
:100CF00002D54FF4805402E0284600F0F8F9F805D8
:100D000016D529684FF480708860B80503D5284649
:100D100000F0F0F90CE0780502D544F4005407E047
:100D2000380502D544F4804402E0284600F0E1F999
:100D3000F80316D529684FF480308860B80303D5CE
:100D4000284600F0D9F90CE0780302D544F40044B9
:100D500007E0380302D544F4803402E0284600F06E
:100D6000CAF9300707D55FEACB6004D5296810209F
:100D700044F40074C86070074FF0080707D55FEAB5
:100D80000B7004D52868C760284600F0ABF9B0079F
:100D900006D52868C068800702D0284600F0A3F96D
:100DA000700607D55FEACA6004D52968102044F4AC
:100DB00080640861B00607D55FEA0A7004D5286828
:100DC0000761284600F090F9F00606D5286800690A
:100DD000800702D0284600F088F9B00308D55FEA02
:100DE000C96005D5296810204860284600F07EF9C2
:100DF000F00307D55FEA097004D5286847602846E4
:100E000000F07BF9300446D55FEA497040D5F00523
:100E100004D55FEAC87001D044F00104B00504D5E0
:100E20005FEA887001D544F00204700504D55FEADA
:100E3000487001D544F00404300529D518F0700F2E
:100E400026D008F07000402815D006DC102809D004
:100E500020280AD0302816D10AE050280ED0602869
:100E600011D10EE044F008040DE044F010040AE053
:100E700044F0200407E044F0400404E044F080041F
:100E800001E044F480742868816921F07001816177
:100E9000296804204860002C05D0686A20436862F5
:100EA0002846FFF703FFBDE8F09F70B5040003D0AC
:100EB00094F8200010B104E0012070BD204600F03D
:100EC00081F82068016841F00101016000F0DAFB5F
:100ED0000546052604E000F0D5FB401B0A2811D882
:100EE00020684068C007F6D02068016821F0020140
:100EF000016000F0C7FB05460BE000F0C3FB401BA0
:100F00000A2806D9606A40F40030606284F82060E4
:100F1000D2E7206840688007EFD4207E012820684F
:100F200001683DD021F080010160607E01282068C9
:100F3000016838D021F040010160A07E01282068BE
:100F4000016833D021F020010160E07E0128206893
:100F500001682ED041F010010160207F0128206837
:100F6000016829D021F008010160607F0128206814
:100F7000016824D021F004010160D4E90201084392
:100F8000D4E90412114308436168491E08432168EB
:100F9000C86100206062012084F82000002070BD3C
:100FA00041F08001C0E741F04001C5E741F0200178
:100FB000CAE721F01001CFE741F00801D4E741F082
:100FC0000401D9E7F0B587B0044614216846FFF75D
:100FD00089FB3F4B3F48DFF8F4E01968D4F800C0C4
:100FE0003C4A02250326092710300024491CF445F9
:100FF0002CD11960012907D1016841F0007101600D
:10100000006800F000700590106840F0010010606A
:10101000106802AB00F0010005904FF4C050CDE91C
:10102000000583E8D00069462B4800F00BFA012246
:101030001146142000F0DEFB142000F0CDFB01224D
:101040001146152000F0D6FB15203AE0DFF88CE0C1
:10105000F44538D1D0F800C04CF0806CC0F800C026
:10106000D0F800C001290CF0806CCDF814C01960D4
:1010700007D1016841F000710160006800F0007064
:101080000590106840F002001060106802AB00F09C
:10109000020005906020CDE9000583E8D000694694
:1010A0000F4800F0CFF902220121402000F0A2FBFE
:1010B000402000F091FB02220121412000F09AFB28
:1010C000412000F089FB07B0F0BD00000064004043
:1010D0005085002030380240000002400068004087
:1010E0000004024070477047704770477047704770
:1010F0007047704770477047704770472DE9F0415F
:101100000446876D00F0BEFA064694F835000025C7
:10111000022806D08020606584F834500120BDE8A4
:10112000F0812068016821F01601016020684169A2
:1011300021F080014161206C08B9A06C20B12068C9
:10114000016821F0080101602068016821F00101B7
:1011500001600CE000F096FA801B052807D92020DA
:101160006065032084F8350084F83450D7E72068A0
:101170000068C007EED194F85C103F208840B8604A
:10118000012084F8350084F834500020C7E790F837
:101190003510022903D080214165012070470521C7
:1011A00080F835100068016821F00101016000201D
:1011B000704700002DE9F84304464FF00009CDF8D0
:1011C000009063484FF41651A56D0068B0FBF1F72D
:1011D0002E6894F85C10082000FA01F131420FD01B
:1011E00021680A6852070BD50A6822F004020A60D7
:1011F00094F85C108840A860606D40F00100606564
:1012000094F85C104FF0010808FA01F0304208D061
:1012100021684969090604D5A860606D40F00200A4
:10122000606594F85C1004208840304208D0216842
:101230000968890704D5A860606D40F00400606506
:1012400094F85C1010208840304218D0216809685A
:10125000090714D5A86020680168490304D500680F
:10126000000308D5A16C07E00168C90503D4016833
:1012700021F008010160216C09B12046884794F8EB
:101280005C1020208840304231D021680968C906AE
:101290002DD5A86094F8350005282068016806D08F
:1012A000490347D5006800031DD4616C1CE021F0A0
:1012B000160101602068416921F080014161206CC4
:1012C00008B9A06C20B12068016821F00801016014
:1012D00094F85C103F208840A86084F8358084F83A
:1012E0003490216D1FE0E16B09B120468847606DA5
:1012F00000282BD0606DC00714D0052084F835007D
:101300002068016821F0010101600098401C0090F4
:10131000B84203D820680068C007F6D184F8358049
:1013200084F83490E16C002910D001B02046BDE86B
:10133000F04308470168C905D5D4016821F01001C0
:10134000016084F8358084F83490CCE7BDE8F883F8
:10135000608500202DE9F041044600F093F906462F
:101360005CB1022084F83500002584F834502068F0
:10137000016821F0010101600DE00120BDE8F0816C
:1013800000F080F9801B052805D920206065032026
:1013900084F83500F2E720680068C007F0D12268C1
:1013A000116820480140D4E901031843D4E9033609
:1013B0003343184363691843A3691843E369184327
:1013C000236A18430843616A042903D1D4E90B1343
:1013D00019430843106020684069666A20F00701DD
:1013E00030460E43012704280CD1A06A0643E06A68
:1013F00040B12046FFF798FA20B14020606584F89C
:101400003570BAE7206846612046FFF779FA94F80C
:101410005C203F2191408160656584F83570002033
:10142000ACE700003F8010F070470000044910B5A1
:101430000A68024202D00860FFF7F6FF10BD000004
:10144000143C01402DE9F84FDFF8F8A100220124F7
:101450000AF1040B03254FF00F090BF1040E00BF36
:101460000B6804FA02F63340B34270D10F7907F0EB
:101470000307012F01D0022F16D187684FEA4208D7
:1014800005FA08FC27EA0C07D1F80CC00CFA08FC96
:101490004CEA070CC0F808C04768B7430E79C6F39A
:1014A000001696403E4346600E79F643B6070AD0D2
:1014B000C7684FEA420C05FA0CF6B7438E6806FA85
:1014C0000CF63E43C6600E7906F00306022E10D1DC
:1014D000D60800EB8608D8F8206057074FEAD76C8B
:1014E00009FA0CF7BE430F6907FA0CF73743C8F83F
:1014F000207006684FEA420C05FA0CF7BE430F79DC
:1015000007F0030707FA0CF7374307604E6816F435
:10151000403F1CD04C4E376847F4804737603668F0
:1015200022F0030706F480460096484E07EB060CAF
:10153000DCF8086897073F0F09FA07F826EA08065B
:10154000DFF80C81404503D14FF0000841E072E024
:10155000DFF80081404502D14FF0010839E0DFF8A3
:10156000F880404502D14FF0020832E0DFF8EC800D
:10157000404502D14FF003082BE0DFF8E4804045FE
:1015800002D14FF0040824E0DFF8D880404502D1B2
:101590004FF005081DE0DFF8D080404502D14FF044
:1015A000060816E0DFF8C480404502D14FF0070876
:1015B0000FE0DFF8BC80404502D14FF0080808E09A
:1015C000DFF8B080404502D14FF0090801E04FF04C
:1015D0000A0808FA07F848EA0608CCF80888DAF892
:1015E00000605746D1F804C09E435FEACC3C00D56A
:1015F0001E433E60DBF800605F46D1F804C09E43A6
:101600005FEA8C3C00D51E433E60DEF80060774602
:10161000D1F804C09E435FEACC2C00D51E433E6047
:10162000084F0C373E68D1F804C09E435FEA8C2C0B
:1016300000D51E433E60521C102AFFF411AFBDE8D6
:10164000F88F0000003C0140443802400030014067
:10165000000002400004024000080240000C02406A
:10166000001002400014024000180240001C02401A
:1016700000200240002402400AB181617047090441
:10168000FBE7000001488068704700005485002097
:1016900070B5040011D021684CF6CC400860216878
:1016A00045F255500860D4E9000141602168A06806
:1016B0008860FFF7E7FF05460DE0012070BD00BF21
:1016C000FFF7E0FF401B312805D92068C06880077C
:1016D00001D0032070BD2068C0688007F0D1216868
:1016E0004AF6AA200860002070BD00000248816808
:1016F0000278114481607047548500200B4810B572
:10170000016841F400710160016841F48061016089
:10171000016841F480710160032000F08BF8002023
:1017200000F006F800F03EF8002010BD003C02403A
:1017300010B5014688B000222D2000F05BF82D2066
:1017400000F04AF813480024016841F480710160F8
:10175000006805A900F480700690684600F04EF914
:1017600000F06CF90C494000B0FBF1F10C480B4A59
:10177000491E026040F2E732C0E90324C0E90114C7
:1017800000F0B2FC10B1012008B010BD044800F018
:10179000F7FCF9E74038024040420F0000200040CB
:1017A000F88800200B4882B0016841F48041016054
:1017B000006800F4804000900648001F016841F076
:1017C00080510160006800F080500090052002B058
:1017D00000F030B844380240002809DB00F01F0256
:1017E000012191404009800000F1E020C0F8001183
:1017F00070470000F0B40E4B1B680C46C3F3022385
:10180000C3F10705042D00D90425191D072901D2AC
:10181000002300E0DB1E012606FA05F1491E2140E7
:1018200099409E40761E16403143F0BC01F0B1BE97
:101830000CED00E0064900F0070208684FF6FF03D0
:10184000184040EA0220034A104308607047000035
:101850000CED00E00000FA052DE9F8431748016897
:1018600041F0805101600068154F00F08050012662
:1018700000903E64FFF706FF05464FF47A78114C5E
:1018800005E000BFFFF7FEFE401B40450DD8606835
:10189000C003F7D57E64FFF7F5FE0546464607E030
:1018A000FFF7F0FE401BB04202D90320BDE8F883E9
:1018B00060688003F4D50020F8E70000403802405B
:1018C00000000E42007000402DE9F0470E46050072
:1018D00065D0DFF81481D8F80000F7B200F00F00EF
:1018E000B04207D288F80070D8F8000000F00F006E
:1018F000B04254D128683D4C810712D5400703D52A
:10190000206840F4E05020602878000703D5206864
:1019100040F4604020602068A96820F0F00008438F
:1019200020602878C0072DD0304968680839012820
:1019300012D0022813D0032811D009688907002982
:101940002DDA216821F0030101432160FFF79AFE9F
:10195000814641F2883A0EE009688903EFE7096899
:101960008901ECE7FFF78EFEA0EB0901514502D992
:101970000320BDE8F0872068696800F00C00B0EB38
:10198000810FEFD1D8F80010404601F00F01B142AD
:1019900007D90770006800F00F00B04201D00120A5
:1019A000E7E72878400705D52068E96820F4E0508B
:1019B000084320602878000706D52068296920F4AC
:1019C000604040EAC100206000F058F82168084AF1
:1019D000C1F30311515CC84006490860064800681D
:1019E000FFF7A6FE0020C4E7003C02400838024092
:1019F0007042000860850020588500200F22026098
:101A00000C4A136803F003034360136803F0F00308
:101A10008360136803F4E053C36012684FF4E0532B
:101A200003EAD20202610448006800F00F00086077
:101A30007047000008380240003C02400448054955
:101A400000680968044AC1F38221515CC8407047AC
:101A5000608500200838024080420008044805499B
:101A600000680968044AC1F34231515CC8407047BC
:101A7000608500200838024080420008154810B5F3
:101A8000006810F00C02144813D04110042A0FD043
:101A9000082A0ED10F4C241F2268236802F03F024F
:101AA0005B0207D52068C0F38810A0FB010106E0A7
:101AB000084610BD2168C1F38811A1FB0001002375
:101AC000FEF7C6FD2168C1F30141491C4900B0FB86
:101AD000F1F010BD083802400024F4002DE9F84F61
:101AE00004006ED02078DFF84C93C007A9F10405FC
:101AF0004AD009F104000168C1F38101012908D02D
:101B00000068C0F3810002280AD1D9F80000400221
:101B100006D52868800337D560680028E1D033E017
:101B20006068B0F5803F10D0B0F5A02F286810D0C5
:101B300020F480302860286820F4802028606068C5
:101B4000A8B1FFF79FFD06460DE0286840F48030FD
:101B5000F4E740F480202860F7E700BFFFF792FD2C
:101B6000801B642873D828688003F7D50CE0FFF742
:101B700089FD064605E000BFFFF784FD801B642851
:101B8000F0D828688003F7D42078DFF8AC8280078B
:101B90004FF0000A3ED5A748001D016811F00C0F58
:101BA00008D00068C0F3810002280BD1D9F80000EA
:101BB000400207D42868800716D5E068012800D1C4
:101BC00012E033E1E068B8B10120C8F80000FFF787
:101BD00059FD064605E000BFFFF754FD801B0228B3
:101BE000C0D828688007F7D52868216920F0F80058
:101BF00040EAC10028600DE0C8F800A0FFF742FDF0
:101C0000064604E0FFF73EFD801B02281FD8286827
:101C10008007F7D42078000722D5864F874861696E
:101C2000703771B101210160FFF72CFD064604E019
:101C3000FFF728FD801B022809D838688007F7D5F0
:101C40000EE0C0F800A0FFF71DFD064605E082E0AB
:101C5000FFF718FD801B02287DD838688007F7D46D
:101C60002078400768D5DFF8CCB100270BF13C0B9A
:101C7000DBF80000C0000BD4DBF8001041F080510D
:101C8000CBF80010DBF80000012700F08050009036
:101C90006B4E3068C00510D4306840F480703060FE
:101CA000FFF7F0FC009005E0FFF7ECFC0099401A0C
:101CB000022850D83068C005F6D55E4EA0686C3654
:101CC00001280FD00528306810D020F001003060C6
:101CD000306820F004003060A068B8B1FFF7D2FC93
:101CE00000900FE0306840F00100F4E740F004009D
:101CF0003060F7E7FFF7C6FC0099411A41F28830DF
:101D0000814266D830688007F4D50EE0FFF7BAFC50
:101D1000009007E0FFF7B6FC0099411A41F28830C5
:101D2000814256D830688007F4D42FB1DBF8001018
:101D300021F08051CBF80010A069C8B33D49091DBE
:101D40000968C1F3810102294AD00228504607D010
:101D5000C8F8600000E03CE0FFF794FC04463BE07C
:101D60004746C8F86000FFF78DFC064605E000BF57
:101D7000FFF788FC801B02282BD828688001F7D445
:101D8000D4E907010843A16A2E4A490802EB014140
:101D9000626A41EA8211084394F82C1040EA01611A
:101DA000C9F8001001203866FFF76CFC044606E015
:101DB0003EE000BFFFF766FC001B022809D8286838
:101DC0008001F7D534E000BFFFF75CFC001B022860
:101DD00002D90320BDE8F88F28688001F4D427E0F9
:101DE0000128F7D0D9F80000E26900F4800191429F
:101DF0001CD1226A00F03F01914217D147F6C07111
:101E0000626A0140B1EB821F10D1A26A4FF0FF332A
:101E100000F4403103EB5202B1EB024F06D194F8CB
:101E20002C1000F07060B0EB016F01D00120D1E701
:101E30000020CFE70438024000004742800E4742AE
:101E4000007000400000FFFF70B5040003D060790F
:101E5000002510B105E0012070BD2571204600F07D
:101E60000DF8022060712068016841F004010160F2
:101E700001206071A560002070BD000008B50068F9
:101E80000649884208D10648016841F040010160D6
:101E9000006800F04000009008BD000000080650F7
:101EA0003438024070B5040009D0606A002540B1A2
:101EB00025616561A56294F8510040B10CE00120F4
:101EC00070BD6068B0F5827FF4D0E561F2E784F818
:101ED0005050204600F044F8022084F85100206859
:101EE000016821F040010160A088218900F482701E
:101EF00001F404410843A18901F400610843217CF5
:101F000001F002010843217D01F001010843218B0A
:101F100001F400710843217F01F03801084394F86F
:101F2000201001F080010843218D01F40051084385
:101F300021680860A069042101EA104094F8241087
:101F400001F010010843216848602068C16921F44C
:101F50000061C1616565012084F85100002070BDF9
:101F6000F0B587B0044614216846FEF7BBFB334842
:101F7000314F25680021314A1038022303240526F9
:101F8000BD4218D1156845F480451560126802F409
:101F900080420592026842F002020260006802ADCF
:101FA00000F00200059085E852007003CDE90003BF
:101FB000694623481CE0234FBD421DD1156845F4F6
:101FC00000451560126802F400420592026842F072
:101FD000040202600068CDE9021400F004000590DC
:101FE0004FF4E050CDE900030620049069461648FE
:101FF000FFF728FA07B0F0BD144A9542FAD10F4A0C
:10200000121D156845F400551560126802F400525F
:102010000592026842F010020260006802AA00F015
:102020001000059082E852004FF4E040CDE9000333
:1020300069460748DCE700000038004040380240AD
:1020400000040240003C004000080240003401400F
:10205000001002407047704770B590F83C20012A8C
:1020600032D0012480F83C40022280F83D200368F1
:102070005A689D6822F070060A6832435A60134B12
:1020800002689A4214D0B2F1804F11D0104B9A429C
:102090000ED0104B9A420BD00F4B9A4208D00F4BE8
:1020A0009A4205D00E4B9A4202D00E4B9A4204D16E
:1020B000496825F080031943916080F83D40002174
:1020C00080F83C10084670BD022070BD0000014041
:1020D0000004004000080040000C004000040140E3
:1020E000004001400018004010B5040003D094F8EF
:1020F0003D0010B107E0012010BD002084F83C0035
:10210000204600F01FF8022084F83D00211D2068C1
:1021100000F0E0FF012084F8460084F83E0084F8D7
:102120003F0084F8400084F8410084F8420084F8BD
:10213000430084F8440084F8450084F83D00002002
:1021400010BD000008B500680B49884212D10B4849
:10215000016841F4003101600068012200F40030A0
:10216000009000211920FFF745FBBDE80840192029
:10217000FFF732BB08BD0000004401404438024074
:1021800090F83D10012901D001207047022180F80C
:102190003D100168CA6842F00102CA600068114936
:1021A000884214D0B0F1804F11D00F4988420ED030
:1021B0000E4988420BD00E49884208D00D4988420A
:1021C00005D00D49884202D00C49884204D181686B
:1021D00001F00701062903D0016841F00101016007
:1021E000002070470000014000040040000800404B
:1021F000000C004000040140004001400018004075
:10220000704770B50446006801694FF00005C94386
:10221000890715D4C168C943890711D4E91E016132
:1022200001202077206880698007204602D0FFF7D0
:10223000E7FF04E000F0C0F8204600F063F92577DE
:1022400020680169C943490717D4C168C9434907D0
:1022500013D46FF0040101610220207720688069A7
:1022600010F4407F204602D0FFF7CAFF04E000F0E0
:10227000A3F8204600F046F9257720680169C94394
:10228000090716D4C168C943090712D46FF00801C1
:102290000161042020772068C0698007204602D0B1
:1022A000FFF7AEFF04E000F087F8204600F02AF9BF
:1022B000257720680169C943C90617D4C168C94395
:1022C000C90613D46FF0100101610820207720683F
:1022D000C06910F4407F204602D0FFF791FF04E070
:1022E00000F06AF8204600F00DF9257720680169B2
:1022F000C943C90708D1C168C943C90704D1891EA8
:102300000161204600F000F920680169C94309060F
:1023100009D4C168C943090605D46FF08001016181
:102320002046FFF797FE20680169C943490609D492
:10233000C168C943490605D46FF0400101612046D8
:1023400000F0ECF820680169C94389060BD4C16824
:10235000C943890607D46FF0200101612046BDE81A
:102360007040FFF778BE70BD10B586B004461421EA
:102370006846FEF7B7F92068B0F1804F15D10C48D8
:102380000021026842F001020260006800F00100D2
:102390000590202000900220CDE901010120CDE927
:1023A000031069460348FFF74DF806B010BD000062
:1023B0003038024000000240704770B5044690F883
:1023C0003C0000260D4601280FD0012084F83C0077
:1023D0006AB1042A1DD0082A2FD00C2A3FD001262A
:1023E000002084F83C00304670BD022070BD20689B
:1023F00000F0D4FE2068816941F008018161206805
:10240000816921F004018161206881692A69114391
:1024100011E0206800F0F2FE2068816941F400615B
:1024200081612068816921F480618161206881690E
:102430002A6941EA02218161D2E7206800F014FF95
:102440002068C16941F00801C1612068C16921F0BB
:102450000401C1612068C1692A69114311E0206843
:1024600000F036FF2068C16941F40061C161206855
:10247000C16921F48061C1612068C1692A6941EAAA
:102480000221C161ACE710B5040003D094F83D000F
:1024900010B107E0012010BD002084F83C00204668
:1024A00000F01EF8022084F83D00211D206800F095
:1024B00011FE012084F8460084F83E0084F83F00B5
:1024C00084F8400084F8410084F8420084F8430016
:1024D00084F8440084F8450084F83D00002010BDD5
:1024E00008B50068B0F1804F08D10548016841F097
:1024F00001010160006800F00100009008BD0000CB
:10250000403802407047000000680349884201D10A
:10251000FFF7ECB87047000000200040704770479C
:1025200070470000F8B5016804460868CA684B693E
:1025300010F00F0F4FF0000559D003F0010602F420
:102540009077374365D0C10705D0D10503D5216CFD
:1025500041F001012164410705D5D90703D0216C61
:1025600041F002012164810705D5D90703D0216C10
:1025700041F004012164010707D502F02001314335
:1025800003D0216C41F008012164216C00293AD06C
:10259000800604D5900602D5204600F00CFF206886
:1025A0004069216CC0F38010090700D460B3204655
:1025B00000F0DAFE20684069400621D5206814301A
:1025C00050E8001F21F0400140E80012002AF5D138
:1025D000A06BA8B16C490165A06BFEF7D8FD00287F
:1025E00011D0A06B016D01B0BDE8F0400847830633
:1025F0000FD593060DD52046BDE8F84000F0DBBEB0
:102600002046FFF78DFFF8BD2046FFF789FF2564C0
:10261000F8BD266B2023012E79D1C60677D5D606C4
:1026200075D50868486800904869400640D5A16B98
:10263000086840680004000CEAD0A28D8242E7D905
:10264000E085C869B0F5807F2DD020680C3050E857
:10265000001F21F4807140E80012002AF5D12068A3
:10266000143050E8001F21F0010140E80012002A58
:10267000F5D12068143050E8001F21F0400140E8F7
:102680000012002AF5D184F83E30256320680C3012
:1026900050E8001F21F0100140E80012002AF5D197
:1026A000A06BFEF72BFDA08DE18D401A81B229E0D1
:1026B000A08DE18D401A81B2E08D0028A8D00029BC
:1026C000A6D020680C3050E8002F22F4907240E829
:1026D0000026002EF5D12068143050E8002F22F09B
:1026E000010240E80026002EF5D184F83E30256333
:1026F00020680C3050E8002F22F0100240E8002340
:10270000002BF5D12046FFF70AFFF8BDFFE70506CD
:102710002BD5150629D594F83D002128F5D1A068C0
:10272000B0F5805F01D12069B0B1206A411C2162FF
:10273000216800784860E08C401E0004000CE084B2
:10274000E3D12068C16821F08001C1602068C168C0
:1027500041F04001C160D8E7206A0088C0F308005A
:102760004860206A801C2062E5E74006CDD550060F
:10277000CBD5CA68204622F04002CA6084F83D30BA
:1027800000F075F8C1E700005933000870B5040087
:1027900004D094F83D00002510B106E0012070BD82
:1027A00084F83C50204600F023F8242084F83D00B3
:1027B0002068C16821F40051C160204600F05CFE31
:1027C0002068016921F4904101612068416921F08C
:1027D0002A0141612068C16841F40051C16025644B
:1027E000202084F83D0084F83E00002070BD0000E9
:1027F00010B586B0044614216846FDF773FF1849EA
:102800002068884229D117480021026842F010024E
:102810000260006800F01000059012481438026849
:1028200042F001020260006800F0010005904FF4E0
:10283000C06000900220CDE9010103200390072031
:10284000049069460848FEF7FDFD0222012125207B
:10285000FEF7D0FF2520FEF7BFFF06B010BD000039
:1028600000100140443802400000024070477047A9
:10287000FEE7EFF30580002800D001207047EFF35A
:10288000108018B9EFF31180002800D001207047A4
:102890007FB500253F480095019502953C49039579
:1028A000016001244FF480310461C0E90115047610
:1028B00080F820503849C0E90A150926C661C5606C
:1028C00080F830404461FEF76BF908B1FEF795F8E7
:1028D000CDE9005469462F480294FEF7AFF808B1DD
:1028E000FEF78BF80094022469462A480194FEF70B
:1028F000A5F808B1FEF781F800940324694625483D
:102900000194FEF79BF808B1FEF777F800940424D1
:10291000694620480194FEF791F808B1FEF76DF87A
:102920000520CDE9004069461A48FEF787F808B14E
:10293000FEF763F80A2000900620019069461548CA
:10294000FEF77CF808B1FEF758F80B20009007203E
:10295000019069460F48FEF771F808B1FEF74DF88F
:102960000C2000900820019069460A48FEF766F89E
:1029700008B1FEF742F80D20CDE90006694605488A
:10298000FEF75CF8002801D0FEF737F87FBD0000A5
:1029900000200140088600200100000F0E4810B5FD
:1029A0000C4901600F21416000214FF440328160E9
:1029B000C0E903124161017641768176C1760177E3
:1029C0004177FEF772FA002803D0BDE81040FEF709
:1029D00014B810BD00640040B08600200E4810B549
:1029E0000C4901600F21416000214FF440328160A9
:1029F000C0E903124161017641768176C1760177A3
:102A00004177FEF752FA002803D0BDE81040FDF7E9
:102A1000F4BF10BD00680040D8860020094808B502
:102A2000016841F4800101600068002200F4800028
:102A3000009011463820FEF7DDFEBDE80840382042
:102A4000FEF7CABE303802402DE9F04F87B014219E
:102A50006846FDF747FEC04800240068BE4940F0C4
:102A600010000860086800F010000590086840F049
:102A700004000860086800F004000590086840F051
:102A800020000860086800F02000059008460068F3
:102A900040F080000860086800F080000590086839
:102AA00040F001000860086800F001000590086827
:102AB00040F002000860086800F002000590084637
:102AC000006840F040000860086800F04000059091
:102AD000086840F0080008600868012200F008005B
:102AE000059048F2FF319D48FEF7C6FD01224EF2E7
:102AF000C0319B48FEF7C0FD012203219948FEF733
:102B0000BBFD4FF6FC47002239469648FEF7B4FD60
:102B1000002243F2F3319448FEF7AEFD002241F665
:102B200018619248FEF7A8FD01224FF483418F48B7
:102B3000FEF7A2FD00224FF47C618D48FEF79CFD5C
:102B400001224CF23F018A48FEF796FD4FF4807A4D
:102B5000002251468748FEF78FFD4FF4406B01225B
:102B600059468148FEF788FD40F2FF1001250226F4
:102B7000CDE90005CDE9024669467848FEF762FCDA
:102B80004FF460400090CDE90154694674480394C5
:102B9000FEF758FC4FF003094FF01108CDE902563B
:102BA000CDE9009869466F48FEF74CFC0097039604
:102BB000CDE9015469466B48FEF744FC4FF4407080
:102BC0004FF40417CDE90007694602946548FEF703
:102BD00039FCC020CDE90007694602946548FEF73C
:102BE00031FC3020CDE90007694602945C48FEF7CD
:102BF00029FCCDF80090CDE9017469465B48FEF7E9
:102C000021FC43F6F370CDE90005CDE902466946A3
:102C10005548FEF717FC4FF402400090CDE90154EF
:102C200069464E480394FEF70DFCCDF800B0CDE99F
:102C3000017469464948FEF705FC45F61860CDE980
:102C40000005CDE9024669464848FEF7FBFB40F621
:102C5000FF70CDE90005CDE9024669464448FEF71C
:102C6000F1FB4FF44050CDE900076946029440481B
:102C7000FEF7E8FB4FF44040CDE90008CDE90246FD
:102C800069463B48FEF7DEFB4CF20C00CDE900073D
:102C9000694602943448FEF7D5FB4FF47070CDE9D5
:102CA0000005CDE9024669462D48FEF7CBFBCDF87D
:102CB00000A00396CDE9015469462E48FEF7C2FBF9
:102CC000E8038DE8310069462A48FEF7BBFB4FF464
:102CD000C070CDE90008CDE9025669462348FEF7E9
:102CE000B1FB002201210620FEF784FD0620FEF73D
:102CF00073FD002201210720FEF77CFD0720FEF76F
:102D00006BFD002201210820FEF774FD0820FEF76C
:102D100063FD002201210920FEF76CFD0920FEF76A
:102D20005BFD002201210A20FEF764FD0A20FEF768
:102D300053FD002201211720FEF75CFD1720FEF74E
:102D40004BFD002201212820FEF754FD2820FEF72C
:102D500043FD07B0BDE8F08F30380240001002405C
:102D60000008024000140240001802400004024023
:102D7000000C024000000240094810B507490160FC
:102D80000021416040F6FF718160FEF781FC002860
:102D900003D0BDE81040FDF730BE10BD003000404C
:102DA00000870020074910B5054808600846FFF76E
:102DB0004BF8002803D0BDE81040FDF71EBE10BD43
:102DC000000806500C8700200F4810B50D4901601F
:102DD0004FF482714160002181600122C160C0E92D
:102DE00004125202C0E906210162416281620A2195
:102DF000C162FFF757F8002803D0BDE81040FDF787
:102E0000FCBD10BD003800401C8700200F4810B5E5
:102E10000D4901604FF48271416000218160C16001
:102E20004FF400720161C0E90512C16101624162A3
:102E300081620A21C162FFF735F8002803D0BDE89E
:102E40001040FDF7DABD10BD003C00407487002043
:102E5000104810B50E4901604FF4827141600021A5
:102E600081600122C160C0E904125202826118220D
:102E7000C0E90721416281620A21C162FFF712F8AD
:102E8000002803D0BDE81040FDF7B7BD10BD00001D
:102E900000340140CC8700200C4810B50A4901607D
:102EA000B3214160002142F20F72C0E902120161B8
:102EB00080218161FFF718F9002803D0BDE8104098
:102EC000FDF79BBD10BD0000004401406C88002050
:102ED00010B58AB0002407941C2168460894FDF7B9
:102EE00001FC16484FF0804101600821C0E901143F
:102EF00040F2E731C0E9031480218161FFF7C3FA92
:102F000008B1FDF77AFD079407A90C480894FFF76C
:102F1000A3F808B1FDF771FD6020CDE9000402942B
:102F20000022694605480494FFF747FA08B1FDF707
:102F300064FD0248FFF718FA0AB010BD248800208B
:102F40000C4810B50A4901604FF4E131416000219D
:102F500081600C22C160C0E904128161C161FFF788
:102F600015FC002803D0BDE81040FDF746BD10BD9C
:102F700000100140B4880020FEE710B50446283058
:102F8000FDF731FA50B1E46A05E00121A01CFDF71C
:102F9000BBF920B1A468002CF7D100E00024204642
:102FA00010BD30B4026BB2B10023CC7802E01346FE
:102FB000526812B1D578A542F9D3C1E901230AB10B
:102FC000916000E0C1620BB1596000E0016330BC68
:102FD0002830FDF7DAB900224A608A60C162F5E75D
:102FE000D1E901320BB19A6000E0C2628A6812B185
:102FF000486850607047496801637047FEE74FF0CA
:10300000E02000697047000030B593B03021684679
:10301000FDF768FB14210CA8FDF764FB214800258F
:10302000016841F080510160006800F0805011900B
:103030001D48016841F4404101600068022400F429
:1030400040401190092000904FF480300190012001
:10305000CDE905048005079004200890B420CDE94F
:10306000090408200B906846FEF738FD08B172B6D7
:10307000FEE7FEF7F1FB08B172B6FEE70CA90F20E0
:1030800081E831004FF4A0500F904FF48050109021
:1030900005210CA8FEF718FC002801D072B6FEE747
:1030A00013B030BD40380240007000400248016853
:1030B00041F470010160704788ED00E00148FFF7BE
:1030C000A0B800006C8800200148FFF79AB8000003
:1030D000F8880020F0B50268254C264D264E274F73
:1030E000274B4FF0804CA04209D0604507D0A84242
:1030F00005D0B04203D0B84201D0984204D122F0AA
:10310000700E4A6842EA0E02A0421BD0604519D0F8
:10311000A84217D0B04215D0B84213D0984211D06F
:10312000184DA8420ED0184DA8420BD0174DA842FA
:1031300008D0174DA84205D0164DA84202D0164D12
:10314000A84203D122F44075CA682A434D6922F08F
:1031500080022A4302608A68C2620A688262A042D0
:1031600001D0984201D10969016301214161F0BD9B
:10317000000001400004004000080040000C004036
:10318000000401400040014000440140004801406B
:1031900000180040001C004000200040F0B5026A0A
:1031A00022F001020262036A42688469124E24F02E
:1031B00073050C682C4323F002058B682B430D4DDF
:1031C000A84201D0B04205D123F00807CB683B43A9
:1031D00023F00403A84201D0B04205D14D6922F486
:1031E000407215438A692A43426084614968416399
:1031F0000362F0BD0000014000040140F0B5026A26
:1032000022F010020262026A436884690D6824F4A5
:10321000E64444EA05248D6822F0200242EA0512C1
:103220000F4D104EA84201D0B04206D1CF6822F017
:10323000800242EA071222F04002A84201D0B042C6
:1032400007D14D6923F4406343EA85038D6943EA5E
:10325000850343608461496881630262F0BD0000B8
:103260000000014000040140F0B5026A22F48072BF
:103270000262026A4368C46922F4007224F0730592
:103280000C68124E2C438D6842EA05220E4DA8426E
:1032900001D0B04206D1CF6822F4006242EA072290
:1032A00022F48062A84201D0B04207D14D6923F4D4
:1032B000405343EA05138D6943EA05134360C46133
:1032C0004968C1630262F0BD000001400004014092
:1032D00030B5026A22F480520262046A4268C3690D
:1032E0000D6823F4E64343EA05238D6824F4005473
:1032F00044EA0534084DA84202D0084DA84204D142
:103300004D6922F4804242EA85124260C3614968F5
:103310000164046230BD000000000140000401406F
:1033200030B50C4C0023626C02E01346D268491B96
:1033300012B115698D42F8D98360C0E903211AB131
:103340001569691A116190600BB1D86030BD606475
:1033500030BD00006485002010B5806B0021C18560
:10336000C184FFF7DDF810BD01680C3151E8002F72
:1033700022F4907241E80023002BF5D1016814314A
:1033800051E8002F22F0010241E80023002BF5D183
:10339000016B012909D101680C3151E8002F22F09D
:1033A000100241E80023002BF5D1202180F83E10C7
:1033B00000210163704708B590F83E10222901D022
:1033C000022008BD82684FF480539A4201D10169FE
:1033D00021B1816A9A421BD04AB10AE00268816A2F
:1033E0005268C2F308020A80816A891C08E00269F7
:1033F00072B10268526802F07F020A70816A491C49
:103400008162C18D491E0904090CC18503D019E0F0
:1034100002685268F1E70168CA6822F02002CA60B7
:103420000168CA6822F48072CA6001684A6922F0A1
:1034300001024A61202180F83E10016B012903D06E
:10344000FFF714FA002008BD0021016301680C3168
:1034500051E8002F22F0100241E80023002BF5D1A3
:1034600001680A68D20602D50A6849680091818D10
:10347000FFF755F8E6E7000070B5044600680169FB
:10348000E26821F44051114301612169A068E269B9
:1034900008436169114308432168CA6849F20C6313
:1034A0009A430243CA6020684169A26921F44071CD
:1034B0001143416131492068884202D03049884235
:1034C00002D1FEF7CBFA01E0FEF7B8FAE269002379
:1034D000192164253226B2F5004F626828D0A0FB7E
:1034E0000101930F9200FDF7B3F80146B0FBF5F030
:1034F0006FF01802504301EB800006EB0010B0FBA8
:10350000F5F000F0F002B1FBF5F002EB0012B1FBB8
:10351000F5F06FF01803584301EB800006EB001044
:10352000B0FBF5F000F00F0021681044886070BD1A
:10353000A0FB010192185B41FDF78AF80146B0FB40
:10354000F5F00201B1FBF5F06FF01803584301EB01
:10355000800006EBC000B0FBF5F000F0F80002EBD5
:103560004002B1FBF5F0584301EB800006EBC000D0
:10357000B0FBF5F000F00700D6E7000000100140B6
:10358000001401400148FEF7CDBF0000B4880020C0
:10359000FEE70907090E002804DB00F1E02080F8AF
:1035A0000014704700F00F0000F1E02080F8141DB7
:1035B000704702E008C8121F08C1002AFAD17047FC
:1035C0007047002001E001C1121F002AFBD17047A3
:1035D000FEF794F8FFF718FDFFF736FAFFF71EFA2B
:1035E000FFF756F9FFF7DAF9FFF7F8F9FFF7C4FB31
:1035F000FFF7EAFBFFF70AFCFFF72AFCFFF74CFC9A
:10360000FFF79EFCFFF764FCFFF7CCFBFEE7000032
:103610002DE9F0411F4616460D460446FDF7FAF91E
:10362000FFF727F910B9FFF72AF968B324B120781A
:10363000FA2801D105B137B16FF0030529462046BC
:10364000FDF7E7F91DE02046FFF797FC070012D0D1
:1036500007F10C012846626AFDF72BF80EB1F878E5
:1036600030703846FC6000F011FA29462046FDF71C
:10367000DBF9002505E029462046FDF7D1F96FF07A
:1036800002052846BDE8F0812046294632463B46E1
:10369000DFF804C000DFF5E7413F00082DE9F04105
:1036A0001E4617460D460446FDF7BBF9FFF7E1F845
:1036B00010B9FFF7E4F888B324B12078FA2801D1D3
:1036C00005B136B16FF0030529462046FDF7A1F993
:1036D00021E004F10C0000F09DF8060015D0294609
:1036E00006F10C00626AFCF7E4FFF920307000205C
:1036F000B070F770C6E90154304600F0C7F92946AA
:103700002046FDF78AF9002505E029462046FDF709
:1037100086F96FF002052846BDE8F081FFE72046F4
:1037200029463A463346DFF808C000DFF4E70000D8
:1037300079410008FEE770B50C460546FDF761F9D2
:1037400021462846BDE87040FFF7F4BF2DE9F0415F
:10375000040014D099B1900811D101F10F0020F0AC
:10376000070304F10800056847682E1A27F00307CD
:10377000F61B9E420AD228462D68002DF3D1002365
:103780002046FDF73FF90020BDE8F08166681E4441
:1037900066602568083D25446F68B74200D26E60B8
:1037A000456875B125F00305054413430668C5E96E
:1037B0000063056008352B462046FDF723F92846AF
:1037C000E2E7134300F108054360F4E770B5C8B1C0
:1037D000C1B1A1F10802002400F1080302E01C4677
:1037E0001B687BB19342FAD15E68456826F00306F8
:1037F000AD1B45605CB11A6822600122FDF706F935
:10380000012070BD0022FDF701F9002070BD0022EB
:103810005A60F2E770B504000ED004F11400FCF712
:1038200058FD050002D0201DFCF70BFD294620465F
:10383000FDF7E9F8284670BD00210846FDF7E3F8DA
:10384000002070BD70B504000D4605D0E068A842A8
:1038500002D82069A84207D86FF0030632462046F6
:10386000FDF7D2F8304670BD04F11400FCF73EFDC0
:10387000201DFCF70BFD002229462046FDF7C4F869
:10388000002070BD2DE9F0411C4616460D4688B15A
:1038900085B17EB174B1C0E9026405FB0641C0E99F
:1038A00004140027C0E90057234632462946FDF795
:1038B000ACF805E00020BDE8F081A01920600446C6
:1038C0006D1EFAD101202760F5E72DE9F04104468D
:1038D00080780026B8B3E56821462846FFF780FBCC
:1038E0002670214605F10C00B0460446FFF7AAFFFA
:1038F000A86800285DD02046FFF78CFF040058D050
:10390000284600F0EBF900220646114600F062FA64
:10391000304600F02DFA86680746314604F10C0067
:103920006A6AFCF7C6FEF920207084F80280387BB2
:10393000E07021462846FFF734FB31462846BDE8B3
:10394000F041FDF76BB8D4E90115A86810B14078D3
:10395000832808D02846FDF761F821462846BDE8AF
:10396000F041FFF71EBB2846FDF758F8284600F047
:10397000B5F900220746114600F02CFA384600F04F
:10398000F7F90746806804F10C0180466A6AFCF783
:1039900090FEF86808B1E178017041462846FDF7CD
:1039A00043F82670214605F10C00BDE8F041FFF711
:1039B00049BFBDE8F081000010B507484FF0FF3463
:1039C0000821D0E91A2000F041FB0449C86400B185
:1039D0000024204610BD0000F84200086485002045
:1039E00030B4C27892071CD5C06890F92120C36A10
:1039F000DC78A40709D59C688C4200D1A46824B166
:103A000094F92040944200DD22465B69002BEFD1FF
:103A100090F92010914204D080F8202030BC00F0B2
:103A20008BB930BC7047000070B5174C04F15605D7
:103A3000B4F854602846FCF787FDF8B112483146C7
:103A40005A30FCF75EFDE16D51F82000B0B101780D
:103A5000F1390929ECD2DFE801F006050805050A6D
:103A60000C050E00E4E7216E06E0616E04E0A16E35
:103A700002E0E16E00E0216F8847D9E7BDE87040C1
:103A8000002000F0FDB800006485002070B5114CE6
:103A9000054604F15600B4F854603146FCF722FDA7
:103AA000B0420CD2314604F15800FCF72AFDE16D1A
:103AB00041F82050607A40B10120A07270BD2946C3
:103AC000BDE870400220FFF736BE03494FF080503A
:103AD000086070BD6485002004ED00E030B4012171
:103AE0000A4A417090F92030516A1C3201E00A46BE
:103AF000896819B191F920409C42F8DCC0E90212B2
:103B0000906001B1C86030BCFCF793BF64850020B1
:103B100030B5154C4A1C02D00023E26A12E00022A4
:103B2000236B01E01A461B69002BFBD1C161002108
:103B3000C0E904120AB1106130BD206330BD1346E4
:103B40001269491B12B1D5698D42F8D9C161C0E92A
:103B500004230BB1186100E0E062002AEED0D369C3
:103B6000591AD161506130BD6485002030B5C369F8
:103B70000F4C01695D1C4FF000020CD029B1CD69DA
:103B80002B44CB61D0E904134B61416961B10369F6
:103B90000B6142610AE009B143694B614169002947
:103BA000F5D10169216301E00169E162C26130BDC3
:103BB0006485002070B5314DEC6A002C5CD0E06962
:103BC000401EE06158D16078632829D008DC1328B2
:103BD0000DD033280FD0432811D0532837D114E00B
:103BE000732823D0832827D0932830D12AE0204679
:103BF000FCF705FF2BE02046FCF71AFF27E02046E4
:103C000000F094F8FCF7FCFE21E0204600F08EF86E
:103C100006462146FFF7E4FE3046FCF706FF16E0B5
:103C2000204600F083F8FCF701FF10E0204600F08A
:103C30007DF8FCF7ECFE0AE0204600F077F8FCF790
:103C4000EBFE04E0204600F071F8FCF7ECFE2046A5
:103C500000F08EF801682046FCF7EDFE204600F0EB
:103C600059F8204600F07CF8246924B1E069002866
:103C7000A9D000206061EC6270BD00006485002066
:103C800010B515490400087A4B6902D002280FD0FC
:103C90001CE04C6A02281ED1002C1CD094F9200094
:103CA00093F92010884216DD204600F033F805E035
:103CB00094F9200093F92010884207DD1846FFF799
:103CC0000DFF2046BDE8104000F05CB82046BDE87E
:103CD000104000F045B810BD6485002081688A68F6
:103CE00082608A6802B1D0600020C86008467047D0
:103CF00010B591F9203082682AB192F920409C4297
:103D000001DB1046F7E7C1E902208160002A00D0FC
:103D1000D16010BDC168002907D082688A608168BF
:103D200009B1C268CA600021C160704700E0C06884
:103D30000178F129FBD0704710B5044600E0C06857
:103D400000280CD00178F129F9D003462046FFF76E
:103D5000E1FF2146BDE810401846FFF7C9BF10BD7E
:103D60000121417001460148FFF7C2BF8085002054
:103D7000816B90F82200C00601D4602000E0202072
:103D8000084470470221417001498861FCF752BE26
:103D90006485002070B505460D480E46017A02295B
:103DA00013D1416A89B1446931462046FCF73FFE90
:103DB000657031462046FFF7ABFE05481C30FFF723
:103DC0008DFFFFF7DFFF012070BD002070BD0000F8
:103DD0006485002070B514460D460646FCF72BFEA0
:103DE0003046FFF7C5FF05603046FFF7BFFE30469F
:103DF0001CB1BDE87040FFF743BFBDE87040FFF75E
:103E0000AFBF000070B5FFF7FAF81D4CE068401C2A
:103E1000E060FFF7CFFE0020FFF732FF206D00B11A
:103E20008047216C00292AD0E26BA069824204D02D
:103E3000E063C2691AB9C16101E0C16919B1C16920
:103E4000491EC1611BD1207A022818D1656A002D54
:103E500015D0E16B95F9200091F9201088420ED120
:103E60002846FFF757FFE06BFFF77AFFE06BFCF7A0
:103E7000E0FD2846FFF786FFE563206CE86170BD32
:103E80006485002010B54FF0FF34FFF795FD18B999
:103E90000349024800240865204610BDCD3E0008B5
:103EA000648500201CB504464FF0FF352B460022E8
:103EB00069462046FFF7ACFB0028F7D1DDE9000199
:103EC000FCF7BAFDDDE900108847EFE72DE9F04186
:103ED0001A4D6C6C002C29D020696E69401E20613F
:103EE00021E0E06808B1A1688160E06868640023AF
:103EF0001A4604F11801E86CFFF7D0FB58B1D5E978
:103F00000570686121460320FFF715FC686910B948
:103F1000BE4200D10026E078012809D0012060705F
:103F20006C6C14B120690028DBD06E61BDE8F081B3
:103F300020466169FFF7F4F9F2E70000648500208C
:103F40002DE9F041984616460F46040050D02078DF
:103F5000FA284DD1F7B32046FFF70FF805004FD0F0
:103F600001462046FFF73CF805F10C013846626A2D
:103F7000FCF79FFB0EB1E878307039462046FCF71D
:103F800053FD4FF0000885F80080294604F10C002D
:103F90000546FFF757FCA06838B32846FFF73AFC00
:103FA000050022D02046FFF799FE06460122002197
:103FB000FFF710FF3046FFF7DBFE86680746314605
:103FC00005F10C00626AFCF774FBF920287085F893
:103FD000028000E00CE0387BE87029462046FEF7BE
:103FE000E0FF31462046FCF719FD0020BDE8F081D6
:103FF0006FF0030529462046FCF70BFD2846F5E740
:10400000B8F1000019D0024639462046FCF703FDFE
:1040100041468320FFF7BEFE48B10B484169204668
:10402000FFF766FEEFF30980C0E9027602E0204662
:10403000FCF7F2FC6FF00100D8E739462046FCF7A8
:10404000EFFC6FF00200D1E7648500202DE9F84F06
:104050000E465FEA000807D036B1B8FA88F0B6FA23
:1040600086F10844202802D26FF0030122E0F01C00
:1040700020F003000C30DFF8F8A008FB00FB0090F4
:10408000F2B1D2E90450D2F8009094686FF00801C0
:104090002CB1A3070ED1D268342A0BD301E0D26829
:1040A00042B96FF0090125B1AA0703D1584501D3E0
:1040B0000AE048B10020FCF7ACFC0020BDE8F88F16
:1040C0004FF000094D4603E014B1002795B11EE002
:1040D000DAF8A01019B10846FFF79CFB05E00122B1
:1040E0003421DAF88000FFF731FB04004FF00107BC
:1040F000ECD135E000225946DAF87C00FFF726FBC8
:1041000005001DD05946FCF7EDFA47F00207FA20EA
:104110002070A7700020C4E90190C4E90960E06242
:1041200020632B46414604F10C00009AFFF7AAFBDE
:104130001049CAF8701020466168FCF769FC14E069
:10414000F8070CD0DAF8A02022B121461046FFF77C
:1041500079FB04E02146DAF88000FFF737FB002402
:104160006FF004010020FCF754FC2046A6E7000095
:1041700064850020CB3800082DE9F04198461646AA
:104180000F46040024D02078FA2821D107B3A06874
:1041900010B14078832823D004F10C00FFF73AFBDC
:1041A00005003AD0394605F10C00626AFCF781FA45
:1041B000F92028700020A870EE7029462046FEF7EE
:1041C000F0FE39462046FCF729FC0020BDE8F081CE
:1041D0006FF0030529462046FCF71BFC2846F5E74F
:1041E0002046FCF71BFC2046FFF778FD0546012220
:1041F0000021FFF7EFFD2846FFF7BAFD054680686E
:1042000039468046626AFCF754FAE86800B10670E5
:1042100041462046FCF708FCD7E7B8F1000019D06A
:10422000024639462046FCF7FDFB41469320FFF746
:10423000B1FD48B10B4841692046FFF759FDEFF346
:104240000980C0E9027602E02046FCF7ECFB6FF043
:104250000100BBE739462046FCF7E1FB6FF00200A6
:10426000B4E7000064850020000610160006101652
:104270000000000000000000010203040607080916
:104280000000000001020304000000000000000024
:10429000C480002044000000508100200002000083
:1042A000010000000000000000000000000000000D
:1042B000000000000881002044000000508300201E
:1042C00000020000280000000000000000000000C4
:1042D00000000000000000004080002034000000CA
:1042E000748000205000000000000000525458204C
:1042F00056352E352E33000001000000E803000083
:1043000005000000008000201000000000000000F8
:10431000000000000000000000000000000000009D
:1043200000000000000000200080000000000000ED
:10433000000000000000000000000000000000007D
:10434000000000000000000000000000000C000061
:1043500088420008AC420008A53E0008853E0008DF
:10436000D042000804000000C48000204C810020DE
:10437000000000000000000000000000000000003D
:10438000000000000000000000000000000000002D
:104390000000000000000000408000207480002029
:1043A000C043000800000020088600005C070008E9
:1043B000E04400080886002038070000C2350008E5
:1043C00001FF01FF01FF01FF01FF01FF01FF01FFED
:1043D00001FF01FF01FF01FF01FF01FF01FF01FFDD
:1043E00001FF01FF01FF01FF01FF01FF01FF01FFCD
:1043F00001FF01FF01FF01FF01FF01FF01FF01FFBD
:1044000001FF01FF01FF01FF01FF01FF01FF01FFAC
:1044100001FF01FF01FF01FF01FF01FF01FF01FF9C
:1044200001FF01FF01FF01FF01FF01FF01FF01FF8C
:1044300001FF01FF01FF01FF01FF01FF01FF01FF7C
:1044400001FF01FF01FF01FF01FF01FF01FF01FF6C
:1044500001FF01FF01FF01FF01FF01FF01FF01FF5C
:1044600001FF01FF01FF01FF01FF01FF01FF01FF4C
:1044700001FF01FF01FF01FF01FF01FF01FF01FF3C
:1044800001FF01FF01FF01FF01FF01FF01FF01FF2C
:1044900001FF01FF01FF01FF01FF01FF01FF01FF1C
:1044A00001FF01FF01FF01FF01FF01FF01FF01FF0C
:1044B00001FF01FF01FF01FF01FF01FF01FF01FFFC
:1044C00001FF01FF01FF01FF01FF01FF0161420147
:1044D00092100C9D24F400EC420008D3B3FB0200C0
:04000005080001AD41
:00000001FF
