:020000040800F2
:10000000201001202D080008717F00083B6F0008B8
:10001000CB7E0008451A0008F99B0008000000008C
:10002000000000000000000000000000510800086F
:100030002D2C000800000000E9080008F90800085D
:100040004708000847080008470800084708000854
:100050004708000847080008E52E0008232F00087D
:100060002D2F0008372F0008412F000847080008EF
:100070004708000847080008470800084708000824
:10008000D125000847080008F511000847080008B6
:10009000491A0008591A0008470800084B2F0008A1
:1000A0004708000875950008A9940008470800084B
:1000B00047080008470800084708000847080008E4
:1000C00047080008470800084708000847080008D4
:1000D00047080008599B000847080008470800081F
:1000E000EF2E0008470800084708000847080008E6
:1000F00047080008A59500084708000847080008B9
:100100004708000847080008470800084708000893
:100110004708000847080008470800084708000883
:10012000E1250008470800084708000847080008BC
:100130004708000847080008470800084708000863
:10014000691A0008791A00084708000847080008DB
:100150004708000847080008470800084708000843
:100160004708000847080008470800084708000833
:10017000470800084708000847080008000000007A
:100180004708000847080008470800084708000813
:100190004708000847080008470800084708000803
:1001A000470800084708000847080008DFF810D093
:1001B00000F02EFF00480047F1D60008AFF30080A2
:1001C000201001200246D2E84F0FC2E8431F03B1BE
:1001D000F9E77047024652E8000F40EA010042E8A2
:1001E000000303B1F7E7704710B5024652E8000F6D
:1001F00020EA010442E8004303B1F7E710BD10B55F
:10020000024652E8000F00EA01048C4203D0BFF31B
:100210002F8F002010BD20EA010442E8004303B103
:10022000EFE710BD10B5024652E8000F084203D1B7
:10023000BFF32F8F002010BD20EA010442E80043E5
:1002400003B1F1E710BD024652E8000F411C42E83D
:10025000001303B1F8E7704710B50246D2E85F0F0C
:10026000814202D8BFF32F8F10BD441CC2E8534F08
:1002700003B1F3E710BD10B50246D2E85F0F441C8E
:10028000A14200D80024C2E8534F03B1F5E710BDE6
:10029000024652E8000F411E42E8001303B1F8E79E
:1002A0007047024652E8000F10B9BFF32F8F704716
:1002B000411E42E8001303B1F4E770470246D2E85A
:1002C0005F0F10B9BFF32F8F7047411EC2E8531F55
:1002D00003B1F4E77047024652E8000F10B9BFF3CC
:1002E0002F8F7047016842E8001303B1F4E77047AD
:1002F00002680A60BFF35F8F50E8002F0B689342DB
:10030000F6D140E8001303B1F2E770470246D2E8A5
:100310004F0FC2E8431F03B1F9E77047024652E8A6
:10032000000F40EA010042E8000303B1F7E770471D
:1003300010B5024652E8000F20EA010442E80043EB
:1003400003B1F7E710BD10B5024652E8000F00EA0E
:1003500001048C4203D0BFF32F8F002010BD20EA90
:10036000010442E8004303B1EFE710BD10B50246B7
:1003700052E8000F084203D1BFF32F8F002010BDB9
:1003800020EA010442E8004303B1F1E710BD024650
:1003900052E8000F411C42E8001303B1F8E7704730
:1003A00010B50246D2E85F0F814202D8BFF32F8F0B
:1003B00010BD441CC2E8534F03B1F3E710BD10B5A4
:1003C0000246D2E85F0F441CA14200D80024C2E8D4
:1003D000534F03B1F5E710BD024652E8000F411E2E
:1003E00042E8001303B1F8E77047024652E8000FF5
:1003F00010B9BFF32F8F7047411E42E8001303B1BD
:10040000F4E770470246D2E85F0F10B9BFF32F8FB1
:100410007047411EC2E8531F03B1F4E7704702461C
:1004200052E8000F10B9BFF32F8F7047016842E800
:10043000001303B1F4E7704702680A60BFF35F8FEF
:1004400050E8002F0B689342F6D140E8001303B147
:10045000F2E770470246D2E84F0FC2E8431F03B1EC
:10046000F9E77047024652E8000F40EA010042E80F
:10047000000303B1F7E7704710B5024652E8000FDA
:1004800020EA010442E8004303B1F7E710BD10B5CC
:10049000024652E8000F00EA01048C4203D0BFF389
:1004A0002F8F002010BD20EA010442E8004303B171
:1004B000EFE710BD10B5024652E8000F084203D125
:1004C000BFF32F8F002010BD20EA010442E8004353
:1004D00003B1F1E710BD024652E8000F411C42E8AB
:1004E000001303B1F8E7704710B50246D2E85F0F7A
:1004F000814202D8BFF32F8F10BD441CC2E8534F76
:1005000003B1F3E710BD10B50246D2E85F0F441CFB
:10051000A14200D80024C2E8534F03B1F5E710BD53
:10052000024652E8000F411E42E8001303B1F8E70B
:100530007047024652E8000F10B9BFF32F8F704783
:10054000411E42E8001303B1F4E770470246D2E8C7
:100550005F0F10B9BFF32F8F7047411EC2E8531FC2
:1005600003B1F4E77047024652E8000F10B9BFF339
:100570002F8F7047016842E8001303B1F4E770471A
:1005800002680A60BFF35F8F50E8002F0B68934248
:10059000F6D140E8001303B1F2E770470246D2E813
:1005A0004F0FC2E8431F03B1F9E77047024652E814
:1005B000000F40EA010042E8000303B1F7E770478B
:1005C00010B5024652E8000F20EA010442E8004359
:1005D00003B1F7E710BD10B5024652E8000F00EA7C
:1005E00001048C4203D0BFF32F8F002010BD20EAFE
:1005F000010442E8004303B1EFE710BD10B5024625
:1006000052E8000F084203D1BFF32F8F002010BD26
:1006100020EA010442E8004303B1F1E710BD0246BD
:1006200052E8000F411C42E8001303B1F8E770479D
:1006300010B50246D2E85F0F814202D8BFF32F8F78
:1006400010BD441CC2E8534F03B1F3E710BD10B511
:100650000246D2E85F0F441CA14200D80024C2E841
:10066000534F03B1F5E710BD024652E8000F411E9B
:1006700042E8001303B1F8E77047024652E8000F62
:1006800010B9BFF32F8F7047411E42E8001303B12A
:10069000F4E770470246D2E85F0F10B9BFF32F8F1F
:1006A0007047411EC2E8531F03B1F4E7704702468A
:1006B00052E8000F10B9BFF32F8F7047016842E86E
:1006C000001303B1F4E7704702680A60BFF35F8F5D
:1006D00050E8002F0B689342F6D140E8001303B1B5
:1006E000F2E770470246D2E84F0FC2E8431F03B15A
:1006F000F9E77047024652E8000F40EA010042E87D
:10070000000303B1F7E7704710B5024652E8000F47
:1007100020EA010442E8004303B1F7E710BD10B539
:10072000024652E8000F00EA01048C4203D0BFF3F6
:100730002F8F002010BD20EA010442E8004303B1DE
:10074000EFE710BD10B5024652E8000F084203D192
:10075000BFF32F8F002010BD20EA010442E80043C0
:1007600003B1F1E710BD024652E8000F411C42E818
:10077000001303B1F8E7704710B50246D2E85F0FE7
:10078000814202D8BFF32F8F10BD441CC2E8534FE3
:1007900003B1F3E710BD10B50246D2E85F0F441C69
:1007A000A14200D80024C2E8534F03B1F5E710BDC1
:1007B000024652E8000F411E42E8001303B1F8E779
:1007C0007047024652E8000F10B9BFF32F8F7047F1
:1007D000411E42E8001303B1F4E770470246D2E835
:1007E0005F0F10B9BFF32F8F7047411EC2E8531F30
:1007F00003B1F4E77047024652E8000F10B9BFF3A7
:100800002F8F7047016842E8001303B1F4E7704787
:1008100002680A60BFF35F8F50E8002F0B689342B5
:10082000F6D140E8001303B1F2E77047064880476D
:1008300006480047FEE7FEE7FEE7FEE7FEE7FEE7C5
:10084000FEE7FEE7FEE7FEE7218F0008AD010008A6
:100850001EF0040F0CBFEFF30880EFF309808169ED
:1008600011F8021C91BB01B590E80F10E047BDE8FC
:1008700000508CE80300244B93E80600914208BF27
:10088000704741B91EF0100F10D12049086820F0C0
:10089000010008600AE02CE9F00F1EF0100F08BFFD
:1008A0002CED108AC1F838C081F822E01A6092F865
:1008B0002210906B61F0FF0E1EF0100F08BFB0EC1D
:1008C000108AB0E8F00F80F309887047104A136867
:1008D0009942FAD801B552F821C00FC8E047BDE8E7
:1008E0000050CCF80000704701B50DF083FABDE868
:1008F0000140EFF3098CBEE701B50DF07DFDBDE8C9
:100900000140EFF3098CB6E7608A002034EF00E085
:10091000F0F400082DE9F05F0546002092469B4662
:1009200088460646814640241BE028464146474605
:10093000224600F056FA53465A46C01A914110D347
:1009400011461846224600F03DFA2D1A67EB0108C1
:100950004F4622460120002100F034FA17EB00092F
:100960004E41201EA4F10104DFDC484631462A46F0
:100970004346BDE8F09F40EA01039B0703D009E02E
:1009800008C9121F08C0042AFAD203E011F8013B7B
:1009900000F8013B521EF9D27047D2B201E000F8D4
:1009A000012B491EFBD270470022F6E710B5134613
:1009B0000A4604461946FFF7F0FF204610BD70B501
:1009C00006460BF069FC046805460A220021304601
:1009D00000F029FA2C6070BD2DE9FE4F804681EAB7
:1009E0000300C00F0C46009021F0004123F00045A9
:1009F000B8EB0200A94105D24046214690461C466C
:100A00000B46024623F00040104347D0270DC7F3A2
:100A10000A00C3F30A510290401A019040286BDA91
:100A2000C3F3130040F4801B0098924620B10023CA
:100A3000D2EB030A63EB0B0B01985946C0F140025D
:100A4000504600F0BFF906460D4650465946019AF9
:100A500000F0D7F910EB08006141002487EA115239
:100A600084EAE7731A4340D0009A62B3019A012ADC
:100A70004FEA075215DC001B61EB02014FF0004208
:100A800002EA0752CDE90042001C41F580113246CE
:100A90002B4600F046FA03B0BDE8F08F40462146F1
:100AA000F9E7001B61EB0201001C41F580130018FF
:100AB0005B412018A2F5001747EB030140EAD5700F
:100AC000B6196D4111E06D084FEA360645EAC0756A
:100AD0004FEA0752001B61EB0201001C41F5801137
:100AE00049084FEA30000019514132462B4603B005
:100AF000BDE8F04F00F006BA009801224000002344
:100B0000D0EB020263EBE073009821464FEAE074F9
:100B1000B8EB000061EB0401E9E783F000435BE719
:100B200081F0004158E72DE9FE4F81EA030404F00B
:100B3000004421F0004100944FF0000B23F00043EB
:100B400050EA01045ED052EA03045BD0C3F30A54B6
:100B5000C1F30A552C44A4F2F3340194A0FB0254CF
:100B6000C1F3130141F48011C3F3130343F4801361
:100B700001FB024400FB034E840A970A44EA8154B5
:100B800047EA8357A4FB076802958D0A05FB078592
:100B90004FEA932C04FB0C542705029D4FEA06589C
:100BA00047EA1637B5EB08056EEB070C870E920E79
:100BB00047EA811742EA8312A7FB0201B6EB0B0159
:100BC00064EB00042B0D43EA0C335E1844EB1C501D
:100BD000DA465146E7FB0201C5F313044FEA0B3333
:100BE00043EA14534FEA0432019C43EA0603A4F19A
:100BF0000C040294009CCDE900B400F092F903B01B
:100C0000BDE8F08F00200146F9E72DE9F04D81EABB
:100C1000030404F0004B21F0004514464FF0000A95
:100C200023F0004150EA050220D054EA01021DD011
:100C3000C5F30A570246C5F31303C1F31300C1F30A
:100C40000A5640F4801543F48013A7EB0608101BE6
:100C5000D64608F2FD3873EB050002D308F101080F
:100C600001E092185B41B8F1000F03DA0020014661
:100C7000BDE8F08D00204FF48011064684460EE05A
:100C8000171B73EB050705D3121B63EB0503064324
:100C90004CEA010C49084FEA300092185B4150EAD7
:100CA0000107EDD152EA030012D082EA040083EA80
:100CB0000501084305D0101BAB4106D201220023D9
:100CC00006E000224FF0004302E06FF001025310F3
:100CD0001AEB06004CEB085110EB0A0041EB0B013C
:100CE000BDE8F04D00F00EB90EB540F2334102916F
:100CF0000021CDE900110A460B4600F012F903B0BD
:100D000000BDC1F30A5210B5C1F3130140F2FF3325
:100D100041F480119A4201DA002010BD40F23343C1
:100D20009A42A2F2334203DC524200F05AF810BD5C
:100D3000904010BD00F0004230F000400AD0C10DDC
:100D400001F56071C0F3160042EA0151C208400784
:100D500011437047002001467047000030B5041E63
:100D600071F1000404DB4FF00044404264EB0101E8
:100D7000141E73F1000405DB1C464FF00043524281
:100D800063EB0403994208BF904230BD01F0004379
:100D900030B421F0004150EA010206D00A0DA2F55C
:100DA0006072C1F31301002A02DC30BC00207047DE
:100DB000440F44EAC104C100E01830BC00EBC2504B
:100DC00000F069B8202A04DB203A00FA02F1002082
:100DD00070479140C2F1200320FA03F31943904079
:100DE0007047202A04DB203A21FA02F000217047E4
:100DF00021FA02F3D040C2F1200291400843194683
:100E00007047202A06DBCB17203A41FA02F043EA6A
:100E1000E07306E041FA02F3D040C2F120029140B3
:100E20000843194670472DE9F04791460F46804622
:100E30000446002614F8015B2DB100F0FBF80068B1
:100E4000405DC007F6D12B2D02D02D2D18D0641E89
:100E50004A463946204600F0F1F827B13968A142E8
:100E600001D1C7F8008071054FF002040BD5404254
:100E7000002803DD0BF010FA0460A007BDE8F0873E
:100E800046F48066E4E70028F8DA0BF005FA04601F
:100E90006FF00040F2E70029A8BF7047401C4900EE
:100EA00008BF20F00100704710B4B0FA80FC00FACF
:100EB0000CF050EA010404BF10BC704749B1CCF1FA
:100EC000200421FA04F411FA0CF118BF0121214386
:100ED0000843A3EB0C01CB1D4FEA00614FEA102041
:100EE00042BF002010BC704700EBC35010440029E3
:100EF000A4BF10BC7047401C490008BF20F001008F
:100F000010BC704710B5141E73F1000408DA401CC1
:100F100041F1000192185B411A4301D120F0010018
:100F200010BD2DE9F04D92469B4611B1B1FA81F208
:100F300002E0B0FA80F220329046FFF743FF044609
:100F40000F4640EA0A0041EA0B0153465A4608435D
:100F500013D0114653EA010019D0C8F1400250469F
:100F6000FFF73FFF05460E46504659464246FFF7FB
:100F700029FF084305D0012004E020463946BDE89A
:100F8000F08D0020054346EAE0762C4337430A986B
:100F90006305E40AA0EB08000022FD0A44EA475476
:100FA0000A3002D500200146E9E701051019694120
:100FB000DDE9084500196941BDE8F04DA2E70EB52D
:100FC000C10F80EAE0700844CA07002140F23343B1
:100FD0008DE80E000A460B46FFF7A3FF03B000BDE5
:100FE00030B5041E71F1000404DB4FF000444042B0
:100FF00064EB0101141E73F1000405DB1C464FF085
:101000000043524263EB04038B4208BF824230BD6F
:10101000064C074D06E0E06840F0010394E8070045
:1010200098471034AC42F6D3FFF7C4F8F8F600083E
:1010300018F7000800487047BCF500082DE9F05F7C
:1010400082460078002715468B460AF10104B9460E
:10105000302801D09DB113E014F8010B0127782846
:1010600003D0582801D045B10AE00DB1102D07D1A9
:101070000027102514F8010B02E0082500E00A25DE
:101080000026B0460EE005FB080005FB06F101272F
:1010900001EB10461FFA80F8B6F5803F00D3B94641
:1010A00014F8010B294600F018F80028EBDABBF120
:1010B000000F05D00FB1641E00E05446CBF800408D
:1010C000B9F1000F06D00BF0E7F802210160C81E4D
:1010D000BDE8F09F48EA0640FAE73A2800D23038E7
:1010E00020F02002412A01D3A2F13700884201D327
:1010F0004FF0FF30704770B58C1810F8015B15F099
:10110000070301D110F8013B2A1106D110F8012B79
:1011100003E010F8016B01F8016B5B1EF9D12B079E
:1011200005D40023521E0DD401F8013BFAE710F854
:10113000013BCB1A921C03E013F8015B01F8015B41
:10114000521EF9D5A142D8D3002070BD70B5054616
:10115000AC6B206C00F0500050BB206C40F4007071
:1011600020642068806800F04050E8B9207ED8B93B
:101170002068C06A00F4700020B12068806800F424
:10118000806088B92068406820F0200021684860AD
:10119000206C20F480702064206C00F4805018B91A
:1011A000206C40F001002064204602F03BFD0BE083
:1011B000206C00F0100018B1204602F035FD03E06D
:1011C000A06BC16C2846884770BD70B50546AC6BF6
:1011D00040202064606C40F004006064204602F00F
:1011E00023FD70BD70B50446A56B284602F01BFDBB
:1011F00070BD000010B5024802F017FD10BD0000E0
:10120000F08A002055494A6822F440324A604A6810
:1012100043681A434A600268526822F48072036885
:101220005A6002685368026943EA022203685A60FE
:101230000268526822F0407203685A60026852687D
:1012400083681A4303685A600268926822F4006255
:1012500003689A6002689268C3681A4303689A60D8
:101260003F4B826A9A4218D00268926822F07062FC
:1012700003689A6002689268836A1A4303689A60F6
:101280000268926822F0405203689A60026892688D
:10129000C36A1A4303689A600BE00268926822F0FE
:1012A000706203689A600268926822F04052036894
:1012B0009A600268926822F0020203689A600268EB
:1012C0009368027E43EA420203689A602022125C1D
:1012D000A2B10268526842F4006203685A60026870
:1012E000526822F4604203685A6002685368426A96
:1012F000521E43EA423203685A6005E002685268AF
:1013000022F4006203685A600268D26A22F4700212
:101310000368DA620268D36A828B521E43EA025281
:101320000368DA620268926822F4007203689A60C5
:101330000268936890F8302043EA422203689A607A
:101340000268926822F4806203689A600268936877
:10135000426943EA822203689A6070470023014091
:101360000100000F10B50446B4F5807F48D012DCB0
:10137000102C39D008DC012C2AD0022C58D0042C97
:101380002CD0082C72D159E0202C5DD0402C31D0CB
:10139000802CF7D15EE0B4F5005F6FD00CDCB4F5C3
:1013A000007F5DD0B4F5806F30D0B4F5006F5FD0B2
:1013B000B4F5805FE6D12FE0B4F5804F32D0B4F5BC
:1013C000004F61D0A4F57F40FF380028DAD161E0FA
:1013D00001224021594804F0F3F8ADE001228021B8
:1013E000564804F0EDF8A7E001225102534804F0FA
:1013F000E7F8A1E001221102504804F0E1F89BE077
:10140000012291034E4804F0DBF895E0012291029D
:101410004C4804F0D5F88FE00122D102494804F08D
:10142000CFF889E001225103444804F0C9F883E071
:1014300001229103414804F0C3F87DE00122D10369
:101440003E4804F0BDF877E0012211463E4804F022
:10145000B7F871E0012202213B4804F0B1F86BE0DB
:1014600001220421384804F0ABF865E063E005E0B0
:1014700001220821344804F0A3F85DE00122102184
:10148000314804F09DF857E0012220212E4804F055
:1014900097F851E001224021284804F091F80122F8
:1014A0008021264804F08CF801225102234804F0E0
:1014B00087F801221102214804F082F801229103E9
:1014C0001F4804F07DF8012291021E4804F078F8CC
:1014D0000122D1021B4804F073F80122510317487E
:1014E00004F06EF801229103144804F069F8012217
:1014F000D103124804F064F801221146124804F0A6
:101500005FF801220221104804F05AF80122042158
:101510000D4804F055F8012208210B4804F050F85A
:1015200001221021084804F04BF80122202106482E
:1015300004F046F800E000BF00BF10BD0008024004
:101540000004024000180240000C024010B504469E
:10155000B4F5807F4AD012DC102C39D008DC012C85
:101560002AD0022C5ED0042C2CD0082C74D160E040
:10157000202C65D0402C32D0802CF7D166E0B4F519
:10158000005F78D00CDCB4F5007F68D0B4F5806FD4
:1015900033D0B4F5006F68D0B4F5805FE6D133E0A6
:1015A000B4F5804F37D0B4F5004F6AD0A4F57F4032
:1015B000FF380028DAD16AE000224021624803F0B7
:1015C000FFFFBEE0002280215F4803F0F9FFB8E092
:1015D00000224FF400715C4803F0F2FFB1E00022FA
:1015E0004FF48071584803F0EBFFAAE000224FF45B
:1015F0008041564803F0E4FFA3E000224FF48061ED
:10160000534803F0DDFF9CE000224FF40061504896
:1016100003F0D6FF95E000224FF400514A4803F052
:10162000CFFF8EE000224FF48041474803F0C8FF0F
:1016300087E000224FF40041434803F0C1FF80E0FF
:1016400000220121434803F0BBFF7AE0002202217F
:10165000404803F0B5FF74E072E00CE0FFE70022C1
:1016600004213C4803F0ACFF6BE00022082139481C
:1016700003F0A6FF65E000221021364803F0A0FF2A
:101680005FE000222021334803F09AFF59E0002256
:1016900040212D4803F094FF002280212A4803F0C6
:1016A0008FFF00224FF40071274803F089FF0022CA
:1016B0004FF48071244803F083FF00224FF48041EF
:1016C000224803F07DFF00224FF48061204803F0A0
:1016D00077FF00224FF400611D4803F071FF0022E4
:1016E0004FF40051184803F06BFF00224FF4804183
:1016F000154803F065FF00224FF40041124803F043
:101700005FFF00220121134803F05AFF002202214B
:10171000104803F055FF002204210E4803F050FF4B
:10172000002208210B4803F04BFF0022102109483A
:1017300003F046FF00222021064803F041FF00E0AD
:1017400000BF00BF10BD00000008024000040240BE
:1017500000180240000C02402DE9FC4704460D46EB
:101760004FF0000C002001900027009000268B20F5
:10177000009018889DF8001081541888401C18802B
:10178000002067E00121814001F0FF083449897998
:1017900001EA080100295CD0DFF8C890B9F8001010
:1017A00053E014F80190CDF804909DF80490B9F13D
:1017B000000F04DD9DF80490B9F1050F20DB4FF018
:1017C000FF36B3F800909DF804A009F802A0B3F822
:1017D000009009F10109A3F80090B3F8009091443A
:1017E000C9F80060B3F8009009F10409A3F800906B
:1017F0009DF80490B9F1FF0F01D04FF0080C23E0E1
:101800009DF80490A9F1010909F0FF07DFF858904D
:1018100009EB001959F82760B3F800909DF804A06F
:1018200009F802A0B3F8009009F10109A3F80090AB
:10183000B3F800909144C9F80060B3F8009009F142
:101840000409A3F8009000BF491CA5F104098945CB
:10185000A7DC401C082895DB6046BDE8FC8700003B
:10186000140A0120C8870020000701200CE04FF077
:10187000FF31064800680CF065FE04460CB901F023
:1018800029F901200BF0A0FFF1E700006885002096
:101890000EE008480078012805D1002005490870AD
:1018A00005A00AF0D5FC0AF0F5FFC8200BF08CFF6C
:1018B000EFE700009D870020CBF9D3D0B2CECAFD60
:1018C000C9E8D6C3B3C9B9A6A3A1A3A1A3A10A001D
:1018D000ADF5806D00BF4FF480616846FFF764F896
:1018E0005B208DF800008DF8010009208DF80200C2
:1018F00000208DF803008DF804008DF805008DF8A8
:10190000060002E001200BF05FFFFBE708B50AE0EC
:10191000012003460246014600900A2000F032FBF7
:1019200001200BF051FFF3E700F004FE02E001207C
:101930000BF04AFFFBE706E009F0DCFC09F000F8D9
:1019400001200BF041FFF7E7F0B5024611460829E8
:1019500002DB4FF0FF30F0BD1548007830BB154E6C
:10196000765C3009134E765C06F00F03082696FB72
:10197000F0F6F4B25E1E16FB04F6F5B20E4E765C7F
:101980000E4F7E5400260C4F7E540C4E765C7F5CCE
:10199000BE420AD001260A4F7E540026094F47F85E
:1019A0002160094F7E54094F7E5400BF0020D2E7CA
:1019B0006E880020528800201A880020228800208B
:1019C0002A880020800A0120F28700204A8800200F
:1019D00001460022002009E00B78034103F00103D7
:1019E00013B1431CDAB203E0431CD8B20428F3DB82
:1019F00000BF1046704770B588B006460C462021DF
:101A00006846FEF7D1FF0025002007E026FA00F126
:101A100001F001010DF80010411CC8B2B0EBC40F79
:101A2000F4DB002008E0C0EBC401491E1DF80110E2
:101A300081400D43411CC8B2B0EBC40FF3DB284614
:101A400008B070BD00BFFEE710B5024802F069FDA6
:101A500010BD0000988B002010B5024802F061FD17
:101A600010BD0000988B002010B5024802F059FD0F
:101A700010BD0000C08B002010B5024802F051FDDF
:101A800010BD0000C08B00202DE9F84F81460D46A7
:101A900092461E46DDF828B025F47F37B0465C46F6
:101AA00019E007F58067082C0DDD082043465246F3
:101AB00039460090484600F013F8A4F1080084B2BB
:101AC00008F1080807E04346524639464846009464
:101AD00000F006F80024002CE3D1BDE8F88F0000E8
:101AE0002DE9F04106460D4614461F46DDF81880E4
:101AF00014B91048056003E0042C01D10D4845607D
:101B00000C48846000200B49C8600846C0F810806B
:101B100000BF304602F0EAFC0328FAD306488642AA
:101B200005D101233A460349304602F0E4FABDE804
:101B3000F081000060DB0020988B00202DE9F0414F
:101B400004460D4600264FF6FF7700BF07E014F865
:101B5000010B394600F008F80746701C86B2AE4209
:101B6000F5DB3846BDE8F08110B502460B46002192
:101B700083EA020000BF0AE000F0010424B14AF247
:101B8000010484EA600000E040104C1CA1B2082966
:101B9000F2DB10BD2DE9FE4F0746884615461C4670
:101BA0004FF0000900200290824601909FED3A0A12
:101BB0008DED000A8A20019020889DF8041041557F
:101BC0002088401C2080002661E00120B04000F009
:101BD000FF0B3248807900EA0B00002856D006EB54
:101BE000C6032F4A02EB031106EBC6032D4A02EB94
:101BF00003109022FEF7BFFE2B49088842E0395CB3
:101C000002919DF80810002903DD9DF80810252990
:101C100018DB9FED260A8DED000A21889DF808202B
:101C20004A552188491C218021882944009A0A604C
:101C30002188091D21809DF80810FF2901D04FF04F
:101C400008091EE09DF80810491E01F0FF0A06EB86
:101C5000C602144901EB021101EB8A0191ED000A61
:101C60008DED000A21889DF808204A552188491CDD
:101C7000218021882944009A0A602188091D218039
:101C800000BF401CA8F104018142B8DC761C082E7C
:101C90009BDB4846BDE8FE8F00000000140A0120CF
:101CA0008002012080E40020C88700200000804FCF
:101CB0002DE9FF5F0746884615461C464FF0000990
:101CC0000020039082469FED5A0A8DED020A019092
:101CD00000908920019020889DF8041041552088AB
:101CE000401C208000261EE00120B04000F0FF0BC9
:101CF0005048807900EA0B00A0B106EBC6024E49BD
:101D000001EB02109021FEF74FFE06EBC6034B4A93
:101D100002EB031106EBC603474A02EB03109022C5
:101D2000FEF729FE761C082EDEDB4549088851E0C7
:101D3000395C03913918D1F8011002919DF80C100B
:101D4000002903DD9DF80C10252916DBFF210091E9
:101D500021889DF80C204A552188491C2180218822
:101D60009DF800204A552188491C21809DF80C10BF
:101D7000FF2901D04FF008092BE09DF80C10491EF7
:101D800001F0FF0A002111E001238B40DAB2294B58
:101D90009B7913404BB101EBC10C274E06EB0C169F
:101DA00006EB8A03029E1E6000BF491C0829EBDB7C
:101DB0000021009121889DF80C204A552188491C5A
:101DC000218021889DF800204A552188491C2180C6
:101DD00000BF401DA8F104018142A9DCB9F1000F48
:101DE00022D100261EE00120B04000F0FF0B114878
:101DF000807900EA0B00A0B106EBC6020F4901EBA7
:101E000002109021FEF7D0FD06EBC6030A4A02EB52
:101E1000031106EBC603094A02EB03109022FEF7FA
:101E2000AAFD761C082EDEDB484604B0BDE8F09F14
:101E300000000000140A012080E40020800201203C
:101E4000C88700202DE9F04107460C4615461E467E
:101E50000C48056100200B490860084646600420D4
:101E600088600020C86000BF384602F03FFB0328AE
:101E7000FAD3012322460349384602F03CF9BDE873
:101E8000F08100004C8F00202DE9F04104460D4602
:101E900016461F464FF000083B463246294620466C
:101EA00006F0C8FC4FFA80F8C8F1000040B2BDE867
:101EB000F0810000F8B506460C4617461D4641F273
:101EC0001110844207D13B46002231460748009555
:101ED000FFF7DAFD09E00648844206D13B460422BA
:101EE000314602480095FFF7CFFDF8BD988B0020E2
:101EF00000001111F0B5ADF5037D4FF4807143A8DA
:101F0000FEF752FD002042904190441E00254FF400
:101F1000807101A8FEF748FD002700200090461EB2
:101F2000174B41AA42A943A806F024F804462CBB4B
:101F30006B4601AABDF8041143A8FFF7A5FF0546AB
:101F400095B9429840F003070123BDF800203946B7
:101F500001A806F06BF906461EB900200DF5037DB9
:101F6000F0BDB01E40B2F9E743ABBDF80421072035
:101F7000429901F0DBF8281F40B2EFE72046EDE779
:101F8000549800202DE9F04180460D4616461F4624
:101F9000069CB8F1000F03D015B10EB107B11CB902
:101FA0004FF0FF30BDE8F0812146404600F002FAD4
:101FB000681E90FBF4F01A490988884205DC00206D
:101FC00017490880FFF796FF04E015480088401C79
:101FD00013490880701E90FBF4F01249098888426A
:101FE00005DC00200F49088000F03AFA04E00D48B3
:101FF0000088401C0B490880781E90FBF4F00A49C9
:102000000988884205DC00200749088001F0DAF8D9
:1020100004E005480088401C034908800020C1E70F
:10202000AC870020AE870020B08700202DE9FC5F40
:1020300081468846C9F3872529F47F3A4FF0000B83
:1020400000240026002700200EE000EB800101EBB9
:102050008011D74A52F82110514503D14FF0010B9E
:10206000044603E0411CC8B21028EEDB00BFBBF100
:10207000000F18D1002013E000EB800101EB80116C
:10208000CB4A52F8211049B900EB800101EB8011D5
:1020900042F821A04FF0010B044603E0411CC8B2F6
:1020A0001028E9DB00BFBBF1000F09D1434608222D
:1020B0004946092001F03AF86FF00100BDE8FC9FA5
:1020C000012D01DB202D0BDD4346082249460A2065
:1020D00001F02CF8204600F00BFA6FF00200EDE75B
:1020E00004EB840000EB8410B14901EB800080799F
:1020F000A0B104EB840000EB841001EB8000807938
:10210000A8420BDA4346082249460B2001F00EF89C
:10211000204600F0EDF96FF00300CFE7681EC1170D
:1021200000EB5171C1F3C706C11700EB5171C91023
:10213000A0EBC101CFB204EB840000EB84109C49FA
:1021400001EB80000830805D0121B940084058B1A2
:102150004346082249460C2000F0E8FF204600F0E4
:10216000C7F96FF00400A9E7012D2CD198F80210EF
:10217000091D98F8032041EA02200146C21700EB2E
:102180005272C2F3C706C21700EB5272D210A0EB14
:10219000C202D7B20FB9314600E0711C04EB8402D1
:1021A00002EB8412824B03EB820291710FB908217A
:1021B00000E0394604EB840202EB84127C4B03EB13
:1021C0008202D17100BF04EB840000EB84107849D7
:1021D00001EB80000079A84206DA04EB840000EBF2
:1021E000841001EB8000057104EB840000EB841087
:1021F0006F4901EB80004079401C04EB840101EB46
:1022000084116B4A02EB81014871681EC11700EB13
:102210005171C1F3C706C11700EB5171C910A0EB92
:10222000C101CFB204EB840000EB8410114601EB36
:1022300080000830805D0121B9400843C1B204EB41
:10224000840000EB841002EB8000083081550020F0
:102250000FE018F8003004EB840101EB8411544ABC
:1022600002EB810112316A1E01EBC2010B54411CC9
:10227000C8B20828EDDB04EB840000EB84104C4965
:1022800001EB8000007904EB840101EB8411484AE2
:1022900002EB8101497988423DD104EB840000EBD7
:1022A0008410114601EB8000007904EB840101EBFE
:1022B000841102EB8101897988422CD104EB8400DE
:1022C00000EB8411104600EB8100C17904EB84001F
:1022D00000EB841002EB80008079401E01EBC0000F
:1022E00080B2019004EB840101EB841102EB8101C7
:1022F00001F1120001235146019A05F0B5FE00904C
:10230000204600F0F5F8009808B960B2D6E60098CB
:10231000801F40B2D2E604EB840000EB8410244915
:1023200001EB8000407904EB840101EB8411204A29
:1023300002EB81010979884210DC04EB840000EB98
:102340008410114601EB8000007904EB840101EB5D
:10235000841102EB81018979884226DD04EB840037
:1023600000EB8410124901EB8000407904EB8401FA
:1023700001EB84110E4A02EB81010979884208DCE5
:1023800004EB840000EB8410114601EB800080799F
:1023900058B14346082249460D2000F0C7FE2046AA
:1023A00000F0A6F86FF0050088E64FF0FF3085E6F4
:1023B00020CA00202DE9FC4105460E4600270024D6
:1023C00047E004EB840000EB8410244951F820001E
:1023D00098B395FBF6F0401E04EB840101EB8411E9
:1023E0001E4A02EB8101098A884214DC0020009019
:1023F000019004EB840000EB841052F820106B462F
:102400000822104600F092FE204600F071F80120EC
:10241000A04007431BE004EB840000EB84100F494D
:1024200001EB8000008A401C04EB840101EB841165
:102430000A4A02EB8101088209E0FFE7002004EB71
:10244000840101EB8411054A02EB81010882601CC2
:10245000C4B2102CB5DB3846BDE8FC8120CA002090
:1024600010B5C2B04FF4807102A8FEF79DFA0020AB
:10247000019000900024094B6A4601A902A805F0CA
:1024800079FD044634B9BDF8003002AA0449019828
:10249000FFF710FD204642B010BD0000D8A8002074
:1024A000000011112DE9F04105460C4600260F48A9
:1024B00000784FF0805141EA8040C71C0B480078FB
:1024C000EF2805DA09480078401C0849087002E046
:1024D000802006490870012322463946284605F027
:1024E000A5FE06463046BDE8F0810000A887002022
:1024F00010B50446102C0ADA04EB840101EB8411B8
:10250000034A02EB81004FF48A71FEF74DFA10BDC9
:1025100020CA002030B5024600240023002003E03A
:10252000155C2B44451CE8B28842F9DBDCB220463E
:1025300030BD000010B5154A002101200CF044F810
:1025400013490860134A002113480CF08FF813490F
:102550000860134A002113480CF088F812490860FB
:10256000124A002112480CF081F812490860124A00
:10257000002112480CF07AF811490860114A002134
:1025800011480CF073F81149086010BD5CF40008A4
:1025900068850020A8F300089118000854850020E1
:1025A000CCF300086D18000858850020F0F30008EF
:1025B000D11800085C85002014F400080D190008EB
:1025C0006085002038F40008371900086485002071
:1025D00010B5024802F030FB10BD0000FC8C00205A
:1025E00010B5024802F028FB10BD0000388B002017
:1025F0000146087810381823B0FBF3F20848805CD5
:10260000C865032A05D908686FF30900001D8865AD
:1026100003E008686FF309008865886D7047000063
:102620006CF40008014600208A6A8B69CBB932B18C
:10263000012A0DD0022A03D0032A10D10EE000BFD8
:10264000CB6A03F08073B3F1807F00D1012007E0F3
:10265000CB6AB3F1C07F00D1012001E000E000BFF0
:1026600034E08B69B3F5005F1AD132B1012A07D08B
:10267000022A03D0032A11D10AE000BF01200EE094
:10268000CB6A03F08073B3F1807F00D1012006E0B4
:10269000CB6AB3F1C07F00D1012000E000BF15E09C
:1026A00032B1012A05D0022A04D0032A0CD103E05A
:1026B00000BF00BF012008E0CB6A03F08073B3F1D4
:1026C000807F00D1012000E000BF00BF704730B51F
:1026D0000468246824F4802405682C60046863601E
:1026E0008468402C04D10468A2600468E16003E0BF
:1026F0000468A1600468E26030BD014600220878E9
:1027000008B9501E70470878401E08708A7888788B
:102710000F2803DA8878401C887001E00020887058
:1027200050B2EFE7024600230F480078102801DB83
:10273000581E70471078401C107049B9907810B935
:102740000F20907002E09078401E9070937809E01E
:10275000537850780F2803DA5078401C507001E00D
:102760000020507058B2E4E7549800202DE9F04161
:102770000446124E2046FFF72BF9054600270DB9F7
:10278000BDE8F081A078062814D2DFE800F013033A
:102790000405060700BF00BF00BF00BF691EA07888
:1027A000401E01EB8000C7B206EB4700B4F80310EF
:1027B000018000E000BF00BF00BFE1E724940020DB
:1027C0002DE9F0410446164E2046FFF701F9054673
:1027D00000270DB9BDE8F081A0780B281CD2DFE8F6
:1027E00000F01B060708090A0B0C0D0E0F0000BFB6
:1027F00000BF00BF00BF00BF00BF00BF00BF00BFE1
:10280000691EA078401E01EB8000C7B206EB87006E
:10281000D4F80310016000E000BF00BF00BFD9E79B
:102820008493002073B52DED020B05460C46FF2C5A
:1028300000D17FBD1048057005200F49487008463B
:102840008470012C0BD10021C0F803109DED000A0B
:10285000BCEEC00A10EE100A0749C87003E0064833
:102860000099C0F8031007210348FFF753FE0249FF
:10287000C87100BFDDE700006487002070B5044622
:102880002046FFF7A5F8054605B970BDA0780128D8
:1028900004D0022809D0032819D10FE0681E0E4980
:1028A0000844D4F80310016012E0681E0A49903110
:1028B00001EB8000D4F80310016009E0681E0649AE
:1028C000A03101EB8000D4F80310016000E000BFEC
:1028D00000BF00BFD9E70000D492002070B50446C5
:1028E0002046FFF775F8054605B970BDA0780128A8
:1028F00002D0022811D107E0681E0A4901EB8000CE
:10290000D4F80310016009E0681E0649103101EB9C
:102910008000D4F80310016000E000BF00BF00BFDA
:10292000E3E70000A892002073B52DED020B0546E9
:102930000C46FF2C00D17FBD0848057001200749D7
:102940004870084684700099C0F803100721FFF70B
:10295000E1FD0249C87100BFEDE700006487002077
:1029600070B504462046FFF733F8054605B970BD3B
:10297000A0780A2832D2DFE800F0310506070809FE
:102980000A0B0C0D00BF00BF00BF00BF00BF00BF9F
:1029900000BF00BFE078012810D1681E114901EB8B
:1029A00040000088A178491E01228A40104382B26B
:1029B000681E0C4901EB400002800EE0681E0949C8
:1029C00001EB40000088A178491E01228A40904313
:1029D000691E044A02EB4101088000E000BF00BF0D
:1029E00000BFC4E7C892002070B504462046FEF739
:1029F000EFFF054605B970BDA0780B2864D2DFE86B
:102A000000F06306141D262F38414A515A00E2781F
:102A1000681E2F490A542279091D0A54091D01EB29
:102A20004001B4F8050008804FE0681E28491031C5
:102A300001EB8000D4F80310016046E0681E2449D1
:102A4000203101EB8000D4F8031001603DE0681EE6
:102A50001F49303101EB8000D4F80310016034E0ED
:102A6000681E1B49403101EB8000D4F8031001605F
:102A70002BE0681E1649503101EB8000D4F803109A
:102A8000016022E0681E1249603101EB8000D4F839
:102A90000310016019E00E482838D4F80310C0F87C
:102AA000981012E0681E0A49743101EB8000D4F8D6
:102AB0000310016009E0681E0549843101EB8000C4
:102AC000D4F80310016000E000BF00BF00BF92E730
:102AD000D092002010B5002404F000FD20B1084879
:102AE0004078812800DC10BD054840788138C4B2A8
:102AF000044850F824100248884700BFF3E700005C
:102B00005C8700206C87002070B505460C46FF2CC2
:102B100000D170BD08480570052007494870084677
:102B200084700021C0F803100721FFF7F3FC02496D
:102B3000C87100BFEDE7000064870020C17801295B
:102B400001D100BF00E000BF70470000817801297B
:102B500002D0022907D105E00449D0F80320C1F8CA
:102B60009C2101E000E000BF00BF7047A892002058
:102B70002DE9F84F81468A4615461C46002700205D
:102B800000902220009020889DF800104155208858
:102B9000401C208023488079E0B900260DE006EB38
:102BA0008603214A02EB8301228850191422FDF783
:102BB000E2FE208814302080761C082EEFDB21886E
:102BC000481910221849A031FDF7D5FE2088103091
:102BD000208024E0002616E00120B04000F0FF082D
:102BE0001048807900EA080060B106EB86030E4ABF
:102BF00002EB8301228850191422FDF7BCFE2088C5
:102C000014302080761C082EE6DB2188481910221B
:102C10000549A031FDF7AFFE2088103020803846EE
:102C2000BDE8F88F140A01208C07012070470000CE
:102C3000FCB504460F4600210020019000902120A1
:102C4000019018889DF8045085541888401C1880FD
:102C50004A48008825184A482E6806606E68466013
:102C60002D890581D0F8020000EE100AF1EE0C0A61
:102C7000B4EEE00AF1EE10FA73D84148D0F806003D
:102C800000EE100ADFED3F0AB4EEE00AF1EE10FAB2
:102C900067D800205FE001268640F5B23A4EB6794B
:102CA0002E4056B3394E96F8806E3EBB4FEA400C2C
:102CB000374E368846FA0CF606F00306032E49D046
:102CC0004FEA400C032606FA0CF6DFF8C4C0BCF845
:102CD00000C02CEA060C2E4EA6F800C04FEA400CAD
:102CE000012606FA0CF6DFF8A8C0BCF800C046EAD8
:102CF0000C06DFF89CC0ACF800602BE0234E96F881
:102D0000806E032E26D14FEA400C214E368846FABB
:102D10000CF606F00306032E1CD04FEA400C0326E7
:102D200006FA0CF6DFF868C0BCF800C02CEA060C06
:102D3000174EA6F800C04FEA400C022606FA0CF621
:102D4000DFF84CC0BCF800C046EA0C06DFF840C013
:102D5000ACF80060401C08289DDB0020009003E0D8
:102D6000FFE70A210120009018889DF80050855443
:102D70001888401C18800846FCBD0000C887002049
:102D8000800701200000BE42140A012000F9002043
:102D9000D8870020FFB504460E460021002003908E
:102DA0000290019000902320019018889DF8045013
:102DB00085541888401C188017480088205C0390B0
:102DC000154800882044407802909DF80C000128A6
:102DD0000EDB9DF80C0003280ADC002003E001272D
:102DE0008740FDB2401C0828F9DB0020009002E07B
:102DF00008210120009018889DF80C5085541888EF
:102E0000401C188018889DF8005085541888401C74
:102E10001880084604B0F0BDC887002007B50346F7
:102E200008889DF80820C2540888401C08800720A4
:102E30000EBD10B50446B4F5807F42D012DC102CD4
:102E400038D008DC012C25D0022C27D0042C29D026
:102E5000082C44D12AE0202C30D0402C2FD0802CBC
:102E60003DD12DE0B4F5805F32D009DCB4F5007FB0
:102E700028D0B4F5806F29D0B4F5006F2FD126E0AB
:102E8000B4F5005F25D0B4F5804F23D0B4F5004FE2
:102E900025D120E0062002F06DFC21E0072002F0A1
:102EA00069FC1DE0082002F065FC19E0092002F031
:102EB00061FC15E00A2002F05DFC11E000BF00BFDC
:102EC00000BF00BF172002F055FC09E000BF00BFA3
:102ED00000BF00BF00BF282002F04CFC00E000BF94
:102EE00000BF10BD10B5012002F044FA10BD10B5AE
:102EF0004FF4806002F03EFA4FF4006002F03AFABC
:102F00004FF4805002F036FA4FF4005002F032FADB
:102F10004FF4804002F02EFA4FF4004002F02AFAFB
:102F200010BD10B5022002F025FA10BD10B5042026
:102F300002F020FA10BD10B5082002F01BFA10BDF7
:102F400010B5102002F016FA10BD10B5202002F0C6
:102F500011FA402002F00EFA802002F00BFA4FF432
:102F6000807002F007FA4FF4007002F003FA10BD0F
:102F700010B50446102C0ADA04EB440101EB84126C
:102F8000034901EB82004FF48671FDF70DFD10BD82
:102F900060B90020F0B587B004460D4616461F46BE
:102FA00045F65B30069004EB440000EB841140488A
:102FB00000EB810000890A3080B2059004F1F00036
:102FC000C0B2049004EB440000EB8411384810F8C0
:102FD00021000390002002904AF2A5500190BDF814
:102FE00018002880BDF8140068809DF81000287132
:102FF0009DF80C00687104EB440000EB84112C4830
:1030000000EB81004068C5F8060004EB440000EBCB
:103010008413274800EB8300028904EB440000EB93
:103020008413234800EB830000F10A0105F10A0034
:10303000FDF7A1FC04EB440000EB84121C4800EBFC
:1030400082000089083081B2A81CFEF777FD02904B
:1030500004EB440000EB8411154800EB810001896A
:1030600005F10A000844BDF80810018004EB440093
:1030700000EB84110E4800EB8100018905F10C0082
:103080000844BDF80410018004EB440000EB8411F7
:10309000074800EB810000890E3030809DF8100059
:1030A0004FF0805141EA8040C01C386007B0F0BD4D
:1030B00060B9002010B5ADF5067D00244FF4047111
:1030C00002A8FDF771FC00200190009015480078DF
:1030D00018B9601E0DF5067D10BD12480078401E1F
:1030E000104908700846847880780F2804DA08466A
:1030F0008078401C887002E000200A4988706B4686
:1031000001AA02A92046FFF745FF2046FFF730FF3E
:10311000BDF8043002AA04490098FEF7CBFE002057
:10312000D8E700005CB90020000011112DE9F04142
:1031300005460E4617469846002401E0FFF7BAFF01
:103140001F4800781028F9DA1D480078401C1C49F7
:1031500008700846447840780F2804DA084640781A
:10316000401C487002E000201549487004EB440000
:1031700000EB84111248001D00F8215004EB4400BC
:1031800000EB84110E48001D00EB8100466004EB4B
:10319000440000EB84110A48001D00EB8100078108
:1031A00004EB440101EB84120549091D01EB820186
:1031B00001F10A003A464146FDF7DDFBBDE8F0812A
:1031C0005CB9002010B5FFF775FF10BD72B600BFE7
:1031D000FEE7704770477047704770477047704709
:1031E0007047704770477047704770477047704727
:1031F0007047704770477047704770477047704717
:103200007047704770477047704770477047704706
:1032100070477047704770477047704770477047F6
:1032200070477047704770477047704770477047E6
:1032300070477047704770477047704770477047D6
:103240007047704730B52DED0E8B89B09FED740A35
:10325000B0EE408A9FED720A10EE105A24216846A3
:10326000FDF7A2FB00211DE0002017E06A4602EBFB
:103270008002D2ED000A01EBC1020244694B33F82F
:10328000122000EE102AB8EE400A30EE800A6A469C
:1032900002EB800282ED000A421CD0B20928E5D37D
:1032A000481CC1B21429DFD30024B2E0684600EB09
:1032B000840090ED000AF3EE040A80EE201A6846BE
:1032C00000EB840080ED001A082C41D1684600EB29
:1032D000840090ED000A10EE101A0846FDF72AFD52
:1032E00041EC1E0B9FED500B53EC102BFDF78DFCAA
:1032F00041EC1D0B9FED4E0B53EC102BFDF713FC17
:1033000041EC1C0B9FED4C0B53EC102BFDF77DFC9F
:1033100041EC1B0B9FED4A0B53EC102BFDF7FDFB13
:1033200041EC1A0B9FED480B53EC102BFDF76DFC95
:1033300041EC190BFDF72AFD454941F824000846E8
:1033400000EB840090ED000A424880ED200A5EE028
:10335000684600EB840090ED000A10EE101A084653
:10336000FDF7E8FC41EC1B0B9FED2F0B53EC102BF2
:10337000FDF74BFC41EC1A0B9FED2D0B53EC102B82
:10338000FDF7D1FB41EC190BFDF700FD0546284682
:10339000FDF7D0FC41EC1B0B2846FDF7CBFC41ECC4
:1033A0001E0B9FED2D0B53EC102BFDF7B9FB41ECE1
:1033B0001D0B9FED2B0B53EC102BFDF7B4FB41ECD9
:1033C0001C0B53EC1B2BFDF720FC41EC1A0B9FED63
:1033D000260B53EC102BFDF7A0FB41EC190BFDF76E
:1033E000D5FC08EE100AB0EE480A00F041F8184883
:1033F00000EB840080ED000A154800EB840090ED9E
:10340000000A1448843000EB840080ED000A601C40
:10341000C4B2092CFFF44AAF09B0BDEC0E8B30BD2D
:1034200000000000C08F00200000000000FEAF4040
:103430006666666666660A40000000000000F83FA7
:10344000000000000000E03F7B14AE47E17A843FBB
:103450009C8F0020289100200000000000001440F4
:10346000BC74931804648C400000000000C08240CB
:1034700070B52DED088BB0EE408A9FED320B08F051
:103480000FFFB0EE40AAF0EE60AA51EC1A0BFDF768
:103490007DFC09EE100A18EE100AFDF74BFC41EC1A
:1034A0001B0BB0EE4B0AF0EE6B0A08F0F9FEB0EE23
:1034B00040AAF0EE60AA51EC1A0BFDF767FC09EE8A
:1034C000900A39EE690ADFED210A80EE201A11EE2A
:1034D000104A2046FDF72EFC41EC1B0B9FED1C0B08
:1034E00053EC102BFDF71CFB41EC1A0BFDF74EFCC7
:1034F00005462846FDF71EFC41EC1B0B53EC1B2B2D
:103500009FED150B51EC100BFDF77FFB41EC1A0BF7
:10351000FDF73CFC06463046FDF70CFC41EC1B0B6E
:103520009FED0F0B53EC102BFDF7F7FA41EC1A0B44
:10353000FDF72CFC08EE900AB0EE680ABDEC088B93
:1035400070BD0000000000000088B34000B0564588
:1035500083DBB5DCE1796B3F000000000000F03F49
:1035600066666666661271402DE9FE4F06460F4696
:103570004FF0000900200290844601909FED7C0AE4
:103580008DED000A8220019018889DF80410815466
:103590001888401C18800021E4E00120884000F0D9
:1035A000FF0A7448807900EA0A0000287CD001EB09
:1035B0008105DFF8C48108EB051001EB8105DFF818
:1035C000BC8108EB451400250AE094F8008080F8DF
:1035D000008094ED010A80ED010A6D1C0830103462
:1035E0000A2DF2DB01EB8105DFF88C8108EB051079
:1035F00001EB8105DFF8848108EB4514DFF8808159
:10360000B8F80050A6E016F80580CDF808809DF8BF
:103610000880B8F1FF0F48D1DFF86481B8F8008066
:10362000454523D14FF000081CE0B3F800B090F8F6
:1036300000E00BF802E0B3F800B00BF1010BA3F8C7
:1036400000B0B3F800B09344D0F804E0CBF800E049
:10365000B3F800B00BF1040BA3F800B008F10108B7
:1036600008301034B8F10A0FDFDB78E09FED450A2F
:103670008DED000AB3F800809DF808B008F802B09C
:10368000B3F8008008F10108A3F80080B3F80080C7
:103690009044DDF800B0C8F800B0B3F8008008F13D
:1036A0000408A3F8008054E05BE09DF80880B8F1BE
:1036B000000F04DD9DF80880B8F10B0F1FDB9FEDB4
:1036C000310A8DED000AB3F800809DF808B008F8C3
:1036D00002B0B3F8008008F10108A3F80080B3F845
:1036E00000809044DDF800B0C8F800B0B3F8008066
:1036F00008F10408A3F800804FF0080929E09DF8BC
:103700000880A8F1010808F0FF0C10F83C80CDF803
:10371000088000EBCC0898ED010A8DED000AB3F8A3
:1037200000809DF808B008F802B0B3F8008008F1F6
:103730000108A3F80080B3F800809044DDF800B0E1
:10374000C8F800B0B3F8008008F10408A3F80080BE
:1037500000BF6D1CA7F10408A8453FF754AF00BF98
:1037600000BF491C0829FFF618AF4846BDE8FE8F88
:1037700000000000140A012098DB002000E900206E
:10378000C88700200000804F2DE9FF4F86B0074614
:10379000144600200590049000259FEDB30A8DED9E
:1037A000030A029001908120029018889DF8086019
:1037B00006551888401C1880002024E00126864009
:1037C00006F0FF0CA94EB67906EA0C06D6B100EB5E
:1037D0008006DFF89C8208EB061100EB8006DFF81C
:1037E000948208EB461200260AE092F8008081F8E5
:1037F000008092ED010A81ED010A761C0831103239
:103800000A2EF2DB401C0828D8DB9B480688F1E032
:10381000B85D0490B819D0F8010003909DF810002D
:10382000002803DD9DF810000B2820DB9DF8100018
:10383000802803DD9DF810008B2818DBFF20019005
:1038400018889DF810C000F804C01888401C188023
:1038500018889DF804C000F804C01888401C18801F
:103860009DF81000FF2801D008200590C1E09DF8C8
:103870001000002808DD9DF810000B2804DA9DF8E0
:103880001000401EC5B20BE09DF81000802807DD37
:103890009DF810008B2803DA9DF810008138C5B21E
:1038A000002092E04FF0010C0CFA00FC0CF0FF0C31
:1038B000CDF800C0DFF8B4C19CF806C0DDF8008088
:1038C0000CEA080CBCF1000F7ED000EB800BDFF897
:1038D000A0E10EEB0B1100EB800BDFF898E10EEB93
:1038E0004B1201EBC50C01EBC50B0BF1040802EB0D
:1038F000051B0BF10C0902EB051B0BF1080A9DF8E7
:1039000010B08CF800B0DDF80CB0C8F800B09CF82E
:1039100000B0BBF1000F4CDD9CF800B0BBF10B0F09
:1039200047DA99ED000AB5EEC00AF1EE10FA11D1AE
:103930009AED000AB5EEC00AF1EE10FA0AD14FF086
:10394000010B0BFA00FB9DF804E02EEA0B0ECDF8FC
:1039500004E038E098ED000AD9ED000AB4EEE00A80
:10396000F1EE10FA13DB98ED000ADAED000AB4EE7E
:10397000E00AF1EE10FA0AD84FF0010B0BFA00FB47
:103980009DF804E02EEA0B0ECDF804E01BE04FF0AA
:10399000010B0BFA00FB9DF804E04BEA0E0B0BF059
:1039A000FF0BCDF804B04FF0080BCDF814B00AE0CF
:1039B0000AE04FF0010B0BFA00FB9DF804E02EEA41
:1039C0000B0ECDF804E000BF401C0828FFF66AAFDC
:1039D00018889DF810C000F804C01888401C188092
:1039E00018889DF804C000F804C01888401C18808E
:1039F00000BF761D0798001FB0423FF709AF05983A
:103A000070BB00202AE00126864006F0FF0C174E0E
:103A1000B67906EA0C0606B300EB8006DFF85080A4
:103A200008EB061100EB8006DFF8488008EB461231
:103A3000002610E091F8008082F8008091ED010AE4
:103A400082ED010A91F8008048F0800881F800803A
:103A5000761C083110320A2EECDB401C0828D2DB21
:103A600005980AB0BDE8F08F00000000140A01209C
:103A700098DB002000E90020C88700207047000084
:103A800038B502460020009000BF92F83C000128A3
:103A900001D1022038BD012082F83C0000BF086837
:103AA000092816D91068C0680C780A3C04EB440554
:103AB0000724AC40A0431468E0600C780A3C04EB97
:103AC00044048868A0401468E46820431468E060F7
:103AD00013E0106800690C7804EB44050724AC403F
:103AE000A043146820610C7804EB44048868A0406B
:103AF000146824692043146820614868072817D295
:103B00001068406B0C79641E04EB84051F24AC40E4
:103B1000A04314686063088880B20C79641E04EBCB
:103B20008404A0401468646B20431468606331E02F
:103B300048680D2817D21068006B0C79E41F04EB5D
:103B400084051F24AC40A04314682063088880B219
:103B50000C79E41F04EB8404A0401468246B204318
:103B60001468206316E01068C06A0C790D3C04EB01
:103B700084051F24AC40A0431468E062088880B22A
:103B80000C790D3C04EB8404A0401468E46A2043E3
:103B90001468E0621E4B1F4C1068A0420AD10868EE
:103BA000122807D1586820F400005860586840F483
:103BB00080005860174C1068A04222D1164C08684B
:103BC000A04202D0086811281BD1586820F4800058
:103BD0005860586840F4000058600F4C0868A042D4
:103BE0000FD10E4800680E4CB0FBF4F000EB8000E3
:103BF0004000009002E00098401E009000980028CD
:103C0000F9D100BF002082F83C0000BF00BF41E7AF
:103C10000023014000200140120000108C8500208C
:103C200040420F0070477047704770B5044600254A
:103C3000002620680068C0F3400520684068C0F393
:103C4000401695B38EB3206C00F0100018B9206CAC
:103C500040F4007020642068806800F04050E8B9AB
:103C6000207ED8B92068C06A00F4700020B12068B6
:103C7000806800F4806088B92068406820F02000E7
:103C800021684860206C20F480702064206C00F46F
:103C9000805018B9206C40F0010020642046FFF7E6
:103CA000C1FF6FF012002168086020680068C0F34F
:103CB000800520684068C0F3C016E5B3DEB3206C11
:103CC00000F0100018B9206C40F400502064206807
:103CD000806800F4401038BB2068806B00F440100E
:103CE00020B12068806800F48060E8B920684068EE
:103CF00000F48060C0B92068806800F0405098B936
:103D0000207E88B92068406820F0800021684860E3
:103D1000206C20F480502064206C00F4807018B96E
:103D2000206C40F0010020642046FFF7A7FE6FF0F2
:103D30000C00216808602068006800F00105206818
:103D40004068C0F3801685B17EB12068006800F03D
:103D5000010050B1206C40F480302064204600F017
:103D600053F86FF001002168086020680068C0F314
:103D7000401520684068C0F380667DB176B1606C04
:103D800040F0020060646FF0200021680860204667
:103D9000FFF74AFF6FF020002168086070BD000047
:103DA00070B5044600250CB9012070BD1549A06A04
:103DB000884200D000BF206C30B9204600F026F8C1
:103DC0000020606484F83C00206C00F0100088B98A
:103DD000206C20F4885040F0020020642046FDF75B
:103DE00011FA00206064206C20F0020040F0010015
:103DF000206400E0012500BF002084F83C0000BFE3
:103E00002846D2E70100000F7047000010B586B0C9
:103E10000446142101A8FCF7C7FD394920688842EF
:103E20006BD100BF002000903648006840F48070DD
:103E3000344908600846006800F48070009000BFB4
:103E400000BF00BF002000902E481438006840F0EA
:103E500004002C49143908600846006800F004008A
:103E6000009000BF00BF00BF00200090084600681F
:103E700040F0010008600846006800F00100009072
:103E800000BF00BF0F20019003200290002003908C
:103E900001A91D4801F07CFA1F2001900320029027
:103EA0000020039001A9194801F072FA1848194935
:103EB000086000204860002116488160C1604FF40E
:103EC0008061016149004161890081614911C161DD
:103ED00000210162416200F0CFFF08B1FFF776F9DF
:103EE00000BF0C48A063846300BF0022114612206B
:103EF00001F072FC122001F05FFC06B010BD000062
:103F00000020014044380240000802400000024006
:103F100010640240388B0020F8B504460D46164662
:103F20000020009000BF94F83C00012801D102203D
:103F3000F8BD012084F83C0000BF2068806800F0D4
:103F40000100A0B92068806840F001002168886005
:103F5000554800685549B0FBF1F000EB4000009077
:103F600002E00098401E009000980028F9D12068D7
:103F7000806800F48070B0F5807F05D1206880688B
:103F800020F48070216888602068806800F001005B
:103F900000287ED0206C40F20161884340F480709C
:103FA00020642068406800F4806028B1206C20F410
:103FB000005040F480502064206C00F48050B0F534
:103FC000805F04D1606C20F00600606401E0002096
:103FD000606400BF002084F83C0000BF344F3548C7
:103FE000A16BC8633448A16B08643448A16BC864F2
:103FF0006FF02200216808602068406840F080600F
:10400000216848602068806840F48070216888607A
:10401000226802F14C0133462A46A06B00F0A2FF51
:10402000786800F01F0018BB25492068884213D02B
:1040300024492068884204D1381D006800F01F0020
:1040400050B12149206888422BD11948001D0068D1
:1040500000F01F00102824D22068806800F0405033
:10406000F8B92068806840F080402168886018E0D6
:1040700013492068884214D12068806800F04050BD
:1040800078B92068806840F080402168886008E046
:10409000FFE7206C40F010002064606C40F00100ED
:1040A0006064002044E700008C85002040420F003F
:1040B000002301404D110008E5110008CB11000854
:1040C00000200140002101400022014010B50246BD
:1040D00092F82030012B01D0022B06D110684069E4
:1040E000084314686061002010BD506A40F48020CD
:1040F00050620120F8E7F0B504460D461E4694F8DC
:10410000207020688368A86800B900E000BF012F14
:1041100001D0022F7CD103F0806030B903F0006041
:1041200018B903F08050002873D0C3F3016102294D
:1041300005D9606A40F4000060620120F0BD0120F2
:1041400088403060A86860B9B5F800C0E86840EA07
:104150004C5C206800F5C07000EB0110C0F800C096
:104160000FE0D5E901C040EACC00D5F80CC040EA28
:104170000C00D4F800C00CF5C07C0CEB011CCCF892
:104180000000D5F810C0206800F5C07000EB0110E9
:10419000C0F804C0287D01280ED1206800F5C07049
:1041A00000EB0110406840F4807C206800F5C0708E
:1041B00000EB0110C0F804C0D079000692F806C0E8
:1041C00040EA0C4092F805C040EA0C2C10794CEA09
:1041D000000C206800F5C07000EB0110C0F80CC0A6
:1041E000D078000692F802C040EA0C4092F801C074
:1041F00040EA0C2092F800C040EA0C00D4F800C05D
:104200000CF5C07C0CEB011CCCF80800206801E028
:1042100016E00FE000F5C07000EB0110006840F000
:10422000010C206800F5C07000EB0110C0F800C060
:10423000002083E7606A40F40010606201207DE79F
:10424000606A40F480206062012077E7F0B50446A0
:104250000A46216894F82050012D01D0022D7ED10C
:10426000424901F50071086840F0010008600868E3
:1042700020F47C5008600868566A40EA062008600E
:10428000107D00F01F06012000FA06F3C86998436C
:10429000C861A1F50071D069C8B9D1F80C02984382
:1042A000C1F80C02908880B2968940EA064601F572
:1042B0001070576940F83760108880B2168940EA5C
:1042C000064601F51070576900EBC7004660D069DB
:1042D000012819D1D1F80C021843C1F80C029088BA
:1042E00080B2168840EA064601F51070576940F81A
:1042F0003760908980B2168940EA064601F5107051
:10430000576900EBC7004660906928B9D1F80402EC
:104310009843C1F8040204E0D1F804021843C1F83C
:104320000402106928B9D1F814029843C1F81402A4
:1043300004E0D1F814021843C1F81402106A0128ED
:1043400004D1D1F81C021843C1F81C02D1F80002B4
:1043500020F00100C1F800020020F0BDFFE7606A14
:1043600040F4802060620120F7E700000064004014
:10437000704770B5044694F82050012D01D0022DED
:104380007DD151B92068C06800F0030080B9606A2F
:1043900040F400106062012070BD2068006900F0E8
:1043A000030028B9606A40F4001060620120F3E75E
:1043B000206800F5D87000EB0110006800F00400E0
:1043C0009060906840B9206800F5D87000EB01104B
:1043D0000068400D106007E0206800F5D87000EB21
:1043E00001100068C0085060206800F5D87000EB2C
:1043F0000110006800F00200D060206800F5D8705D
:1044000000EB0110406800F00F001061206800F51B
:10441000D87000EB0110406800F47F40000A906102
:10442000206800F5D87000EB01104068000C506166
:10443000206800F5D87000EB0110806818702068C3
:1044400000F5D87000EB0110806800F47F40000A8E
:104450005870206800F5D87000EB0110806800F4F7
:104460007F00000C9870206800F5D87000EB0110F8
:104470008068000ED870206800F5D87000E02FE04A
:1044800000EB0110C0681871206800F5D87000EBCF
:104490000110C06800F47F40000A5871206800F5E0
:1044A000D87000EB0110C06800F47F00000C987118
:1044B000206800F5D87000EB0110C068000ED871BC
:1044C00031B92068C06840F020002668F06005E03F
:1044D0002068006940F020002668306100205BE71A
:1044E000606A40F480206062012055E701460020A8
:1044F00091F82020012A01D0022A11D10B689B6873
:1045000003F0806303B1401C0B689B6803F00063F9
:1045100003B1401C0B689B6803F0805303B1401C3F
:1045200070472DE9F05F0446002520684669206841
:10453000D0F80490206887682068D0F80CA0206824
:10454000D0F810B02068D0F8188006F001000028DC
:1045500055D007F00100C0B101202168886007F044
:10456000020018B1204600F0F6FA0EE007F0040051
:1045700010B145F4006508E007F0080010B145F4FB
:10458000805502E0204600F0E5FA07F48070C8B1DB
:104590004FF480702168886007F4007018B12046DD
:1045A00000F0DBFA0EE007F4806010B145F400552E
:1045B00008E007F4006010B145F4804502E02046B1
:1045C00000F0CAFA07F48030C8B14FF48030216897
:1045D000886007F4003018B1204600F0C0FA0EE001
:1045E00007F4802010B145F4004508E007F40020EE
:1045F00010B145F4803502E0204600F0AFFA06F035
:10460000080038B10AF0100020B145F40075102000
:104610002168C86006F0040040B10AF0080028B123
:1046200008202168C860204600F01EFA06F002004B
:1046300038B12068C06800F0030010B1204600F0D7
:1046400015FA06F0400038B10BF0100020B145F427
:10465000806510202168086106F0200040B10BF051
:10466000080028B1082021680861204600F040FABF
:1046700006F0100038B12068006900F0030010B1A6
:10468000204600F036FA06F4003040B109F0100080
:1046900028B1102021684860204600F02BFA06F46B
:1046A000803040B109F0080028B108202168486036
:1046B000204600F055FA06F4004088B309F00400E3
:1046C00078B306F4807020B108F0010008B145F01D
:1046D000010506F4007020B108F0020008B145F0B1
:1046E000020506F4806020B108F0040008B145F02E
:1046F000040506F40060A0B108F0700088B108F06D
:104700007000402817D006DC10280BD020280CD0D1
:10471000302819D10CE0502810D0602814D110E0B6
:104720001DE019E045F008050FE045F010050CE02C
:1047300045F0200509E045F0400506E045F080051C
:1047400003E045F4807500E000BF00BF2068806989
:1047500020F07000216888610420216848602DB134
:10476000606A284360622046FFF702FEBDE8F09FC2
:1047700070B504460CB9012070BD94F8200010B942
:10478000204600F0AFF82068006840F00100216882
:10479000086000F01BFF05460DE000F017FF401B0E
:1047A0000A2808D9606A40F400306062052084F865
:1047B00020000120E0E72068406800F001000028A8
:1047C000EBD02068006820F002002168086000F04B
:1047D000FDFE05460DE000F0F9FE401B0A2808D951
:1047E000606A40F400306062052084F820000120F7
:1047F000C2E72068406800F002000028EBD1207E6C
:10480000012806D12068006840F080002168086017
:1048100005E02068006820F0800021680860607E64
:10482000012806D12068006840F040002168086037
:1048300005E02068006820F0400021680860A07E44
:10484000012806D12068006840F020002168086037
:1048500005E02068006820F0200021680860E07E04
:10486000012806D12068006820F010002168086047
:1048700005E02068006840F0100021680860207F93
:10488000012806D12068006840F00800216808600F
:1048900005E02068006820F0080021680860607F5B
:1048A000012806D12068006840F0040021680860F3
:1048B00005E02068006820F0040021680860D4E961
:1048C0000201084321690843616908436168491E80
:1048D00008432168C86100206062012084F820003C
:1048E000002049E710B586B00446142101A8FCF762
:1048F0005BF85749206888424AD156480068401CF6
:10490000544908600846006801280FD100BF002004
:1049100000905148006840F000704F490860084618
:10492000006800F00070009000BF00BF00BF0020D2
:10493000009049481038006840F00100464910399D
:1049400008600846006800F00100009000BF00BF4A
:104950004FF4C050019002200290002003900320E9
:1049600004900920059001A93C4800F011FD0122A6
:104970001146142000F030FF142000F01DFF01222A
:104980001146152000F028FF152000F015FF5CE00F
:1049900033492068884258D100BF002000902E483B
:1049A000006840F080602C4908600846006800F00C
:1049B0008060009000BF00BF26480068401C254969
:1049C00008600846006801280FD100BF0020009051
:1049D0002148006840F000701F49086008460068E0
:1049E00000F00070009000BF00BF00BF00200090EA
:1049F00019481038006840F0020017491039086063
:104A00000846006800F00200009000BF00BF602070
:104A100001900220029000200390032004900920BE
:104A2000059001A90F4800F0B3FC022201214020AB
:104A300000F0D2FE402000F0BFFE02220121412002
:104A400000F0CAFE412000F0B7FE06B010BD000025
:104A5000006400407485002040380240000002409D
:104A60000068004000040240704700007CB5044626
:104A7000002000900190002500261748844212D1A2
:104A80006B46164A0021FFF774FC06465EB91348D0
:104A9000806810B91148056801E01048456869460A
:104AA0002846FDF7C3FA0E48844214D10D4B0E4A36
:104AB0000021FFF75EFC06466EB90B48806810B90E
:104AC0000948056801E008484568012D03D10748F9
:104AD000006809F09FFD7CBD988B0020648F00204A
:104AE000C08B002054870020808F00206885002024
:104AF00070477047704770B5044694F8200001284D
:104B000022D1022084F820002068006820F00100F3
:104B10002168086000F05AFD05460DE000F056FDE2
:104B2000401B0A2808D9606A40F400306062052002
:104B300084F82000012070BD2068406800F001006A
:104B40000028EBD16062F6E7606A40F40020606202
:104B50000120F0E770477047704770477047704713
:104B6000704770B50446A56D00F030FD064694F818
:104B70003500022808D08020606500BF002084F83E
:104B8000340000BF012070BD2068006820F01600CE
:104B9000216808602068406920F080002168486131
:104BA000206C08B9A06C28B12068006820F00800CB
:104BB000216808602068006820F001002168086012
:104BC00010E000F003FD801B05280BD92020606554
:104BD000032084F8350000BF002084F8340000BFB3
:104BE0000320D0E72068006800F001000028E8D129
:104BF00094F85C103F208840A860012084F83500BC
:104C000000BF002084F8340000BF00BFBBE70146AE
:104C100091F83500022803D08020486501207047B4
:104C2000052081F835000868006820F001000A6856
:104C300010600020F3E70000F8B504460020009063
:104C40008C4800684FF41651B0FBF1F7A56D2E6843
:104C500094F85C1008208840304098B120680068C3
:104C600000F0040070B12068006820F004002168A2
:104C7000086094F85C1008208840A860606D40F0DF
:104C80000100606594F85C1001208840304068B1F4
:104C90002068406900F0800040B194F85C10012069
:104CA0008840A860606D40F00200606594F85C1078
:104CB00004208840304068B12068006800F002009D
:104CC00040B194F85C1004208840A860606D40F00A
:104CD0000400606594F85C1010208840304078B380
:104CE0002068006800F0080050B394F85C101020B1
:104CF0008840A8602068006800F4802080B12068A7
:104D0000006800F4002028B9206CC8B12046216C4E
:104D1000884715E0A06C98B12046A16C88470FE049
:104D20002068006800F4807028B92068006820F0CE
:104D3000080021680860206C10B12046216C88476B
:104D400094F85C10202088403040002865D020680E
:104D5000006800F0100000285FD094F85C1020205C
:104D60008840A86094F83500052828D1206800689C
:104D700020F01600216808602068406920F080005B
:104D800021684861206C08B9A06C28B120680068CF
:104D900020F008002168086094F85C103F208840EB
:104DA000A860012084F8350000BF002084F834009A
:104DB00000BF206D10B12046216D8847F8BD2068E6
:104DC000006800F4802080B12068006800F40020B2
:104DD00028B9606C10B12046616C88471DE0E06B1B
:104DE000D8B12046E16B884717E02068006800F4DE
:104DF000807068B92068006820F0100021680860A1
:104E0000012084F8350000BF002084F8340000BF82
:104E1000E06B10B12046E16B8847606D38B3606D80
:104E200000F00100F0B1052084F83500206800682A
:104E300020F001002168086000BF0098401C00902D
:104E4000B84200D905E02068006800F001000028A1
:104E5000F3D100BF012084F8350000BF002084F8A2
:104E6000340000BFE06C10B12046E16C884700BF01
:104E7000A4E700008C8500202DE9F04104460025C0
:104E800000F0A4FB074614B90120BDE8F081606A78
:104E900000B100BF022084F8350000BF002084F874
:104EA000340000BF2068006820F00100216808601D
:104EB0000AE000F08BFBC01B052805D920206065A7
:104EC000032084F83500E0E72068006800F0010066
:104ED0000028EED12068056821480540D4E9010189
:104EE0000843E16808432169084361690843A169EF
:104EF0000843E1690843216A08430543606A0428BE
:104F000003D1D4E90B0108430543206805602068FC
:104F1000456925F00705606A0543606A04280DD1DC
:104F2000A06A0543E06A48B12046FDF77BFB28B143
:104F300040206065012084F83500A6E720684561BF
:104F40002046FDF755FB064694F85C103F2088404C
:104F5000B06000206065012084F83500002094E7EF
:104F60003F8010F02DE9F04704460D4616461F46D7
:104F70004FF00008D4F8589000BF94F8340001288E
:104F800002D10220BDE8F087012084F8340000BF80
:104F900094F83500012825D1022084F8350000203E
:104FA00060653B46324629462046FDF790FB94F863
:104FB0005C103F208840C9F808002068006840F075
:104FC000160021680860206C28B12068006840F055
:104FD0000800216808602068006840F0010021682E
:104FE000086006E000BF002084F8340000BF4FF0E6
:104FF00002084046C6E7000010B50446B4F5807FBD
:1050000072D012DC102C70D008DC012C25D0022CC0
:105010003DD0042C4ED0082C68D168E0202C7AD0EA
:10502000402C79D0802CF7D1C4E0B4F5805F74D0E7
:1050300009DCB4F5007F71D0B4F5806F6FD0B4F5A2
:10504000006FE9D116E1B4F5005F69D0B4F5804F87
:1050500067D0B4F5004FDFD16CE1C4494888FDF753
:10506000E8FEC2484188C24809F026FBBF484068B4
:10507000BF4949680844BD4948600846406ABC4980
:1050800089680844B9494862022048806BE1B74901
:105090004888FDF7CEFEB5484188B54809F00CFBBD
:1050A000B248406CB24949680844B0494864042099
:1050B000488058E1AD494888FDF7BBFEAB484188C0
:1050C000AB4809F0F9FAA9488068A9494968014440
:1050D000A6488160806AA64989680144A348816224
:1050E0000820A24948803EE179E01BE03AE19F496F
:1050F0004888FDF79EFE9D4841889D4809F0DCFAEE
:105100009A48806C9A494968014498488164102003
:105110009649488027E11FE032E0C0E07AE08EE067
:10512000D8E0ECE091494888FDF783FE8F4841883C
:105130008F4809F0C1FA8D48C0688D49496801441B
:105140008A48C160C06A8A49896801448748C16247
:1051500020208649488006E184494888FDF769FE99
:1051600082484188824809F0A7FA8048C06C80498B
:10517000496801447D48C16440207C494880F2E090
:105180007A494888FDF755FE78484188784809F003
:1051900093FA764800697649496801447348016189
:1051A000006B7349896801447048016380206F492E
:1051B0004880D8E06D494888FDF73BFE6B48418840
:1051C0006B4809F079FA6948006D694949680144FA
:1051D000664801654FF4807064494880C3E06349C4
:1051E0004888FDF726FE61484188614809F064FA65
:1051F0005E4840695E49496801445C484161406BD2
:105200005B4989680144594841634FF4007057492C
:105210004880A8E055494888FDF70BFE534841886F
:10522000534809F049FA5148406D514949680144D1
:105230004E4841654FF480604C49488093E04B49AB
:105240004888FDF7F6FD49484188494809F034FA95
:105250004648806946494968014444488161806BF9
:10526000434989680144414881634FF400603F49E4
:10527000488078E03D494888FDF7DBFD3B484188A0
:105280003B4809F019FA3948806D394949680144A9
:10529000364881654FF480503449488063E0334993
:1052A0004888FDF7C6FD31484188314809F004FAC5
:1052B0002E48C0692E49496801442C48C161C06B21
:1052C0002B49896801442948C1634FF4005027499C
:1052D000488048E025494888FDF7ABFD23484188D0
:1052E000234809F0E9F92148C06D21494968014482
:1052F0001E48C1654FF480401C49488033E01B497B
:105300004888FDF796FD19484188194809F0D4F9F5
:105310001648006A16494968014414480162006C45
:10532000134989680144114801644FF400400F4952
:10533000488018E00D494888FDF77BFD0B484188FF
:105340000B4809F0B9F90948006E09494968014458
:105350000648016601200549488008460088401C2F
:10536000088000E000BF00BF10BD000010860020D4
:10537000C08E002010B5044604480068204020B1CB
:10538000024804602046FFF737FE10BD143C014080
:10539000F8B502460B460025002400200021DFE07E
:1053A000012606FA01F51E6806EA0504AC4274D12E
:1053B0001E7906F00306012E04D01E7906F00306BE
:1053C000022E13D190684F000326BE40B0434F0019
:1053D000DE68BE4030439060506801268E40B04386
:1053E0001E79C6F300168E40304350601E7906F0D9
:1053F0000306032E09D0D0684F000326BE40B043F9
:105400004F009E68BE403043D0601E7906F0030610
:10541000022E13D1CF0802F1200656F827004E07BE
:10542000F70E0F26BE40B0434F07FF0E1E69BE4069
:105430003043CF0802F1200646F8270010684F00DD
:105440000326BE40B0431E7906F003064F00BE405F
:10545000304310605E6806F44036002E7FD000BFF7
:1054600000260096404E366846F480463E4F3E6029
:105470003E46366806F48046009600BF00BF3B4EAD
:105480008F0856F827008E07370F0F26BE40B0430F
:10549000374EB24202D100262EE060E0354EB242D5
:1054A00001D1012628E0344EB24201D1022623E088
:1054B000324EB24201D103261EE0314EB24201D13A
:1054C000042619E02F4EB24201D1052614E02E4EDB
:1054D000B24201D106260FE02C4EB24201D107267E
:1054E0000AE02B4EB24201D1082605E0294EB24215
:1054F00001D1092600E00A268F073F0FBE40304346
:105500001A4E8F0846F82700234E3068A0435E6885
:1055100006F4803606B120431F4E3060361D3068D9
:10552000A0435E6806F4003606B120431A4E361DCD
:105530003060361D3068A0435E6806F4801606B100
:105540002043154E08363060361D3068A0435E6833
:1055500006F4001606B120430F4E0C363060491C8D
:105560001029FFF41DAFF8BD44380240083801404F
:10557000000002400004024000080240000C02400B
:10558000001002400014024000180240001C0240BB
:105590000020024000240240003C01400246136902
:1055A0000B400BB1012000E00020704710B54269AC
:1055B00021EA020302EA010443EA0443836110BDC5
:1055C0000AB1816101E00B04836170470148006802
:1055D000704700008085002070B504460CB901209A
:1055E00070BD4CF6CC402168086045F255502168EA
:1055F0000860D4E9001048602168A0688860FFF75F
:10560000E5FF05460BE0FFF7E1FF401B312806D917
:105610002068C06800F0030008B10320E0E72068BC
:10562000C06800F003000028EDD14AF6AA202168E6
:1056300008600020D4E701464AF6AA200A681060F4
:10564000002070470348006803490978084401496D
:1056500008607047808500208885002010B50D48BF
:10566000006840F400700B4908600846006840F488
:10567000806008600846006840F48070086003207D
:1056800000F0E8F8002000F007F800F04BF80020E8
:1056900010BD0000003C024070B588B004460025F3
:1056A0000026002221462D2000F096F82D2000F043
:1056B00083F800BF002001901648006840F4807015
:1056C000144908600846006800F48070019000BF2B
:1056D00000BF02A903A800F0D9F900F0FFF94500C6
:1056E0000D48B5FBF0F0461E0C480D49086040F22D
:1056F000E7310B48C160466000210161816000F024
:105700005FFF20B9064800F0D1FF08B070BD01204E
:10571000FBE700004038024040420F0000200040FC
:10572000788E002008B500BF002000901048006867
:1057300040F480400E4908600846006800F480404C
:10574000009000BF00BF00BF00200090081F00684D
:1057500040F08050091F08600846006800F0805043
:10576000009000BF00BF052000F074F808BD0000E5
:105770004438024010B501460846002817DB00F007
:105780001F0301229A400B4B440943F8242000BF19
:1057900000BF00BFBFF34F8F00BF00BF00BF00BFFF
:1057A00000BF00BFBFF36F8F00BF00BF00BF00BFCF
:1057B00010BD000080E100E001460846002809DB3A
:1057C00000F01F0301229A4043099B0003F1E023EC
:1057D000C3F8002100BF70472DE9F05F80460D46F9
:1057E0001646002706F03CFD074639462A46334652
:1057F00001F00700C0F1070ABAF1040F02D94FF017
:10580000040A01E0C0F1070AD14600F1040ABAF126
:10581000070F02D24FF0000A01E0A0F1030AD446BC
:105820004FF0010A0AFA09FAAAF1010A0AEA020A81
:105830000AFA0CFA4FF0010B0BFA0CFBABF1010B5F
:105840000BEA030B4AEA0B042146404606F010FD22
:10585000BDE8F09F00BF00F00702064B19684FF645
:10586000FF031940044B0B4343EA0221014B19602B
:1058700000BF70470CED00E00000FA0538B50024C9
:1058800000BF002000901D48006840F080501B4978
:1058900008600846006800F08050009000BF00BF1C
:1058A000012017490864FFF791FE044607E0FFF75F
:1058B0008DFE001BB0F57A7F01D9032038BD114859
:1058C000406800F48030B0F5803FF0D101200C49F1
:1058D0004864FFF77BFE044607E0FFF777FE001BF6
:1058E000B0F57A7F01D90320E8E70648406800F464
:1058F0000030B0F5003FF0D10020DFE74038024033
:1059000000000E420070004070B504460D460CB910
:10591000012070BD5848006800F00F00A84209D26D
:1059200055490D700846006800F00F00A84201D0EC
:105930000120EEE7207800F0020002281DD1207837
:1059400000F00400042805D14C48006840F4E05001
:105950004A490860207800F00800082805D1474827
:10596000006840F46040454908604448006820F001
:10597000F000A168084341490860207800F0010068
:10598000A8B36068012807D13C4808380068C0F314
:105990004040B8B90120BCE76068022802D06068C6
:1059A000032807D1354808380068C0F3406048B97B
:1059B0000120AEE7314808380068C0F3400008B95C
:1059C0000120A6E72D48006820F003006168084325
:1059D0002A490860FFF7FAFD064609E0FFF7F6FDE1
:1059E000801B41F28831884202D9032091E707E009
:1059F0002248006800F00C006168B0EB810FEDD127
:105A00001D48006800F00F00A84209D91A490D701E
:105A10000846006800F00F00A84201D0012078E796
:105A2000207800F00400042807D11448006820F40E
:105A3000E050E168084311490860207800F0080050
:105A4000082808D10D48006820F46040216940EA28
:105A5000C1000A49086000F051F808490968C1F31B
:105A60000311074A515CC8400649086006480068AF
:105A7000FFF712FE00204CE7003C024008380240CD
:105A800074F400088C850020848500200F220260B9
:105A90000D4A126802F0030242600B4A126802F0DB
:105AA000F0028260084A126802F4E052C260064ABC
:105AB000126802F46042D2080261044A126802F0DD
:105AC0000F020A607047000008380240003C0240A4
:105AD00001480068704700008C85002000B5FFF782
