:020000040000FA
:100000003842FE1F95020000DB610000711E0000F7
:10001000CF610000890300003B7600000000000073
:10002000000000000000000000000000A702000027
:100030001D10000000000000AB020000AD02000037
:100040005D1F00006D1F00007D1F00008D1F000060
:100050009D1F0000AD1F0000BD1F0000CD1F000050
:10006000DD1F0000ED1F0000FD1F00000D2000003F
:100070001D2000002D2000003D2000004D2000002C
:100080005D2000006D2000007D2000008D2000001C
:100090009D200000AD200000BD200000CD2000000C
:1000A000DD200000ED200000FD2000000D210000FB
:1000B0001D2100002D2100003D2100004D210000E8
:1000C0005D2100006D2100007D2100008D210000D8
:1000D0009D210000AD210000BD210000CD210000C8
:1000E000DD210000ED210000FD2100000D220000B7
:1000F0001D2200002D2200003D2200004D220000A4
:100100005D2200006D2200007D2200008D22000093
:100110009D220000AD220000BD220000CD22000083
:10012000DD220000ED220000FD2200000D23000072
:100130001D2300002D2300003D2300004D2300005F
:100140005D2300006D2300007D2300008D2300004F
:100150009D230000AD230000BD230000CD2300003F
:10016000DD230000ED230000FD2300000D2400002E
:100170001D2400002D2400003D2400004D2400001B
:100180005D2400006D2400007D2400008D2400000B
:100190009D240000AD240000BD240000CD240000FB
:1001A000DD240000ED240000FD2400000D250000EA
:1001B0001D2500002D2500003D2500004D250000D7
:1001C0005D2500006D2500007D2500008D250000C7
:1001D0009D250000AD250000BD250000CD250000B7
:1001E000DD250000ED250000FD2500000D260000A6
:1001F0001D2600002D2600003D2600004D26000093
:100200005D2600006D2600007D2600008D26000082
:100210009D260000AD260000BD260000CD26000072
:10022000DD260000ED260000FD2600000D27000061
:100230001D2700002D2700003D2700004D2700004E
:100240005D270000AD280000992D00004D32000010
:10025000A53500004D390000D53C0000113F0000DD
:100260002143000031470000714A0000095000009E
:10027000ED54000079580000ED5B0000895E00003D
:10028000DFF80CD000F02EF800480047090300000A
:100290003842FE1F0648804706480047FEE7FEE753
:1002A000FEE7FEE7FEE7FEE7FEE7FEE7FEE7FEE726
:1002B0005D6C00008102000030B50B460146002055
:1002C0002022012409E021FA02F59D4205D303FA18
:1002D00002F5491B04FA02F52844151EA2F1010299
:1002E000F1DC30BD064C074D06E0E06840F001034C
:1002F00094E8070098471034AC42F6D3FFF7C4FFE8
:10030000287D0000487D000010B506F037FC07F09E
:1003100067FC002010BD70477047704770477047FA
:100320007047704770477047704770477047704715
:100330007047704710B5012007F04BFA4FF40030BA
:1003400000680E49884217D34FF400300068B0F1BE
:10035000005F11D24FF40030406809490860084638
:100360000068084908604FF40031086880F3088885
:1003700000BF04480068804710BD00000000FE1F59
:100380000800FE1F0400FE1F10B500F001F810BDAC
:10039000704770477047000010B5044600BF24B195
:1003A00044F06900692800D104E040F22C5106A015
:1003B00000F0DCFD00BF0F480078204008B10120AC
:1003C00010BD0020FCE700002E2E5C2E2E5C4C6938
:1003D000627261726965735C6472697665725C737E
:1003E00072635C68633332663461305F636C6B2EBA
:1003F000630000003C4005407047704770477047FD
:10040000BDE0DDE0FFFFFFFFFFFFFFFFFFFFFFFF9E
:10041000FFFFFFFFFFFFFFFFFFFFFFFFFFFFFFFFEC
:10042000FFFFFFFFFFFFFFFFFFFFFFFFFFFFFFFFDC
:10043000FFFFFFFFFFFFFFFFFFFFFFFFFFFFFFFFCC
:10044000FFFFFFFFFFFFFFFFFFFFFFFFFFFFFFFFBC
:10045000FFFFFFFFFFFFFFFFFFFFFFFFFFFFFFFFAC
:1004600070B586B005460C4600200590ED48006842
:100470000490EC4840680390EA4880680290E9489C
:10048000C0680190002600BF04F0E060E8B104F00D
:10049000E060B0F1807F18D004F0E060B0F1007F40
:1004A00013D004F0E060B0F1407F0ED004F0E060C3
:1004B000B0F1806F09D004F0E060B0F1A06F04D01B
:1004C00004F0E060B0F1C06F00D104E040F2476199
:1004D000D5A000F04BFD00BF00BF04F4E000E8B180
:1004E00004F4E000B0F5801F18D004F4E000B0F58B
:1004F000001F13D004F4E000B0F5401F0ED004F448
:10050000E000B0F5800F09D004F4E000B0F5A00FD2
:1005100004D004F4E000B0F5C00F00D104E04FF4C3
:10052000C961C1A000F022FD00BF00BF04F00700B8
:10053000B8B104F00700012813D004F00700022826
:100540000FD004F0070003280BD004F007000428A4
:1005500007D004F00700052803D004F007000628A0
:1005600000D104E040F24961AFA000F0FFFC00BF01
:1005700000BF04F07000B8B104F07000102813D070
:1005800004F0700020280FD004F0700030280BD049
:1005900004F07000402807D004F07000502803D009
:1005A00004F07000602800D104E040F24A619EA08F
:1005B00000F0DCFC00BF00BF04F4E060E8B104F42C
:1005C000E060B0F5807F18D004F4E060B0F5007F03
:1005D00013D004F4E060B0F5407F0ED004F4E06086
:1005E000B0F5806F09D004F4E060B0F5A06F04D0DE
:1005F00004F4E060B0F5C06F00D104E040F24B615C
:1006000089A000F0B3FC00BF00BF04F4E040E8B1F3
:1006100004F4E040B0F5805F18D004F4E040B0F599
:10062000005F13D004F4E040B0F5405F0ED004F456
:10063000E040B0F5804F09D004F4E040B0F5A04FA1
:1006400004D004F4E040B0F5C04F00D104E040F223
:100650004C6175A000F08AFC00BF00BF04F4E020EC
:10066000E8B104F4E020B0F5803F18D004F4E020B5
:10067000B0F5003F13D004F4E020B0F5403F0ED0B9
:1006800004F4E020B0F5802F09D004F4E020B0F5A8
:10069000A02F04D004F4E020B0F5C02F00D104E076
:1006A00040F24D6160A000F061FC00BF00BF05F0AA
:1006B0007F0000B104E040F24E615BA000F056FC08
:1006C00000BF00BF6348008800F0010000B104E0F3
:1006D00040F24F6154A000F049FC00BF5E48007832
:1006E00000F0070005281CD100BF4E48006900F04B
:1006F000010000B104E040F256614BA000F036FC6E
:1007000000BF0126554847490860C012486088600C
:10071000C86000BF0598401C05900598B0F5007FA3
:10072000F8D305F0010038B14B482638006A64F36D
:10073000020049492639086205F0020050B14648D6
:100740002638006A20F0700004F070010843424926
:100750002639086205F0040050B13F482638006A87
:1007600020F4E06004F4E06108433B492639086264
:1007700005F0080050B138482638006A20F4E040FF
:1007800004F4E041084334492639086205F01000BA
:1007900050B131482638006A20F4E02004F4E0210A
:1007A00008432D492639086205F0200050B12A4837
:1007B0002638006A20F4E00004F4E00108432649EA
:1007C0002639086205F0400050B123482638006AF7
:1007D00020F0E06004F0E06108431F492639086218
:1007E0000020059000BF0598401C05900598B0F5C5
:1007F000007FF8D3012E12D10A49049808600398AB
:100800004860029888600198C8600020059000BF89
:100810000598401C05900598B0F5007FF8D306B008
:1008200070BD0000008004402E2E5C2E2E5C4C69B2
:10083000627261726965735C6472697665725C7319
:1008400072635C68633332663461305F636C6B2E55
:1008500063000000FE430540264005400EFAFFFFFE
:1008600038B5044600250020009000BF0CB1012CD3
:1008700000D104E04FF48D6119A000F077FB00BFB8
:1008800000BF2248008800F0010000B104E040F2FF
:10089000694113A000F06AFB00BF5CB91C480078F6
:1008A00000F00700052801D10B2517E001201949A8
:1008B000086013E00020174908600A2509E020209D
:1008C000FFF76AFD012801D1002506E00098401CD1
:1008D00000900098B0F5805FF1D900BF284638BD80
:1008E0002E2E5C2E2E5C4C69627261726965735C9F
:1008F0006472697665725C7372635C6863333266D6
:100900003461305F636C6B2E63000000FE43054072
:10091000264005404005A8422DE9F04104460CB9A7
:1009200004261CE100BF207900F00300401C06D221
:10093000207900F00300401C042800D804E040F2B5
:100940007D2188A000F012FB00BF00BFA088C0F38B
:100950000720401C192806D3A088C0F30720401C9C
:10096000962800D804E040F27E217EA000F0FEFA36
:1009700000BF00BF6068C0F30350401C022806D3CC
:100980006068C0F30350401C102800D804E040F217
:100990007F2174A000F0EAFA00BF00BF6068C0F3D6
:1009A0000360401C022806D36068C0F30360401C4B
:1009B000102800D804E04FF420716AA000F0D6FAA5
:1009C00000BF00BF0121606801EB1070022805D351
:1009D000606801EB1070102800D804E040F281211B
:1009E00060A000F0C3FA00BF00BF2079C0F3C010C0
:1009F00018B12079C0F3C01000B104E040F28221A8
:100A000058A000F0B3FA00BF2079C0F3C01008B9B5
:100A10005F4901E05F480168207900F00300401C55
:100A2000B1FBF0F7A088C0F30720401C00FB07F5DE
:100A300000BF5748874203D35748874200D804E095
:100A40004FF4227147A000F091FA00BF00BF534855
:100A5000854203D34000854200D804E040F289215A
:100A600040A000F083FA00BF00BF6068C0F30350ED
:100A7000401CB5FBF0F04A49884209D36068C0F3D6
:100A80000350401CB5FBF0F04649884200D804E012
:100A900040F28A2133A000F069FA00BF00BF60680D
:100AA000C0F30360401CB5FBF0F03D49884209D318
:100AB0006068C0F30360401CB5FBF0F03949884220
:100AC00000D804E040F28B2126A000F04FFA00BFCE
:100AD00000BF0121606801EB1070B5FBF0F03049F8
:100AE000884209D30121606801EB1070B5FBF0F07A
:100AF0002C49884200D804E04FF4237119A000F07B
:100B000035FA00BF00BF2078012801D0207800B955
:100B100004E040F28E2113A000F028FA00BF00BFCD
:100B20002148008800F0010000B104E040F28F216C
:100B30000CA000F01BFA00BF2079C0F3C0111B48C5
:100B4000C1611B4960680860207820B90120FFF767
:100B500087FE064603E00020FFF782FE0646304689
:100B6000BDE8F0812E2E5C2E2E5C4C6962726172A3
:100B70006965735C6472697665725C7372635C68E4
:100B8000633332663461305F636C6B2E6300000048
:100B900000127A001000FE1F00366E010046C323CB
:100BA000005A6202001C4E0EFE4305400020A8427F
:100BB000004105400146002009B9042024E000223C
:100BC0004A6001220A704A6822F0704202F18052A3
:100BD0004A604A6822F0706202F180724A604A6894
:100BE00022F4700202F580124A604A6822F47F42C1
:100BF00002F598524A604A6822F00302521C4A6089
:100C00004A6822F080024A607047000030B585B023
:100C10000446002004903B4800680390394840682F
:100C200002903848806801903648C06800900025DE
:100C300000BF4CB1012C07D0022C05D0032C03D0EF
:100C4000042C01D0052C00D104E040F247512EA025
:100C500000F08CF900BF00BF3648008800F00100AA
:100C600000B104E04FF4A96127A000F07FF900BFB4
:100C70003148007800F00700052801D0052C1CD170
:100C8000012500BF1F48006900F0010000B104E029
:100C900040F252511CA000F069F900BF27481949E1
:100CA0000860C01248608860C86000BF0498401C9B
:100CB00004900498B0F5007FF8D31F48047000201A
:100CC000049000BF0498401C04900498B0F5007F85
:100CD000F8D3012D12D10B4903980860029848609F
:100CE000019888600098C8600020049000BF0498B4
:100CF000401C04900498B0F5007FF8D305F03EFF47
:100D000005B030BD008004402E2E5C2E2E5C4C6958
:100D1000627261726965735C6472697665725C7334
:100D200072635C68633332663461305F636C6B2E70
:100D300063000000FE430540264005400EFAFFFF19
:100D400038B5044600250020009000BF0CB1012CEE
:100D500000D104E040F246311FA000F007F900BFC7
:100D600000BF2848008800F0010000B104E040F214
:100D7000473119A000F0FAF800BFBCB9224800784A
:100D800000F00700032801D10B2523E01F48C069AC
:100D900040B91F48006808B90B251BE001201D4918
:100DA000086017E001201B49086013E00020194982
:100DB00008600A2509E00820FFF7EEFA012801D1B2
:100DC000002506E00098401C00900098B0F5805F78
:100DD000F1D900BF284638BD2E2E5C2E2E5C4C6902
:100DE000627261726965735C6472697665725C7364
:100DF00072635C68633332663461305F636C6B2EA0
:100E000063000000FE430540264005400020A84244
:100E10004005A8424006A84270B504460CB9042516
:100E200071E000BF2078012801D0207800B904E0EB
:100E300040F2D62135A000F099F800BF00BF6078DD
:100E400040B16078102805D06078202802D0607802
:100E5000302800D104E040F2D7212CA000F086F821
:100E600000BF00BFA07810B1A078402800D104E0F6
:100E70004FF4367125A000F079F800BF00BFE0788C
:100E8000012817D0E078022814D0E078032811D088
:100E9000E07804280ED0E07805280BD0E07806280A
:100EA00008D0E078072805D0E078082802D0E0785C
:100EB000092800D104E040F2D92114A000F056F82E
:100EC00000BF00BF1C48008800F0010000B104E032
:100ED00040F2DA210DA000F049F800BFE078174990
:100EE0000870607840F08000A178084314490870C9
:100EF000207820B90120FFF723FF054603E00020FA
:100F0000FFF71EFF0546284670BD00002E2E5C2E02
:100F10002E5C4C69627261726965735C6472697699
:100F200065725C7372635C68633332663461305F30
:100F3000636C6B2E63000000FE430540A240054039
:100F400078CC04400146002009B9042006E00122C3
:100F50000A7000228A704A700522CA707047704772
:100F600070477047704770477047704704460D469A
:100F70002A46214602A006F0D9FB00BFFEE700008A
:100F800057726F6E6720706172616D657465727300
:100F90002076616C75653A2066696C652025732042
:100FA0006F6E206C696E652025640D0A00000000DC
:100FB0007047704770477047704770477047704779
:100FC0007047704770477047704770477047704769
:100FD0007047704770477047704770477047704759
:100FE0007047704770477047704770477047704749
:100FF0007047704770477047704770477047704739
:101000007047704770477047704770477047704728
:1010100070477047704770477047704710B500F0D1
:1010200001F810BD704700004A2000280BDB00F0DB
:101030001F0201219140054A430942F82310BFF3E2
:101040004F8FBFF36F8F00BF7047000080E100E05B
:1010500010B5044600BF104820430F49884200D114
:1010600004E040F25D210DA0FFF780FF00BF00BF4C
:1010700015480068012800D104E040F25E2107A075
:10108000FFF774FF00BF10482430006820430E496A
:101090002431086010BD00003F003E002E2E5C2E63
:1010A0002E5C4C69627261726965735C6472697608
:1010B00065725C7372635C68633332663461305F9F
:1010C00065666D2E6300000000040140704730B576
:1010D00089B0684600F0E6FB05200090684600F005
:1010E000ABF800BF4FF4807000F074F805464FF085
:1010F000807000F06FF80446012DF3D1012CF1D17E
:1011000009B030BD10B500BF0E480068012800D1FD
:1011100003E0EF210CA0FFF729FF00BF00BF154837
:10112000006800B903E0F02107A0FFF71FFF00BF30
:1011300004481C30006840F4803002491C310860CB
:1011400010BD0000000401402E2E5C2E2E5C4C6968
:10115000627261726965735C6472697665725C73F0
:1011600072635C68633332663461305F65666D2E2E
:1011700063000000C083204210B500BF084800682B
:10118000012800D103E0E12106A0FFF7EFFE00BF38
:101190000F480349091D0860C043086010BD0000E6
:1011A000000401402E2E5C2E2E5C4C69627261722E
:1011B0006965735C6472697665725C7372635C689E
:1011C000633332663461305F65666D2E6300000004
:1011D0006745230110B5044600BF0A48204309496A
:1011E000884200D104E040F2462107A0FFF7BEFE8E
:1011F00000BF10480068204008B1012010BD002049
:10120000FCE700003F013E012E2E5C2E2E5C4C6957
:10121000627261726965735C6472697665725C732F
:1012200072635C68633332663461305F65666D2E6D
:10123000630000002004014070B5044600260CB98C
:101240000426D5E000BF6B480068012800D104E007
:101250004FF4B57168A0FFF789FE00BF00BF714869
:10126000006800B904E040F26B1163A0FFF77EFE56
:1012700000BF00BF20680F2800D804E04FF4B6710B
:101280005DA0FFF773FE00BF00BFA06918B1A069A1
:10129000B0F5807F00D104E040F26D1156A0FFF759
:1012A00065FE00BF00BF6068B0F5002F01D0606828
:1012B00000B904E04FF4B7714FA0FFF757FE00BF2D
:1012C00000BFA068B0F5802F01D0A06800B904E08D
:1012D00040F26F1148A0FFF749FE00BF00BF206930
:1012E000B0F5003F01D0206900B904E04FF4B871B7
:1012F00041A0FFF73BFE00BF00BFE068B0F5803FB4
:1013000001D0E06800B904E040F271113AA0FFF7A3
:101310002DFE00BF00BF6069B0F5807F01D060691D
:1013200000B904E04FF4B97133A0FFF71FFE00BF0E
:1013300000BFE069012810D0E06902280DD0E06903
:1013400003280AD0E069042807D0E069052804D002
:10135000E069062801D0E06900B904E040F27311A9
:1013600025A0FFF703FE00BF00BF206A40B1206A3E
:10137000012805D0206A022802D0206A032800D163
:1013800004E04FF4BA711CA0FFF7F0FD00BFE16864
:101390002068084321690843A1680843616808433D
:1013A000616940EA01051348183000681E49084089
:1013B000C943294008430F4918310860D4E90601A0
:1013C000084340F2071108400A491C31096840F2FD
:1013D00007129143084307491C31086094F8201014
:1013E00004481430006861F30100024914310860B8
:1013F000304670BD000401402E2E5C2E2E5C4C69E0
:10140000627261726965735C6472697665725C733D
:1014100072635C68633332663461305F65666D2E7B
:1014200063000000C0832042F0FEF0FF7047704769
:101430002DE9F04F87B08346884616460420069073
:101440000BEB4830401E049000BF4848006801285C
:1014500000D104E040F2AA2145A0FFF787FD00BFBC
:1014600000BFB8F5807F00D804E040F2AB2140A077
:10147000FFF77CFD00BF00BF0EB1012E00D104E0DC
:101480004FF42B713AA0FFF771FD00BF4349049858
:10149000884267D2CBF34F39CDF80C80DDF80C8051
:1014A00009EB0800401E80B205904FEA591709F079
:1014B0001F00029005984FEA501A059800F01F008F
:1014C0000190374800EB8705574512D1029C0CE08C
:1014D00028680121A140884306FA04F10122A240B4
:1014E000114008432860601C84B201988442EFDDFB
:1014F00038E0029C0CE028680121A140884306FAEC
:1015000004F10122A240114008432860601C84B20B
:10151000202CF0D3781C87B2214800EB8A050024E8
:101520000CE028680121A140884306FA04F1012259
:10153000A240114008432860601C84B20198844294
:10154000EFDD0BE0164800EB8705012E02D1B01E3F
:10155000286001E000202860781C87B25745F1DB45
:1015600000200690069807B0BDE8F08F0004014007
:101570002E2E5C2E2E5C4C69627261726965735C02
:101580006472697665725C7372635C686333326639
:101590003461305F65666D2E63000000FF1F200020
:1015A000900501402DE9F0470446002700254FF043
:1015B00080784FF4801900BFB4F5001F05D3B4F153
:1015C000407F03D33448844200D804E040F2F53130
:1015D00032A0FFF7CBFC00BF00BF3B4800680128EA
:1015E00000D104E040F2F6312CA0FFF7BFFC00BFB1
:1015F0003648FFF72DFD34481830006800F4702697
:1016000031481830006820F470202F4918310860E4
:10161000081D006820F00700001D091D086000205B
:1016200024F003010860B4F5801F02D3B4F1407FB9
:1016300003D34FF480784FF010090EE06D1C24485E
:10164000006AC0F3026123480068C8401421B0FB5F
:10165000F1F0A84201D80A2704E04046FFF7BAFD9E
:101660000128EBD100BF4846FFF7F2FC16481C30BA
:10167000006820F0070014491C310860081F00684A
:1016800020F4702006F4702108430F4918310860D7
:101690003846BDE8F0870000FC1700032E2E5C2EB4
:1016A0002E5C4C69627261726965735C6472697602
:1016B00065725C7372635C68633332663461305F99
:1016C00065666D2E63000000000401403F003E008F
:1016D000004005400C00FE1F10B5044600BF0F4837
:1016E0000068012800D104E040F29D110CA0FFF732
:1016F0003DFC00BF00BF0F2C00D804E04FF4CF71B9
:1017000007A0FFF733FC00BF04481830006864F3FB
:10171000030002491831086010BD000000040140B8
:101720002E2E5C2E2E5C4C69627261726965735C50
:101730006472697665725C7372635C686333326687
:101740003461305F65666D2E630000002DE9F0475F
:1017500004460D464FF0000800264FF080794FF404
:10176000801A00BFB4F5001F05D3B4F1407F03D346
:101770003C48844200D804E040F206313AA0FFF72A
:10178000F5FB00BF00BF64F00300001D00B904E0DA
:1017900040F2073134A0FFF7E9FB00BF00BF3D482E
:1017A0000068012800D104E04FF442712EA0FFF739
:1017B000DDFB00BF3848FFF74BFC364818300068A7
:1017C00000F4702733481830006820F47020314945
:1017D00018310860081D006820F00700401C091D32
:1017E00008602560B4F5801F02D3B4F1407F03D3B5
:1017F0004FF480794FF0100A10E0761C2748006AF9
:10180000C0F3026126480068C84044F62061B0FB7E
:10181000F1F0B04202D84FF00A0804E04846FFF762
:10182000D9FC0128E9D100BF2068A84201D04FF0BF
:1018300001085046FFF70CFC16481C30006820F0E9
:10184000070014491C310860081F006820F470204C
:1018500007F4702108430F49183108604046BDE87D
:10186000F0870000FC1700032E2E5C2E2E5C4C69C6
:10187000627261726965735C6472697665725C73C9
:1018800072635C68633332663461305F65666D2E07
:1018900063000000000401403F003E00004005409E
:1018A0000C00FE1F0146002009B9042009E00022B7
:1018B0000A608A604A60CA600A614A618A61CA61D4
:1018C0000A627047704770477047704770477047AB
:1018D0007047704770477047704770477047704750
:1018E0007047704770477047704770477047704740
:1018F0007047704770474A2000280DDB00BF00BFCB
:1019000000F01F02012191404209920002F1E02201
:10191000C2F8001100BF00BF00BF704770B50122C0
:1019200070215004FFF784FD012005F052FF0024D0
:101930000DE000BF4FF4003101EB4430FFF732FE01
:10194000054600F037F8002DF4D1601CC4B2702CAD
:10195000EFDB002005F03DFF70BD000070B50546CF
:101960000C462246294603A005F0E0FE04B970BDEE
:1019700000BFFEE70D0A57726F6E672070617261DB
:101980006D65746572732076616C75653A20666961
:101990006C65202573206F6E206C696E6520256450
:1019A0000D0A0000704770477047704770477047D6
:1019B0007047000010B504F0CDFF0448007818B15E
:1019C0000421012000F00EFA10BD00003000FE1FBF
:1019D0002DE9F04705460F4614464FF0000A14B9AA
:1019E0004FF0040AC5E000BF7DB1012D0DD0022DDE
:1019F0000BD0032D09D0042D07D0052D05D0062DC1
:101A000003D0072D01D0082D00D103E0DC215AA01E
:101A1000FFF7ACFA00BF00BFB8B200B103E0DD21B0
:101A200055A0FFF7A3FA00BF00BF208810B120889F
:101A3000012800D103E0DE214FA0FFF797FA00BF95
:101A400000BF608810B16088022800D103E0DF2168
:101A500049A0FFF78BFA00BF00BFA08810B1A08893
:101A6000042800D103E0E02143A0FFF77FFA00BF84
:101A700000BFE08828B1E088102802D0E088202844
:101A800000D103E0E1213CA0FFF770FA00BF00BFE6
:101A9000208918B12089B0F5804F00D103E0E22100
:101AA00035A0FFF763FA00BF00BF608910B16089FD
:101AB000402800D103E0E3212FA0FFF757FA00BF31
:101AC00000BFA08918B1A089B0F5007F00D103E064
:101AD000E42129A0FFF74AFA00BF00BFE08918B14E
:101AE000E089B0F5806F00D103E0E52122A0FFF787
:101AF0003DFA00BF00BF208A18B1208AB0F5805F90
:101B000000D103E0E6211CA0FFF730FA00BF00BFC0
:101B10002448008800F0010000B103E0E72116A08E
:101B2000FFF724FA00BF002621E00120B040384032
:101B3000D8B11C48001D00EB851000EB8608208AF8
:101B4000E1890843A1890843618908432189084341
:101B5000E1880843A1880843218808436188084335
:101B6000618A40EA0109A8F80090701C86B2102E24
:101B7000DBD35046BDE8F0872E2E5C2E2E5C4C69E0
:101B8000627261726965735C6472697665725C73B6
:101B900072635C68633332663461305F6770696FAB
:101BA0002E630000FC3B054070B504460D4600BFA7
:101BB0007CB1012C0DD0022C0BD0032C09D0042CAD
:101BC00007D0052C05D0062C03D0072C01D0082CFB
:101BD00000D104E04FF414710AA0FFF7C7F900BF69
:101BE00000BFA8B200B104E040F2512105A0FFF708
:101BF000BDF900BF0E48102101FB040630882843C0
:101C0000308070BD2E2E5C2E2E5C4C69627261722B
:101C10006965735C6472697665725C7372635C6833
:101C2000633332663461305F6770696F2E63000022
:101C30000A3805402DE9F0470446884616461F46F7
:101C400000BF7CB1012C0DD0022C0BD0032C09D08D
:101C5000042C07D0052C05D0062C03D0072C01D06E
:101C6000082C00D104E04FF4BC7126A0FFF77EF9E8
:101C700000BF00BF1FFA88F000B104E040F2791104
:101C800020A0FFF773F900BF00BF142E03D9202E48
:101C900002D33F2E00D804E04FF4BD7119A0FFF726
:101CA00065F900BF00BFB7F5807F00D007B904E039
:101CB00040F27B1113A0FFF759F900BF00BF1C4889
:101CC000008800F0010000B104E04FF4BE710DA0E7
:101CD000FFF74CF900BF002510E00120A84000EA02
:101CE000080048B11248801D00EB841000EB850904
:101CF00047EA0600A9F80000681CC5B2102DECD315
:101D0000BDE8F0872E2E5C2E2E5C4C6962726172EB
:101D10006965735C6472697665725C7372635C6832
:101D2000633332663461305F6770696F2E63000021
:101D3000FC3B054070B504460D4600BF7CB1012C4C
:101D40000DD0022C0BD0032C09D0042C07D0052C6D
:101D500005D0062C03D0072C01D0082C00D104E0BC
:101D600040F23E210AA0FFF701F900BF00BFA8B270
:101D700000B104E040F23F2105A0FFF7F7F800BFF3
:101D80000E48102101FB040630882843308070BDC6
:101D90002E2E5C2E2E5C4C69627261726965735CDA
:101DA0006472697665725C7372635C686333326611
:101DB0003461305F6770696F2E630000083805403A
:101DC0000146002009B904200AE000220A804A8066
:101DD0008A80CA800A814A818A81CA810A824A82AB
:101DE0007047000070B504460D4600BF7CB1012C61
:101DF0000DD0022C0BD0032C09D0042C07D0052CBD
:101E000005D0062C03D0072C01D0082C00D104E00B
:101E10004FF41D710AA0FFF7A9F800BF00BFA8B2D8
:101E200000B104E040F2752105A0FFF79FF800BF64
:101E30000E48102101FB040630882843308070BD15
:101E40002E2E5C2E2E5C4C69627261726965735C29
:101E50006472697665725C7372635C686333326660
:101E60003461305F6770696F2E6300000C38054085
:101E700010B500F001F810BD70477047704770470B
:101E8000704770477047704770477047704770479A
:101E9000704770477047704770477047704770478A
:101EA000704770477047704770477047704770477A
:101EB000704770477047704770477047704770476A
:101EC0007047000030B50146002009B9042040E009
:101ED0000B885B0903EB4303202404EB4303B1F9B4
:101EE0000240A3420AD80B885B0903EB4303252475
:101EF00004EB4303B1F90240A34205D2B1F9023029
:101F0000202B01D3042024E04B88124C042515FB20
:101F100003421368C3F3080340F2FF14A34208D13D
:101F20000B881360B1F902400B4D4B6845F8243023
:101F30000FE00B881468C4F30804A34208D10B888F
:101F40001360B1F90240044D4B6845F8243000E0BD
:101F5000072030BD5C1005403800FE1F10B5024957
:101F60000868804710BD00003800FE1F10B5024908
:101F70004868804710BD00003800FE1F10B50249B8
:101F80008868804710BD00003800FE1F10B5024968
:101F9000C868804710BD00003800FE1F10B5024918
:101FA0000869804710BD00003800FE1F10B50249C7
:101FB0004869804710BD00003800FE1F10B5024977
:101FC0008869804710BD00003800FE1F10B5024927
:101FD000C869804710BD00003800FE1F10B50249D7
:101FE000086A804710BD00003800FE1F10B5024986
:101FF000486A804710BD00003800FE1F10B5024936
:10200000886A804710BD00003800FE1F10B50249E5
:10201000C86A804710BD00003800FE1F10B5024995
:10202000086B804710BD00003800FE1F10B5024944
:10203000486B804710BD00003800FE1F10B50249F4
:10204000886B804710BD00003800FE1F10B50249A4
:10205000C86B804710BD00003800FE1F10B5024954
:10206000086C804710BD00003800FE1F10B5024903
:10207000486C804710BD00003800FE1F10B50249B3
:10208000886C804710BD00003800FE1F10B5024963
:10209000C86C804710BD00003800FE1F10B5024913
:1020A000086D804710BD00003800FE1F10B50249C2
:1020B000486D804710BD00003800FE1F10B5024972
:1020C000886D804710BD00003800FE1F10B5024922
:1020D000C86D804710BD00003800FE1F10B50249D2
:1020E000086E804710BD00003800FE1F10B5024981
:1020F000486E804710BD00003800FE1F10B5024931
:10210000886E804710BD00003800FE1F10B50249E0
:10211000C86E804710BD00003800FE1F10B5024990
:10212000086F804710BD00003800FE1F10B502493F
:10213000486F804710BD00003800FE1F10B50249EF
:10214000886F804710BD00003800FE1F10B502499F
:10215000C86F804710BD00003800FE1F10B502494F
:10216000D1F88000804710BD3800FE1F10B502492D
:10217000D1F88400804710BD3800FE1F10B5024919
:10218000D1F88800804710BD3800FE1F10B5024905
:10219000D1F88C00804710BD3800FE1F10B50249F1
:1021A000D1F89000804710BD3800FE1F10B50249DD
:1021B000D1F89400804710BD3800FE1F10B50249C9
:1021C000D1F89800804710BD3800FE1F10B50249B5
:1021D000D1F89C00804710BD3800FE1F10B50249A1
:1021E000D1F8A000804710BD3800FE1F10B502498D
:1021F000D1F8A400804710BD3800FE1F10B5024979
:10220000D1F8A800804710BD3800FE1F10B5024964
:10221000D1F8AC00804710BD3800FE1F10B5024950
:10222000D1F8B000804710BD3800FE1F10B502493C
:10223000D1F8B400804710BD3800FE1F10B5024928
:10224000D1F8B800804710BD3800FE1F10B5024914
:10225000D1F8BC00804710BD3800FE1F10B5024900
:10226000D1F8C000804710BD3800FE1F10B50249EC
:10227000D1F8C400804710BD3800FE1F10B50249D8
:10228000D1F8C800804710BD3800FE1F10B50249C4
:10229000D1F8CC00804710BD3800FE1F10B50249B0
:1022A000D1F8D000804710BD3800FE1F10B502499C
:1022B000D1F8D400804710BD3800FE1F10B5024988
:1022C000D1F8D800804710BD3800FE1F10B5024974
:1022D000D1F8DC00804710BD3800FE1F10B5024960
:1022E000D1F8E000804710BD3800FE1F10B502494C
:1022F000D1F8E400804710BD3800FE1F10B5024938
:10230000D1F8E800804710BD3800FE1F10B5024923
:10231000D1F8EC00804710BD3800FE1F10B502490F
:10232000D1F8F000804710BD3800FE1F10B50249FB
:10233000D1F8F400804710BD3800FE1F10B50249E7
:10234000D1F8F800804710BD3800FE1F10B50249D3
:10235000D1F8FC00804710BD3800FE1F10B50249BF
:10236000D1F80001804710BD3800FE1F10B50249AA
:10237000D1F80401804710BD3800FE1F10B5024996
:10238000D1F80801804710BD3800FE1F10B5024982
:10239000D1F80C01804710BD3800FE1F10B502496E
:1023A000D1F81001804710BD3800FE1F10B502495A
:1023B000D1F81401804710BD3800FE1F10B5024946
:1023C000D1F81801804710BD3800FE1F10B5024932
:1023D000D1F81C01804710BD3800FE1F10B502491E
:1023E000D1F82001804710BD3800FE1F10B502490A
:1023F000D1F82401804710BD3800FE1F10B50249F6
:10240000D1F82801804710BD3800FE1F10B50249E1
:10241000D1F82C01804710BD3800FE1F10B50249CD
:10242000D1F83001804710BD3800FE1F10B50249B9
:10243000D1F83401804710BD3800FE1F10B50249A5
:10244000D1F83801804710BD3800FE1F10B5024991
:10245000D1F83C01804710BD3800FE1F10B502497D
:10246000D1F84001804710BD3800FE1F10B5024969
:10247000D1F84401804710BD3800FE1F10B5024955
:10248000D1F84801804710BD3800FE1F10B5024941
:10249000D1F84C01804710BD3800FE1F10B502492D
:1024A000D1F85001804710BD3800FE1F10B5024919
:1024B000D1F85401804710BD3800FE1F10B5024905
:1024C000D1F85801804710BD3800FE1F10B50249F1
:1024D000D1F85C01804710BD3800FE1F10B50249DD
:1024E000D1F86001804710BD3800FE1F10B50249C9
:1024F000D1F86401804710BD3800FE1F10B50249B5
:10250000D1F86801804710BD3800FE1F10B50249A0
:10251000D1F86C01804710BD3800FE1F10B502498C
:10252000D1F87001804710BD3800FE1F10B5024978
:10253000D1F87401804710BD3800FE1F10B5024964
:10254000D1F87801804710BD3800FE1F10B5024950
:10255000D1F87C01804710BD3800FE1F10B502493C
:10256000D1F88001804710BD3800FE1F10B5024928
:10257000D1F88401804710BD3800FE1F10B5024914
:10258000D1F88801804710BD3800FE1F10B5024900
:10259000D1F88C01804710BD3800FE1F10B50249EC
:1025A000D1F89001804710BD3800FE1F10B50249D8
:1025B000D1F89401804710BD3800FE1F10B50249C4
:1025C000D1F89801804710BD3800FE1F10B50249B0
:1025D000D1F89C01804710BD3800FE1F10B502499C
:1025E000D1F8A001804710BD3800FE1F10B5024988
:1025F000D1F8A401804710BD3800FE1F10B5024974
:10260000D1F8A801804710BD3800FE1F10B502495F
:10261000D1F8AC01804710BD3800FE1F10B502494B
:10262000D1F8B001804710BD3800FE1F10B5024937
:10263000D1F8B401804710BD3800FE1F10B5024923
:10264000D1F8B801804710BD3800FE1F10B502490F
:10265000D1F8BC01804710BD3800FE1F10B50249FB
:10266000D1F8C001804710BD3800FE1F10B50249E7
:10267000D1F8C401804710BD3800FE1F10B50249D3
:10268000D1F8C801804710BD3800FE1F10B50249BF
:10269000D1F8CC01804710BD3800FE1F10B50249AB
:1026A000D1F8D001804710BD3800FE1F10B5024997
:1026B000D1F8D401804710BD3800FE1F10B5024983
:1026C000D1F8D801804710BD3800FE1F10B502496F
:1026D000D1F8DC01804710BD3800FE1F10B502495B
:1026E000D1F8E001804710BD3800FE1F10B5024947
:1026F000D1F8E401804710BD3800FE1F10B5024933
:10270000D1F8E801804710BD3800FE1F10B502491E
:10271000D1F8EC01804710BD3800FE1F10B502490A
:10272000D1F8F001804710BD3800FE1F10B50249F6
:10273000D1F8F401804710BD3800FE1F10B50249E2
:10274000D1F8F801804710BD3800FE1F10B50249CE
:10275000D1F8FC01804710BD3800FE1F10B551486C
:10276000046851480068012804D104F0010008B150
:10277000FFF7B1F84C48001D0068012804D104F0AF
:10278000020008B1FFF7A8F84748083000680128A0
:1027900004D104F0040008B1FFF79FF842480C3060
:1027A0000068012804D104F0080008B1FFF796F88A
:1027B0003D4810300068012804D104F0100008B131
:1027C000FFF78DF8384814300068012804D104F070
:1027D000200008B1FFF784F833481830006801285A
:1027E00004D104F0400008B1FFF77BF82E481C30FC
:1027F0000068012804D104F0800008B1FFF772F8E6
:10280000294820300068012804D104F4807008B100
:10281000FFF769F8244824300068012804D104F443
:10282000007008B1FFF760F81F48283000680128E1
:1028300004D104F4806008B1FFF757F81A482C302F
:102840000068012804D104F4006008B1FFF74EF8D5
:10285000154830300068012804D104F4805008B1D4
:10286000FFF745F8104834300068012804D104F41B
:10287000005008B1FFF73CF80B48383000680128D9
:1028800004D104F4804008B1FFF733F806483C3027
:102890000068012804D104F4004008B1FFF72AF8C9
:1028A00010BD00005C120540800AA24270B5FE48CF
:1028B0000468FE48D0F8300D01282BD1FC48006890
:1028C00040B9FC480068012804D104F0010008B1B7
:1028D000FEF77EFBF6484030006848B9F5484030C6
:1028E0000068012804D104F4807008B1FEF760FB91
:1028F000F148406800F00115EF48C1684FF0011041
:1029000020EA010605EA060020B104F4803008B18F
:10291000FEF756FBE948006B01282DD1E448001D65
:10292000006848B9E348001D0068012804D104F09C
:10293000020008B1FEF74DFBDD484430006848B99D
:10294000DC4844300068012804D104F4007008B168
:10295000FEF72FFBD848406800F00215D648C16842
:102960004FF0021020EA010605EA060020B104F447
:10297000803008B1FEF725FBD148006B01282DD12E
:10298000CB480830006848B9CA48083000680128B8
:1029900004D104F0040008B1FEF71CFBC448483021
:1029A000006848B9C34848300068012804D104F4DD
:1029B000806008B1FEF7FEFABF48406800F00415D9
:1029C000BD48C1684FF0041020EA010605EA060080
:1029D00020B104F4803008B1FEF7F4FAB948006B76
:1029E00001282DD1B2480C30006848B9B1480C30EC
:1029F0000068012804D104F0080008B1FEF7EBFAE2
:102A0000AB484C30006848B9AA484C3000680128EF
:102A100004D104F4006008B1FEF7CDFAA64840687E
:102A200000F00815A448C1684FF0081020EA01061C
:102A300005EA060020B104F4803008B1FEF7C3FABD
:102A4000A148006B01282DD199481030006848B981
:102A5000984810300068012804D104F0100008B133
:102A6000FEF7BAFA92485030006848B991485030A1
:102A70000068012804D104F4805008B1FEF79CFAE4
:102A80008D48406800F010158B48C1684FF0101059
:102A900020EA010605EA060020B104F4803008B1FE
:102AA000FEF792FA8948006B01282DD18048143036
:102AB000006848B97F4814300068012804D104F048
:102AC000200008B1FEF789FA79485430006848B907
:102AD000784854300068012804D104F4005008B14B
:102AE000FEF76BFA7448406800F020157248C16820
:102AF0004FF0201020EA010605EA060020B104F498
:102B0000803008B1FEF761FA7148006B01282DD1C1
:102B100067481830006848B96648183000680128CE
:102B200004D104F0400008B1FEF758FA604858306C
:102B3000006848B95F4858300068012804D104F49F
:102B4000804008B1FEF73AFA5B48406800F0401553
:102B50005948C1684FF0401020EA010605EA060016
:102B600020B104F4803008B1FEF730FA5948006B08
:102B700001282DD14E481C30006848B94D481C3002
:102B80000068012804D104F0800008B1FEF727FA9C
:102B900047485C30006848B946485C300068012806
:102BA00004D104F4004008B1FEF709FA4248406835
:102BB000494900EA01054048C168474820EA010642
:102BC00005EA060020B104F4803008B1FEF7FFF9F1
:102BD0004248006850B142480068424900EA010595
:102BE00025B104F4003008B1FEF721FC3B48083061
:102BF000006848B13A48006800F0201525B104F497
:102C0000802008B1FEF762FA3448001D006848B120
:102C10003348006800F0101525B104F4002008B115
:102C2000FEF704FC4FF01C40C06800F0800525B1A1
:102C300004F4800008B103F0C5FB2B4885694668A1
:102C400005EA060040F67F61084020B104F4000068
:102C500008B1FDF7D4FB25480568244814380668F8
:102C600005EA060040F67F61084020B104F080705C
:102C700008B1FEF774F91E4805681D481438066847
:102C800005EA060040F67F61084020B104F00070BC
:102C900008B1FEF765F91748056816481438066844
:102CA00005EA060028E00000601205400000A64288
:102CB0000002A6420001A642003005408015A6424F
:102CC000001EA6428026A642002FA6428037A642BA
:102CD0000040A6428048A642800040000085204275
:102CE000200401400F000E000060054018640540FC
:102CF00018680540186C054040F67F61084020B117
:102D000004F0806008B1FEF72CF91F488569466819
:102D100005EA060040F67F61084020B104F000603B
:102D200008B1FEF71FF919480568184814380668F5
:102D300005EA060040F67F61084020B104F08050AB
:102D400008B1FEF710F912480568114814380668F2
:102D500005EA060040F67F61084020B104F000500B
:102D600008B1FEF701F90B4805680A4814380668EF
:102D700005EA060040F67F61084020B104F080407B
:102D800008B1FEF7F2F870BD0070054018740540F8
:102D900018780540187C054070B5FE48046804F4B6
:102DA000002010B103F078F943E2FB4800680128E5
:102DB0002CD1FA48006840B9F9480068012804D1CC
:102DC00004F0010008B1FEF71BF9F4484030006838
:102DD00048B9F34840300068012804D104F48070F9
:102DE00008B1FEF7FDF8EF48006800F00116ED4865
:102DF000083001684FF0011020EA010506EA0500DD
:102E000020B104F4803008B1FEF7F2F8E648006B18
:102E100001282ED1E148001D006848B9E048001D96
:102E20000068012804D104F0020008B1FEF7E9F8B7
:102E3000DA484430006848B9D9484430006801286D
:102E400004D104F4007008B1FEF7CBF8D54800684F
:102E500000F00216D348083001684FF0021020EA53
:102E6000010506EA050020B104F4803008B1FEF740
:102E7000C0F8CE48006B01282ED1C8480830006841
:102E800048B9C74808300068012804D104F004009C
:102E900008B1FEF7B7F8C1484830006848B9C048E3
:102EA00048300068012804D104F4806008B1FEF7BE
:102EB00099F8BC48006800F00416BA480830016868
:102EC0004FF0041020EA010506EA050020B104F4E1
:102ED000803008B1FEF78EF8B548006B01282ED17E
:102EE000AE480C30006848B9AD480C300068012885
:102EF00004D104F0080008B1FEF785F8A7484C306B
:102F0000006848B9A6484C300068012804D104F490
:102F1000006008B1FEF767F8A248006800F00816E4
:102F2000A048083001684FF0081020EA010506EAC1
:102F3000050020B104F4803008B1FEF75CF89D482C
:102F4000006B01282ED195481030006848B994488C
:102F500010300068012804D104F0100008B1FEF719
:102F600053F88E485030006848B98D48503000689A
:102F7000012804D104F4805008B1FEF735F88948DF
:102F8000006800F010168748083001684FF01010F4
:102F900020EA010506EA050020B104F4803008B1FA
:102FA000FEF72AF88448006B01282ED17B481430A4
:102FB000006848B97A4814300068012804D104F048
:102FC000200008B1FEF721F874485430006848B971
:102FD000734854300068012804D104F4005008B14B
:102FE000FEF703F86F48006800F020166D480830BF
:102FF00001684FF0201020EA010506EA050020B123
:1030000004F4803008B1FDF7F8FF6C48006B01282C
:103010002ED162481830006848B9614818300068FD
:10302000012804D104F0400008B1FDF7EFFF5B4830
:103030005830006848B95A4858300068012804D10F
:1030400004F4804008B1FDF7D1FF5648006800F055
:1030500040165448083001684FF0401020EA01053E
:1030600006EA050020B104F4803008B1FDF7C6FF80
:103070005348006B01282ED148481C30006848B9DD
:1030800047481C300068012804D104F0800008B1D2
:10309000FDF7BDFF41485C30006848B940485C30EE
:1030A0000068012804D104F4004008B1FDF79FFF37
:1030B0003C480068434900EA01063A480830016884
:1030C000404820EA010506EA050020B104F48030FA
:1030D00008B1FDF794FF3C480068012809D13A483F
:1030E00080380068012804D104F4801008B1FDF78D
:1030F00091FF3548001D0068012809D132487C380D
:103100000068012804D104F4001008B1FDF784FF21
:103110002D4808300068012809D12B48783800680C
:10312000012804D104F4800008B1FDF774FF26489B
:103130000C300068012809D1234874380068012840
:1031400004D104F4000008B1FDF763FF1E481030FD
:103150000068012809D11C4870380068012804D192
:1031600004F0807008B1FDF758FF1748143000686C
:10317000012809D114486C380068012804D104F0F2
:10318000007008B1FDF744FF10480068012829D1FC
:103190000F481FE064120540308DA6420082A6420F
:1031A0000081A642043405408095A642009EA642B6
:1031B00080A6A64200AFA64280B7A64200C0A642A3
:1031C00080C8A642800040008001AB420001B042AE
:1031D0007C03B0420068012804D104F0006008B10B
:1031E000FEF7E3FB13480068012808D11248006885
:1031F000012804D104F0805008B1FEF7D7FB0F4836
:103200000068012808D10E480068012804D104F0A4
:10321000005008B1FEF7CBFB0A480068012808D12E
:1032200009480068012804D104F0804008B1FEF785
:10323000BFFB70BD0081B0427C83B0420001B1424F
:103240007C03B1420081B1427C83B14270B5C34876
:103250000468C348D0F80802012808D1C1480068B2
:10326000012804D104F0010008B103F009FDBD48B4
:1032700038380068012809D1BA4840300068012870
:1032800004D104F0020008B103F0FBFCB64800686A
:10329000012809D1B44878300068012804D104F02D
:1032A000040008B103F0EEFCAF484030006801288C
:1032B00009D1AD48B8300068012804D104F00800F5
:1032C00008B103F0E0FCA9480068012808D1A8482B
:1032D0000068012804D104F0100008B103F0D4FC08
:1032E000A24840300068012809D1A1484030006858
:1032F000012804D104F0200008B103F0C6FC9B486B
:10330000001D0068012809D19948001D00680128A6
:1033100004D104F0400008B103F0B8FC93484430F5
:103320000068012809D1924844300068012804D17E
:1033300004F0800008B103F0AAFC8E480068012860
:1033400008D18D480068012804D104F4807008B1C8
:1033500003F09EFC874840300068012809D1864868
:1033600040300068012804D104F4007008B103F073
:1033700090FC8048001D0068012809D17E48001D8E
:103380000068012804D104F4806008B103F082FCD5
:10339000784844300068012809D1774844300068F3
:1033A000012804D104F4006008B103F074FC7348F0
:1033B0000068012808D172480068012804D104F48B
:1033C000805008B103F068FC6C4840300068012868
:1033D00009D16B4840300068012804D104F4005042
:1033E00008B103F05AFC6548001D0068012809D1A6
:1033F0006348001D0068012804D104F4804008B12E
:1034000003F04CFC5D4844300068012809D15C4859
:1034100044300068012804D104F4004008B103F0EE
:103420003EFC58480068012808D157480068012828
:1034300004D104F4803008B103F032FC514840302C
:103440000068012809D1504840300068012804D1A3
:1034500004F4003008B103F024FC4A48001D006861
:10346000012809D14848001D0068012804D104F44E
:10347000802008B103F016FC42484430006801285F
:1034800009D1414844300068012804D104F40020E7
:1034900008B103F008FC3D480068012809D13B4809
:1034A000EC300068012804D104F0807008B102F00B
:1034B0008CFF364880300068012809D13348F0304D
:1034C0000068012804D104F0807008B102F07EFF8A
:1034D0002F480068012809D12D480C3800680128C0
:1034E00004D104F0007008B102F06DFF2848001FFD
:1034F0000068012809D1264810380068012804D145
:1035000004F0806008B102F05FFF224800680128E3
:1035100009D1204820300068012804D104F000506F
:1035200008B1FCF769FF1C481C490844C069012820
:1035300009D1194808440069012804D104F08040E9
:1035400008B102F0E3FE1648006800F4403525B1EA
:1035500004F0004008B103F0C5FA70BD68120540E0
:1035600000004842800248420882484280024942A4
:1035700000044942808249420084494280024A4212
:1035800000044A4280824A4200844A421408984217
:10359000180198420008A84200009042008B0800E1
:1035A0000494044010B5DE480468DE480068012831
:1035B00008D1DD480068012804D104F0010008B1F9
:1035C00003F093FBD7484068012808D1D6484068EB
:1035D000012804D104F0020008B103F087FBD148B0
:1035E0008068012808D1D0488068012804D104F0FF
:1035F000040008B103F07BFBCA48C068012808D169
:10360000C948C068012804D104F0080008B103F0DB
:103610006FFBC4480069012808D1C348006901282C
:1036200004D104F0100008B103F063FBBD48406909
:10363000012808D1BC484069012804D104F02000C9
:1036400008B103F057FBB7488069012808D1B64894
:103650008069012804D104F0400008B103F04BFB5D
:10366000B048C069012808D1AF48C069012804D119
:1036700004F0800008B103F03FFBAC48006801286B
:1036800009D1AA4808300068012804D104F48070E8
:1036900008B103F009FBA548001D0068012809D105
:1036A000A2480C300068012804D104F4007008B16D
:1036B00003F0FBFA9D4880300068012809D19B483F
:1036C00088300068012804D104F4806008B103F058
:1036D000EDFA964884300068012809D193488C306F
:1036E0000068012804D104F4006008B103F0DFFA97
:1036F0008F480068012809D18D48083000680128EA
:1037000004D104F4805008B103F0D2FA8848001DB7
:103710000068012809D186480C300068012804D1CE
:1037200004F4005008B103F0C4FA8248006801288C
:1037300009D18048001D0068012804D104F48040AC
:1037400008B103F0B7FA7B4814300068012809D1AA
:10375000784818300068012804D104F4004008B10A
:1037600003F0ACFA74480068012808D17348006877
:10377000012804D104F4803008B103F0C3FA6E4884
:103780004068012808D16D484068012804D104F43C
:10379000003008B103F0B7FA67488068012808D103
:1037A00066488068012804D104F4802008B103F041
:1037B000ABFA6148C068012808D16048C068012898
:1037C00004D104F4002008B103F09FFA5A480069BC
:1037D000012808D159480069012804D104F4801057
:1037E00008B103F093FA54484069012808D15348BE
:1037F0004069012804D104F4001008B103F087FAED
:103800004D488069012808D14C488069012804D1BD
:1038100004F4800008B103F07BFA4748C06901282E
:1038200008D14648C069012804D104F4000008B159
:1038300003F06FFA42480068012809D14048083077
:103840000068012804D104F0807008B103F037FA51
:103850003B48001D0068012809D139480C30006838
:10386000012804D104F0007008B103F029FA3448AB
:1038700080300068012809D131488830006801286B
:1038800004D104F0806008B103F01BFA2C488430A6
:103890000068012809D12A488C300068012804D129
:1038A00004F0006008B103F00DFA26480068012812
:1038B00009D1244808300068012804D104F0805060
:1038C00008B103F000FA1F48001D0068012809D163
:1038D0001C480C300068012804D104F0005008B1E5
:1038E00003F0F2F918480068012809D11648001DB4
:1038F0000068012804D104F0804008B103F0E5F924
:10390000114814300068012809D10F4818300068A8
:10391000012804D104F0004008B103F0DAF910BD29
:103920006C12054080283042802C304210037042D7
:10393000100470422009704280A8304280AC3042AE
:1039400010837042108470422089704210B5D548AF
:103950000468D5480068012808D1D44800680128C7
:1039600004D104F0010008B103F0D9F9CE48406851
:10397000012808D1CD484068012804D104F0020094
:1039800008B103F0CDF9C8488068012808D1C748BC
:103990008068012804D104F0040008B103F0C1F9E3
:1039A000C148C068012808D1C048C068012804D1B6
:1039B00004F0080008B103F0B5F9BB48006901281C
:1039C00008D1BA480069012804D104F0100008B1F8
:1039D00003F0A9F9B4484069012808D1B348406907
:1039E000012804D104F0200008B103F09DF9AE488D
:1039F0008069012808D1AD488069012804D104F00C
:103A0000400008B103F091F9A748C069012808D126
:103A1000A648C069012804D104F0800008B103F071
:103A200085F9A3480068012809D1A1480830006839
:103A3000012804D104F4807008B103F04BF99C48CC
:103A4000001D0068012809D199480C300068012840
:103A500004D104F4007008B103F03DF994488030BB
:103A60000068012809D1924888300068012804D1F3
:103A700004F4806008B103F02FF98D4884300068A9
:103A8000012809D18A488C300068012804D104F447
:103A9000006008B103F021F986480068012809D1C7
:103AA000844808300068012804D104F4805008B12B
:103AB00003F014F97F48001D0068012809D17D48F2
:103AC0000C300068012804D104F4005008B103F060
:103AD00006F979480068012809D17748001D006877
:103AE000012804D104F4804008B103F0F9F87248C9
:103AF00014300068012809D16F4818300068012887
:103B000004D104F4004008B103F0EEF86B48006AF9
:103B1000012808D16A48006A012804D104F48030E1
:103B200008B103F0EAF86548006C012808D1644840
:103B3000406A012804D104F4002008B103F0E0F841
:103B40005E48406C012808D15D48806A012804D194
:103B500004F4002008B103F0D1F85848806C012823
:103B600008D15748C06A012804D104F4801008B174
:103B700003F0C7F85148C06C012808D15048006BC9
:103B8000012804D104F4801008B103F0B8F84D48BE
:103B9000006840B94B480069012804D104F40010C2
:103BA00008B103F088F84748406840B94548006AC2
:103BB000012804D104F4800008B103F07CF84148E6
:103BC000806840B93F48006B012804D104F400002C
:103BD00008B103F070F83C48006A012808D13B485E
:103BE000006A012804D104F0807008B103F092F853
:103BF0003548006C012808D13448406A012804D1B6
:103C000004F0006008B103F088F82F48406C0128E8
:103C100008D12E48806A012804D104F0006008B160
:103C200003F079F82848806C012808D12748C06A39
:103C3000012804D104F0805008B103F06FF8224845
:103C4000C06C012808D12148006B012804D104F080
:103C5000805008B103F060F81D48006840B91C4866
:103C60000069012804D104F0005008B103F02EF8D7
:103C70001748406840B91648006A012804D104F08A
:103C8000804008B103F022F81148806840B910481C
:103C9000006B012804D104F0004008B103F016F8CD
:103CA00010BD00007012054080283142802C314246
:103CB0001003714210047142200971428028304281
:103CC000802C30428014704280A8304280AC304258
:103CD0008094704210B5884804688848006A0128BA
:103CE00008D18748006A012804D104F0010008B116
:103CF00003F01DF88148006C012808D18048406A13
:103D0000012804D104F0080008B103F013F87B483F
:103D1000406C012808D17A48806A012804D104F057
:103D2000080008B103F004F87448806C012808D139
:103D30007348C06A012804D104F0100008B102F0F1
:103D4000FAFF6E48C06C012808D16D48006B01284D
:103D500004D104F0100008B102F0EBFF69480068DC
:103D600040B968480069012804D104F0200008B176
:103D700002F0B7FF6348406840B96248006A012812
:103D800004D104F0400008B102F0ABFF5D48806848
:103D900040B95C48006B012804D104F0800008B1F0
:103DA00002F09FFF58480068012808D15748006872
:103DB000012804D104F4803008B102F0BDFF52485C
:103DC0004068012808D151484068012804D104F412
:103DD000003008B102F0B1FF4B488068012808D1DB
:103DE0004A488068012804D104F4802008B102F018
:103DF000A5FF4548C068012808D14448C06801288B
:103E000004D104F4002008B102F099FF3E48006993
:103E1000012808D13D480069012804D104F480102C
:103E200008B102F08DFF38484069012808D13748B1
:103E30004069012804D104F4001008B102F081FFA8
:103E400031488069012808D130488069012804D1AF
:103E500004F4800008B102F075FF2B48C069012806
:103E600008D12A48C069012804D104F4000008B12F
:103E700002F069FF2448006A012808D12348006A3B
:103E8000012804D104F0807008B102F05DFF1E48E3
:103E9000006C012808D11D48406A012804D104F0B3
:103EA000006008B102F053FF1748406C012808D1A8
:103EB0001648806A012804D104F0006008B102F0BD
:103EC00044FF1148806C012808D11048C06A0128BD
:103ED00004D104F0805008B102F03AFF0A48C06CE7
:103EE000012808D10948006B012804D104F0805052
:103EF00008B102F02BFF10BD74120540802831423A
:103F0000802C31428014714280A8314280AC314211
:103F100010B5F8480468F8480068012808D1F74847
:103F20000068012804D104F0010008B102F011FF7B
:103F3000F1484068012808D1F0484068012804D1C0
:103F400004F0020008B102F005FFEB488068012888
:103F500008D1EA488068012804D104F0040008B1BF
:103F600002F0F9FEE448C068012808D1E348C068BF
:103F7000012804D104F0080008B102F0EDFEDE488B
:103F80000069012808D1DD480069012804D104F046
:103F9000100008B102F0E1FED7484069012808D1BD
:103FA000D6484069012804D104F0200008B102F08D
:103FB000D5FED1488069012808D1D0488069012800
:103FC00004D104F0400008B102F0C9FECA48C0693B
:103FD000012808D1C948C069012804D104F0800033
:103FE00008B102F0BDFEC448006A012808D1C348E8
:103FF000006A012804D104F4807008B102F0B1FE17
:10400000BD48006C012808D1BC48406A012804D191
:1040100004F4006008B102F0A7FEB748406C012824
:1040200008D1B648806A012804D104F4006008B1C0
:1040300002F098FEB048806C012808D1AF48C06AF1
:10404000012804D104F4805008B102F08EFEAA4881
:10405000C06C012808D1A948006B012804D104F4E0
:10406000805008B102F07FFEA548006B012808D1FE
:10407000A348806B012804D104F4005008B102F079
:10408000B2FE9F48406B012808D19D48C06B0128B3
:1040900004D104F4804008B102F0A6FE99480068FB
:1040A000012808D198480068012804D104F4004090
:1040B00008B102F094FE93484068012808D1924864
:1040C0004068012804D104F4004008B102F088FEE1
:1040D0008C488068012808D18B488068012804D169
:1040E00004F4004008B102F07CFE8648C068012854
:1040F00008D18548C068012804D104F4004008B103
:1041000002F070FE81480068012808D180480068EC
:10411000012804D104F4803008B102F027FE7B4866
:104120004068012808D17A484068012804D104F485
:10413000003008B102F01BFE74488068012808D1E5
:1041400073488068012804D104F4802008B102F08B
:104150000FFE6E48C068012808D16D48C06801286C
:1041600004D104F4002008B102F003FE674800699E
:10417000012808D166480069012804D104F48010A0
:1041800008B102F0F7FD61484069012808D1604894
:104190004069012804D104F4001008B102F0EBFDDD
:1041A0005A488069012808D159488069012804D1FA
:1041B00004F4800008B102F0DFFD5448C069012812
:1041C00008D15348C069012804D104F4000008B1A3
:1041D00002F0D3FD4D48006A012808D14C48006A1E
:1041E000012804D104F0807008B102F0C7FD4748EF
:1041F000006C012808D14648406A012804D104F027
:10420000006008B102F0BDFD4048406C012808D1B3
:104210003F48806A012804D104F0006008B102F030
:10422000AEFD3A48806C012808D13948C06A01289F
:1042300004D104F0805008B102F0A4FD3348C06CF2
:10424000012808D13248006B012804D104F08050C5
:1042500008B102F095FD2F48006B012808D12D48C8
:10426000806B012804D104F0005008B102F0C1FDB8
:104270002848406B012808D12648C06B012804D18A
:1042800004F0804008B102F0B5FD23480068012821
:1042900008D122480068012804D104F0004008B188
:1042A00002F0A3FD1C484068012808D11B48406863
:1042B000012804D104F0004008B102F097FD16482F
:1042C0008068012808D115488068012804D104F0CD
:1042D000004008B102F08BFD0F48C068012808D1EA
:1042E0000E48C068012804D104F0004008B102F073
:1042F0007FFD10BD7812054080283242802C32426A
:1043000000107442001274428013744280A832423A
:1043100080AC3242009074420092744280937442A6
:1043200010B5F8480468F8480068012808D1F74833
:104330000068012804D104F0010008B102F023FD57
:10434000F1484068012808D1F0484068012804D1AC
:1043500004F0020008B102F017FDEB488068012864
:1043600008D1EA488068012804D104F0040008B1AB
:1043700002F00BFDE448C068012808D1E348C0689A
:10438000012804D104F0080008B102F0FFFCDE4867
:104390000069012808D1DD480069012804D104F032
:1043A000100008B102F0F3FCD7484069012808D199
:1043B000D6484069012804D104F0200008B102F079
:1043C000E7FCD1488069012808D1D04880690128DC
:1043D00004D104F0400008B102F0DBFCCA48C06917
:1043E000012808D1C948C069012804D104F080001F
:1043F00008B102F0CFFCC448006A012808D1C348C4
:10440000006A012804D104F4807008B102F0C3FCF2
:10441000BD48006C012808D1BC48406A012804D17D
:1044200004F4006008B102F0B9FCB748406C012800
:1044300008D1B648806A012804D104F4006008B1AC
:1044400002F0AAFCB048806C012808D1AF48C06ACD
:10445000012804D104F4805008B102F0A0FCAA485D
:10446000C06C012808D1A948006B012804D104F4CC
:10447000805008B102F091FCA548006B012808D1DA
:10448000A348806B012804D104F4005008B102F065
:10449000B6FC9F48406B012808D19D48C06B01289D
:1044A00004D104F4804008B102F0AAFC99480068E5
:1044B000012808D198480068012804D104F400407C
:1044C00008B102F098FC93484068012808D192484E
:1044D0004068012804D104F4004008B102F08CFCCB
:1044E0008C488068012808D18B488068012804D155
:1044F00004F4004008B102F080FC8648C06801283E
:1045000008D18548C068012804D104F4004008B1EE
:1045100002F074FC81480068012808D180480068D6
:10452000012804D104F4803008B102F039FC7B4842
:104530004068012808D17A484068012804D104F471
:10454000003008B102F02DFC74488068012808D1C1
:1045500073488068012804D104F4802008B102F077
:1045600021FC6E48C068012808D16D48C068012848
:1045700004D104F4002008B102F015FC674800697A
:10458000012808D166480069012804D104F480108C
:1045900008B102F009FC61484069012808D160486F
:1045A0004069012804D104F4001008B102F0FDFBB9
:1045B0005A488069012808D159488069012804D1E6
:1045C00004F4800008B102F0F1FB5448C0690128EE
:1045D00008D15348C069012804D104F4000008B18F
:1045E00002F0E5FB4D48006A012808D14C48006AFA
:1045F000012804D104F0807008B102F0D9FB4748CB
:10460000006C012808D14648406A012804D104F012
:10461000006008B102F0CFFB4048406C012808D18F
:104620003F48806A012804D104F0006008B102F01C
:10463000C0FB3A48806C012808D13948C06A01287B
:1046400004D104F0805008B102F0B6FB3348C06CCE
:10465000012808D13248006B012804D104F08050B1
:1046600008B102F0A7FB2F48006B012808D12D48A4
:10467000806B012804D104F0005008B102F0C5FBA2
:104680002848406B012808D12648C06B012804D176
:1046900004F0804008B102F0B9FB2348006801280B
:1046A00008D122480068012804D104F0004008B174
:1046B00002F0A7FB1C484068012808D11B4840684D
:1046C000012804D104F0004008B102F09BFB164819
:1046D0008068012808D115488068012804D104F0B9
:1046E000004008B102F08FFB0F48C068012808D1D4
:1046F0000E48C068012804D104F0004008B102F05F
:1047000083FB10BD7C12054080283342802C33424D
:1047100000107542001275428013754280A8334222
:1047200080AC33420090754200927542809375428E
:1047300070B5C1480468C148006840F60E7100EACF
:104740000105BE480838006800EA010605EA0600CF
:1047500020B104F0010008B1FDF7B4F8B7482030EB
:10476000006840F60E7100EA0105B4481830006890
:1047700000EA010605EA060020B104F0020008B1D3
:10478000FDF7A1F8AD484030006840F60E7100EA30
:104790000105AA483830006800EA010605EA06006B
:1047A00020B104F0040008B1FDF78EF8A348603092
:1047B000006840F60E7100EA0105A0485830006814
:1047C00000EA010605EA060020B104F0080008B17D
:1047D000FDF77BF899488030006840F60E7100EADA
:1047E000010596487830006800EA010605EA0600EF
:1047F00020B104F0100008B1FDF768F88F48A03030
:10480000006840F60E7100EA01058C489830006897
:1048100000EA010605EA060020B104F0200008B114
:10482000FDF755F88548C030006840F60E7100EA83
:1048300001058248B830006800EA010605EA060072
:1048400020B104F0400008B1FDF742F87C48006850
:10485000012812D17B48006800F00B0525B104F453
:10486000805008B102F0BFFE77484069012804D1AA
:1048700004F4005008B102F0B5FE71480830006839
:10488000012808D17048C069012804D104F480408F
:1048900008B102F0AAFE6A48001D0068012808D18C
:1048A00069488069012804D104F4004008B102F08D
:1048B0009DFE634810380068012808D16248006AEC
:1048C000012804D104F4803008B102F08DFE5F4865
:1048D0000068012812D15E48006800F00B0525B180
:1048E00004F4003008B102F083FE5A484069012800
:1048F00004D104F4802008B102F079FE5348083056
:104900000068012808D15348C069012804D104F483
:10491000002008B102F06EFE4C48001D006801281E
:1049200008D14C488069012804D104F4801008B1F2
:1049300002F061FE454810380068012808D145485A
:10494000006A012804D104F4001008B102F051FEFD
:1049500041480068012808D140480068012804D176
:1049600004F4800008B101F038FD3B48001F0068E6
:10497000012809D1394808380068012804D104F415
:10498000000008B101F02AFD3348001D006801282D
:1049900008D132481838006820B904F0807008B196
:1049A00001F01AFD2C4808380068012809D12C486C
:1049B000406900F01D0525B104F0007008B101F058
:1049C0000AFD28480068012808D127480068012806
:1049D00004D104F0006008B101F003FD2148001F7C
:1049E0000068012809D1204808380068012804D14E
:1049F00004F0805008B101F0F5FC1A48001D006871
:104A0000012808D118481838006820B904F000506F
:104A100008B101F0E5FC134808380068012809D105
:104A20001248006800F01D0525B104F0804008B16F
:104A300001F0D5FC70BD000080120540147C0140DF
:104A40009481394200CC01400080394294013A42BD
:104A500000D0014000003A42A80038429C0238428F
:104A600000C00140A88038429C82384214C40140F2
:104A70002DE9F047FD480468FD48006B012808D186
:104A8000FB48806B012804D104F0010008B102F05A
:104A9000C2F9F748406B012808D1F548C06B0128DE
:104AA00004D104F0020008B102F0B6F9F148006840
:104AB000012808D1F0480068012804D104F004005E
:104AC00008B102F0A4F9EB484068012808D1EA488F
:104AD0004068012804D104F0040008B102F098F9FC
:104AE000E4488068012808D1E3488068012804D19F
:104AF00004F0040008B102F08CF9DE48C068012817
:104B000008D1DD48C068012804D104F0040008B1D0
:104B100002F080F9D948006B012808D1D748806B92
:104B2000012804D104F0080008B102F07AF9D34852
:104B3000406B012808D1D148C06B012804D104F092
:104B4000100008B102F06EF9CD480068012808D1C4
:104B5000CC480068012804D104F0200008B102F01C
:104B60005CF9C7484068012808D1C6484068012858
:104B700004D104F0200008B102F050F9C048806868
:104B8000012808D1BF488068012804D104F0200022
:104B900008B102F044F9BA48C068012808D1B94800
:104BA000C068012804D104F0200008B102F038F9EF
:104BB000B548006B012808D1B348806B012804D1A7
:104BC00004F0400008B102F032F9AF48406B012810
:104BD00008D1AD48C06B012804D104F0800008B1B1
:104BE00002F026F9A9480068012808D1A848006801
:104BF000012804D104F4807008B102F014F9A3482C
:104C00004068012808D1A2484068012804D104F472
:104C1000807008B102F008F99C488068012808D12A
:104C20009B488068012804D104F4807008B102F028
:104C3000FCF89648C068012808D19548C06801284A
:104C400004D104F4807008B102F0F0F89148006BD0
:104C5000012808D18F48806B012804D104F400702A
:104C600008B102F0EAF88B48406B012808D1894866
:104C7000C06B012804D104F4806008B102F0DEF8B2
:104C800085480068012808D184480068012804D1BB
:104C900004F4006008B102F0CCF87F4840680128B5
:104CA00008D17E484068012804D104F4006008B1AE
:104CB00002F0C0F878488068012808D177488068F9
:104CC000012804D104F4006008B102F0B4F872487D
:104CD000C068012808D17148C068012804D104F4D3
:104CE000006008B102F0A8F86D480068012812D1F0
:104CF0006C48006800F00B0727B104F4805008B13D
:104D000002F07BFC68484069012804D104F400509B
:104D100008B102F071FC624808300068012808D12F
:104D20006148C069012804D104F4804008B102F050
:104D300065FC5B48001D0068012808D15A4880695D
:104D4000012804D104F4004008B102F058FC57488F
:104D50000068012812D15648006800F00B0727B1FF
:104D600004F4803008B102F04CFC5248406901283C
:104D700004D104F4003008B102F042FC4B48083082
:104D80000068012808D14B48C069012804D104F407
:104D9000802008B102F036FC4448001D006801285C
:104DA00008D144488069012804D104F4002008B1E6
:104DB00002F029FC04F4801008B1012000E000207A
:104DC000A8B33D4890F8A58090F8A4903A48A63042
:104DD0000578394890F8BF6006F0200028BB08F03D
:104DE000010010BB08EA090000F0FE00E8B905F078
:104DF000020010B105F00100B8B905F0080010B1CB
:104E000005F0040088B905F0200010B105F010008D
:104E100058B906F0100010B106F0080028B906F0E5
:104E2000800020B106F0400008B1FBF7B2FA04F4AC
:104E3000001008B1012000E00020B0B11F4890F838
:104E400000801E48A53890F8A4901C48401C0578A6
:104E50001A48A53890F8BF6006F0200080BB08F023
:104E6000010068BB08EA09002BE04DE08412054010
:104E700000104C4200124C4280134C4200904C42B5
:104E800000924C4280934C4200104D4200124D4221
:104E900080134D4200904D4200924D4280934D420E
:104EA00094813A4200D4014000803A4294013B424E
:104EB00000D8014000003B4200900040A580074020
:104EC00020E000F0FE00E8B905F0020010B105F0A6
:104ED0000100B8B905F0080010B105F0040088B968
:104EE00005F0200010B105F0100058B906F01000D0
:104EF00010B106F0080028B906F0800020B106F0D5
:104F0000400008B1FBF746FA39480068012808D18B
:104F100038480068012804D104F4800008B101F089
:104F200064FA3348001F0068012809D13148083865
:104F30000068012804D104F4000008B101F056FA19
:104F40002B48001D0068012808D12A48183800683D
:104F500020B904F0807008B101F046FA24480838FE
:104F60000068012809D12448006800F01D0727B116
:104F700004F0007008B101F036FA204800680128FA
:104F800008D11F480068012804D104F0006008B16E
:104F900001F02FFA1948001F0068012809D11848AC
:104FA00008380068012804D104F0805008B101F0ED
:104FB00021FA1248001D0068012808D1104818384D
:104FC000006820B904F0005008B101F011FA0B4854
:104FD00008380068012809D10A48406900F01D0717
:104FE00027B104F0804008B101F001FABDE8F08774
:104FF000A80039429C02394214C80140A80040422E
:105000009C0240420000024070B5FE480468FE4821
:10501000006B012808D1FC48806B012804D104F002
:10502000010008B101F00FFFF748406B012808D1DB
:10503000F548C06B012804D104F0020008B101F06A
:1050400003FFF2480068012808D1F14800680128F0
:1050500004D104F0040008B101F0F1FEEB4840680F
:10506000012808D1EA484068012804D104F004006E
:1050700008B101F0E5FEE5488068012808D1E44860
:105080008068012804D104F0040008B101F0D9FEC1
:10509000DE48C068012808D1DD48C068012804D175
:1050A00004F0040008B101F0CDFEDA48006B0128DD
:1050B00008D1D848806B012804D104F0080008B159
:1050C00001F07FFED348406B012808D1D148C06B66
:1050D000012804D104F0100008B101F073FECE489D
:1050E0000068012808D1CD480068012804D104F0E7
:1050F000200008B101F061FEC7484068012808D1CE
:10510000C6484068012804D104F0200008B101F02D
:1051100055FEC1488068012808D1C0488068012830
:1051200004D104F0200008B101F049FEBA48C0687B
:10513000012808D1B948C068012804D104F0200032
:1051400008B101F03DFEB648006B012808D1B44813
:10515000806B012804D104F0400008B101F037FE53
:10516000AF48406B012808D1AD48C06B012804D17D
:1051700004F0800008B101F02BFEAA480068012865
:1051800008D1A9480068012804D104F4807008B14E
:1051900001F019FEA3484068012808D1A2484068E0
:1051A000012804D104F4807008B101F00DFE9D487F
:1051B0008068012808D19C488068012804D104F443
:1051C000807008B101F001FE9648C068012808D13E
:1051D0009548C068012804D104F4807008B101F03A
:1051E000F5FD9248006B012808D19048806B01289A
:1051F00004D104F4007008B101F0EFFD8B48406B5E
:10520000012808D18948C06B012804D104F48060CA
:1052100008B101F0E3FD86480068012808D18548FF
:105220000068012804D104F4006008B101F0D1FD48
:105230007F484068012808D17E484068012804D191
:1052400004F4006008B101F0C5FD794880680128C8
:1052500008D178488068012804D104F4006008B1BE
:1052600001F0B9FD7248C068012808D17148C068D2
:10527000012804D104F4006008B101F0ADFD6E48CE
:105280000068012808D16D48806A012804D104F41F
:10529000805008B102F0B8F9674810300068012862
:1052A00008D16648406A012804D104F4805008B14E
:1052B00002F0ABF960487C380068012812D16048E0
:1052C000006800F00B0525B104F4005008B102F0AD
:1052D0009EF95A484069012804D104F4804008B17D
:1052E00002F094F9544874380068012808D15348F2
:1052F000C069012804D104F4004008B102F088F923
:105300004D4878380068012808D14C488069012848
:1053100004D104F4803008B102F07BF949480068F8
:10532000012812D14848006800F00B0525B104F4AB
:10533000003008B102F06FF944484069012804D1F7
:1053400004F4802008B102F065F93E480830006896
:10535000012808D13D48C069012804D104F4002087
:1053600008B102F05AF93748001D0068012808D139
:1053700036488069012804D104F4801008B102F095
:105380004DF9304810380068012808D12F48006ACC
:10539000012804D104F4001008B102F03DF92C48B2
:1053A0000068012808D12B480068012804D104F4C2
:1053B000800008B101F021F82548001F006801288D
:1053C00009D1244808380068012804D104F40000F9
:1053D00008B101F013F81E48001D0068012808D12B
:1053E0001C481838006820B904F0807008B101F03A
:1053F00003F8174808380068012837D116480068B4
:105400002CE000008812054000104E4200124E426F
:1054100080134E4200904E4200924E4280934E4284
:1054200000104F4200124F4280134F4200904F42F3
:1054300000924F4280934F4210823B4200803B4299
:1054400000DC014094814142000C02400080414256
:10545000A88040429C8240421404024000F01D0596
:1054600025B104F0007008B100F0C5FF1C480068C9
:10547000012808D11B480068012804D104F000600D
:1054800008B100F0BEFF1648001F0068012809D1CE
:10549000144808380068012804D104F0805008B18D
:1054A00000F0B0FF0E48001D0068012808D10D482B
:1054B0001838006820B904F0005008B100F0A0FFCF
:1054C000074808380068012809D10748006800F03B
:1054D0001D0525B104F0804008B100F090FF70BDBB
:1054E000A80041429C024142140802402DE9F04FBD
:1054F00089B0C7480468C7484068012809D1C54831
:1055000080300068012804D104F0010008B1FCF7E4
:10551000CEFCC048C068012809D1BE48843000686C
:10552000012804D104F0020008B1FCF7BFFCB9481F
:105530000069012809D1B848806800F0030525B149
:1055400004F0040008B1FCF7B0FCB448406801283E
:1055500009D1B24880300068012804D104F0080065
:1055600008B1FCF7A7FCAD48C068012809D1AB48D9
:1055700084300068012804D104F0100008B1FCF761
:1055800098FCA6480069012809D1A548006800F0E8
:10559000030525B104F0200008B1FCF789FCA148FF
:1055A0000068012812D1A048006800F00B0525B161
:1055B00004F0400008B102F033F89C48406901282B
:1055C00004D104F0800008B102F029F895480830B1
:1055D0000068012808D19548C069012804D104F465
:1055E000807008B102F01EF88E48001D0068012886
:1055F00008D18E488069012804D104F4007008B1F4
:1056000002F011F8874810380068012808D187484F
:10561000006A012804D104F4806008B102F001F8A6
:1056200083480068012812D18248006800F00B0509
:1056300025B104F4006008B101F0F7FF7E4840692D
:10564000012804D104F4805008B101F0EDFF78483E
:1056500008300068012808D17748C069012804D1C2
:1056600004F4005008B101F0E1FF7148001D00682A
:10567000012808D170488069012804D104F48040D1
:1056800008B101F0D4FF6D480068012810D16C48C2
:1056900080696C4900EA01056948406900EA01092E
:1056A00005EA090020B104F4004008B101F0C4FF8C
:1056B00004F48010E8B16448008E40F2F71100EA6B
:1056C00001066148008F00EA01075F48408F40F201
:1056D0007F1100EA010806EA070008B100F078FE31
:1056E0005A480068012804D1B8F1000F01D000F039
:1056F0006EFE04F40000F8B15548008840F2F7113E
:1057000000EA010652480830008800EA01075048C4
:105710000A30008840F27F1100EA010806EA07001B
:1057200008B100F057FE4B480068012804D1B8F1D9
:10573000000F01D000F04DFE47480068474900EADD
:10574000010A4748D0F80801464900EA010B4248DF
:10575000083000684149084008904148D0F81001DD
:10576000404908400790404840490844C0680390B9
:105770003D483E4980390844C06802903A483B4958
:105780000844406A01903848384980390844406AE2
:10579000009035483649084400690490354840690E
:1057A00000F4C03006903348C06900F4C030059062
:1057B00004F08050B8B108982AEA000088B9079828
:1057C0002BEA000068B9DDE90201884348B9DDE948
:1057D000000188430499084018B9DDE90510084024
:1057E00008B1FCF776F8204820490844C06858B949
:1057F0001D481E4980390844C068012804D104F0BE
:10580000005008B1FCF766F809B0BDE8F08F000061
:105810008C12054000003C4200E0014000803C4208
:1058200008E401409401424200100240000042425C
:105830009481424200140240008042420001004331
:1058400000000840FBFC7CF7000007403C06E042FB
:10585000308407403C86F04204010640F8000E0008
:10586000000006400C006F000000A04280072000EE
:1058700000E020000010064070B5C7480468C74823
:105880004068012809D1C54880300068012804D14A
:1058900004F0010008B1FCF710FBC048C068012803
:1058A00009D1BE4884300068012804D104F0020008
:1058B00008B1FCF701FBB9480069012809D1B848D3
:1058C000806800F0030525B104F0040008B1FCF77E
:1058D000F2FAB4484068012809D1B2488030006823
:1058E000012804D104F0080008B1FCF7E9FAAD483A
:1058F000C068012809D1AB4884300068012804D170
:1059000004F0100008B1FCF7DAFAA6480069012893
:1059100009D1A548006800F0030525B104F0200076
:1059200008B1FCF7CBFAA1480068012812D1A048C1
:10593000006800F00B0525B104F0400008B101F04B
:1059400078FE9C484069012804D104F0800008B129
:1059500001F06EFE954808300068012808D195488E
:10596000C069012804D104F4807008B101F062FE1E
:105970008E48001D0068012808D18E4880690128E2
:1059800004D104F4007008B101F055FE8A480068A3
:10599000012808D18948806A012804D104F4806074
:1059A00008B101F019FE844810300068012808D1C0
:1059B0008248406A012804D104F4806008B101F0F3
:1059C0000CFE7D487C380068012812D17C480068B4
:1059D00000F00B0525B104F4006008B101F0FFFDF3
:1059E00076484069012804D104F4805008B101F0E0
:1059F000F5FD714874380068012808D16F48C06906
:105A0000012804D104F4005008B101F0E9FD6A480E
:105A100078380068012808D168488069012804D1D5
:105A200004F4804008B101F0DCFD664800680128FC
:105A300008D165480068012804D104F4803008B119
:105A4000FCF71CFA5F48001D0068012809D15E4878
:105A5000001D0068012804D104F4003008B1FCF7EF
:105A60000EFA58480C380068012809D156480C38FD
:105A70000068012804D104F4802008B1FCF700FA82
:105A800052484068524900EA01055048C06900EA9E
:105A9000010605EA060020B104F4002008B1FCF775
:105AA000ECF94C480068012808D14B4800680128EF
:105AB00004D104F4801008B1FCF7E4F94548001D56
:105AC0000068012809D14448001D0068012804D15C
:105AD00004F4001008B1FCF7D6F93E480C38006811
