:020000040002F8
:100000002882FF1F750902000360030015F5020036
:10001000F35E0300115E020053DB030000000000EA
:10002000000000000000000000000000990902002C
:1000300081B3020000000000310A0200410A020000
:1000400025FE020035FE020045FE020055FE0200BC
:1000500065FE020075FE020085FE020095FE0200AC
:10006000A5FE0200B5FE0200C5FE0200D5FE02009C
:10007000E5FE0200F5FE020005FF020015FF02008A
:1000800025FF020035FF020045FF020055FF020078
:1000900065FF020075FF020085FF020095FF020068
:1000A000A5FF0200B5FF0200C5FF0200D5FF020058
:1000B000E5FF0200F5FF0200050003001500030044
:1000C0002500030035000300450003005500030030
:1000D0006500030075000300850003009500030020
:1000E000A5000300B5000300C5000300D500030010
:1000F000E5000300F50003000501030015010300FE
:1001000025010300350103004501030055010300EB
:1001100065010300750103008501030095010300DB
:10012000A5010300B5010300C5010300D5010300CB
:10013000E5010300F50103000502030015020300B9
:1001400025020300350203004502030055020300A7
:100150006502030075020300850203009502030097
:10016000A5020300B5020300C5020300D502030087
:10017000E5020300F5020300050303001503030075
:100180002503030035030300450303005503030063
:100190006503030075030300850303009503030053
:1001A000A5030300B5030300C5030300D503030043
:1001B000E5030300F5030300050403001504030031
:1001C000250403003504030045040300550403001F
:1001D000650403007504030085040300950403000F
:1001E000A5040300B5040300C5040300D5040300FF
:1001F000E5040300F50403000505030015050300ED
:1002000025050300350503004505030055050300DA
:1002100065050300750503008505030095050300CA
:10022000A5050300B5050300C5050300D5050300BA
:10023000E5050300F50503000506030015060300A8
:100240002506030075070300610C03001511030068
:100250006D140300151803009D1B0300D91D030036
:10026000E9210300F925030039290300C12E030009
:10027000A533030031370300A53A0300413D0300D5
:10028000DFF810D000F056FF00480047D3110200FD
:10029000AFF300802882FF1F0246D2E84F0FC2E86A
:1002A000431F03B1F9E77047024652E8000F40EAE6
:1002B000010042E8000303B1F7E7704710B50246BA
:1002C00052E8000F20EA010442E8004303B1F7E7D7
:1002D00010BD10B5024652E8000F00EA01048C423E
:1002E00003D0BFF32F8F002010BD20EA010442E8A5
:1002F000004303B1EFE710BD10B5024652E8000F0E
:10030000084203D1BFF32F8F002010BD20EA010463
:1003100042E8004303B1F1E710BD024652E8000F86
:10032000411C42E8001303B1F8E7704710B50246DC
:10033000D2E85F0F814202D8BFF32F8F10BD441C5B
:10034000C2E8534F03B1F3E710BD10B50246D2E83F
:100350005F0F441CA14200D80024C2E8534F03B1F0
:10036000F5E710BD024652E8000F411E42E80013B7
:1003700003B1F8E77047024652E8000F10B9BFF327
:100380002F8F7047411E42E8001303B1F4E7704716
:100390000246D2E85F0F10B9BFF32F8F7047411E9E
:1003A000C2E8531F03B1F4E77047024652E8000F5A
:1003B00010B9BFF32F8F7047016842E8001303B1F3
:1003C000F4E7704702680A60BFF35F8F50E8002FC0
:1003D0000B689342F6D140E8001303B1F2E770478F
:1003E0000246D2E84F0FC2E8431F03B1F9E7704756
:1003F000024652E8000F40EA010042E8000303B160
:10040000F7E7704710B5024652E8000F20EA0104F2
:1004100042E8004303B1F7E710BD10B5024652E8C9
:10042000000F00EA01048C4203D0BFF32F8F00209D
:1004300010BD20EA010442E8004303B1EFE710BD1C
:1004400010B5024652E8000F084203D1BFF32F8FC8
:10045000002010BD20EA010442E8004303B1F1E7A7
:1004600010BD024652E8000F411C42E8001303B1E0
:10047000F8E7704710B50246D2E85F0F814202D814
:10048000BFF32F8F10BD441CC2E8534F03B1F3E7F5
:1004900010BD10B50246D2E85F0F441CA14200D83F
:1004A0000024C2E8534F03B1F5E710BD024652E8FD
:1004B000000F411E42E8001303B1F8E770470246FF
:1004C00052E8000F10B9BFF32F8F7047411E42E86A
:1004D000001303B1F4E770470246D2E85F0F10B98A
:1004E000BFF32F8F7047411EC2E8531F03B1F4E7DB
:1004F0007047024652E8000F10B9BFF32F8F7047C4
:10050000016842E8001303B1F4E7704702680A602B
:10051000BFF35F8F50E8002F0B689342F6D140E89D
:10052000001303B1F2E770470246D2E84F0FC2E86A
:10053000431F03B1F9E77047024652E8000F40EA53
:10054000010042E8000303B1F7E7704710B5024627
:1005500052E8000F20EA010442E8004303B1F7E744
:1005600010BD10B5024652E8000F00EA01048C42AB
:1005700003D0BFF32F8F002010BD20EA010442E812
:10058000004303B1EFE710BD10B5024652E8000F7B
:10059000084203D1BFF32F8F002010BD20EA0104D1
:1005A00042E8004303B1F1E710BD024652E8000FF4
:1005B000411C42E8001303B1F8E7704710B502464A
:1005C000D2E85F0F814202D8BFF32F8F10BD441CC9
:1005D000C2E8534F03B1F3E710BD10B50246D2E8AD
:1005E0005F0F441CA14200D80024C2E8534F03B15E
:1005F000F5E710BD024652E8000F411E42E8001325
:1006000003B1F8E77047024652E8000F10B9BFF394
:100610002F8F7047411E42E8001303B1F4E7704783
:100620000246D2E85F0F10B9BFF32F8F7047411E0B
:10063000C2E8531F03B1F4E77047024652E8000FC7
:1006400010B9BFF32F8F7047016842E8001303B160
:10065000F4E7704702680A60BFF35F8F50E8002F2D
:100660000B689342F6D140E8001303B1F2E77047FC
:100670000246D2E84F0FC2E8431F03B1F9E77047C3
:10068000024652E8000F40EA010042E8000303B1CD
:10069000F7E7704710B5024652E8000F20EA010460
:1006A00042E8004303B1F7E710BD10B5024652E837
:1006B000000F00EA01048C4203D0BFF32F8F00200B
:1006C00010BD20EA010442E8004303B1EFE710BD8A
:1006D00010B5024652E8000F084203D1BFF32F8F36
:1006E000002010BD20EA010442E8004303B1F1E715
:1006F00010BD024652E8000F411C42E8001303B14E
:10070000F8E7704710B50246D2E85F0F814202D881
:10071000BFF32F8F10BD441CC2E8534F03B1F3E762
:1007200010BD10B50246D2E85F0F441CA14200D8AC
:100730000024C2E8534F03B1F5E710BD024652E86A
:10074000000F411E42E8001303B1F8E7704702466C
:1007500052E8000F10B9BFF32F8F7047411E42E8D7
:10076000001303B1F4E770470246D2E85F0F10B9F7
:10077000BFF32F8F7047411EC2E8531F03B1F4E748
:100780007047024652E8000F10B9BFF32F8F704731
:10079000016842E8001303B1F4E7704702680A6099
:1007A000BFF35F8F50E8002F0B689342F6D140E80B
:1007B000001303B1F2E770470246D2E84F0FC2E8D8
:1007C000431F03B1F9E77047024652E8000F40EAC1
:1007D000010042E8000303B1F7E7704710B5024695
:1007E00052E8000F20EA010442E8004303B1F7E7B2
:1007F00010BD10B5024652E8000F00EA01048C4219
:1008000003D0BFF32F8F002010BD20EA010442E87F
:10081000004303B1EFE710BD10B5024652E8000FE8
:10082000084203D1BFF32F8F002010BD20EA01043E
:1008300042E8004303B1F1E710BD024652E8000F61
:10084000411C42E8001303B1F8E7704710B50246B7
:10085000D2E85F0F814202D8BFF32F8F10BD441C36
:10086000C2E8534F03B1F3E710BD10B50246D2E81A
:100870005F0F441CA14200D80024C2E8534F03B1CB
:10088000F5E710BD024652E8000F411E42E8001392
:1008900003B1F8E77047024652E8000F10B9BFF302
:1008A0002F8F7047411E42E8001303B1F4E77047F1
:1008B0000246D2E85F0F10B9BFF32F8F7047411E79
:1008C000C2E8531F03B1F4E77047024652E8000F35
:1008D00010B9BFF32F8F7047016842E8001303B1CE
:1008E000F4E7704702680A60BFF35F8F50E8002F9B
:1008F0000B689342F6D140E8001303B1F2E770476A
:100900000246D2E84F0F411CC2E8431F03B1F8E78B
:100910007047024652E8000F411C42E8001303B141
:10092000F8E77047024652E8000F42E8001303B1AF
:10093000F9E77047024652E8000F830103D3BFF383
:100940002F8F0020704700F00040084342E800036A
:1009500003B1F0E77047024652E8000F800103D26E
:10096000BFF32F8F0020704742E8001303B1F3E775
:10097000012070470648804706480047FEE7FEE72B
:10098000FEE7FEE7FEE7FEE7FEE7FEE7FEE7FEE73F
:1009900051A10300810202001EF0040F0CBFEFF30F
:1009A0000880EFF30980816911F8021C91BB01B541
:1009B00090E80F10E047BDE800508CE80300244B9E
:1009C00093E80600914208BF704741B91EF0100F2E
:1009D00010D12049086820F0010008600AE02CE9E5
:1009E000F00F1EF0100F08BF2CED108AC1F838C0B0
:1009F00081F822E01A6092F82210906B61F0FF0EED
:100A00001EF0100F08BFB0EC108AB0E8F00F80F3B2
:100A100009887047104A13689942FAD801B552F80C
:100A200021C00FC8E047BDE80050CCF80000704777
:100A300001B524F0E9FBBDE80140EFF3098CBEE706
:100A400001B524F0F7FEBDE80140EFF3098CB6E7ED
:100A500074D6FE1F34EF00E0DC7204002DE9F05F75
:100A60000546002092469B4688460646814640241D
:100A70001BE0284641464746224600F0F8F9534617
:100A80005A46C01A914110D311461846224600F02A
:100A9000DFF92D1A67EB01084F462246012000219D
:100AA00000F0D6F917EB00094E41201EA4F1010415
:100AB000DFDC484631462A464346BDE8F09F40EA1F
:100AC00001039B0703D009E008C9121F08C0042ACC
:100AD000FAD203E011F8013B00F8013B521EF9D2B3
:100AE0007047D2B201E000F8012B491EFBD27047DB
:100AF0000022F6E710B513460A4604461946FFF7EA
:100B0000F0FF204610BD10B5002200E0521C835CAF
:100B10008C5CA34201D1002BF8D1D8B2E1B2401ACB
:100B200010BD2DE9FE4F81EA030404F0004421F0DA
:100B3000004100944FF0000B23F0004350EA010401
:100B40005ED052EA03045BD0C3F30A54C1F30A55E2
:100B50002C44A4F2F3340194A0FB0254C1F313011A
:100B600041F48011C3F3130343F4801301FB0244E7
:100B700000FB034E840A970A44EA815447EA8357EC
:100B8000A4FB076802958D0A05FB07854FEA932CA5
:100B900004FB0C542705029D4FEA065847EA163716
:100BA000B5EB08056EEB070C870E920E47EA81172E
:100BB00042EA8312A7FB0201B6EB0B0164EB0004CF
:100BC0002B0D43EA0C335E1844EB1C50DA465146B9
:100BD000E7FB0201C5F313044FEA0B3343EA145356
:100BE0004FEA0432019C43EA0603A4F10C04029488
:100BF000009CCDE900B400F090F903B0BDE8F08F9F
:100C000000200146F9E72DE9F04D81EA030404F0E4
:100C1000004B21F0004514464FF0000A23F000413C
:100C200050EA050220D054EA01021DD0C5F30A574C
:100C30000246C5F31303C1F31300C1F30A5640F48F
:100C4000801543F48013A7EB0608101BD64608F264
:100C5000FD3873EB050002D308F1010801E092189A
:100C60005B41B8F1000F03DA00200146BDE8F08DCA
:100C700000204FF48011064684460EE0171B73EBEC
:100C8000050705D3121B63EB050306434CEA010C71
:100C900049084FEA300092185B4150EA0107EDD154
:100CA00052EA030012D082EA040083EA05010843F5
:100CB00005D0101BAB4106D20122002306E0002222
:100CC0004FF0004302E06FF0010253101AEB0600F0
:100CD0004CEB085110EB0A0041EB0B01BDE8F04D65
:100CE00000F00CB90EB5C10F80EAE0700844CA07E5
:100CF000002140F233438DE80E000A460B4600F017
:100D00000CF903B000BD0EB540F233410291002151
:100D1000CDE900110A460B4600F0FFF803B000BD14
:100D20000EB540F2334202920022CDE90022134672
:100D300000F0F3F803B000BD20F00040C20DC0F396
:100D4000160040F400007F2A02DA002001467047B6
:100D50000021962A03DCC2F19602D0407047963AF1
:100D600000F076B800F0004230F000400AD0C10D2B
:100D700001F56071C0F3160042EA0151C208400754
:100D800011437047002001467047000030B5041E33
:100D900071F1000404DB4FF00044404264EB0101B8
:100DA000141E73F1000405DB1C464FF00043524251
:100DB00063EB04038B4208BF824230BD30B5041E92
:100DC00071F1000404DB4FF00044404264EB010188
:100DD000141E73F1000405DB1C464FF00043524221
:100DE00063EB0403994208BF904230BD01F0004319
:100DF00030B421F0004150EA010206D00A0DA2F5FC
:100E00006072C1F31301002A02DC30BC002070477D
:100E1000440F44EAC104C100E01830BC00EBC250EA
:100E200000F035B830B50B460146002020220124E1
:100E300009E021FA02F59D4205D303FA02F5491BA8
:100E400004FA02F52844151EA2F10102F1DC30BDBE
:100E5000202A04DB203A00FA02F10020704791407A
:100E6000C2F1200320FA03F3194390407047202A6F
:100E700004DB203A21FA02F00021704721FA02F344
:100E8000D040C2F120029140084319467047002922
:100E9000A8BF7047401C490008BF20F00100704700
:100EA00010B4B0FA80FC00FA0CF050EA010404BF60
:100EB00010BC704749B1CCF1200421FA04F411FAB6
:100EC0000CF118BF012121430843A3EB0C01CB1DFA
:100ED0004FEA00614FEA102042BF002010BC70476B
:100EE00000EBC35010440029A4BF10BC7047401C45
:100EF000490008BF20F0010010BC704710B5141E57
:100F000073F1000408DA401C41F1000192185B41C2
:100F10001A4301D120F0010010BD2DE9F04D924699
:100F20009B4611B1B1FA81F202E0B0FA80F22032B0
:100F30009046FFF78DFF04460F4640EA0A0041EA5B
:100F40000B0153465A46084313D0114653EA010099
:100F500019D0C8F140025046FFF789FF05460E46FA
:100F6000504659464246FFF773FF084305D001201B
:100F700004E020463946BDE8F08D0020054346EAEE
:100F8000E0762C4337430A986305E40AA0EB080097
:100F90000022FD0A44EA47540A3002D500200146E7
:100FA000E9E7010510196941DDE9084500196941C2
:100FB000BDE8F04DA2E72DE9FE4F804681EA03002F
:100FC000C00F0C46009021F0004123F00045B8EB23
:100FD0000200A94105D24046214690461C460B46D8
:100FE000024623F00040104347D0270DC7F30A0004
:100FF000C3F30A510290401A019040286BDAC3F300
:10100000130040F4801B0098924620B10023D2EBDD
:10101000030A63EB0B0B01985946C0F1400250469E
:10102000FFF716FF06460D4650465946019A00F056
:1010300093F810EB08006141002487EA115284EA1A
:10104000E7731A4340D0009A62B3019A012A4FEA2B
:10105000075215DC001B61EB02014FF0004202EA6F
:101060000752CDE90042001C41F5801132462B4663
:10107000FFF753FF03B0BDE8F08F40462146F9E784
:10108000001B61EB0201001C41F5801300185B415D
:101090002018A2F5001747EB030140EAD570B619F6
:1010A0006D4111E06D084FEA360645EAC0754FEA1A
:1010B0000752001B61EB0201001C41F58011490839
:1010C0004FEA30000019514132462B4603B0BDE8CB
:1010D000F04FFFF713BF0098012240000023D0EB30
:1010E000020263EBE073009821464FEAE074B8EB2C
:1010F000000061EB0401E9E783F000435BE781F066
:10110000004158E7C1F30A52C1F3130140F2FF3323
:1011100041F480119A4202DA00200146704740F201
:1011200033439A42A2F2334202DC5242FFF79FBE9F
:10113000FFF78EBE064C074D06E0E06840F0010365
:1011400094E8070098471034AC42F6D3FFF79CF8B8
:10115000E474040004750400202A06DBCB17203A4F
:1011600041FA02F043EAE07306E041FA02F3D040AC
:10117000C2F12002914008431946704770B58C189F
:1011800010F8015B15F0070301D110F8013B2A119B
:1011900006D110F8012B03E010F8016B01F8016B88
:1011A0005B1EF9D12B0705D40023521E0DD401F884
:1011B000013BFAE710F8013BCB1A921C03E013F84D
:1011C000015B01F8015B521EF9D5A142D8D3002082
:1011D00070BD10B518F04CFF23F07AFC002010BD54
:1011E0002DE9F04F85B0804615461C4600260020AC
:1011F0000390049000278146029001900090E02027
:10120000019020889DF8041041552088401C2080C2
:10121000FE48008818F8000002909DF80800012898
:1012200003DB9DF80800032815DD4FF008090120B5
:10123000009020889DF8081041552088401C20808F
:1012400020889DF8001041552088401C2080484689
:1012500005B0BDE8F08F9DF80800012804D00228F1
:101260004ED003287ED17EE2E948007800283CD1A8
:101270000120E749087022F0D3F823F091FC824660
:10128000E448006824F036FC0020E3490870E34895
:10129000006824F089FCE248006824F02BFCE14857
:1012A000006824F027FCE048006824F023FC0120BB
:1012B0001BF078FA4A2021F03DFA03201BF072FA65
:1012C000502021F037FA0F2021F034FA012021F0CC
:1012D00031FA022021F02EFA23F0B4FC834658465E
:1012E00023F078FC504623F075FC012022F098F89A
:1012F00020889DF8081041552088401C208041E23C
:10130000C3480078012869D1C8480078022803D072
:10131000C64800781628F6D1BC480088404440787A
:101320000006BA4909884144897800EB0140B74971
:1013300009884144C97800EB0120B4490988414437
:1013400009794618B1480088404450F8051F0391B8
:1013500040680490082203A9304604F033FE300EA2
:101360001C2800E00DE204D1F02000EA1640B0286D
:1013700035D0300E1C2804D1F02000EA1640A028F9
:101380002DD0300E1C2804D1F02000EA1640D028C1
:1013900025D00020A649087000E000BFA548007BCA
:1013A0000028FAD020889DF8081041552088401C5C
:1013B0002080208828449F49096801602088001DFA
:1013C0002080208828449B494A68026089684160DF
:1013D0002088083020800020964908737EE0300E77
:1013E0001C2839D1F02000EA1640A02834D1002072
:1013F0008F49087008E0781C87B2012022F010F8AD
:101400008C48007B00B102E0B7F5FA5FF3DB00BF68
:10141000B7F5FA5F1CDA20889DF80810415520883E
:10142000401C208020882844824909680160208867
:10143000001D2080208828447E494A68026089680F
:10144000416020880830208000207A49087345E0F8
:1014500001207749087041E0300E1C283BD1F02074
:1014600000EA1640D02836D100207149087008E003
:10147000781C87B2012021F0D3FF6E48007B00B1B9
:1014800003E040F6B8308742F2DB00BF40F6B830E8
:1014900087421CDA20889DF8081041552088401C9E
:1014A0002080208828446349096801602088001D45
:1014B0002080208828445F494A680260896841602A
:1014C00020880830208000205A49087306E0012057
:1014D0005749087002E00120554908704C480078CF
:1014E000012863D151480078012803D04F48007883
:1014F0000B28F6D14548008840444078000643490F
:1015000009884144897800EB0140404909884144F9
:10151000C97800EB01203D49098841440979461802
:101520003A480088404450F8051F039140680490F1
:10153000082203A9304604F045FD300E10283AD1A8
:10154000C6F30740512836D100203949087008E019
:10155000781C87B2642021F06DFF3648007B00B113
:1015600003E042F210708742F2DB00BF42F21070DB
:1015700087421CDA20889DF8081041552088401CBD
:101580002080208828442B49096801602088001D9C
:1015900020802088284427494A6802608968416081
:1015A000208808302080002022490873DAE00120DA
:1015B0001F490870D6E0300E102852D1C6F30740FC
:1015C00052284ED100201A49087009E0781C87B2D1
:1015D0004FF47A7021F02EFF1648007B00B103E033
:1015E00044F620608742F1DB00BF44F6206087426A
:1015F00033DA20889DF8081041552088401C20804F
:10160000208828440B490968016015E084D5FE1F35
:1016100050D5FE1F1CCEFE1F0008044054CEFE1FF6
:1016200024CEFE1F28CEFE1F3CCEFE1F88CEFE1FFE
:1016300067D5FE1F50DCFE1F2088001D20802088FB
:10164000284452494A68026089684160208808300D
:10165000208000204D49087384E001204C49087027
:1016600080E0300E10283BD1C6F30740552837D113
:1016700000204749087009E0781C87B24FF47A705F
:1016800021F0D8FE4148007B00B103E043F69820EA
:101690008742F1DB00BF43F6982087421CDA20889E
:1016A0009DF8081041552088401C2080208828443F
:1016B0003649096801602088001D20802088284460
:1016C00032494A6802608968416020880830208079
:1016D00000202E49087345E001202D49087041E0A3
:1016E000300E10283BD1C6F30740562837D10020D2
:1016F0002749087009E0781C87B24FF47A7021F00E
:1017000099FE2248007B00B103E043F6982087420F
:10171000F1DB00BF43F6982087421CDA20889DF851
:10172000081041552088401C2080208828441749F3
:10173000096801602088001D208020882844134902
:101740004A68026089684160208808302080002053
:101750000E49087306E001200D49087002E00120DF
:101760000B4908700EE002200A4908700020084961
:10177000087020889DF8081041552088401C208062
:1017800000E000BF00BF484662E5000050DCFE1FDD
:1017900067D5FE1F50D5FE1F7CB504460D46012CB3
:1017A0000ED14FF0815040EA052614A103C9CDE9BE
:1017B000000108236A463146124805F08BFB00BF42
:1017C000022C19D14FF6FF7000EAC5200E4940EAFD
:1017D000010600200090019001208DF800002020DB
:1017E0008DF8010005208DF8030008236A46314674
:1017F000044805F06FFB00BF7CBD000000620000E4
:1018000000000000008007400B0008C67CB50446BD
:101810000D46022C19D14FF6FF7000EAC5200B4986
:1018200040EA010600200090019001208DF80000A0
:1018300020208DF80100BE208DF8030008236A46A1
:101840003146034805F046FB00BF7CBD0B0008C6CF
:10185000008007407FB52B4E002002900390372078
:101860008DF8090033208DF80F000020264981F8FB
:1018700028000021244880F8291000240AE00823C9
:1018800002AA3146214805F025FBC82023F036F98D
:10189000601CC4B2032CF2DB1B4890F828003328EC
:1018A00002D1012004B070BD0020174981F8280042
:1018B0000021154880F82910154D00200090019056
:1018C00001208DF800001F208DF8030033208DF8D3
:1018D000070000240AE008236A4629460B4805F061
:1018E000F9FAC82023F00AF9601CC4B2032CF2DB19
:1018F000054890F82800332801D10220D2E70020C3
:10190000D0E7000000FF201088CEFE1F00800740B7
:101910000B0000C6F0B52DED028B81B00546B0EE90
:10192000408A284609F01AF99FED1B0AF0EE408A1A
:10193000002000909FED190A28EE000AF0EE408A80
:10194000B0EE040AF4EEC08AF1EE10FA03DDB0EE58
:10195000040AF0EE408A9FED120A28EE800AF0EEAB
:10196000040A80EE201ABCEEC10A8DED000A009830
:10197000000100906E460127002406E036F824207E
:1019800091B2286808F072FF641CBC42F6D300BF15
:1019900001B0BDEC028BF0BD000000004D32B23E44
:1019A00000F07F4510B504462078012817D1C10208
:1019B00005200CF0ADFA012021F03CFD4FF4006150
:1019C00005200CF0C1FB012021F034FD4FF4006133
:1019D00005200CF09DFA012021F02CFD19E0207863
:1019E000022816D1010305200CF092FA012021F003
:1019F00021FD4FF4005105200CF0A6FB012021F041
:101A000019FD4FF4005105200CF082FA012021F05D
:101A100011FD10BD10B54FF400400AF07BFB01280A
:101A20002AD1164800F0C4F80121144800F06CF8DF
:101A30000320134908704FF400400AF037FB1148A7
:101A40000078012818D1002014E00C49343151F8F5
:101A500020100D4A1268914207DA0849343151F8D2
:101A600020100A4A1268914202DC0221054A1170D4
:101A7000411CC8B20228E8DB10BD000024D2FE1FC2
:101A800020D2FE1FCCD2FE1FD4D2FE1FD0D2FE1F0A
:101A900010B501200AF03EFB012829D1154800F0BD
:101AA00087F80121134800F02FF80320124908702D
:101AB00001200AF0FBFA11480078012818D1002013
:101AC00014E00C49343151F820100D4A126891424B
:101AD00007DA0849343151F820100A4A1268914255
:101AE00002DC0221054A1170411CC8B20228E8DB61
:101AF00010BD000078D2FE1F20D2FE1FD8D2FE1FDC
:101B0000E0D2FE1FDCD2FE1F10B50A46511E274B45
:101B10001B88994217DD00210DE000F1140353F8F2
:101B20002140831C33F911301C4400F1140343F8A5
:101B300021404B1C99B20829EFD31C490988491C44
:101B40001A4B198030E000210DE000F1140353F826
:101B50002140831C33F911301C4400F1140343F875
:101B600021404B1C99B20829EFD300210BE000F172
:101B7000140353F8213093FBF2F400F1340343F8DB
:101B800021404B1C99B20829F1D3002106E0002422
:101B900000F1140343F821404B1C99B20829F6D3F5
:101BA00042820021014B198010BD0000E6D2FE1FC9
:101BB0002DE9F0410546002400262878012816D199
:101BC000012103200CF0A4F900BF09E0A81C00EBE0
:101BD00044010122244817F0B5FD0646601CC4B23A
:101BE000082CF3D3012103200CF0AEFA18E028787A
:101BF000022815D1022103200CF08AF9002409E003
:101C0000A81C00EB44010122174817F09BFD064673
:101C1000601CC4B2082CF3D3022103200CF094FA08
:101C2000F6B112480078401C104908700846007848
:101C3000022815DB00200EE00D4901EBC001D1E9BF
:101C400000214FF480473A43094B03EBC003C3E93B
:101C50000021411CC8B20828EEDB002003490870AF
:101C60003046BDE8F081000000C80140E5D2FE1F0B
:101C70008003FF1F00B591B00121880414F0FEFD20
:101C80000CA80CF0F9FA2020ADF836000CAA41019E
:101C900002200BF0ADFF0CAA4FF4805102200BF094
:101CA000A7FF0020ADF836004FF48060ADF83E008D
:101CB0000CAA410002200BF09BFF002313224FF4DB
:101CC000806102200CF0C0F9002313224FF4006160
:101CD00002200CF0B9F9002313224FF480510220A6
:101CE0000CF0B2F9114817F019FB01A817F03CFDF0
:101CF0000120019000200290082003900020049011
:101D00000590069003200790082008904FF440604B
:101D1000099000200A9001A9044817F0A1FB0121B5
:101D2000024817F047FB11B000BD000000C8014099
:101D300010B50446207814490870207801280FD186
:101D4000010305200CF0E4F8012021F073FB4FF4AF
:101D5000805105200CF0F8F9012021F06BFB11E017
:101D6000207802280ED1410305200CF0D1F8012083
:101D700021F060FB4FF4804105200CF0E5F90120D3
:101D800021F058FB10BD000020D2FE1F70477047A5
:101D9000704770477047704770477047704770478B
:101DA0007047704770477047704700002DE9F04159
:101DB00004460D46164600BF1548844205D0154816
:101DC000844202D01448844200D104E040F25F21F2
:101DD00012A008F055FF00BF00BF0EB1012E00D1C8
:101DE00004E04FF418710DA008F04AFF00BFD4F8CA
:101DF0000C80276948EA07000540012E03D160697D
:101E00002843606102E06069A8436061BDE8F08139
:101E10000000044000040440000804402E2E5C2E04
:101E20002E5C4C69627261726965735C647269767A
:101E300065725C7372635C68633332663461305F11
:101E40006164632E6300000070B505460C4600BF58
:101E50001448854205D01448854202D01348854273
:101E600000D104E040F2452111A008F009FF00BFB5
:101E700000BF34B12CB124B11CB114B10CB104B108
:101E800004B904E040F2462109A008F0F9FE00BFC1
:101E900068884FF6FF01084004F4E0610843688059
:101EA00070BD00000000044000040440000804402D
:101EB0002E2E5C2E2E5C4C69627261726965735CB9
:101EC0006472697665725C7372635C6863333266F0
:101ED0003461305F6164632E630000002DE9F04FD0
:101EE00085B004460E4615469846DDF838A04FF0FA
:101EF0000009CB463A4A07CA01AF07C70420009041
:101F0000B8F1000F68D000BF3648844205D036488B
:101F1000844202D03548844200D104E040F20721D7
:101F200033A008F0ADFE00BF00BF0EB1012E00D1FE
:101F300004E04FF402712EA008F0A2FE00BF00BF23
:101F4000BAF1000F02D0BAF1010F00D104E040F263
:101F5000092127A008F094FE00BF04F10C0000EB5B
:101F60008607143004902046C0F3872001A951F859
:101F700020000540BAF1010F29D1386828433860A4
:101F800022E005F00100B8B100BF18F80B000528E9
:101F900000D304E040F2172115A008F071FE00BF45
:101FA00018F80B10049800F80910B9F1100F03D2BB
:101FB0000BF1010000F0FF0B6D08B9F1100F03D217
:101FC00009F1010000F0FF09002DDAD102E03868C4
:101FD000A843386000200090009805B0BDE8F08F5D
:101FE0001C6C04000000044000040440000804408D
:101FF0002E2E5C2E2E5C4C69627261726965735C78
:102000006472697665725C7372635C6863333266AE
:102010003461305F6164632E630000002DE9F04796
:1020200005460C4690464FF0000A00BF2548854201
:1020300005D02548854202D02448854200D104E0DD
:1020400040F2FF4122A008F01BFE00BF00BFB8F124
:102050000F0F00D804E04FF4A0611DA008F010FE9F
:1020600000BF00BF3CB14FF6FF7020434FF6FF7139
:10207000884200D104E040F2015115A008F000FEB2
:1020800000BF05F1380918E004F0010090B14FEAF3
:102090009A064FEA8A70070F39F816000F21B940E7
:1020A000884308FA07F10F22BA4092B21140084360
:1020B00029F8160064080AF1010A002CE4D1BDE8F1
:1020C000F0870000000004400004044000080440C1
:1020D0002E2E5C2E2E5C4C69627261726965735C97
:1020E0006472697665725C7372635C6863333266CE
:1020F0003461305F6164632E630000002DE9F047B6
:1021000005460C46002600BF2148854205D02148DF
:10211000854202D02048854200D104E040F22C5193
:102120001EA008F0ADFD00BF00BF3CB14FF6FF7030
:1021300020434FF6FF71884200D104E040F22D5158
:1021400016A008F09DFD00BF00BF1CB1601E20401E
:1021500000B904E040F22E5110A008F091FD00BF3C
:1021600000E0761C0120B04020400028F9D0B708DC
:10217000B0074FEA107A05F1380000EB4708B8F8CD
:10218000000040FA0AF000F00F094846BDE8F08769
:102190000000044000040440000804402E2E5C2E81
:1021A0002E5C4C69627261726965735C64726976F7
:1021B00065725C7372635C68633332663461305F8E
:1021C0006164632E6300000070B505460C4604266A
:1021D000002C65D000BF3348854205D03248854287
:1021E00002D03248854200D104E04FF4A57130A0FE
:1021F00008F046FD00BF00BF208840B120880128BC
:1022000005D02088022802D02088032800D104E0CD
:1022100040F24B1126A008F033FD00BF00BF6088DC
:10222000202804D06088102801D0608800B904E01C
:102230004FF4A6711EA008F023FD00BF00BFA088C8
:1022400010B1A088402800D104E040F24D1118A040
:1022500008F016FD00BF00BFE08810B1E0888028BC
:1022600000D104E04FF4A77111A008F009FD00BFF0
:1022700000BF208910B12089042800D104E040F279
:102280004F110BA008F0FCFC00BF208861880843B8
:10229000A1880843E188084368802089A880002637
:1022A000304670BD000004400004044000080440B3
:1022B0002E2E5C2E2E5C4C69627261726965735CB5
:1022C0006472697665725C7372635C6863333266EC
:1022D0003461305F6164632E630000001CB501202F
:1022E00001900020009001236A4601A9014817F0DF
:1022F00051FA1CBD00C4014070B504460D460026CD
:1023000005EB0410C6B23146012000F051FB70BD50
:102310002DE9F04188B00024002500260027A046C2
:102320000020079006908DF814008DF815008DF8A8
:1023300016008DF8100008208DF8110000208DF88F
:102340000C008DF80D008DF80E00D02002900120B9
:102350008DF800008DF801008DF802008DF8030063
:1023600000208DF8040001208DF8050000208DF874
:10237000060001208DF807009DF814009DF8151047
:1023800008439DF8161040EA01049DF811009DF8DD
:10239000101040EA0110C5B29DF80C009DF80D1018
:1023A00008439DF80E1040EA01069DF808709DF85C
:1023B0000000C0019DF8011040EA81109DF8021054
:1023C00040EA41109DF8031040EA01109DF8041006
:1023D00040EAC1009DF8051040EA81009DF8061012
:1023E00040EA41009DF80710084300F0FF08502024
:1023F0000790012306AA07A9184817F0CBF9042073
:102400000790012306AA07A9144817F0C3F90794F7
:10241000012306AA07A9114817F0BCF90795012363
:1024200006AA07A90D4817F0B5F90796012306AAD1
:1024300007A90A4817F0AEF90797012306AA07A9CA
:10244000064817F0A7F9CDF81C80012306AA07A9B2
:10245000024817F09FF908B0BDE8F08100C40140C0
:102460002DE9F05F05460E4617461C46DDF828901C
:102470004FF0000A00BF4FF0040B4FF4C87004FB8C
:1024800000F876B106F0010080F0010048B147B1D4
:1024900007F0010080F0010018B114B1B8F1000F8D
:1024A00003D101208346BDE8F09F287808B90120B8
:1024B000287014E099F8000001280ED1002089F856
:1024C000000006EB0A1010223946FEF7F8FA0AF16E
:1024D000010000F0FF0A601EC4B2A8F1010814B1A7
:1024E000B8F1000FE6D12CB9B8F1000F02D04FF0CF
:1024F000000B03E04FF00A0B002028705846D2E78B
:10250000012902D10122027002E009B90022027001
:102510007047000010B50848007800F01BF8064826
:102520000078401C0449087008460078282801D12A
:102530000020087010BD0000EDCFFE1F01460420F2
:1025400031B100220A804A808A80CA800A81002034
:1025500070470000F0B52DED028B81B006465A2081
:1025600008EE100A0A2096FBF0F030B1012868D07E
:10257000022879D0032878D12DE1042107200BF01F
:10258000C7FC082107200BF0C3FCE3480A23E34AF9
:10259000E3490090E348FFF763FFC0B100200EE07D
:1025A000E14901EBC001D1E900214FF480431A4316
:1025B000DD4B03EBC003C3E90021411CC8B2DB497A
:1025C00009788842ECDB8521D9A00AF001FABEB176
:1025D000002413E000250DE0DD4850F8250005EB50
:1025E000C401CF4A32F811100844D94941F82500F6
:1025F000681CC5B2082DEFDB601CC4B20A2CE9DBF5
:10260000092E1DD1D24890ED040AB8EE400AF8EE2A
:10261000480A80EE201ACF4880ED001ACC4890ED91
:10262000050AB8EE400AF8EE480A80EE201AC948BA
:1026300080ED011A0020C649086148618861C861BF
:102640002FE1042107200BF07FFD082107200BF06C
:102650005FFCB1480A23B14ABF490090B148FFF777
:10266000FFFEC0B100200EE050E019E1AE4901EBE1
:10267000C00206CA4FF480473943AB4B03EBC0039B
:1026800006C3411CC8B2A94909788842EEDBAA21D9
:10269000A7A00AF09DF90A2E17D0002413E0002508
:1026A0000DE0AB4850F8250005EBC401AA4A32F80A
:1026B00011100844A64941F82500681CC5B2082D30
:1026C000EFDB601CC4B20A2CE9DB132E1DD1A0483D
:1026D00090ED040AB8EE400AF8EE480A80EE201A9F
:1026E0009C4880ED021A9A4890ED050AB8EE400A1F
:1026F000F8EE480A80EE201A964880ED031A002072
:102700009349086148618861C861CAE004210720D3
:102710000BF0FEFB082107200BF016FD7E480A2374
:102720007E4A8E4900907F48FFF79AFEC0B1002094
:102730000EE07D4901EBC001D1E900214FF4804753
:102740003A43794B03EBC003C3E90021411CC8B2F3
:10275000764909788842ECDBD02175A00AF038F977
:10276000142E17D0002413E000250DE0784850F80F
:10277000250005EBC401794A32F811100844744968
:1027800041F82500681CC5B2082DEFDB601CC4B2FF
:102790000A2CE9DB1D2E1DD16D4890ED040AB8EE20
:1027A000400AF8EE480A80EE201A6A4880ED041AC2
:1027B000674890ED050AB8EE400AF8EE480A80EE48
:1027C000201A644880ED051A0020614908614861BB
:1027D0008861C86165E0042107200BF0B5FC082181
:1027E00007200BF0B1FC4C480A234C4A5C4900908E
:1027F0004C48FFF735FEC0B100200EE04A4901EB1E
:10280000C001D1E900214FF480473A43464B03EB26
:10281000C003C3E90021411CC8B244490978884279
:10282000ECDBF42142A00AF0D3F81E2E17D00024CE
:1028300013E000250DE0464850F8250005EBC401E3
:10284000474A32F811100844414941F82500681CF4
:10285000C5B2082DEFDB601CC4B20A2CE9DB272EC1
:102860001DD13B4890ED040AB8EE400AF8EE480A44
:1028700080EE201A374880ED061A354890ED050A9B
:10288000B8EE400AF8EE480A80EE201A314880ED92
:10289000071A00202E49086148618861C86100E07C
:1028A00000BF00BF2A4890ED000AB8EE400AF2EEE1
:1028B000040A80EE201A2B4880ED001A244890ED7F
:1028C000010AB8EE400AF2EE040A80EE201A264809
:1028D00080ED001A1E4890ED020AB8EE400AF2EEB2
:1028E000040A80EE201A214880ED001A184890ED65
:1028F000030AB8EE400AF2EE040A80EE201A1C48E1
:1029000080ED001A00201249086048608860C860A5
:1029100001B0BDEC028BF0BDECCFFE1F00DDFE1F51
:1029200010DDFE1F000804408003FF1FECCDFE1FDA
:102930002E2E5C2E2E5C557365725C4253505C7378
:1029400072635C6273705F616463332E63000000C6
:1029500090DFFE1FE0DCFE1FB0DDFE1F50DEFE1F1D
:10296000F0DEFE1FDCCFFE1FE0CFFE1FE4CFFE1F18
:10297000E8CFFE1F00B585B068460BF07DFC002057
:10298000ADF800000220ADF802002020ADF80600EE
:102990000020ADF804006A46042107200BF028F956
:1029A0006A46082107200BF023F905B000BD00009E
:1029B0007CB504460D460020019000905026264329
:1029C0008DF804608DF8065003236A4601A9024879
:1029D00016F0E0FE7CBD000000C401402DE9FC477C
:1029E00004460D464FF0000C002001900027009097
:1029F00000268B20009018889DF8001081541888BC
:102A0000401C1880002067E00121814001F0FF0890
:102A10003449897901EA080100295CD0DFF8C890BF
:102A2000B9F8001053E014F80190CDF804909DF827
:102A30000490B9F1000F04DD9DF80490B9F1050F81
:102A400020DB4FF0FF36B3F800909DF804A009F8A2
:102A500002A0B3F8009009F10109A3F80090B3F8BF
:102A600000909144C9F80060B3F8009009F104099E
:102A7000A3F800909DF80490B9F1FF0F01D04FF03A
:102A8000080C23E09DF80490A9F1010909F0FF0763
:102A9000DFF8589009EB001959F82760B3F8009057
:102AA0009DF804A009F802A0B3F8009009F101090B
:102AB000A3F80090B3F800909144C9F80060B3F80F
:102AC000009009F10409A3F8009000BF491CA5F18A
:102AD00004098945A7DC401C082895DB6046BDE851
:102AE000FC870000AC3BFF1F84D5FE1F9838FF1FFA
:102AF0000EB517A103C9CDE9010109220421164829
:102B0000FFF78CFA0E2208211348FFF787FA0F22ED
:102B100010211148FFF782FA042220210E48FFF706
:102B20007DFA3C210C4800F0D3F8012001AB3C2297
:102B3000002100900848FFF7D1F900210648FFF76F
:102B400083F901223C210448FFF730F90EBD000053
:102B50001E1E1E1E1E1E1E1E0008044010B54FF431
:102B60008131142004F0E0FC002004F00DFF10BDC2
:102B700000B58DB001214FF4203013F02DFE4FF43D
:102B8000F47200211C4808F0F3FA05A808F03AFB9B
:102B90004FF4805005900820099000200A904FF4CF
:102BA00080700890154807901548069001200B90FA
:102BB00004200C9005AA00210F4808F08DF901A807
:102BC00008F0CAFA102001900820029020200390FB
:102BD0000820049001AA0021074808F033FA00F009
:102BE00011F80121044808F041F9012200210248AE
:102BF00008F0B0F80DB000BD0034054000DDFE1F48
:102C0000500804401CB54820ADF800000A20ADF87B
:102C100002001D48019068460CF0E6FF4FF4803139
:102C20001A4808F0E5F80A20002807DB00F01F0228
:102C300001219140164A430942F8231000BF0A209F
:102C40000221002804DB0A07130E124A135406E07F
:102C50000A07140E104A00F00F031B1FD45400BFC4
:102C60000A2000280DDB00BF00BF00F01F02012179
:102C700091404209920002F1E022C2F8001100BF27
:102C800000BF00BF1CBD000021AD020000340540A4
:102C900080E200E000E400E018ED00E00EB56846D8
:102CA000FFF74CFC4020ADF804000020ADF8060012
:102CB000ADF802000120ADF800000121042013F05E
:102CC00065FE69460148FFF77FFA0EBD0008044023
:102CD0002DE9F04106460C46002510E004F0010005
:102CE00050B1012000FA05F13046FFF707FA074618
:102CF0003946304600F008F86408681CC5B2002C5C
:102D0000ECD1BDE8F081000030B5A9B005460C4615
:102D10004022164914A8FDF7D2FE50221349403133
:102D20006846FDF7CCFE24A80BF0A6FA4FF400404D
:102D3000ADF8A2000E48854202D00E4885420AD165
:102D400014AA02EB8402518814AA12F8240024AABF
:102D50000AF04EFF08E06A4602EB840251881DF833
:102D6000240024AA0AF044FF29B030BDC071040039
:102D700000000440000404402DE9F04F89B0002712
:102D8000B846B946BA461422F9A104A8FDF797FE41
:102D900008F067FD21F004FF039011224FF4F94180
:102DA00004A821F07DF921F04DFF0290029821F056
:102DB00011FF039821F00EFF09F01EFC4420F14999
:102DC00008704FF0000B0DE0EF4911F80B000A21DD
:102DD00006F014FFEC4911F80B00062106F00EFF77
:102DE0000BF1010BE94800788345EDDB0024002559
:102DF00000200AE0012181402143CCB2411C012284
:102E000002FA01F12943CDB2801CE04909788842D9
:102E1000F0DBDF480078012834D1F2EE040AB7EE87
:102E2000000A00221146284606F06CFD4FF47A7025
:102E300021F064FEDFEDD70AB1EE020A0022012183
:102E4000204606F05FFD4FF47A7021F057FEDFED6B
:102E5000D20AB1EE020A00220121204606F052FDFC
:102E60004FF47A7021F04AFEDFEDCC0AB7EE000A8B
:102E700000221146284606F045FD41F2883021F037
:102E80003DFE33E0F2EE040AB7EE000A00221146DE
:102E9000284606F037FD4FF47A7021F02FFEDFED63
:102EA000C00AB1EE020A00220121204606F02AFDE6
:102EB0004FF47A7021F022FEDFEDBA0AB1EE020A79
:102EC00000220121204606F01DFD4FF47A7021F00A
:102ED00015FEDFEDB50AB7EE000A002211462846BE
:102EE00006F010FD41F2883021F008FE0120AF49C4
:102EF00008700020AE4908602DE1AE480078002837
:102F000076D1AB480068B0F5FA7F72D9002218E19B
:102F1000A848007800286DD11046511C9C4B1B78A6
:102F2000012B68D1A44B03EB800393ED000AF1EE73
:102F3000000AB4EEE00AF1EE10FA5DDD9E4B03EB01
:102F4000800393ED000AF1EE040AB4EEE00AF1EE1C
:102F500010FA51D2984B03EB810393ED000AF1EE86
:102F6000000AB4EEE00AF1EE10FA45DD924B03EBF5
:102F7000810393ED000AF1EE040AB4EEE00AF1EEEB
:102F800010FA39D28C4B203B03EB800393ED000AFF
:102F9000DFED8A0AB4EEE00AF1EE10FA2CDD864B82
:102FA000203B03EB800393ED000ADFED7B0AB4EED8
:102FB000E00AF1EE10FA1FD27F4B203B03EB8103B6
:102FC00093ED000ADFED7D0AB4EEE00AF1EE10FAAF
:102FD00012DD794B203B03EB810393ED000ADFED1B
:102FE0006E0AB4EEE00AF1EE10FA05D2012304E015
:102FF000ADE0ADE0A3E01EE00023002B1AD1704B42
:103000001B5C43F00203DFF8B8C10CF800306346E4
:103010005B5C43F002030CF80130664B1B7843F015
:103020000203DFF890C18CF800300123DFF894C16F
:103030008CF8003082E0604B03EB800393ED000AD4
:10304000F1EE000AB4EEE00AF1EE10FA59DD5A4B47
:1030500003EB800393ED000AF1EE040AB4EEE00AFC
:10306000F1EE10FA4DD2544B03EB810393ED000ABD
:10307000F1EE000AB4EEE00AF1EE10FA41DD4E4B3B
:1030800003EB810393ED000AF1EE040AB4EEE00ACB
:10309000F1EE10FA35D2484B203B03EB800393ED61
:1030A000000ADFED490AB4EEE00AF1EE10FA28DD7D
:1030B000414B203B03EB800393ED000ADFED390A1F
:1030C000B4EEE00AF1EE10FA1BD23B4B203B03EBCF
:1030D000810393ED000ADFED3C0AB4EEE00AF1EE65
:1030E00010FA0EDD344B203B03EB810393ED000A15
:1030F000DFED2C0AB4EEE00AF1EE10FA01D2012362
:1031000000E00023D3B92E4B1B5C43F00203DFF831
:10311000B0C00CF8003063465B5C43F002030CF86F
:103120000130244B1B7843F00203DFF888C08CF891
:1031300000300123DFF88CC08CF8003000E005E09F
:10314000921C124800788242FFF6E2AE00E008E0EE
:103150000A2021F0D3FC164800681C498842FFF47D
:10316000CCAE00BF00201149087000BF98E00000FD
:10317000FFFFFFFFFFFFFFFFFFFFFFFFFFFFFFFF5F
:10318000FF000000D8D3FE1FFECFFE1FF8CDFE1FAC
:10319000ECCDFE1F000048420000A0420000964215
:1031A000000070420000FA420000F042F4D3FE1F1B
:1031B000F8D3FE1FD9D3FE1F1C3BFF1F00008C421B
:1031C000DBD3FE1FDAD3FE1F0000E642C07A1000F8
:1031D000FE4901EBC001D1E900214FF0005C02EA99
:1031E0000C0200214A4049400A4309D0012704AAA1
:1031F000411C515C3944CAB204AB411C5A544DE0E5
:10320000F24901EBC001D1E900214FF0004C02EA84
:103210000C0200214A4049400A430AD04FF00208FC
:1032200004AA411C515C4144CAB204AB411C5A542B
:1032300034E0E64901EBC001D1E900214FF0804CB8
:1032400002EA0C0200214A4049400A430AD04FF0EA
:10325000040904AA411C515C4944CAB204AB411C94
:103260005A541BE0D94901EBC001D1E900210123E7
:10327000002219401346524059400A430AD04FF0E9
:10328000080A04AA411C515C5144CAB204AB411C57
:103290005A5403E0002204AB411C5A54411CC8B2EA
:1032A000CB490978884293DB0F2006F0BDFAF02065
:1032B00006F0BAFA0024002500200AE0012181402E
:1032C0002943CDB2411C012202FA01F12143CCB2C3
:1032D000801CBF4909788842F0DBBE48007801288D
:1032E00034D1F2EE040AB7EE000A00221146284655
:1032F00006F008FB4FF47A7021F000FC5FED5B0AEA
:10330000B1EE020A00220121204606F0FBFA4FF43A
:103310007A7021F0F3FB5FED600AB1EE020A002241
:103320000121204606F0EEFA4FF47A7021F0E6FB18
:103330005FED660AB7EE000A00221146284606F045
:10334000E1FA41F2883021F0D9FB33E0F2EE040AD1
:10335000B7EE000A00221146284606F0D3FA4FF4D1
:103360007A7021F0CBFB5FED720AB1EE020A002207
:103370000121204606F0C6FA4FF47A7021F0BEFB18
:103380005FED780AB1EE020A00220121204606F024
:10339000B9FA4FF47A7021F0B1FB5FED7D0AB7EE18
:1033A000000A00221146284606F0ACFA41F28830A5
:1033B00021F0A4FB0120884908700020874908609B
:1033C00043E187480078002876D184480068B0F54A
:1033D000FA7F72D900222EE18148007800286DD151
:1033E0001046511C7B4B1B78012B68D17D4B03EBA6
:1033F000810393ED000AF1EE000AB4EEE00AF1EE6B
:1034000010FA5DDD774B03EB810393ED000AF1EEDB
:10341000040AB4EEE00AF1EE10FA51D2714B03EB5C
:10342000800393ED000AF1EE000AB4EEE00AF1EE3B
:1034300010FA45DD6B4B03EB800393ED000AF1EED0
:10344000040AB4EEE00AF1EE10FA39D2654B203BE3
:1034500003EB810393ED000A5FEDA80AB4EEE00AE6
:10346000F1EE10FA2CDD5F4B203B03EB810393ED73
:10347000000A5FEDB70AB4EEE00AF1EE10FA1FD2CF
:10348000584B203B03EB800393ED000A5FEDB50A38
:10349000B4EEE00AF1EE10FA12DD524B203B03EBE2
:1034A000800393ED000A5FEDC40AB4EEE00AF1EE8A
:1034B00010FA05D2012304E0C3E0C3E0B9E01DE047
:1034C0000023EBBB484B5B5C43F00203DFF818C101
:1034D0000CF8013063461B5C43F002030CF800302B
:1034E0003F4B1B7843F00203DFF8F4C08CF8003048
:1034F0000123DFF8F8C08CF8003099E0394B03EB7A
:10350000810393ED000AF1EE000AB4EEE00AF1EE59
:1035100010FA70DD334B03EB810393ED000AF1EEFB
:10352000040AB4EEE00AF1EE10FA64D22D4B03EB7C
:10353000800393ED000AF1EE000AB4EEE00A00E029
:1035400076E0F1EE10FA56DD264B03EB800393EDA7
:10355000000AF1EE040AB4EEE00AF1EE10FA4AD2E3
:10356000204B203B03EB810393ED000A5FEDEA0A59
:10357000B4EEE00AF1EE10FA3DDD1A4B203B03EB0E
:10358000810393ED000A5FEDF90AB4EEE00AF1EE73
:1035900010FA30D2134B203B03EB800393ED000A6B
:1035A0005FEDF70AB4EEE00AF1EE10FA23DD0D4B01
:1035B000203B03EB800393ED000ADFED0D0AB4EE30
:1035C000E00AF1EE10FA16D2012315E08003FF1F86
:1035D000F8CDFE1FECCDFE1FF4D3FE1FF8D3FE1F67
:1035E000D9D3FE1F1C3BFF1FDBD3FE1FDAD3FE1F08
:1035F0000000FA42FFE70023D3B97B4B5B5C43F04A
:103600000203DFF8E4C10CF8013063461B5C43F0B1
:1036100002030CF80030754B1B7843F00203DFF80F
:10362000CCC18CF800300123DFF8C4C18CF8003025
:1036300000E005E0921C6F4800788242FFF6CCAEB5
:1036400000E008E00A2021F059FA6B4800686B4955
:103650008842FFF4B6AE00BF00206949087000BF81
:103660006CE0684901EBC00206CA4FF0005C01EA59
:103670000C0100225140524011430BD0012704AAF3
:1036800000F10901515C3944CAB204AB00F10901EF
:103690005A5451E05B4901EBC00206CA4FF0004C9E
:1036A00001EA0C0100225140524011430CD04FF06E
:1036B000020804AA00F10901515C4144CAB204ABFA
:1036C00000F109015A5437E04E4901EBC00206CA25
:1036D0004FF0804C01EA0C0100225140524011434E
:1036E0000CD04FF0040904AA00F10901515C4944CF
:1036F000CAB204AB00F109015A541DE0414901EB83
:10370000C00206CA012300211A400B4649405A4014
:1037100011430CD04FF0080A04AA00F10901515CD2
:103720005144CAB204AB00F109015A5404E000222A
:1037300004AB00F109015A54411CC8B22D49097863
:1037400088428EDB204606F06FF8284606F06CF8BB
:10375000002600200190012006E004A9095C09B9B7
:10376000711CCEB2411CC8B222490978B0EB410F9E
:10377000F3DD20480078B6EB400F03D100208DF830
:10378000100014E0012247F6814101A820F014FC4A
:10379000012247F682410DF1050020F00DFC9DF855
:1037A00004009DF805100844C0B28DF8100008F020
:1037B00058F821F0F5F9039011224FF4F94104A8CB
:1037C00020F06EFC21F03EFA0290029821F002FAFD
:1037D000039821F0FFF908F00FFF00200A49087054
:1037E00009B0BDE8F08F0000DBD3FE1FD9D3FE1F68
:1037F000DAD3FE1FF8CDFE1FF8D3FE1FC07A1000EB
:10380000F4D3FE1F8003FF1FFCD3FE1F2DE9F04FF2
:1038100087B0002500260027A8461422F8A102A898
:10382000FDF74DF9FB48007804282CD140210120F8
:103830000AF08AFC802101200AF086FCAB461FE0DA
:1038400058460BEBD0714910ABEB410131B9F2494D
:1038500011F80B00062106F0D1F90DE058460BEBEC
:10386000D0714910ABEB4101012905D1EA4911F8AA
:103870000B00052106F0C2F90BF1010000F0FF0B6F
:10388000BBF1080FDCDB07F0ECFF21F089F9814682
:1038900011224FF4F94102A820F002FC21F0D2F9E4
:1038A0008246504621F096F9484621F093F908F0F7
:1038B000A3FE4420D9490870F2EE040AB7EE000ACC
:1038C00000221146CC2006F01DF84FF47A7021F04A
:1038D00015F9DFEDD30AB1EE020A002201213320EF
:1038E00006F010F84FF47A7021F008F9DFEDCD0AF8
:1038F000B1EE020A00220121332006F003F84FF452
:103900007A7021F0FBF8DFEDC80AB7EE000A00225A
:103910001146CC2005F0F6FF41F2883021F0EEF898
:103920000120C24908700020C1490860A3E0C148D5
:103930000078002872D1BE480068B0F5FA7F6ED9D1
:1039400000218EE0BB480078002869D108464A1C57
:10395000B94B03EB800393ED000AF1EE000AB4EEDD
:10396000E00AF1EE10FA5CDDB34B03EB800393ED5C
:10397000000AF1EE040AB4EEE00AF1EE10FA50D2B9
:10398000AD4B03EB820393ED000AF1EE000AB4EEB7
:10399000E00AF1EE10FA44DDA74B03EB820393ED4E
:1039A000000AF1EE040AB4EEE00AF1EE10FA38D2A1
:1039B000A14B203B03EB800393ED000ADFED9F0A50
:1039C000B4EEE00AF1EE10FA2BDD9B4B203B03EB4B
:1039D000800393ED000ADFED9A0AB4EEE00AF1EEFF
:1039E00010FA1ED2944B203B03EB820393ED000AA6
:1039F000DFED920AB4EEE00AF1EE10FA11DD8E4B23
:103A0000203B03EB820393ED000ADFED8D0AB4EE59
:103A1000E00AF1EE10FA04D2012303E027E027E0E8
:103A20001DE00023D3B9874B1B5C43F00203DFF892
:103A300014C20CF8003063469B5C43F002030CF8A0
:103A400002307C4B1B7843F00203DFF8E8C18CF8AE
:103A500000300123DFF8F0C18CF8003000E005E011
:103A6000891C7A4800788142FFF66CAF00E008E0DC
:103A70000A2021F043F86E48006875498842FFF437
:103A800056AF00BF00206949087000BF61E071496E
:103A900001EBC00206CA4FF0005C01EA0C010022F3
:103AA00051405240114309D0012502AA411C515CEA
:103AB0002944CAB202AB411C5A5448E0654901EBA3
:103AC000C001D1E900214FF000431A4000214A40D3
:103AD00049400A4309D0022602AA411C515C3144E4
:103AE000CAB202AB411C5A5431E05A4901EBC00240
:103AF00006CA4FF0804C01EA0C01002251405240AE
:103B0000114309D0042702AA411C515C3944CAB2AE
:103B100002AB411C5A541AE04E4901EBC00206CADE
:103B2000012300211A400B4649405A4011430AD054
:103B30004FF0080802AA411C515C4144CAB202ABD2
:103B4000411C5A5403E0002202AB411C5A54411C50
:103B5000C8B23E490978884299DBCC2005F064FE62
:103B60004FF4967020F0CAFF332005F05DFEC820A8
:103B700020F0C4FFF2EE040AB7EE000A002211465C
:103B8000332005F0BFFE4FF47A7020F0B7FFDFED71
:103B9000240AB1EE020A00220121CC2005F0B2FE77
:103BA0004FF47A7020F0AAFFDFED1E0AB1EE020A90
:103BB00000220121CC2005F0A5FE4FF47A7020F000
:103BC0009DFFDFED190AB7EE000A002211463320EF
:103BD00005F098FE41F2883020F090FF0120134953
:103BE0000870002012490860D1E0124800780028CF
:103BF0007CD10F480068B0F5FA7F78D90022BCE08C
:103C0000FFFFFFFFFFFFFFFFFFFFFFFFFFFFFFFFC4
:103C1000FF000000ECCDFE1FFECFFE1FD8D3FE1F1D
:103C2000000070420000FA420000F042F4D3FE1F90
:103C3000F8D3FE1FD9D3FE1F1C3BFF1F0000DC4240
:103C400000000243DBD3FE1FDAD3FE1FF8CDFE1FB8
:103C5000C07A10008003FF1FB648007800287DD18D
:103C60001046511CB44B03EB810393ED000AF1EEB7
:103C7000000AB4EEE00AF1EE10FA5CDDAE4B03EBA5
:103C8000810393ED000AF1EE040AB4EEE00AF1EECE
:103C900010FA50D2A84B03EB800393ED000AF1EE2B
:103CA000000AB4EEE00AF1EE10FA44DDA24B03EB99
:103CB000800393ED000AF1EE040AB4EEE00AF1EE9F
:103CC00010FA38D29C4B203B03EB810393ED000AA2
:103CD0005FED260AB4EEE00AF1EE10FA2BDD964B0A
:103CE000203B03EB810393ED000A01E04BE04BE046
:103CF0005FED2D0AB4EEE00AF1EE10FA1BD28E4B06
:103D0000203B03EB800393ED000A5FED340AB4EE31
:103D1000E00AF1EE10FA0EDD874B203B03EB800347
:103D200093ED000A5FED3A0AB4EEE00AF1EE10FA04
:103D300001D2012300E00023E3B9804B5B5C43F038
:103D40000203DFF8F8C10CF8013063461B5C43F056
:103D500002030CF80030774B1B7800E00BE043F0D7
:103D60000203DFF8D0C18CF800300123DFF8D0C1A6
:103D70008CF8003000E005E0921C72480078824226
:103D8000FFF66AAF00E008E00A2020F0B7FE6E48B8
:103D900000686E498842FFF428AF00BF00206C49DC
:103DA000087000BF6AE06B4901EBC00206CA4FF021
:103DB000005C01EA0C0100225140524011430BD03B
:103DC000012502AA00F10901515C2944CAB202ABE3
:103DD00000F109015A544FE05E4901EBC00206CAE6
:103DE0004FF0004C01EA0C010022514052401143B7
:103DF0000BD0022602AA00F10901515C3144CAB27B
:103E000002AB00F109015A5436E0524901EBC002FD
:103E100006CA4FF0804C01EA0C010022514052408A
:103E200011430BD0042702AA00F10901515C394467
:103E3000CAB202AB00F109015A541DE0454901EB39
:103E4000C00206CA012300211A400B4649405A40CD
:103E500011430CD04FF0080802AA00F10901515C8F
:103E60004144CAB202AB00F109015A5404E00022F5
:103E700002AB00F109015A54411CC8B2314909781A
:103E8000884290DB332005F0CFFC4FF4967020F091
:103E900035FECC2005F0C8FCC82020F02FFE002401
:103EA00000200190012006E002A9095C09B9611C0B
:103EB000CCB2411CC8B223490978B0EB410FF3DD05
:103EC00020480078B4EB400F03D100208DF80800A3
:103ED00014E0012247F6814101A820F06DF801228B
:103EE00047F682410DF1050020F066F89DF80400C8
:103EF0009DF805100844C0B28DF8080007F0B1FC29
:103F000020F04EFE814611224FF4F94102A820F024
:103F1000C7F820F097FE8246504620F05BFE4846E8
:103F200020F058FE08F068FB00200B49087007B02D
:103F3000BDE8F08FD9D3FE1F1C3BFF1FDBD3FE1F54
:103F4000DAD3FE1FF8CDFE1FF8D3FE1FC07A100093
:103F5000F4D3FE1F8003FF1FFCD3FE1F10B512F029
:103F60001FF8002411E00021114A02EBC402116085
:103F7000516000200F4941F824000F4941F8240006
:103F80000E4941F82400601CC4B2082CEBDB002071
:103F90000B49488000210A488180002009490870A7
:103FA0000948007840F001000749087010BD000082
:103FB0008003FF1FE003FF1FC003FF1F0004FF1F5C
:103FC00088CEFE1FC0CEFE1FC2CEFE1F2DE9F043DD
:103FD000ADF2044D00240025002600274FF4806137
:103FE00001A8FCF785FD5B208DF804008DF8050025
:103FF00009208DF8060000208DF807008DF80800D4
:104000008DF809008DF80A000FF0F8FF0AF0E0FCC7
:1040100000BFD4E0FE4800EBC400D0E9001000234C
:1040200059405840014364D0FA4800788DF80800A0
:10403000F8480078401CF74908700120A040C0B241
:104040008DF80A00A0208DF80B00002022E000EB84
:104050004001F14A02EBC102D2E90212EC4B03EB40
:10406000C403D3E900C301EA0C011A404FF0000C6D
:1040700081EA0C0182EA0C02114309D0691C8DB25D
:1040800000EB4001E44A12F83120E91D01AB5A541B
:10409000411CC8B22328DAD305F1080086B2F0B279
:1040A0008DF80600300A8DF80700A81D81B20DF1C9
:1040B000060004F029F8074605F1080001AA175484
:1040C000390A401C1154A521401C1154401C1154A4
:1040D000301D82B201A900201AF030F8301D81B2E3
:1040E00001A805F05BFB0120CC49087000251FF0FA
:1040F00097F90025CA4850F8240000285DD0C5482B
:1041000000788DF80800C3480078401CC149087049
:104110000120A040C0B28DF80A0083208DF80B006A
:1041200000201BE000EB4001BE4A02EBC102D2E9D5
:104130000212BB4B53F82430194000225140524028
:10414000114309D0691C8DB200EB4001B54A12F849
:104150003120E91D01AB5A54411CC8B20C28E1D3EF
:1041600005F1080086B2F0B28DF80600300A8DF82D
:104170000700A81D81B20DF1060003F0C5FF074638
:1041800005F1080001AA1754390A401C1154A52151
:10419000401C1154401C1154301D82B201A9002052
:1041A00019F0CCFF301D81B201A805F0F7FA01200B
:1041B0009A49087000251FF033F9601CC4B29A4870
:1041C00000788442FFF626AF45F65B3097490880B9
:1041D000092048800020087148710F208871A120B3
:1041E000C87100200872A1F809004AF2A550A1F890
:1041F0000B008F48B0F80280B0F80490B8F1000FBF
:1042000002D0084680798871B9F1000F03D0874841
:104210008079864988718648007803287ED004DC3E
:10422000012807D002287AD160E00B2803D0162895
:10423000F9D15CE000BF002455E07E4800EB84002B
:10424000408800EA080010B3002203217A48007871
:1042500013F0A0FB774810F82400744908726D48E9
:10426000007808716B480078401C6A490870072183
:104270006E48801C03F048FF6C49A1F809000D222C
:10428000002019F05BFF0D21684805F087FA6948A6
:1042900000EB8400408800EA090010B300220321EB
:1042A0006548007813F076FB624810F824005F49F7
:1042B000087258480078087156480078401C5549E3
:1042C000087007215948801C03F01EFF5749A1F8C8
:1042D00009000D22002019F031FF0D21534805F08F
:1042E0005DFA601CC4B2082CA7DBD0E000BF00243C
:1042F00058E0524800EB8400408800EA080028B3E8
:10430000002203214C48007813F044FB4B4810F87E
:104310002400464908723F48007801E045E0B5E0D6
:1043200008713C480078401C3A49087007213F4812
:10433000801C03F0E9FE3D49A1F809000D22002090
:1043400019F0FCFE0D21394805F028FA3B4800EB36
:104350008400408800EA090010B300220321364897
:10436000007813F017FB354810F824002F49087225
:1043700028480078087127480078401C25490870B3
:1043800007212A48801C03F0BFFE2849A1F8090034
:104390000D22002019F0D2FE0D21244805F0FEF96F
:1043A000601CC4B20B2CA4DB71E0002428E024487C
:1043B00000EB84004088234909780840F0B10022CE
:1043C00003211D48007813F0E5FA1D4810F8240079
:1043D000164908720F48007808710E480078401C92
:1043E0000C49087007211148801C03F08DFE0F490D
:1043F000A1F809000D210D4805F0D0F9601CC4B2E8
:10440000082CD4DB1048007800F00100E8BB1DE068
:104410008003FF1F5ED3FE1F08D9FE1F18D4FE1FA6
:10442000C003FF1F28D4FE1FF8CDFE1F6C03FF1F23
:1044300088CEFE1F64D3FE1FF5CDFE1F88D3FE1F5E
:10444000B4D3FE1FC0CEFE1FC2CEFE1F002203212A
:104450001148007813F09EFA104890F82000104997
:1044600008721048007808710E480078401C0D4909
:10447000087007210A48801C03F046FE0849A1F88D
:1044800009000D21064805F089F900E000BF00BFD2
:104490000DF2044DBDE8F083F5CDFE1FB4D3FE1F31
:1044A0006C03FF1F5ED3FE1F10B511F0F7FC01F087
:1044B0008FFA10BDB5E14FF0FF31DA48006821F006
:1044C0005FFA00287ED145F65B30D7490880092085
:1044D00048800020087148718871A120C8710020AF
:1044E0000872A1F809004AF2A550A1F80B00CF48C4
:1044F000408DCE49498800EA0105CC48808DCB49E2
:10450000898800EA0106CA480078CA49097800EAA1
:1045100001071DB1C4488079C34988711EB1C248E2
:104520008079C1498871C1480078032873D004DCC0
:10453000012808D002286FD184E00B2802D0162869
:10454000F9D17EE000BF002455E0BB4800EB8400B9
:104550004088284010B300220321B848007813F0A7
:1045600019FAB54810F82400AF490872B448007829
:104570000871B3480078401CB14908700721AA4867
:10458000801C03F0C1FDA849A1F809000D220020FC
:1045900019F0D4FD0D21A44805F000F9A64800EB60
:1045A00084004088304020B300220321A3480078D3
:1045B00013F0F0F9A04810F824009B490872A048B5
:1045C000007800E027E108719D480078401C9C4974
:1045D000087007219448801C03F096FD9249A1F8C9
:1045E00009000D22002019F0A9FD0D218E4805F0CB
:1045F000D5F8601CC4B2082CA7DB05F0080006F053
:1046000008010843E0B1002201218C48007813F032
:10461000C1F9002010E08FE0FBE08A4901EBC00106
:10462000D1E900214FF400731A43864B03EBC0031A
:10463000C3E90021411CC8B2834909788842ECDBF8
:10464000E8E000BF002453E0804800EB840040888D
:10465000284010B3002203217848007813F09AF91B
:104660007A4810F82400704908727548007808717B
:1046700073480078401C7249087007216A48801C02
:1046800003F042FD6849A1F809000D22002019F04D
:1046900055FD0D21644805F081F86C4800EB84005D
:1046A0004088304010B3002203216448007813F0A2
:1046B00071F9664810F824005B4908726048007878
:1046C00008715F480078401C5D4908700721564812
:1046D000801C03F019FD5449A1F809000D220020A7
:1046E00019F02CFD0D21504805F058F8601CC4B29B
:1046F0000B2CA9DB05F4804006F480410843D0B1BF
:10470000002201214D48007813F044F900200EE00A
:104710004C4901EBC001D1E900214FF400731A4369
:10472000484B03EBC003C3E90021411CC8B2464912
:1047300009788842ECDB6DE04548007800F0100015
:1047400088B300242CE0434800EB840040883840C4
:10475000F0B1002203213948007813F01BF93D48DD
:1047600010F8240030490872354800780871344840
:104770000078401C3249087007212B48801C03F048
:10478000C3FC2949A1F809000D21274805F006F8C6
:104790002F48007820F010002D490870601CC4B22A
:1047A000082CD0DB34E0FFE72948007800F0010056
:1047B00070B32948007800F0010018BB2748007842
:1047C00000F00100F0B1002203211C48007813F032
:1047D000E1F8204890F82000134908721848007842
:1047E000087117480078401C1549087007210E48C9
:1047F000801C03F089FC0C49A1F809000D210A482E
:1048000004F0CCFF1248007820F001001049087035
:1048100000E000BF00BF12A01DF00AFF012020F041
:104820006DF948E648CEFE1F6C03FF1F88CEFE1FC1
:10483000C0CEFE1FC1CEFE1F64D3FE1FF5CDFE1FEE
:104840005ED3FE1F8003FF1FECCDFE1F88D3FE1F2B
:1048500084CEFE1FB4D3FE1FC2CEFE1FC3CEFE1FEA
:1048600061636463207461736B2069732072756E79
:104870006E696E672100000001202E49087058E023
:104880000BF0FEF92C48007800284FD12B48007817
:1048900000284BD12A488078082828D12848C07899
:1048A0002A2824D1012247F6FF3126481FF084FB35
:1048B0005520254908709FED250A254880ED000AFE
:1048C00090ED000A23480068FDF724F81D480078A1
:1048D00060BB18480078012828D11F4800780428B8
:1048E00002D1FEF793FF21E0FEF746FA1EE01448DE
:1048F000807808281AD11248C078292816D10D4886
:104900000078012812D100200A49087055200E496C
:1049100008709FED0E0A0E4880ED000A90ED000A27
:104920000C480068FCF7F6FF19F082FD642020F0C7
:10493000E5F8A5E7FCD3FE1F08D4FE1F01CEFE1F3D
:10494000B0D1FE1FC83CFF1FD8D3FE1F6666E640ED
:104950000CD4FE1F1CD2FE1FECCDFE1FADF5015D79
:104960000026C0E1E048007810B10020DE49087060
:10497000DE480078552814D1DD4890ED000AF2EEAB
:10498000000AB4EE600AF1EE10FA61D0B2EE000A4D
:1049900080ED000A90ED000AD6480068FCF7BAFFE7
:1049A00056E0D5488078082818D1D348C0782A28FE
:1049B00014D1CF4890ED000AF2EE000AB4EE600A7E
:1049C000F1EE10FA44D0B2EE000A80ED000A90ED4C
:1049D000000AC8480068FCF79DFF39E0002532E076
:1049E00005EB0511C54800EB011090ED3D0AC048EC
:1049F000D0ED000AB4EE600AF1EE10FA22D005EB19
:104A00000511BE4800EB011090ED3D0AB84880ED5D
:104A1000000A00200AE0B64991ED000A00EB0012FE
:104A2000B64901EB021181ED3D0A401CB4490978F9
:104A30008842F0DBAE4890ED000AAE480068FCF713
:104A400069FF04E06D1CAE4800788542C8DB00BFFA
:104A500040F219164FF4005110A8FCF749F8002451
:104A600000256DE005EB850202EB8512A54BD11800
:104A700010AA10194522FCF722F8453405EB8502EF
:104A800002EB8513A04A991810AA10194522FCF7C9
:104A900016F8453405EB850202EB85129B4BD118C5
:104AA00010AA10194522FCF70AF8453405EB450217
:104AB000C2EB8512964BD11810AA10193D22FBF7B4
:104AC000FEFF3D3410A8011905EB4502914800EBAB
:104AD000820002680A6042684A60806888600C341C
:104AE00010A88D49495D0155641C05EB45018948B5
:104AF00010F8210002281BD005EB4501854810F86D
:104B00002100062814D005EB4501824810F8210049
:104B100004280DD005EB45017E4810F8210005283A
:104B200006D005EB45017B4810F82100012803D190
:104B300001207A49485502E00021784841556D1C12
:104B40006F48007885428DDB01210F9100230122FF
:104B50000FA9500311F0A6F805201FF0CFFF002584
:104B600017E06E48405D01280FD100206B49485581
:104B7000B2B210AB06FB053106FB05F0002311F0C5
:104B800091F8FA201FF0BAFF02E0FA201FF0B6FFFA
:104B90006D1C5B4800788542E3DB4FF4805110A820
:104BA000FBF7A6FF002400256DE005EB850202EB74
:104BB0008512544BD11810AA10194522FBF77FFF1C
:104BC000453405EB850202EB85134F4A991810AA6C
:104BD00010194522FBF773FF453405EB850202EB04
:104BE00085124A4BD11810AA10194522FBF767FF0E
:104BF000453405EB4502C2EB8512454BD11810AA8E
:104C000010193D22FBF75BFF3D3410A8011905EB9D
:104C10004502404800EB820002680A6042684A6030
:104C2000806888600C3410A83B49495D0155641CBC
:104C300005EB4501374810F8210002281BD005EB91
:104C40004501344810F82100062814D005EB450131
:104C5000304810F8210004280DD005EB45012D48FF
:104C600010F82100052806D005EB4501294810F869
:104C70002100012803D101202849485502E00020E5
:104C8000264948556D1C1E48007885428DDB02215F
:104C90000F91002301220FA9500311F003F8052002
:104CA0001FF02CFF002519E01C48405D012811D1A0
:104CB00000201A494855B2B210AB06FB053106FB7D
:104CC00005F303F58050002310F0ECFFFA201FF0ED
:104CD00015FF02E0FA201FF011FF6D1C0848007854
:104CE0008542E1DB00BF3DE608D4FE1FD8D3FE1F9E
:104CF0000CD4FE1F1CD2FE1FB0D1FE1F981FFF1F39
:104D0000ECCDFE1F282FFF1FD82AFF1F002DFF1FED
:104D10005031FF1F5833FF1F57D5FE1F22D1FE1FF2
:104D200000242DE017480078022818D01648007893
:104D3000012803D10020144908700024052C08DA4A
:104D40001248007828B9204610F00AFC601CC4B252
:104D500002E0052410F05EFC10F0E2FA0DE064239E
:104D60004FF47A720021084610F0D4FE64234FF409
:104D7000FA721146012010F0CDFE64201FF0BEFE35
:104D8000D0E7000058D6FE1F8FD5FE1F19D4FE1F96
:104D9000ADF5806D00254FF480616846FBF7A8FEF5
:104DA0005B208DF800008DF8010009208DF80200CD
:104DB00000208DF803008DF804008DF805008DF8B3
:104DC00006006EE14FF0FF31B648006820F0D8FDD4
:104DD0000028F6D1B4480078012804D1FFF7F6F88E
:104DE0000020B1490870B148007800287DD1002426
:104DF000FDE0AF4800EBC400D0E9001000225140B4
:104E0000504001437BD0AA4800EBC40103C9A94A22
:104E100052F824205040084371D00022012120463E
:104E200012F018FDA24850F83400A24941F82400BD
:104E3000A14800788DF804009F480078401C9E49E6
:104E400008700120A040C0B28DF80600A0208DF8A7
:104E50000700002022E000EB4001984A02EBC1016C
:104E6000D1E90221924B03EBC403D3E900C302EA68
:104E70000C0219404FF0000C82EA0C0281EA0C018E
:104E80000A4309D0691C8DB200EB40018B4A12F82D
:104E90003120E91D0DF80120411CC8B22328DAD3C6
:104EA00005F1080086B2F0B28DF80200300A8DF8E4
:104EB0000300A81D81B20DF1020003F025F9074699
:104EC000F9B205F108000DF80010390A401C0DF880
:104ED0000010A521401C0DF80010401C0DF800101A
:104EE000301D82B26946002001E086E007E019F03B
:104EF00025F9301D81B2684604F050FC00250025DC
:104F00006F4850F8240000286FD06D4850F82400F6
:104F10006C4951F82410884267D00022114620467F
:104F200012F098FC664850F82400664941F82400C5
:104F3000614800788DF804005F480078401C5E49A5
:104F400008700120A040C0B28DF8060083208DF8C3
:104F5000070000201BE000EB40015B4A02EBC102AE
:104F6000D2E90212564B53F8243019400022514026
:104F70005240114309D0691C8DB200EB4001524AE6
:104F800012F83120E91D0DF80120411CC8B20C288F
:104F9000E1D305F1080086B2F0B28DF80200300AC4
:104FA0008DF80300A81D81B20DF1020003F0ACF8EA
:104FB0000746F9B205F108000DF80010390A401C47
:104FC0000DF80010A521401C0DF80010401C0DF834
:104FD0000010301D82B26946002019F0AFF8301D74
:104FE00081B2684604F0DAFB0025601CC4B2374881
:104FF00000788442FFF6FDAE40E000202B490870A7
:10500000002437E02A4800EBC400D0E90010002358
:1050100059405840014314D0254800EBC40105C94C
:10502000244951F82410484010430AD0002201219D
:10503000204612F00FFC1E4850F834001D4941F87C
:1050400024001F4850F8240090B11D4850F8240057
:105050001C4951F8241088420AD0002211462046EB
:1050600012F0F8FB164850F82400164941F82400C5
:10507000601CC4B2154800788442C3DB4A20002873
:105080000DDB00BF00BF00F01F020121914042096B
:10509000920002F1E022C2F8001100BF00BF00BF81
:1050A00000BF8FE64CCEFE1F8CD5FE1F18D4FE1F0E
:1050B0008003FF1FE003FF1F5ED3FE1F08D9FE1F02
:1050C000C003FF1F0004FF1F28D4FE1FF8CDFE1FE2
:1050D0001CB500200190012247F6F27101A81EF0D4
:1050E0006BFF9DF8040001280BD1042247F6F371F1
:1050F000EE481EF061FF022247F6F771EC481EF001
:105100005BFF0AF0BDFDEB488078082807D1E9482D
:10511000C0782A2807D0E748C078292803D0E64875
:105120000078662803D00120E449087002E00020DE
:10513000E2490870FE21012012F0C8FDE049087024
:10514000E048007848B108F045FD32201EF068F9CB
:105150000EF0FEFE0020DB4908700320DA49C8701B
:1051600000200090002301226946500310F01AFD30
:1051700000230822D54942F2100010F013FD9DF8DB
:105180000000012861D10503002459E0CF48005DEB
:10519000012854D104EB840000EB8410CC4A811820
:1051A00000234522284610F0FDFC453504EB840021
:1051B00000EB8412C748111800234522284610F03E
:1051C000F1FC453504EB840000EB8410C24A8118E1
:1051D00000234522284610F0E5FC453504EB440049
:1051E000C0EB8410BD4A811800233D22284610F0F0
:1051F000D9FC3D3504EB4402B94800EB82010023A1
:105200000C22284610F0CEFC0C35B64801190023BC
:105210000122284610F0C6FC6D1C04EB4401B04886
:1052200010F82100062804D10120AF490855AF49E4
:105230000855012104EB4402A94800F82210641C1F
:10524000AB4800788442A1DB65E09DF800000228AD
:1052500061D10025002459E09C48005D012854D10B
:1052600004EB840000EB8410994A81180023452246
:10527000284610F097FC453504EB840000EB8412BF
:105280009448111800234522284610F08BFC453520
:1052900004EB840000EB84108F4A81180023452220
:1052A000284610F07FFC453504EB4400C0EB841029
:1052B0008A4A811800233D22284610F073FC3D35B0
:1052C00004EB4402864800EB820100230C222846AE
:1052D00010F068FC0C358348011900230122284690
:1052E00010F060FC6D1C04EB44017D4810F82100B7
:1052F000062804D101207C4908557C490855012124
:1053000004EB4402764800F82210641C78480078C8
:105310008442A1DB00BF07F0C1F84FF4FA701FF020
:10532000EDFB012073490870734A002120F06AFBED
:1053300072490860724A0021012020F063FB714924
:105340000860714A0021012020F05CFB6F49086071
:105350006F4A102108461FF0B9FC6E4908609FEDA6
:105360006E0A6E480068FCF7D5FA04F0E3FC554875
:10537000007810B9012017F0EFF901206849087092
:1053800093E04C488078082807D14A48C0782A28FA
:1053900007D04848C078292803D0474800786628B5
:1053A00003D001204549087002E0002043490870FD
:1053B0005C4890ED000ADFED5C0A60EE200A5B4875
:1053C000006800EE100AB8EE400AF4EEC00AF1EEF2
:1053D00010FA2CD256480078012828D15548007878
:1053E00028BB55A01DF024F9012050490860002475
:1053F00003E001201FF082FB641C3D4800788442DA
:10540000F7DB00200FE05249095C012903D102219A
:105410004F4A115406E04E49095C022902D103218A
:105420004B4A1154401C324909788842EBDB494809
:10543000007801282DD148480068B0F5FA5F31D9CD
:1054400000204549086002204249087000241BE002
:1054500004EB4401224810F82100A0B104EB440100
:105460001F4810F8210003280DD001203B490855A2
:105470001FF044FBE0B200F013FC012104EB4402F6
:10548000174800F82210641C194800788442DFDBBA
:1054900008E03048007828B901202E490870002023
:1054A0002D49086001201FF029FB6AE73ED0FE1F4E
:1054B00042D0FE1FB0D1FE1FD8D3FE1F19D4FE1F4D
:1054C0005ED3FE1F02CEFE1F68D5FE1F10D4FE1F46
:1054D000282FFF1FD82AFF1F002DFF1F5031FF1F4D
:1054E0005833FF1F57D5FE1FEAD5FE1FF9CDFE1F0B
:1054F000F8CDFE1F0CCEFE1FCC6D040044CEFE1F67
:10550000EC6D040048CEFE1FFC6D04004CCEFE1F67
:105510002C6E040058CEFE1F3333A3401CD2FE1F56
:1055200064CEFE1F88D5FE1F00007A4404CEFE1F05
:105530003DD0FE1F50D5FE1F5374617274207461FC
:10554000736B2069732072756E6E696E672100003F
:105550005FD5FE1F6CD5FE1F08CEFE1F6FD5FE1F48
:105560000025AAE01BF01CFC1AF032FF01F0F2FC4F
:10557000002482E0610051480088084100F00300E7
:10558000012830D16100032088404C490988084334
:105590004A4908804A480078042801D1032C0BDDD1
:1055A00047480078022801D1012C05DD44480078E5
:1055B00001280AD1002C08DC42480078012804D0D8
:1055C000E0B2012106F096F804E00121A140C8B242
:1055D00004F02AF961000320884038490988814392
:1055E0003648018045E0610034480088084100F0F9
:1055F000030002283DD16100032088402F4909881B
:1056000008432E4908802E480078042801D1032C35
:105610000BDD2B480078022801D1012C05DD28483C
:10562000007801280AD1002C08DC264800780128DF
:1056300004D0E0B2022106F05DF812E0224BD3F86C
:10564000063000EE903A204BD3F8023000EE103ACC
:105650001E4B1A5D1C4B59780123A340D8B204F0AD
:1056600051F9610003208840144909888143134897
:105670000180E0B21BF08CFF641C15480078844266
:10568000FFF678AF6D1C9620B5FBF0F100FB1150D2
:1056900080B91048007814F0A5FA0E480078401C34
:1056A0000C49087008460078082801DD01200870C0
:1056B00008F0A0F901201FF021FA53E780D5FE1F62
:1056C000ECCDFE1F8DD5FE1F1839FF1FF6CFFE1F34
:1056D000F8CDFE1F34D1FE1F70B52DED088B0446AA
:1056E0000E46002594ED000A10EE101A0846FBF74E
:1056F00039FB41EC1A0BB0EE4A0AF0EE6A0A1DF0D3
:10570000E1F8B0EE409AF0EE609A51EC190BFBF71D
:105710006DFB08EE100A00BF3EE018EE100AFBF722
:1057200021FB41EC190B04EB850090ED000A10EE13
:10573000101A0846FBF716FB41EC1B0BB0EE4B0AA8
:10574000F0EE6B0A1DF0BEF8B0EE40AAF0EE60AAD3
:1057500053EC192B51EC1A0BFBF730FB1AD204EB6C
:10576000850090ED000A10EE101A0846FBF7FAFAD1
:1057700041EC1A0BB0EE4A0AF0EE6A0A1DF0A2F8EC
:10578000B0EE409AF0EE609A51EC190BFBF72EFB4D
:1057900008EE100A681CC5B2B542BEDBB0EE480A7E
:1057A000BDEC088B70BD00002DE9F04F2DED048B92
:1057B00085B0804689469246F0EE408AB0EE608A17
:1057C0004446082C06DB4FF0FF3005B0BDEC048BDF
:1057D000BDE8F08F7648005D4FEA101B7448005D0D
:1057E00000F00F000490082090FBFBF0C6B2049874
:1057F000401E10FB06F0C5B200270020009001906B
:10580000029003906B48005D6B490855012069497F
:1058100008556948005D095D884206D00120674946
:1058200008550020664941F8240000EE106AB8EEE1
:10583000400AB4EEC08AF1EE10FA01DD374600E00E
:105840000127002412E034B929195E4A505C062170
:1058500004F0D4F905E029195A4A505C052104F0F6
:10586000CDF90A201FF04AF9601CC4B2B442EADB49
:1058700000241FE0B9F1000F09D128195249085C32
:1058800028B129194F4A505C022104F0B7F9B9F147
:10589000010F0AD128194C49085C012805D02919A3
:1058A000484A505C012104F0A9F90A201FF026F9AA
:1058B000601CC4B2B442DDDB00241FE0BAF1000F6B
:1058C00009D128194149085C28B129193D4A505C81
:1058D0000A2104F093F9BAF1010F0AD128193B49C2
:1058E000085C012805D02919364A505C092104F0CA
:1058F00085F90A201FF002F9601CC4B2B442DDDB56
:10590000002422E005EB040CEE460EEB4C0305EB05
:10591000040CDFF8B8E01EF80C2005EB040CDFF8EF
:10592000A8E01EF80C1005EB040C0CF0FF00B0EE24
:10593000680A18F025FA2A193DF812102A19D0B26F
:10594000002204F0CDFC601CC4B2B442DADB0024B7
:105950000AE029191B4A505C072104F04FF90A207C
:105960001FF0CCF8601CC4B2BC42F2DB00240AE099
:105970002919144A505C042104F040F90A201FF050
:10598000BDF8601CC4B2BC42F2DB444600EE107AA3
:10599000B8EE400AC8EE000AB0EE609AB0EE490ACE
:1059A000204604F069FA01201FF0A8F800200CE757
:1059B000EDCDFE1FB1D5FE1FB9D5FE1FC1D5FE1F0F
:1059C000083CFF1FFECFFE1FEECFFE1FF6CFFE1FCF
:1059D00010B5002400BF27E004EB4402154B1A4425
:1059E000B2F8011004EB4402985C08F047FA012871
:1059F00015D1012110480155104800EBC400D0E931
:105A000000104FF0807211430C4A02EBC402C2E94D
:105A100000100121A140C8B203F006FF02E00021FE
:105A200005480155601CC4B2054800788442D3DBA8
:105A300010BD0000B5D1FE1FE6E1FE1F8003FF1F71
:105A4000F8CDFE1F2DE9F04F2DED048B85B080467B
:105A500089469246F0EE408AB0EE608A4446082CB1
:105A600006DB4FF0FF3005B0BDEC048BBDE8F08FD6
:105A700082480078042808D14021012008F064FB06
:105A80008021012008F060FB0AE07C4800780128B2
:105A900006D1402108F03CFA8021012008F038FAB4
:105AA0007748005D4FEA101B7548005D00F00F005D
:105AB0000490082090FBFBF0C6B20498401E10FB37
:105AC00006F0C5B2002700200090019002900390DC
:105AD0006C48005D6C49085501206A4908556A48C0
